{
  "address": "0x25226b41381e09AE05Ee6e4987D9E3319c370DaA",
  "abi": [
    {
      "inputs": [
        {
          "internalType": "string",
          "name": "_name",
          "type": "string"
        },
        {
          "internalType": "address",
          "name": "_vault",
          "type": "address"
        },
        {
          "internalType": "address[]",
          "name": "_pools",
          "type": "address[]"
        },
        {
          "internalType": "uint256",
          "name": "_swapGasEstimate",
          "type": "uint256"
        }
      ],
      "stateMutability": "nonpayable",
      "type": "constructor"
    },
    {
      "anonymous": false,
      "inputs": [
        {
          "indexed": true,
          "internalType": "address",
          "name": "_asset",
          "type": "address"
        },
        {
          "indexed": false,
          "internalType": "uint256",
          "name": "amount",
          "type": "uint256"
        }
      ],
      "name": "Recovered",
      "type": "event"
    },
    {
      "anonymous": false,
      "inputs": [
        {
          "indexed": true,
          "internalType": "bytes32",
          "name": "role",
          "type": "bytes32"
        },
        {
          "indexed": true,
          "internalType": "bytes32",
          "name": "previousAdminRole",
          "type": "bytes32"
        },
        {
          "indexed": true,
          "internalType": "bytes32",
          "name": "newAdminRole",
          "type": "bytes32"
        }
      ],
      "name": "RoleAdminChanged",
      "type": "event"
    },
    {
      "anonymous": false,
      "inputs": [
        {
          "indexed": true,
          "internalType": "bytes32",
          "name": "role",
          "type": "bytes32"
        },
        {
          "indexed": true,
          "internalType": "address",
          "name": "account",
          "type": "address"
        },
        {
          "indexed": true,
          "internalType": "address",
          "name": "sender",
          "type": "address"
        }
      ],
      "name": "RoleGranted",
      "type": "event"
    },
    {
      "anonymous": false,
      "inputs": [
        {
          "indexed": true,
          "internalType": "bytes32",
          "name": "role",
          "type": "bytes32"
        },
        {
          "indexed": true,
          "internalType": "address",
          "name": "account",
          "type": "address"
        },
        {
          "indexed": true,
          "internalType": "address",
          "name": "sender",
          "type": "address"
        }
      ],
      "name": "RoleRevoked",
      "type": "event"
    },
    {
      "anonymous": false,
      "inputs": [
        {
          "indexed": true,
          "internalType": "address",
          "name": "_tokenFrom",
          "type": "address"
        },
        {
          "indexed": true,
          "internalType": "address",
          "name": "_tokenTo",
          "type": "address"
        },
        {
          "indexed": false,
          "internalType": "uint256",
          "name": "_amountIn",
          "type": "uint256"
        },
        {
          "indexed": false,
          "internalType": "uint256",
          "name": "_amountOut",
          "type": "uint256"
        }
      ],
      "name": "SummitAdapterSwap",
      "type": "event"
    },
    {
      "anonymous": false,
      "inputs": [
        {
          "indexed": true,
          "internalType": "address",
          "name": "_adapter",
          "type": "address"
        },
        {
          "indexed": false,
          "internalType": "uint256",
          "name": "_newEstimate",
          "type": "uint256"
        }
      ],
      "name": "UpdatedGasEstimate",
      "type": "event"
    },
    {
      "inputs": [],
      "name": "DEFAULT_ADMIN_ROLE",
      "outputs": [
        {
          "internalType": "bytes32",
          "name": "",
          "type": "bytes32"
        }
      ],
      "stateMutability": "view",
      "type": "function"
    },
    {
      "inputs": [],
      "name": "MAINTAINER_ROLE",
      "outputs": [
        {
          "internalType": "bytes32",
          "name": "",
          "type": "bytes32"
        }
      ],
      "stateMutability": "view",
      "type": "function"
    },
    {
      "inputs": [
        {
          "internalType": "address",
          "name": "addedMaintainer",
          "type": "address"
        }
      ],
      "name": "addMaintainer",
      "outputs": [],
      "stateMutability": "nonpayable",
      "type": "function"
    },
    {
      "inputs": [
        {
          "internalType": "address[]",
          "name": "_pools",
          "type": "address[]"
        }
      ],
      "name": "addPools",
      "outputs": [],
      "stateMutability": "nonpayable",
      "type": "function"
    },
    {
      "inputs": [
        {
          "internalType": "address",
          "name": "tokenIn",
          "type": "address"
        },
        {
          "internalType": "address",
          "name": "tokenOut",
          "type": "address"
        }
      ],
      "name": "getPools",
      "outputs": [
        {
          "internalType": "address[]",
          "name": "",
          "type": "address[]"
        }
      ],
      "stateMutability": "view",
      "type": "function"
    },
    {
      "inputs": [
        {
          "internalType": "bytes32",
          "name": "role",
          "type": "bytes32"
        }
      ],
      "name": "getRoleAdmin",
      "outputs": [
        {
          "internalType": "bytes32",
          "name": "",
          "type": "bytes32"
        }
      ],
      "stateMutability": "view",
      "type": "function"
    },
    {
      "inputs": [
        {
          "internalType": "bytes32",
          "name": "role",
          "type": "bytes32"
        },
        {
          "internalType": "address",
          "name": "account",
          "type": "address"
        }
      ],
      "name": "grantRole",
      "outputs": [],
      "stateMutability": "nonpayable",
      "type": "function"
    },
    {
      "inputs": [
        {
          "internalType": "bytes32",
          "name": "role",
          "type": "bytes32"
        },
        {
          "internalType": "address",
          "name": "account",
          "type": "address"
        }
      ],
      "name": "hasRole",
      "outputs": [
        {
          "internalType": "bool",
          "name": "",
          "type": "bool"
        }
      ],
      "stateMutability": "view",
      "type": "function"
    },
    {
      "inputs": [],
      "name": "name",
      "outputs": [
        {
          "internalType": "string",
          "name": "",
          "type": "string"
        }
      ],
      "stateMutability": "view",
      "type": "function"
    },
    {
      "inputs": [
        {
          "internalType": "uint256",
          "name": "_amountIn",
          "type": "uint256"
        },
        {
          "internalType": "address",
          "name": "_tokenIn",
          "type": "address"
        },
        {
          "internalType": "address",
          "name": "_tokenOut",
          "type": "address"
        }
      ],
      "name": "query",
      "outputs": [
        {
          "internalType": "uint256",
          "name": "",
          "type": "uint256"
        }
      ],
      "stateMutability": "view",
      "type": "function"
    },
    {
      "inputs": [
        {
          "internalType": "uint256",
          "name": "_amount",
          "type": "uint256"
        }
      ],
      "name": "recoverAVAX",
      "outputs": [],
      "stateMutability": "nonpayable",
      "type": "function"
    },
    {
      "inputs": [
        {
          "internalType": "address",
          "name": "_tokenAddress",
          "type": "address"
        },
        {
          "internalType": "uint256",
          "name": "_tokenAmount",
          "type": "uint256"
        }
      ],
      "name": "recoverERC20",
      "outputs": [],
      "stateMutability": "nonpayable",
      "type": "function"
    },
    {
      "inputs": [
        {
          "internalType": "address",
          "name": "removedMaintainer",
          "type": "address"
        }
      ],
      "name": "removeMaintainer",
      "outputs": [],
      "stateMutability": "nonpayable",
      "type": "function"
    },
    {
      "inputs": [
        {
          "internalType": "address[]",
          "name": "_pools",
          "type": "address[]"
        }
      ],
      "name": "removePools",
      "outputs": [],
      "stateMutability": "nonpayable",
      "type": "function"
    },
    {
      "inputs": [
        {
          "internalType": "bytes32",
          "name": "role",
          "type": "bytes32"
        },
        {
          "internalType": "address",
          "name": "account",
          "type": "address"
        }
      ],
      "name": "renounceRole",
      "outputs": [],
      "stateMutability": "nonpayable",
      "type": "function"
    },
    {
      "inputs": [
        {
          "internalType": "bytes32",
          "name": "role",
          "type": "bytes32"
        }
      ],
      "name": "renounceRole",
      "outputs": [],
      "stateMutability": "nonpayable",
      "type": "function"
    },
    {
      "inputs": [
        {
          "internalType": "address",
          "name": "_token",
          "type": "address"
        },
        {
          "internalType": "address",
          "name": "_spender",
          "type": "address"
        }
      ],
      "name": "revokeAllowance",
      "outputs": [],
      "stateMutability": "nonpayable",
      "type": "function"
    },
    {
      "inputs": [
        {
          "internalType": "bytes32",
          "name": "role",
          "type": "bytes32"
        },
        {
          "internalType": "address",
          "name": "account",
          "type": "address"
        }
      ],
      "name": "revokeRole",
      "outputs": [],
      "stateMutability": "nonpayable",
      "type": "function"
    },
    {
      "inputs": [
        {
          "internalType": "uint256",
          "name": "_estimate",
          "type": "uint256"
        }
      ],
      "name": "setSwapGasEstimate",
      "outputs": [],
      "stateMutability": "nonpayable",
      "type": "function"
    },
    {
      "inputs": [
        {
          "internalType": "bytes4",
          "name": "interfaceId",
          "type": "bytes4"
        }
      ],
      "name": "supportsInterface",
      "outputs": [
        {
          "internalType": "bool",
          "name": "",
          "type": "bool"
        }
      ],
      "stateMutability": "view",
      "type": "function"
    },
    {
      "inputs": [
        {
          "internalType": "uint256",
          "name": "_amountIn",
          "type": "uint256"
        },
        {
          "internalType": "uint256",
          "name": "_amountOut",
          "type": "uint256"
        },
        {
          "internalType": "address",
          "name": "_fromToken",
          "type": "address"
        },
        {
          "internalType": "address",
          "name": "_toToken",
          "type": "address"
        },
        {
          "internalType": "address",
          "name": "_to",
          "type": "address"
        }
      ],
      "name": "swap",
      "outputs": [],
      "stateMutability": "nonpayable",
      "type": "function"
    },
    {
      "inputs": [],
      "name": "swapGasEstimate",
      "outputs": [
        {
          "internalType": "uint256",
          "name": "",
          "type": "uint256"
        }
      ],
      "stateMutability": "view",
      "type": "function"
    },
    {
      "inputs": [
        {
          "internalType": "address",
          "name": "newOwner",
          "type": "address"
        }
      ],
      "name": "transferOwnership",
      "outputs": [],
      "stateMutability": "nonpayable",
      "type": "function"
    },
    {
      "inputs": [],
      "name": "vault",
      "outputs": [
        {
          "internalType": "address",
          "name": "",
          "type": "address"
        }
      ],
      "stateMutability": "view",
      "type": "function"
    },
    {
      "stateMutability": "payable",
      "type": "receive"
    }
  ],
  "transactionHash": "0x9eac0f324df76e23d0cca01a19d74253fd378b8f316873648dd59149c8615880",
  "args": [
    "BeethovenxAdapter",
    "0x20dd72Ed959b6147912C2e529F0a0C651c33c9ce",
    [
      "0xcdF68a4d525Ba2E90Fe959c74330430A5a6b8226",
      "0x46E578B73a95e62423CE26056aa750bB9D99be32",
      "0x26Fa2e6E489b10669ACe976B5815508943D2a8E3"
    ],
    400000
  ],
  "solcInputHash": "99486d19f1b885204ed1294524aa11e6",
  "bytecode": "0x60806040523480156200001157600080fd5b5060405162003bdd38038062003bdd833981016040819052620000349162000c44565b83813362000044600082620000b9565b620000707f339759585899103d2ace64958e37e18ccb0504652c81d4a1b8aa80fe2126ab9582620000b9565b506200007c82620000c9565b620000878162000132565b5050600380546001600160a01b0319166001600160a01b038516179055620000af826200022e565b5050505062000e65565b620000c5828262000598565b5050565b80516200011d5760405162461bcd60e51b815260206004820152601460248201527f496e76616c69642061646170746572206e616d6500000000000000000000000060448201526064015b60405180910390fd5b8051620000c590600290602084019062000988565b33600081815260008051602062003b9d833981519152602052604090205460ff16620001a15760405162461bcd60e51b8152602060048201526028602482015260008051602062003bbd83398151915260448201526734b73a30b4b732b960c11b606482015260840162000114565b81620001f05760405162461bcd60e51b815260206004820152601460248201527f496e76616c6964206761732d657374696d617465000000000000000000000000604482015260640162000114565b600182905560405182815230907ff43f23b7a28e6f8ce6843a21bd7b48bce778aa913b8c8cf459edf7d770e8d38a9060200160405180910390a25050565b33600081815260008051602062003b9d833981519152602052604090205460ff166200029d5760405162461bcd60e51b8152602060048201526028602482015260008051602062003bbd83398151915260448201526734b73a30b4b732b960c11b606482015260840162000114565b60005b8251816001600160801b031610156200059357600083826001600160801b031681518110620002df57634e487b7160e01b600052603260045260246000fd5b602002602001015190506000816001600160a01b03166338fff2d06040518163ffffffff1660e01b815260040160206040518083038186803b1580156200032557600080fd5b505afa1580156200033a573d6000803e3d6000fd5b505050506040513d601f19601f8201168201806040525081019062000360919062000c2b565b600354604051631f29a8cd60e31b8152600481018390529192506000916001600160a01b039091169063f94d46689060240160006040518083038186803b158015620003ab57600080fd5b505afa158015620003c0573d6000803e3d6000fd5b505050506040513d6000823e601f3d908101601f19168201604052620003ea919081019062000b26565b5050905060005b8151816001600160801b031610156200057957600082826001600160801b0316815181106200043057634e487b7160e01b600052603260045260246000fd5b6020908102919091018101516001600160a01b038781166000908152600484526040808220928416825291909352822080546001600160801b0319166001600160801b03861617905591505b8351816001600160801b031610156200056157806001600160801b0316836001600160801b0316146200054c576001600160a01b0382166000908152600560205260408120855190919086906001600160801b038516908110620004f057634e487b7160e01b600052603260045260246000fd5b6020908102919091018101516001600160a01b039081168352828201939093526040909101600090812080546001810182559082529190200180546001600160a01b0319169188169190911790556200054c8260001962000638565b80620005588162000e02565b9150506200047c565b50508080620005709062000e02565b915050620003f1565b5050505080806200058a9062000e02565b915050620002a0565b505050565b6000828152602081815260408083206001600160a01b038516845290915290205460ff16620000c5576000828152602081815260408083206001600160a01b03851684529091529020805460ff19166001179055620005f43390565b6001600160a01b0316816001600160a01b0316837f2f8788117e7eff1d82e926ec794901d17c78024a50270940304540a733656f0d60405160405180910390a45050565b600354604051636eb1769f60e11b81523060048201526001600160a01b03918216602482015260009184169063dd62ed3e9060440160206040518083038186803b1580156200068657600080fd5b505afa1580156200069b573d6000803e3d6000fd5b505050506040513d601f19601f82011682018060405250810190620006c1919062000c2b565b905081811015620005935760035462000593906001600160a01b03858116911684620006f4602090811b6200160f17901c565b801580620007825750604051636eb1769f60e11b81523060048201526001600160a01b03838116602483015284169063dd62ed3e9060440160206040518083038186803b1580156200074557600080fd5b505afa1580156200075a573d6000803e3d6000fd5b505050506040513d601f19601f8201168201806040525081019062000780919062000c2b565b155b620007f65760405162461bcd60e51b815260206004820152603660248201527f5361666545524332303a20617070726f76652066726f6d206e6f6e2d7a65726f60448201527f20746f206e6f6e2d7a65726f20616c6c6f77616e636500000000000000000000606482015260840162000114565b604080516001600160a01b038416602482015260448082018490528251808303909101815260649091019091526020810180516001600160e01b0390811663095ea7b360e01b17909152620005939185916200084e16565b600080836001600160a01b0316836040516200086b919062000d1f565b6000604051808303816000865af19150503d8060008114620008aa576040519150601f19603f3d011682016040523d82523d6000602084013e620008af565b606091505b509150915081620009035760405162461bcd60e51b815260206004820181905260248201527f5361666545524332303a206c6f772d6c6576656c2063616c6c206661696c6564604482015260640162000114565b80511562000982578080602001905181019062000921919062000c02565b620009825760405162461bcd60e51b815260206004820152602a60248201527f5361666545524332303a204552433230206f7065726174696f6e20646964206e6044820152691bdd081cdd58d8d9595960b21b606482015260840162000114565b50505050565b828054620009969062000dc5565b90600052602060002090601f016020900481019282620009ba576000855562000a05565b82601f10620009d557805160ff191683800117855562000a05565b8280016001018555821562000a05579182015b8281111562000a05578251825591602001919060010190620009e8565b5062000a1392915062000a17565b5090565b5b8082111562000a13576000815560010162000a18565b805162000a3b8162000e4c565b919050565b600082601f83011262000a51578081fd5b8151602062000a6a62000a648362000d70565b62000d3d565b80838252828201915082860187848660051b890101111562000a8a578586fd5b855b8581101562000ab557815162000aa28162000e4c565b8452928401929084019060010162000a8c565b5090979650505050505050565b600082601f83011262000ad3578081fd5b8151602062000ae662000a648362000d70565b80838252828201915082860187848660051b890101111562000b06578586fd5b855b8581101562000ab55781518452928401929084019060010162000b08565b60008060006060848603121562000b3b578283fd5b83516001600160401b038082111562000b52578485fd5b818601915086601f83011262000b66578485fd5b8151602062000b7962000a648362000d70565b8083825282820191508286018b848660051b890101111562000b9957898afd5b8996505b8487101562000bc857805162000bb38162000e4c565b83526001969096019591830191830162000b9d565b509189015191975090935050508082111562000be2578384fd5b5062000bf18682870162000ac2565b925050604084015190509250925092565b60006020828403121562000c14578081fd5b8151801515811462000c24578182fd5b9392505050565b60006020828403121562000c3d578081fd5b5051919050565b6000806000806080858703121562000c5a578081fd5b84516001600160401b038082111562000c71578283fd5b818701915087601f83011262000c85578283fd5b81518181111562000c9a5762000c9a62000e36565b62000caf601f8201601f191660200162000d3d565b81815289602083860101111562000cc4578485fd5b62000cd782602083016020870162000d96565b965062000ce990506020880162000a2e565b9450604087015191508082111562000cff578283fd5b5062000d0e8782880162000a40565b606096909601519497939650505050565b6000825162000d3381846020870162000d96565b9190910192915050565b604051601f8201601f191681016001600160401b038111828210171562000d685762000d6862000e36565b604052919050565b60006001600160401b0382111562000d8c5762000d8c62000e36565b5060051b60200190565b60005b8381101562000db357818101518382015260200162000d99565b83811115620009825750506000910152565b600181811c9082168062000dda57607f821691505b6020821081141562000dfc57634e487b7160e01b600052602260045260246000fd5b50919050565b60006001600160801b038281168082141562000e2c57634e487b7160e01b83526011600452602483fd5b6001019392505050565b634e487b7160e01b600052604160045260246000fd5b6001600160a01b038116811462000e6257600080fd5b50565b612d288062000e756000396000f3fe60806040526004361061018f5760003560e01c80638980f11f116100d6578063d8baf7cf1161007f578063f2fde38b11610059578063f2fde38b1461048e578063f8742254146104ae578063fbfa77cf146104e257600080fd5b8063d8baf7cf1461042e578063eab90da61461044e578063ef99893a1461046e57600080fd5b8063a217fddf116100b0578063a217fddf146103d9578063b36a4ab1146103ee578063d547741f1461040e57600080fd5b80638980f11f146103555780638bb9c5bf1461037557806391d148541461039557600080fd5b80634ebb7916116101385780636b453c1f116101125780636b453c1f146102f55780637ae267731461031557806384a33e631461033557600080fd5b80634ebb7916146102925780635b1dc86f146102b257806369cff80d146102df57600080fd5b80632f2ff15d116101695780632f2ff15d1461023057806336568abe146102525780634b1641401461027257600080fd5b806301ffc9a71461019b57806306fdde03146101d0578063248a9ca3146101f257600080fd5b3661019657005b600080fd5b3480156101a757600080fd5b506101bb6101b63660046127b8565b61051a565b60405190151581526020015b60405180910390f35b3480156101dc57600080fd5b506101e5610583565b6040516101c791906129b7565b3480156101fe57600080fd5b5061022261020d366004612764565b60009081526020819052604090206001015490565b6040519081526020016101c7565b34801561023c57600080fd5b5061025061024b366004612794565b610611565b005b34801561025e57600080fd5b5061025061026d366004612794565b61063b565b34801561027e57600080fd5b5061025061028d3660046125d9565b6106cc565b34801561029e57600080fd5b506102506102ad366004612764565b610b43565b3480156102be57600080fd5b506102d26102cd366004612576565b610c95565b6040516101c7919061296a565b3480156102eb57600080fd5b5061022260015481565b34801561030157600080fd5b5061025061031036600461255a565b610d18565b34801561032157600080fd5b50610250610330366004612576565b610d45565b34801561034157600080fd5b50610250610350366004612764565b610de9565b34801561036157600080fd5b506102506103703660046125ae565b610efc565b34801561038157600080fd5b50610250610390366004612764565b611041565b3480156103a157600080fd5b506101bb6103b0366004612794565b6000918252602082815260408084206001600160a01b0393909316845291905290205460ff1690565b3480156103e557600080fd5b50610222600081565b3480156103fa57600080fd5b506102506104093660046125d9565b61104c565b34801561041a57600080fd5b50610250610429366004612794565b6113cd565b34801561043a57600080fd5b5061025061044936600461255a565b6113f2565b34801561045a57600080fd5b50610250610469366004612821565b61141c565b34801561047a57600080fd5b506102226104893660046127e0565b6115e1565b34801561049a57600080fd5b506102506104a936600461255a565b6115f8565b3480156104ba57600080fd5b506102227f339759585899103d2ace64958e37e18ccb0504652c81d4a1b8aa80fe2126ab9581565b3480156104ee57600080fd5b50600354610502906001600160a01b031681565b6040516001600160a01b0390911681526020016101c7565b60006001600160e01b031982167f7965db0b00000000000000000000000000000000000000000000000000000000148061057d57507f01ffc9a7000000000000000000000000000000000000000000000000000000006001600160e01b03198316145b92915050565b6002805461059090612c34565b80601f01602080910402602001604051908101604052809291908181526020018280546105bc90612c34565b80156106095780601f106105de57610100808354040283529160200191610609565b820191906000526020600020905b8154815290600101906020018083116105ec57829003601f168201915b505050505081565b60008281526020819052604090206001015461062c8161179b565b61063683836117a5565b505050565b6001600160a01b03811633146106be5760405162461bcd60e51b815260206004820152602f60248201527f416363657373436f6e74726f6c3a2063616e206f6e6c792072656e6f756e636560448201527f20726f6c657320666f722073656c66000000000000000000000000000000000060648201526084015b60405180910390fd5b6106c88282611843565b5050565b3360008181527fa54247010af6b3693b80aceddfad12e077c5de3571e6243fada502635f0d7d39602052604090205460ff1661075b5760405162461bcd60e51b815260206004820152602860248201527f4d61696e7461696e61626c653a2043616c6c6572206973206e6f742061206d6160448201526734b73a30b4b732b960c11b60648201526084016106b5565b60005b825181101561063657600083828151811061078957634e487b7160e01b600052603260045260246000fd5b602002602001015190506000816001600160a01b03166338fff2d06040518163ffffffff1660e01b815260040160206040518083038186803b1580156107ce57600080fd5b505afa1580156107e2573d6000803e3d6000fd5b505050506040513d601f19601f82011682018060405250810190610806919061277c565b600354604051631f29a8cd60e31b8152600481018390529192506000916001600160a01b039091169063f94d46689060240160006040518083038186803b15801561085057600080fd5b505afa158015610864573d6000803e3d6000fd5b505050506040513d6000823e601f3d908101601f1916820160405261088c9190810190612675565b5050905060005b8151816001600160801b03161015610b2c57600082826001600160801b0316815181106108d057634e487b7160e01b600052603260045260246000fd5b6020026020010151905060005b8351816001600160801b03161015610b1757806001600160801b0316836001600160801b031614610b05576001600160a01b03821660009081526005602052604081208551829087906001600160801b03861690811061094d57634e487b7160e01b600052603260045260246000fd5b60200260200101516001600160a01b03166001600160a01b031681526020019081526020016000208054806020026020016040519081016040528092919081815260200182805480156109c957602002820191906000526020600020905b81546001600160a01b031681526001909101906020018083116109ab575b5050505050905060005b8151816001600160801b03161015610a8057876001600160a01b031682826001600160801b031681518110610a1857634e487b7160e01b600052603260045260246000fd5b60200260200101516001600160a01b03161415610a6e5781816001600160801b031681518110610a5857634e487b7160e01b600052603260045260246000fd5b6020026020010160006001600160a01b03168152505b80610a7881612c6f565b9150506109d3565b506001600160a01b0383166000908152600560205260408120865183929088906001600160801b038716908110610ac757634e487b7160e01b600052603260045260246000fd5b60200260200101516001600160a01b03166001600160a01b031681526020019081526020016000209080519060200190610b02929190612464565b50505b80610b0f81612c6f565b9150506108dd565b50508080610b2490612c6f565b915050610893565b505050508080610b3b90612c96565b91505061075e565b3360008181527fa54247010af6b3693b80aceddfad12e077c5de3571e6243fada502635f0d7d39602052604090205460ff16610bd25760405162461bcd60e51b815260206004820152602860248201527f4d61696e7461696e61626c653a2043616c6c6572206973206e6f742061206d6160448201526734b73a30b4b732b960c11b60648201526084016106b5565b60008211610c2c5760405162461bcd60e51b815260206004820152602160248201527f53756d6d6974416461707465723a204e6f7468696e6720746f207265636f76656044820152603960f91b60648201526084016106b5565b604051339083156108fc029084906000818181858888f19350505050158015610c59573d6000803e3d6000fd5b506040518281526000907f8c1256b8896378cd5044f80c202f9772b9d77dc85c8a6eb51967210b09bfaa28906020015b60405180910390a25050565b6001600160a01b038083166000908152600560209081526040808320938516835292815290829020805483518184028101840190945280845260609392830182828015610d0b57602002820191906000526020600020905b81546001600160a01b03168152600190910190602001808311610ced575b5050505050905092915050565b610d427f339759585899103d2ace64958e37e18ccb0504652c81d4a1b8aa80fe2126ab9582610611565b50565b3360008181527fa54247010af6b3693b80aceddfad12e077c5de3571e6243fada502635f0d7d39602052604090205460ff16610dd45760405162461bcd60e51b815260206004820152602860248201527f4d61696e7461696e61626c653a2043616c6c6572206973206e6f742061206d6160448201526734b73a30b4b732b960c11b60648201526084016106b5565b6106366001600160a01b03841683600061160f565b3360008181527fa54247010af6b3693b80aceddfad12e077c5de3571e6243fada502635f0d7d39602052604090205460ff16610e785760405162461bcd60e51b815260206004820152602860248201527f4d61696e7461696e61626c653a2043616c6c6572206973206e6f742061206d6160448201526734b73a30b4b732b960c11b60648201526084016106b5565b81610ec55760405162461bcd60e51b815260206004820152601460248201527f496e76616c6964206761732d657374696d61746500000000000000000000000060448201526064016106b5565b600182905560405182815230907ff43f23b7a28e6f8ce6843a21bd7b48bce778aa913b8c8cf459edf7d770e8d38a90602001610c89565b3360008181527fa54247010af6b3693b80aceddfad12e077c5de3571e6243fada502635f0d7d39602052604090205460ff16610f8b5760405162461bcd60e51b815260206004820152602860248201527f4d61696e7461696e61626c653a2043616c6c6572206973206e6f742061206d6160448201526734b73a30b4b732b960c11b60648201526084016106b5565b60008211610fe55760405162461bcd60e51b815260206004820152602160248201527f53756d6d6974416461707465723a204e6f7468696e6720746f207265636f76656044820152603960f91b60648201526084016106b5565b610ff96001600160a01b03841633846118c2565b826001600160a01b03167f8c1256b8896378cd5044f80c202f9772b9d77dc85c8a6eb51967210b09bfaa288360405161103491815260200190565b60405180910390a2505050565b336106c8828261063b565b3360008181527fa54247010af6b3693b80aceddfad12e077c5de3571e6243fada502635f0d7d39602052604090205460ff166110db5760405162461bcd60e51b815260206004820152602860248201527f4d61696e7461696e61626c653a2043616c6c6572206973206e6f742061206d6160448201526734b73a30b4b732b960c11b60648201526084016106b5565b60005b8251816001600160801b0316101561063657600083826001600160801b03168151811061111b57634e487b7160e01b600052603260045260246000fd5b602002602001015190506000816001600160a01b03166338fff2d06040518163ffffffff1660e01b815260040160206040518083038186803b15801561116057600080fd5b505afa158015611174573d6000803e3d6000fd5b505050506040513d601f19601f82011682018060405250810190611198919061277c565b600354604051631f29a8cd60e31b8152600481018390529192506000916001600160a01b039091169063f94d46689060240160006040518083038186803b1580156111e257600080fd5b505afa1580156111f6573d6000803e3d6000fd5b505050506040513d6000823e601f3d908101601f1916820160405261121e9190810190612675565b5050905060005b8151816001600160801b031610156113b657600082826001600160801b03168151811061126257634e487b7160e01b600052603260045260246000fd5b6020908102919091018101516001600160a01b038781166000908152600484526040808220928416825291909352822080546fffffffffffffffffffffffffffffffff19166001600160801b03861617905591505b8351816001600160801b031610156113a157806001600160801b0316836001600160801b03161461138f576001600160a01b0382166000908152600560205260408120855190919086906001600160801b03851690811061132857634e487b7160e01b600052603260045260246000fd5b6020908102919091018101516001600160a01b0390811683528282019390935260409091016000908120805460018101825590825291902001805473ffffffffffffffffffffffffffffffffffffffff191691881691909117905561138f8260001961190b565b8061139981612c6f565b9150506112b7565b505080806113ae90612c6f565b915050611225565b5050505080806113c590612c6f565b9150506110de565b6000828152602081905260409020600101546113e88161179b565b6106368383611843565b610d427f339759585899103d2ace64958e37e18ccb0504652c81d4a1b8aa80fe2126ab95826113cd565b6040516370a0823160e01b81526001600160a01b038281166004830152600091908416906370a082319060240160206040518083038186803b15801561146157600080fd5b505afa158015611475573d6000803e3d6000fd5b505050506040513d601f19601f82011682018060405250810190611499919061277c565b90506114a886868686866119b4565b6040516370a0823160e01b81526001600160a01b03838116600483015260009183918616906370a082319060240160206040518083038186803b1580156114ee57600080fd5b505afa158015611502573d6000803e3d6000fd5b505050506040513d601f19601f82011682018060405250810190611526919061277c565b6115309190612bda565b9050858110156115825760405162461bcd60e51b815260206004820152601760248201527f496e73756666696369656e7420616d6f756e742d6f757400000000000000000060448201526064016106b5565b836001600160a01b0316856001600160a01b03167f939010b59d536f8f4cc3cdfe2d1e624dfa5ce6282e0f5a42e8f252c538e29c9a89896040516115d0929190918252602082015260400190565b60405180910390a350505050505050565b60006115ee848484611c46565b90505b9392505050565b33611604600083610611565b6106c860008261063b565b8015806116985750604051636eb1769f60e11b81523060048201526001600160a01b03838116602483015284169063dd62ed3e9060440160206040518083038186803b15801561165e57600080fd5b505afa158015611672573d6000803e3d6000fd5b505050506040513d601f19601f82011682018060405250810190611696919061277c565b155b61170a5760405162461bcd60e51b815260206004820152603660248201527f5361666545524332303a20617070726f76652066726f6d206e6f6e2d7a65726f60448201527f20746f206e6f6e2d7a65726f20616c6c6f77616e63650000000000000000000060648201526084016106b5565b6040516001600160a01b0383166024820152604481018290526106369084907f095ea7b300000000000000000000000000000000000000000000000000000000906064015b60408051601f198184030181529190526020810180517bffffffffffffffffffffffffffffffffffffffffffffffffffffffff166001600160e01b031990931692909217909152611cae565b610d428133611df0565b6000828152602081815260408083206001600160a01b038516845290915290205460ff166106c8576000828152602081815260408083206001600160a01b03851684529091529020805460ff191660011790556117ff3390565b6001600160a01b0316816001600160a01b0316837f2f8788117e7eff1d82e926ec794901d17c78024a50270940304540a733656f0d60405160405180910390a45050565b6000828152602081815260408083206001600160a01b038516845290915290205460ff16156106c8576000828152602081815260408083206001600160a01b0385168085529252808320805460ff1916905551339285917ff6391f5c32d9c69d2a47ea670b442974b53935d1edc7fd64eb21e047a839171b9190a45050565b6040516001600160a01b0383166024820152604481018290526106369084907fa9059cbb000000000000000000000000000000000000000000000000000000009060640161174f565b600354604051636eb1769f60e11b81523060048201526001600160a01b03918216602482015260009184169063dd62ed3e9060440160206040518083038186803b15801561195857600080fd5b505afa15801561196c573d6000803e3d6000fd5b505050506040513d601f19601f82011682018060405250810190611990919061277c565b90508181101561063657600354610636906001600160a01b0385811691168461160f565b60006119c08484610c95565b90506000815111611a135760405162461bcd60e51b815260206004820152601560248201527f4e6f20706f6f6c7320666f72207377617070696e67000000000000000000000060448201526064016106b5565b6000611a218286868a611e6e565b5090506001600160a01b038116611a7a5760405162461bcd60e51b815260206004820152600e60248201527f556e646566696e656420706f6f6c00000000000000000000000000000000000060448201526064016106b5565b611ac66040805160c0810190915260008082526020820190815260200160006001600160a01b0316815260200160006001600160a01b0316815260200160008152602001606081525090565b816001600160a01b03166338fff2d06040518163ffffffff1660e01b815260040160206040518083038186803b158015611aff57600080fd5b505afa158015611b13573d6000803e3d6000fd5b505050506040513d601f19601f82011682018060405250810190611b37919061277c565b8152600060208083018290526001600160a01b0388811660408086019190915288821660608087019190915260808087018e9052825180840184526002815261060f60f31b8187015260a0880152825190810183529384018590528301939093523082528681168284015260035492517f52bbbe29000000000000000000000000000000000000000000000000000000008152919216906352bbbe2990611be890859085908d9042906004016129ca565b602060405180830381600087803b158015611c0257600080fd5b505af1158015611c16573d6000803e3d6000fd5b505050506040513d601f19601f82011682018060405250810190611c3a919061277c565b50505050505050505050565b6000831580611c665750816001600160a01b0316836001600160a01b0316145b15611c73575060006115f1565b6000611c7f8484610c95565b9050805160001415611c955760009150506115f1565b6000611ca382868689611e6e565b979650505050505050565b600080836001600160a01b031683604051611cc991906128cd565b6000604051808303816000865af19150503d8060008114611d06576040519150601f19603f3d011682016040523d82523d6000602084013e611d0b565b606091505b509150915081611d5d5760405162461bcd60e51b815260206004820181905260248201527f5361666545524332303a206c6f772d6c6576656c2063616c6c206661696c656460448201526064016106b5565b805115611dea5780806020019051810190611d789190612744565b611dea5760405162461bcd60e51b815260206004820152602a60248201527f5361666545524332303a204552433230206f7065726174696f6e20646964206e60448201527f6f7420737563636565640000000000000000000000000000000000000000000060648201526084016106b5565b50505050565b6000828152602081815260408083206001600160a01b038516845290915290205460ff166106c857611e2c816001600160a01b03166014612022565b611e37836020612022565b604051602001611e489291906128e9565b60408051601f198184030181529082905262461bcd60e51b82526106b5916004016129b7565b600080805b8651816001600160801b0316101561201857600087826001600160801b031681518110611eb057634e487b7160e01b600052603260045260246000fd5b6020026020010151905060006001600160a01b0316816001600160a01b03161415611edb5750612006565b604080516101208101825260008082526020820181905291810182905260608082018390526080820183905260a0820183905260c0820183905260e0820192909252610100810191909152816001600160a01b03166338fff2d06040518163ffffffff1660e01b815260040160206040518083038186803b158015611f5f57600080fd5b505afa158015611f73573d6000803e3d6000fd5b505050506040513d601f19601f82011682018060405250810190611f97919061277c565b608082015260008082526001600160a01b038981166020808501919091529089166040808501919091526060840189905280518082019091526002815261060f60f31b91810191909152610100830152611ff18284612249565b905084811115612002578094508295505b5050505b8061201081612c6f565b915050611e73565b5094509492505050565b60606000612031836002612bbb565b61203c906002612ba3565b67ffffffffffffffff81111561206257634e487b7160e01b600052604160045260246000fd5b6040519080825280601f01601f19166020018201604052801561208c576020820181803683370190505b5090507f3000000000000000000000000000000000000000000000000000000000000000816000815181106120d157634e487b7160e01b600052603260045260246000fd5b60200101906001600160f81b031916908160001a9053507f78000000000000000000000000000000000000000000000000000000000000008160018151811061212a57634e487b7160e01b600052603260045260246000fd5b60200101906001600160f81b031916908160001a905350600061214e846002612bbb565b612159906001612ba3565b90505b60018111156121fa577f303132333435363738396162636465660000000000000000000000000000000085600f16601081106121a857634e487b7160e01b600052603260045260246000fd5b1a60f81b8282815181106121cc57634e487b7160e01b600052603260045260246000fd5b60200101906001600160f81b031916908160001a90535060049490941c936121f381612c1d565b905061215c565b5083156115f15760405162461bcd60e51b815260206004820181905260248201527f537472696e67733a20686578206c656e67746820696e73756666696369656e7460448201526064016106b5565b6003546080830151604051631f29a8cd60e31b815260009283926001600160a01b039091169163f94d4668916122859160040190815260200190565b60006040518083038186803b15801561229d57600080fd5b505afa1580156122b1573d6000803e3d6000fd5b505050506040513d6000823e601f3d908101601f191682016040526122d99190810190612675565b506001600160a01b0380861660009081526004602090815260408083208a830151909416835292905290812054825192945090925083916001600160801b0390911690811061233857634e487b7160e01b600052603260045260246000fd5b6020908102919091018101516001600160a01b0380871660009081526004845260408082208a820151909316825291909352822054845191935084916001600160801b0390911690811061239c57634e487b7160e01b600052603260045260246000fd5b602002602001015190506123b2868383886123bc565b9695505050505050565b6040517f9d2c110c0000000000000000000000000000000000000000000000000000000081526000906001600160a01b03831690639d2c110c9061240890889088908890600401612a87565b60206040518083038186803b15801561242057600080fd5b505afa925050508015612450575060408051601f3d908101601f1916820190925261244d9181019061277c565b60015b6124595761245c565b90505b949350505050565b8280548282559060005260206000209081019282156124c6579160200282015b828111156124c6578251825473ffffffffffffffffffffffffffffffffffffffff19166001600160a01b03909116178255602090920191600190910190612484565b506124d29291506124d6565b5090565b5b808211156124d257600081556001016124d7565b600082601f8301126124fb578081fd5b8151602061251061250b83612b7f565b612b4e565b80838252828201915082860187848660051b890101111561252f578586fd5b855b8581101561254d57815184529284019290840190600101612531565b5090979650505050505050565b60006020828403121561256b578081fd5b81356115f181612cdd565b60008060408385031215612588578081fd5b823561259381612cdd565b915060208301356125a381612cdd565b809150509250929050565b600080604083850312156125c0578182fd5b82356125cb81612cdd565b946020939093013593505050565b600060208083850312156125eb578182fd5b823567ffffffffffffffff811115612601578283fd5b8301601f81018513612611578283fd5b803561261f61250b82612b7f565b80828252848201915084840188868560051b870101111561263e578687fd5b8694505b8385101561266957803561265581612cdd565b835260019490940193918501918501612642565b50979650505050505050565b600080600060608486031215612689578081fd5b835167ffffffffffffffff808211156126a0578283fd5b818601915086601f8301126126b3578283fd5b815160206126c361250b83612b7f565b8083825282820191508286018b848660051b89010111156126e2578788fd5b8796505b8487101561270d5780516126f981612cdd565b8352600196909601959183019183016126e6565b5091890151919750909350505080821115612726578283fd5b50612733868287016124eb565b925050604084015190509250925092565b600060208284031215612755578081fd5b815180151581146115f1578182fd5b600060208284031215612775578081fd5b5035919050565b60006020828403121561278d578081fd5b5051919050565b600080604083850312156127a6578182fd5b8235915060208301356125a381612cdd565b6000602082840312156127c9578081fd5b81356001600160e01b0319811681146115f1578182fd5b6000806000606084860312156127f4578081fd5b83359250602084013561280681612cdd565b9150604084013561281681612cdd565b809150509250925092565b600080600080600060a08688031215612838578283fd5b8535945060208601359350604086013561285181612cdd565b9250606086013561286181612cdd565b9150608086013561287181612cdd565b809150509295509295909350565b60008151808452612897816020860160208601612bf1565b601f01601f19169290920160200192915050565b600281106128c957634e487b7160e01b600052602160045260246000fd5b9052565b600082516128df818460208701612bf1565b9190910192915050565b7f416363657373436f6e74726f6c3a206163636f756e7420000000000000000000815260008351612921816017850160208801612bf1565b7f206973206d697373696e6720726f6c6520000000000000000000000000000000601791840191820152835161295e816028840160208801612bf1565b01602801949350505050565b6020808252825182820181905260009190848201906040850190845b818110156129ab5783516001600160a01b031683529284019291840191600101612986565b50909695505050505050565b6020815260006115f1602083018461287f565b60e08152845160e0820152600060208601516129ea6101008401826128ab565b5060408601516001600160a01b03908116610120840152606087015116610140830152608086015161016083015260a086015160c0610180840152612a336101a084018261287f565b915050612a7560208301866001600160a01b03808251168352602082015115156020840152806040830151166040840152506060810151151560608301525050565b60a082019390935260c0015292915050565b60608152612a996060820185516128ab565b60006020850151612ab560808401826001600160a01b03169052565b5060408501516001600160a01b03811660a084015250606085015160c0830152608085015160e083015260a0850151610100818185015260c08701519150610120612b0a818601846001600160a01b03169052565b60e08801516001600160a01b0316610140860152908701516101608501919091529050612b3b61018084018261287f565b6020840195909552505060400152919050565b604051601f8201601f1916810167ffffffffffffffff81118282101715612b7757612b77612cc7565b604052919050565b600067ffffffffffffffff821115612b9957612b99612cc7565b5060051b60200190565b60008219821115612bb657612bb6612cb1565b500190565b6000816000190483118215151615612bd557612bd5612cb1565b500290565b600082821015612bec57612bec612cb1565b500390565b60005b83811015612c0c578181015183820152602001612bf4565b83811115611dea5750506000910152565b600081612c2c57612c2c612cb1565b506000190190565b600181811c90821680612c4857607f821691505b60208210811415612c6957634e487b7160e01b600052602260045260246000fd5b50919050565b60006001600160801b0380831681811415612c8c57612c8c612cb1565b6001019392505050565b6000600019821415612caa57612caa612cb1565b5060010190565b634e487b7160e01b600052601160045260246000fd5b634e487b7160e01b600052604160045260246000fd5b6001600160a01b0381168114610d4257600080fdfea2646970667358221220d2543f294de25a595332775de4dea6c5cf2a064d246460caf6583ca41a8ece3064736f6c63430008040033a54247010af6b3693b80aceddfad12e077c5de3571e6243fada502635f0d7d394d61696e7461696e61626c653a2043616c6c6572206973206e6f742061206d61",
  "devdoc": {
    "kind": "dev",
    "methods": {
      "getRoleAdmin(bytes32)": {
        "details": "Returns the admin role that controls `role`. See {grantRole} and {revokeRole}. To change a role's admin, use {_setRoleAdmin}."
      },
      "grantRole(bytes32,address)": {
        "details": "Grants `role` to `account`. If `account` had not been already granted `role`, emits a {RoleGranted} event. Requirements: - the caller must have ``role``'s admin role. May emit a {RoleGranted} event."
      },
      "hasRole(bytes32,address)": {
        "details": "Returns `true` if `account` has been granted `role`."
      },
      "renounceRole(bytes32,address)": {
        "details": "Revokes `role` from the calling account. Roles are often managed via {grantRole} and {revokeRole}: this function's purpose is to provide a mechanism for accounts to lose their privileges if they are compromised (such as when a trusted device is misplaced). If the calling account had been revoked `role`, emits a {RoleRevoked} event. Requirements: - the caller must be `account`. May emit a {RoleRevoked} event."
      },
      "revokeRole(bytes32,address)": {
        "details": "Revokes `role` from `account`. If `account` had been granted `role`, emits a {RoleRevoked} event. Requirements: - the caller must have ``role``'s admin role. May emit a {RoleRevoked} event."
      },
      "supportsInterface(bytes4)": {
        "details": "See {IERC165-supportsInterface}."
      }
    },
    "version": 1
  },
  "userdoc": {
    "kind": "user",
    "methods": {},
    "version": 1
  },
  "storageLayout": {
    "storage": [
      {
        "astId": 24,
        "contract": "src/contracts/adapters/BalancerV2Adapter.sol:BalancerV2Adapter",
        "label": "_roles",
        "offset": 0,
        "slot": "0",
        "type": "t_mapping(t_bytes32,t_struct(RoleData)19_storage)"
      },
      {
        "astId": 1451,
        "contract": "src/contracts/adapters/BalancerV2Adapter.sol:BalancerV2Adapter",
        "label": "swapGasEstimate",
        "offset": 0,
        "slot": "1",
        "type": "t_uint256"
      },
      {
        "astId": 1453,
        "contract": "src/contracts/adapters/BalancerV2Adapter.sol:BalancerV2Adapter",
        "label": "name",
        "offset": 0,
        "slot": "2",
        "type": "t_string_storage"
      },
      {
        "astId": 4015,
        "contract": "src/contracts/adapters/BalancerV2Adapter.sol:BalancerV2Adapter",
        "label": "vault",
        "offset": 0,
        "slot": "3",
        "type": "t_address"
      },
      {
        "astId": 4021,
        "contract": "src/contracts/adapters/BalancerV2Adapter.sol:BalancerV2Adapter",
        "label": "poolToTokenIndex",
        "offset": 0,
        "slot": "4",
        "type": "t_mapping(t_address,t_mapping(t_address,t_uint128))"
      },
      {
        "astId": 4028,
        "contract": "src/contracts/adapters/BalancerV2Adapter.sol:BalancerV2Adapter",
        "label": "tokensToPools",
        "offset": 0,
        "slot": "5",
        "type": "t_mapping(t_address,t_mapping(t_address,t_array(t_address)dyn_storage))"
      }
    ],
    "types": {
      "t_address": {
        "encoding": "inplace",
        "label": "address",
        "numberOfBytes": "20"
      },
      "t_array(t_address)dyn_storage": {
        "base": "t_address",
        "encoding": "dynamic_array",
        "label": "address[]",
        "numberOfBytes": "32"
      },
      "t_bool": {
        "encoding": "inplace",
        "label": "bool",
        "numberOfBytes": "1"
      },
      "t_bytes32": {
        "encoding": "inplace",
        "label": "bytes32",
        "numberOfBytes": "32"
      },
      "t_mapping(t_address,t_array(t_address)dyn_storage)": {
        "encoding": "mapping",
        "key": "t_address",
        "label": "mapping(address => address[])",
        "numberOfBytes": "32",
        "value": "t_array(t_address)dyn_storage"
      },
      "t_mapping(t_address,t_bool)": {
        "encoding": "mapping",
        "key": "t_address",
        "label": "mapping(address => bool)",
        "numberOfBytes": "32",
        "value": "t_bool"
      },
      "t_mapping(t_address,t_mapping(t_address,t_array(t_address)dyn_storage))": {
        "encoding": "mapping",
        "key": "t_address",
        "label": "mapping(address => mapping(address => address[]))",
        "numberOfBytes": "32",
        "value": "t_mapping(t_address,t_array(t_address)dyn_storage)"
      },
      "t_mapping(t_address,t_mapping(t_address,t_uint128))": {
        "encoding": "mapping",
        "key": "t_address",
        "label": "mapping(address => mapping(address => uint128))",
        "numberOfBytes": "32",
        "value": "t_mapping(t_address,t_uint128)"
      },
      "t_mapping(t_address,t_uint128)": {
        "encoding": "mapping",
        "key": "t_address",
        "label": "mapping(address => uint128)",
        "numberOfBytes": "32",
        "value": "t_uint128"
      },
      "t_mapping(t_bytes32,t_struct(RoleData)19_storage)": {
        "encoding": "mapping",
        "key": "t_bytes32",
        "label": "mapping(bytes32 => struct AccessControl.RoleData)",
        "numberOfBytes": "32",
        "value": "t_struct(RoleData)19_storage"
      },
      "t_string_storage": {
        "encoding": "bytes",
        "label": "string",
        "numberOfBytes": "32"
      },
      "t_struct(RoleData)19_storage": {
        "encoding": "inplace",
        "label": "struct AccessControl.RoleData",
        "members": [
          {
            "astId": 16,
            "contract": "src/contracts/adapters/BalancerV2Adapter.sol:BalancerV2Adapter",
            "label": "members",
            "offset": 0,
            "slot": "0",
            "type": "t_mapping(t_address,t_bool)"
          },
          {
            "astId": 18,
            "contract": "src/contracts/adapters/BalancerV2Adapter.sol:BalancerV2Adapter",
            "label": "adminRole",
            "offset": 0,
            "slot": "1",
            "type": "t_bytes32"
          }
        ],
        "numberOfBytes": "64"
      },
      "t_uint128": {
        "encoding": "inplace",
        "label": "uint128",
        "numberOfBytes": "16"
      },
      "t_uint256": {
        "encoding": "inplace",
        "label": "uint256",
        "numberOfBytes": "32"
      }
    }
  }
}