{
  "address": "0x6F045F2b0F182a8fa132Fd5Bb0626b395d82bc86",
  "abi": [
    {
      "inputs": [
        {
          "internalType": "string",
          "name": "_name",
          "type": "string"
        },
        {
          "internalType": "address",
          "name": "_factory",
          "type": "address"
        },
        {
          "internalType": "uint256",
          "name": "_fee",
          "type": "uint256"
        },
        {
          "internalType": "uint256",
          "name": "_swapGasEstimate",
          "type": "uint256"
        }
      ],
      "stateMutability": "nonpayable",
      "type": "constructor"
    },
    {
      "inputs": [],
      "name": "AlreadyInitialized",
      "type": "error"
    },
    {
      "anonymous": false,
      "inputs": [
        {
          "indexed": true,
          "internalType": "address",
          "name": "_asset",
          "type": "address"
        },
        {
          "indexed": false,
          "internalType": "uint256",
          "name": "amount",
          "type": "uint256"
        }
      ],
      "name": "Recovered",
      "type": "event"
    },
    {
      "anonymous": false,
      "inputs": [
        {
          "indexed": true,
          "internalType": "bytes32",
          "name": "role",
          "type": "bytes32"
        },
        {
          "indexed": true,
          "internalType": "bytes32",
          "name": "previousAdminRole",
          "type": "bytes32"
        },
        {
          "indexed": true,
          "internalType": "bytes32",
          "name": "newAdminRole",
          "type": "bytes32"
        }
      ],
      "name": "RoleAdminChanged",
      "type": "event"
    },
    {
      "anonymous": false,
      "inputs": [
        {
          "indexed": true,
          "internalType": "bytes32",
          "name": "role",
          "type": "bytes32"
        },
        {
          "indexed": true,
          "internalType": "address",
          "name": "account",
          "type": "address"
        },
        {
          "indexed": true,
          "internalType": "address",
          "name": "sender",
          "type": "address"
        }
      ],
      "name": "RoleGranted",
      "type": "event"
    },
    {
      "anonymous": false,
      "inputs": [
        {
          "indexed": true,
          "internalType": "bytes32",
          "name": "role",
          "type": "bytes32"
        },
        {
          "indexed": true,
          "internalType": "address",
          "name": "account",
          "type": "address"
        },
        {
          "indexed": true,
          "internalType": "address",
          "name": "sender",
          "type": "address"
        }
      ],
      "name": "RoleRevoked",
      "type": "event"
    },
    {
      "anonymous": false,
      "inputs": [
        {
          "indexed": true,
          "internalType": "address",
          "name": "_tokenFrom",
          "type": "address"
        },
        {
          "indexed": true,
          "internalType": "address",
          "name": "_tokenTo",
          "type": "address"
        },
        {
          "indexed": false,
          "internalType": "uint256",
          "name": "_amountIn",
          "type": "uint256"
        },
        {
          "indexed": false,
          "internalType": "uint256",
          "name": "_amountOut",
          "type": "uint256"
        }
      ],
      "name": "SummitAdapterSwap",
      "type": "event"
    },
    {
      "anonymous": false,
      "inputs": [
        {
          "indexed": true,
          "internalType": "address",
          "name": "_adapter",
          "type": "address"
        },
        {
          "indexed": false,
          "internalType": "uint256",
          "name": "_newEstimate",
          "type": "uint256"
        }
      ],
      "name": "UpdatedGasEstimate",
      "type": "event"
    },
    {
      "inputs": [],
      "name": "DEFAULT_ADMIN_ROLE",
      "outputs": [
        {
          "internalType": "bytes32",
          "name": "",
          "type": "bytes32"
        }
      ],
      "stateMutability": "view",
      "type": "function"
    },
    {
      "inputs": [],
      "name": "MAINTAINER_ROLE",
      "outputs": [
        {
          "internalType": "bytes32",
          "name": "",
          "type": "bytes32"
        }
      ],
      "stateMutability": "view",
      "type": "function"
    },
    {
      "inputs": [
        {
          "internalType": "address",
          "name": "addedMaintainer",
          "type": "address"
        }
      ],
      "name": "addMaintainer",
      "outputs": [],
      "stateMutability": "nonpayable",
      "type": "function"
    },
    {
      "inputs": [],
      "name": "factory",
      "outputs": [
        {
          "internalType": "address",
          "name": "",
          "type": "address"
        }
      ],
      "stateMutability": "view",
      "type": "function"
    },
    {
      "inputs": [],
      "name": "feeCompliment",
      "outputs": [
        {
          "internalType": "uint256",
          "name": "",
          "type": "uint256"
        }
      ],
      "stateMutability": "view",
      "type": "function"
    },
    {
      "inputs": [
        {
          "internalType": "bytes32",
          "name": "role",
          "type": "bytes32"
        }
      ],
      "name": "getRoleAdmin",
      "outputs": [
        {
          "internalType": "bytes32",
          "name": "",
          "type": "bytes32"
        }
      ],
      "stateMutability": "view",
      "type": "function"
    },
    {
      "inputs": [],
      "name": "governor",
      "outputs": [
        {
          "internalType": "address",
          "name": "",
          "type": "address"
        }
      ],
      "stateMutability": "view",
      "type": "function"
    },
    {
      "inputs": [
        {
          "internalType": "bytes32",
          "name": "role",
          "type": "bytes32"
        },
        {
          "internalType": "address",
          "name": "account",
          "type": "address"
        }
      ],
      "name": "grantRole",
      "outputs": [],
      "stateMutability": "nonpayable",
      "type": "function"
    },
    {
      "inputs": [
        {
          "internalType": "bytes32",
          "name": "role",
          "type": "bytes32"
        },
        {
          "internalType": "address",
          "name": "account",
          "type": "address"
        }
      ],
      "name": "hasRole",
      "outputs": [
        {
          "internalType": "bool",
          "name": "",
          "type": "bool"
        }
      ],
      "stateMutability": "view",
      "type": "function"
    },
    {
      "inputs": [
        {
          "internalType": "address",
          "name": "_governor",
          "type": "address"
        }
      ],
      "name": "initialize",
      "outputs": [],
      "stateMutability": "nonpayable",
      "type": "function"
    },
    {
      "inputs": [],
      "name": "initialized",
      "outputs": [
        {
          "internalType": "bool",
          "name": "",
          "type": "bool"
        }
      ],
      "stateMutability": "view",
      "type": "function"
    },
    {
      "inputs": [],
      "name": "name",
      "outputs": [
        {
          "internalType": "string",
          "name": "",
          "type": "string"
        }
      ],
      "stateMutability": "view",
      "type": "function"
    },
    {
      "inputs": [
        {
          "internalType": "uint256",
          "name": "_amountIn",
          "type": "uint256"
        },
        {
          "internalType": "address",
          "name": "_tokenIn",
          "type": "address"
        },
        {
          "internalType": "address",
          "name": "_tokenOut",
          "type": "address"
        }
      ],
      "name": "query",
      "outputs": [
        {
          "internalType": "uint256",
          "name": "",
          "type": "uint256"
        }
      ],
      "stateMutability": "view",
      "type": "function"
    },
    {
      "inputs": [
        {
          "internalType": "uint256",
          "name": "_amount",
          "type": "uint256"
        }
      ],
      "name": "recoverAVAX",
      "outputs": [],
      "stateMutability": "nonpayable",
      "type": "function"
    },
    {
      "inputs": [
        {
          "internalType": "address",
          "name": "_tokenAddress",
          "type": "address"
        },
        {
          "internalType": "uint256",
          "name": "_tokenAmount",
          "type": "uint256"
        }
      ],
      "name": "recoverERC20",
      "outputs": [],
      "stateMutability": "nonpayable",
      "type": "function"
    },
    {
      "inputs": [
        {
          "internalType": "address",
          "name": "removedMaintainer",
          "type": "address"
        }
      ],
      "name": "removeMaintainer",
      "outputs": [],
      "stateMutability": "nonpayable",
      "type": "function"
    },
    {
      "inputs": [
        {
          "internalType": "bytes32",
          "name": "role",
          "type": "bytes32"
        },
        {
          "internalType": "address",
          "name": "account",
          "type": "address"
        }
      ],
      "name": "renounceRole",
      "outputs": [],
      "stateMutability": "nonpayable",
      "type": "function"
    },
    {
      "inputs": [
        {
          "internalType": "bytes32",
          "name": "role",
          "type": "bytes32"
        }
      ],
      "name": "renounceRole",
      "outputs": [],
      "stateMutability": "nonpayable",
      "type": "function"
    },
    {
      "inputs": [
        {
          "internalType": "address",
          "name": "_token",
          "type": "address"
        },
        {
          "internalType": "address",
          "name": "_spender",
          "type": "address"
        }
      ],
      "name": "revokeAllowance",
      "outputs": [],
      "stateMutability": "nonpayable",
      "type": "function"
    },
    {
      "inputs": [
        {
          "internalType": "bytes32",
          "name": "role",
          "type": "bytes32"
        },
        {
          "internalType": "address",
          "name": "account",
          "type": "address"
        }
      ],
      "name": "revokeRole",
      "outputs": [],
      "stateMutability": "nonpayable",
      "type": "function"
    },
    {
      "inputs": [
        {
          "internalType": "uint256",
          "name": "_estimate",
          "type": "uint256"
        }
      ],
      "name": "setSwapGasEstimate",
      "outputs": [],
      "stateMutability": "nonpayable",
      "type": "function"
    },
    {
      "inputs": [
        {
          "internalType": "bytes4",
          "name": "interfaceId",
          "type": "bytes4"
        }
      ],
      "name": "supportsInterface",
      "outputs": [
        {
          "internalType": "bool",
          "name": "",
          "type": "bool"
        }
      ],
      "stateMutability": "view",
      "type": "function"
    },
    {
      "inputs": [
        {
          "internalType": "uint256",
          "name": "_amountIn",
          "type": "uint256"
        },
        {
          "internalType": "uint256",
          "name": "_amountOut",
          "type": "uint256"
        },
        {
          "internalType": "address",
          "name": "_fromToken",
          "type": "address"
        },
        {
          "internalType": "address",
          "name": "_toToken",
          "type": "address"
        },
        {
          "internalType": "address",
          "name": "_to",
          "type": "address"
        }
      ],
      "name": "swap",
      "outputs": [],
      "stateMutability": "nonpayable",
      "type": "function"
    },
    {
      "inputs": [],
      "name": "swapGasEstimate",
      "outputs": [
        {
          "internalType": "uint256",
          "name": "",
          "type": "uint256"
        }
      ],
      "stateMutability": "view",
      "type": "function"
    },
    {
      "inputs": [
        {
          "internalType": "address",
          "name": "newOwner",
          "type": "address"
        }
      ],
      "name": "transferOwnership",
      "outputs": [],
      "stateMutability": "nonpayable",
      "type": "function"
    },
    {
      "stateMutability": "payable",
      "type": "receive"
    }
  ],
  "transactionHash": "0xc14e2d137d6d82d33030abb77399df91f4ae2b2479f0659f6bdcbaa71e9f302a",
  "args": [
    "SpookySwapAdapter",
    "0x152ee697f2e276fa89e96742e9bb9ab1f2e61be3",
    2,
    120000
  ],
  "solcInputHash": "d9a23d9c2ab6bce658562183b4c28cc2",
  "bytecode": "0x60c06040526003805460ff191690553480156200001b57600080fd5b50604051620023b1380380620023b18339810160408190526200003e91620003b5565b83816200004d600033620000bc565b620000797f339759585899103d2ace64958e37e18ccb0504652c81d4a1b8aa80fe2126ab9533620000bc565b6200008482620000cc565b6200008f8162000135565b50620000a09050826103e8620004b0565b608052505060601b6001600160601b03191660a0525062000527565b620000c8828262000252565b5050565b8051620001205760405162461bcd60e51b815260206004820152601460248201527f496e76616c69642061646170746572206e616d6500000000000000000000000060448201526064015b60405180910390fd5b8051620000c8906002906020840190620002f2565b3360009081527fa54247010af6b3693b80aceddfad12e077c5de3571e6243fada502635f0d7d39602052604090205460ff16620001c65760405162461bcd60e51b815260206004820152602860248201527f4d61696e7461696e61626c653a2043616c6c6572206973206e6f742061206d6160448201526734b73a30b4b732b960c11b606482015260840162000117565b80620002155760405162461bcd60e51b815260206004820152601460248201527f496e76616c6964206761732d657374696d617465000000000000000000000000604482015260640162000117565b600181905560405181815230907ff43f23b7a28e6f8ce6843a21bd7b48bce778aa913b8c8cf459edf7d770e8d38a9060200160405180910390a250565b6000828152602081815260408083206001600160a01b038516845290915290205460ff16620000c8576000828152602081815260408083206001600160a01b03851684529091529020805460ff19166001179055620002ae3390565b6001600160a01b0316816001600160a01b0316837f2f8788117e7eff1d82e926ec794901d17c78024a50270940304540a733656f0d60405160405180910390a45050565b8280546200030090620004d4565b90600052602060002090601f0160209004810192826200032457600085556200036f565b82601f106200033f57805160ff19168380011785556200036f565b828001600101855582156200036f579182015b828111156200036f57825182559160200191906001019062000352565b506200037d92915062000381565b5090565b5b808211156200037d576000815560010162000382565b80516001600160a01b0381168114620003b057600080fd5b919050565b60008060008060808587031215620003cb578384fd5b84516001600160401b0380821115620003e2578586fd5b818701915087601f830112620003f6578586fd5b8151818111156200040b576200040b62000511565b604051601f8201601f19908116603f0116810190838211818310171562000436576200043662000511565b81604052828152602093508a8484870101111562000452578889fd5b8891505b8282101562000475578482018401518183018501529083019062000456565b828211156200048657888484830101525b97506200049891505087820162000398565b60408801516060909801519699909850945050505050565b600082821015620004cf57634e487b7160e01b81526011600452602481fd5b500390565b600181811c90821680620004e957607f821691505b602082108114156200050b57634e487b7160e01b600052602260045260246000fd5b50919050565b634e487b7160e01b600052604160045260246000fd5b60805160a05160601c611e4c62000565600039600081816104490152818161122201526113cc0152600081816102e601526117110152611e4c6000f3fe60806040526004361061019a5760003560e01c806384a33e63116100e1578063c4d66de81161008a578063eab90da611610064578063eab90da6146104cb578063ef99893a146104eb578063f2fde38b1461050b578063f87422541461052b57600080fd5b8063c4d66de81461046b578063d547741f1461048b578063d8baf7cf146104ab57600080fd5b806391d14854116100bb57806391d14854146103de578063a217fddf14610422578063c45a01551461043757600080fd5b806384a33e631461037e5780638980f11f1461039e5780638bb9c5bf146103be57600080fd5b806336568abe1161014357806369cff80d1161011d57806369cff80d146103285780636b453c1f1461033e5780637ae267731461035e57600080fd5b806336568abe146102b45780633b720fca146102d45780634ebb79161461030857600080fd5b8063158ef93e11610174578063158ef93e1461023a578063248a9ca3146102545780632f2ff15d1461029257600080fd5b806301ffc9a7146101a657806306fdde03146101db5780630c340a24146101fd57600080fd5b366101a157005b600080fd5b3480156101b257600080fd5b506101c66101c1366004611ac9565b61055f565b60405190151581526020015b60405180910390f35b3480156101e757600080fd5b506101f06105c8565b6040516101d29190611cb4565b34801561020957600080fd5b506003546102229061010090046001600160a01b031681565b6040516001600160a01b0390911681526020016101d2565b34801561024657600080fd5b506003546101c69060ff1681565b34801561026057600080fd5b5061028461026f366004611a8d565b60009081526020819052604090206001015490565b6040519081526020016101d2565b34801561029e57600080fd5b506102b26102ad366004611aa5565b610656565b005b3480156102c057600080fd5b506102b26102cf366004611aa5565b610680565b3480156102e057600080fd5b506102847f000000000000000000000000000000000000000000000000000000000000000081565b34801561031457600080fd5b506102b2610323366004611a8d565b610711565b34801561033457600080fd5b5061028460015481565b34801561034a57600080fd5b506102b26103593660046119d2565b610862565b34801561036a57600080fd5b506102b2610379366004611a0a565b61088f565b34801561038a57600080fd5b506102b2610399366004611a8d565b610933565b3480156103aa57600080fd5b506102b26103b9366004611a42565b610a46565b3480156103ca57600080fd5b506102b26103d9366004611a8d565b610b8a565b3480156103ea57600080fd5b506101c66103f9366004611aa5565b6000918252602082815260408084206001600160a01b0393909316845291905290205460ff1690565b34801561042e57600080fd5b50610284600081565b34801561044357600080fd5b506102227f000000000000000000000000000000000000000000000000000000000000000081565b34801561047757600080fd5b506102b26104863660046119d2565b610b94565b34801561049757600080fd5b506102b26104a6366004611aa5565b610ca2565b3480156104b757600080fd5b506102b26104c63660046119d2565b610cc7565b3480156104d757600080fd5b506102b26104e6366004611b8d565b610cf1565b3480156104f757600080fd5b50610284610506366004611b57565b610eb6565b34801561051757600080fd5b506102b26105263660046119d2565b610ecd565b34801561053757600080fd5b506102847f339759585899103d2ace64958e37e18ccb0504652c81d4a1b8aa80fe2126ab9581565b60006001600160e01b031982167f7965db0b0000000000000000000000000000000000000000000000000000000014806105c257507f01ffc9a7000000000000000000000000000000000000000000000000000000006001600160e01b03198316145b92915050565b600280546105d590611db0565b80601f016020809104026020016040519081016040528092919081815260200182805461060190611db0565b801561064e5780601f106106235761010080835404028352916020019161064e565b820191906000526020600020905b81548152906001019060200180831161063157829003601f168201915b505050505081565b60008281526020819052604090206001015461067181610ee3565b61067b8383610eed565b505050565b6001600160a01b03811633146107035760405162461bcd60e51b815260206004820152602f60248201527f416363657373436f6e74726f6c3a2063616e206f6e6c792072656e6f756e636560448201527f20726f6c657320666f722073656c66000000000000000000000000000000000060648201526084015b60405180910390fd5b61070d8282610f8b565b5050565b3360009081527fa54247010af6b3693b80aceddfad12e077c5de3571e6243fada502635f0d7d39602052604090205460ff166107a05760405162461bcd60e51b815260206004820152602860248201527f4d61696e7461696e61626c653a2043616c6c6572206973206e6f742061206d6160448201526734b73a30b4b732b960c11b60648201526084016106fa565b600081116107fa5760405162461bcd60e51b815260206004820152602160248201527f53756d6d6974416461707465723a204e6f7468696e6720746f207265636f76656044820152603960f91b60648201526084016106fa565b604051339082156108fc029083906000818181858888f19350505050158015610827573d6000803e3d6000fd5b506040518181526000907f8c1256b8896378cd5044f80c202f9772b9d77dc85c8a6eb51967210b09bfaa28906020015b60405180910390a250565b61088c7f339759585899103d2ace64958e37e18ccb0504652c81d4a1b8aa80fe2126ab9582610656565b50565b3360009081527fa54247010af6b3693b80aceddfad12e077c5de3571e6243fada502635f0d7d39602052604090205460ff1661091e5760405162461bcd60e51b815260206004820152602860248201527f4d61696e7461696e61626c653a2043616c6c6572206973206e6f742061206d6160448201526734b73a30b4b732b960c11b60648201526084016106fa565b61070d6001600160a01b03831682600061100a565b3360009081527fa54247010af6b3693b80aceddfad12e077c5de3571e6243fada502635f0d7d39602052604090205460ff166109c25760405162461bcd60e51b815260206004820152602860248201527f4d61696e7461696e61626c653a2043616c6c6572206973206e6f742061206d6160448201526734b73a30b4b732b960c11b60648201526084016106fa565b80610a0f5760405162461bcd60e51b815260206004820152601460248201527f496e76616c6964206761732d657374696d61746500000000000000000000000060448201526064016106fa565b600181905560405181815230907ff43f23b7a28e6f8ce6843a21bd7b48bce778aa913b8c8cf459edf7d770e8d38a90602001610857565b3360009081527fa54247010af6b3693b80aceddfad12e077c5de3571e6243fada502635f0d7d39602052604090205460ff16610ad55760405162461bcd60e51b815260206004820152602860248201527f4d61696e7461696e61626c653a2043616c6c6572206973206e6f742061206d6160448201526734b73a30b4b732b960c11b60648201526084016106fa565b60008111610b2f5760405162461bcd60e51b815260206004820152602160248201527f53756d6d6974416461707465723a204e6f7468696e6720746f207265636f76656044820152603960f91b60648201526084016106fa565b610b436001600160a01b03831633836111af565b816001600160a01b03167f8c1256b8896378cd5044f80c202f9772b9d77dc85c8a6eb51967210b09bfaa2882604051610b7e91815260200190565b60405180910390a25050565b61088c8133610680565b3360009081527fa54247010af6b3693b80aceddfad12e077c5de3571e6243fada502635f0d7d39602052604090205460ff16610c235760405162461bcd60e51b815260206004820152602860248201527f4d61696e7461696e61626c653a2043616c6c6572206973206e6f742061206d6160448201526734b73a30b4b732b960c11b60648201526084016106fa565b60035460ff1615610c60576040517f0dc149f000000000000000000000000000000000000000000000000000000000815260040160405180910390fd5b600380546001600160a01b03909216610100027fffffffffffffffffffffff000000000000000000000000000000000000000000909216919091176001179055565b600082815260208190526040902060010154610cbd81610ee3565b61067b8383610f8b565b61088c7f339759585899103d2ace64958e37e18ccb0504652c81d4a1b8aa80fe2126ab9582610ca2565b6040516370a0823160e01b81526001600160a01b038281166004830152600091908416906370a082319060240160206040518083038186803b158015610d3657600080fd5b505afa158015610d4a573d6000803e3d6000fd5b505050506040513d601f19601f82011682018060405250810190610d6e9190611b3f565b9050610d7d86868686866111f8565b6040516370a0823160e01b81526001600160a01b03838116600483015260009183918616906370a082319060240160206040518083038186803b158015610dc357600080fd5b505afa158015610dd7573d6000803e3d6000fd5b505050506040513d601f19601f82011682018060405250810190610dfb9190611b3f565b610e059190611d56565b905085811015610e575760405162461bcd60e51b815260206004820152601760248201527f496e73756666696369656e7420616d6f756e742d6f757400000000000000000060448201526064016106fa565b836001600160a01b0316856001600160a01b03167f939010b59d536f8f4cc3cdfe2d1e624dfa5ce6282e0f5a42e8f252c538e29c9a8989604051610ea5929190918252602082015260400190565b60405180910390a350505050505050565b6000610ec3848484611375565b90505b9392505050565b610ed8600082610656565b61088c600033610680565b61088c8133611554565b6000828152602081815260408083206001600160a01b038516845290915290205460ff1661070d576000828152602081815260408083206001600160a01b03851684529091529020805460ff19166001179055610f473390565b6001600160a01b0316816001600160a01b0316837f2f8788117e7eff1d82e926ec794901d17c78024a50270940304540a733656f0d60405160405180910390a45050565b6000828152602081815260408083206001600160a01b038516845290915290205460ff161561070d576000828152602081815260408083206001600160a01b0385168085529252808320805460ff1916905551339285917ff6391f5c32d9c69d2a47ea670b442974b53935d1edc7fd64eb21e047a839171b9190a45050565b8015806110ac57506040517fdd62ed3e0000000000000000000000000000000000000000000000000000000081523060048201526001600160a01b03838116602483015284169063dd62ed3e9060440160206040518083038186803b15801561107257600080fd5b505afa158015611086573d6000803e3d6000fd5b505050506040513d601f19601f820116820180604052508101906110aa9190611b3f565b155b61111e5760405162461bcd60e51b815260206004820152603660248201527f5361666545524332303a20617070726f76652066726f6d206e6f6e2d7a65726f60448201527f20746f206e6f6e2d7a65726f20616c6c6f77616e63650000000000000000000060648201526084016106fa565b6040516001600160a01b03831660248201526044810182905261067b9084907f095ea7b300000000000000000000000000000000000000000000000000000000906064015b60408051601f198184030181529190526020810180517bffffffffffffffffffffffffffffffffffffffffffffffffffffffff166001600160e01b0319909316929092179091526115c7565b6040516001600160a01b03831660248201526044810182905261067b9084907fa9059cbb0000000000000000000000000000000000000000000000000000000090606401611163565b60405163e6a4390560e01b81526001600160a01b03848116600483015283811660248301526000917f00000000000000000000000000000000000000000000000000000000000000009091169063e6a439059060440160206040518083038186803b15801561126657600080fd5b505afa15801561127a573d6000803e3d6000fd5b505050506040513d601f19601f8201168201806040525081019061129e91906119ee565b9050600080846001600160a01b0316866001600160a01b0316106112c4578660006112c8565b6000875b90925090506112e16001600160a01b038716848a6111af565b604080516000815260208101918290527f022c0d9f000000000000000000000000000000000000000000000000000000009091526001600160a01b0384169063022c0d9f906113399085908590899060248101611cc7565b600060405180830381600087803b15801561135357600080fd5b505af1158015611367573d6000803e3d6000fd5b505050505050505050505050565b6000816001600160a01b0316836001600160a01b03161480611395575083155b156113a257506000610ec6565b60405163e6a4390560e01b81526001600160a01b03848116600483015283811660248301526000917f00000000000000000000000000000000000000000000000000000000000000009091169063e6a439059060440160206040518083038186803b15801561141057600080fd5b505afa158015611424573d6000803e3d6000fd5b505050506040513d601f19601f8201168201806040525081019061144891906119ee565b90506001600160a01b038116611462576000915050610ec6565b600080826001600160a01b0316630902f1ac6040518163ffffffff1660e01b815260040160606040518083038186803b15801561149e57600080fd5b505afa1580156114b2573d6000803e3d6000fd5b505050506040513d601f19601f820116820180604052508101906114d69190611af1565b506dffffffffffffffffffffffffffff1691506dffffffffffffffffffffffffffff169150600080866001600160a01b0316886001600160a01b03161061151e578284611521565b83835b915091506000821180156115355750600081115b1561154857611545898383611709565b95505b50505050509392505050565b6000828152602081815260408083206001600160a01b038516845290915290205460ff1661070d5761158581611776565b611590836020611788565b6040516020016115a1929190611c33565b60408051601f198184030181529082905262461bcd60e51b82526106fa91600401611cb4565b600080836001600160a01b0316836040516115e29190611c17565b6000604051808303816000865af19150503d806000811461161f576040519150601f19603f3d011682016040523d82523d6000602084013e611624565b606091505b5091509150816116765760405162461bcd60e51b815260206004820181905260248201527f5361666545524332303a206c6f772d6c6576656c2063616c6c206661696c656460448201526064016106fa565b80511561170357808060200190518101906116919190611a6d565b6117035760405162461bcd60e51b815260206004820152602a60248201527f5361666545524332303a204552433230206f7065726174696f6e20646964206e60448201527f6f7420737563636565640000000000000000000000000000000000000000000060648201526084016106fa565b50505050565b6000806117367f000000000000000000000000000000000000000000000000000000000000000086611d37565b905060006117448483611d37565b90506000826117556103e888611d37565b61175f9190611cff565b905061176b8183611d17565b979650505050505050565b60606105c26001600160a01b03831660145b60606000611797836002611d37565b6117a2906002611cff565b67ffffffffffffffff8111156117c857634e487b7160e01b600052604160045260246000fd5b6040519080825280601f01601f1916602001820160405280156117f2576020820181803683370190505b5090507f30000000000000000000000000000000000000000000000000000000000000008160008151811061183757634e487b7160e01b600052603260045260246000fd5b60200101906001600160f81b031916908160001a9053507f78000000000000000000000000000000000000000000000000000000000000008160018151811061189057634e487b7160e01b600052603260045260246000fd5b60200101906001600160f81b031916908160001a90535060006118b4846002611d37565b6118bf906001611cff565b90505b6001811115611960577f303132333435363738396162636465660000000000000000000000000000000085600f166010811061190e57634e487b7160e01b600052603260045260246000fd5b1a60f81b82828151811061193257634e487b7160e01b600052603260045260246000fd5b60200101906001600160f81b031916908160001a90535060049490941c9361195981611d99565b90506118c2565b508315610ec65760405162461bcd60e51b815260206004820181905260248201527f537472696e67733a20686578206c656e67746820696e73756666696369656e7460448201526064016106fa565b80516dffffffffffffffffffffffffffff811681146119cd57600080fd5b919050565b6000602082840312156119e3578081fd5b8135610ec681611e01565b6000602082840312156119ff578081fd5b8151610ec681611e01565b60008060408385031215611a1c578081fd5b8235611a2781611e01565b91506020830135611a3781611e01565b809150509250929050565b60008060408385031215611a54578182fd5b8235611a5f81611e01565b946020939093013593505050565b600060208284031215611a7e578081fd5b81518015158114610ec6578182fd5b600060208284031215611a9e578081fd5b5035919050565b60008060408385031215611ab7578182fd5b823591506020830135611a3781611e01565b600060208284031215611ada578081fd5b81356001600160e01b031981168114610ec6578182fd5b600080600060608486031215611b05578081fd5b611b0e846119af565b9250611b1c602085016119af565b9150604084015163ffffffff81168114611b34578182fd5b809150509250925092565b600060208284031215611b50578081fd5b5051919050565b600080600060608486031215611b6b578283fd5b833592506020840135611b7d81611e01565b91506040840135611b3481611e01565b600080600080600060a08688031215611ba4578081fd5b85359450602086013593506040860135611bbd81611e01565b92506060860135611bcd81611e01565b91506080860135611bdd81611e01565b809150509295509295909350565b60008151808452611c03816020860160208601611d6d565b601f01601f19169290920160200192915050565b60008251611c29818460208701611d6d565b9190910192915050565b7f416363657373436f6e74726f6c3a206163636f756e7420000000000000000000815260008351611c6b816017850160208801611d6d565b7f206973206d697373696e6720726f6c65200000000000000000000000000000006017918401918201528351611ca8816028840160208801611d6d565b01602801949350505050565b602081526000610ec66020830184611beb565b8481528360208201526001600160a01b0383166040820152608060608201526000611cf56080830184611beb565b9695505050505050565b60008219821115611d1257611d12611deb565b500190565b600082611d3257634e487b7160e01b81526012600452602481fd5b500490565b6000816000190483118215151615611d5157611d51611deb565b500290565b600082821015611d6857611d68611deb565b500390565b60005b83811015611d88578181015183820152602001611d70565b838111156117035750506000910152565b600081611da857611da8611deb565b506000190190565b600181811c90821680611dc457607f821691505b60208210811415611de557634e487b7160e01b600052602260045260246000fd5b50919050565b634e487b7160e01b600052601160045260246000fd5b6001600160a01b038116811461088c57600080fdfea2646970667358221220b1ee9a962fd5e0046e264e4d7a3f9366442c33699b602d2070ac4d9e3740eb6164736f6c63430008040033",
  "devdoc": {
    "kind": "dev",
    "methods": {
      "getRoleAdmin(bytes32)": {
        "details": "Returns the admin role that controls `role`. See {grantRole} and {revokeRole}. To change a role's admin, use {_setRoleAdmin}."
      },
      "grantRole(bytes32,address)": {
        "details": "Grants `role` to `account`. If `account` had not been already granted `role`, emits a {RoleGranted} event. Requirements: - the caller must have ``role``'s admin role. May emit a {RoleGranted} event."
      },
      "hasRole(bytes32,address)": {
        "details": "Returns `true` if `account` has been granted `role`."
      },
      "renounceRole(bytes32,address)": {
        "details": "Revokes `role` from the calling account. Roles are often managed via {grantRole} and {revokeRole}: this function's purpose is to provide a mechanism for accounts to lose their privileges if they are compromised (such as when a trusted device is misplaced). If the calling account had been revoked `role`, emits a {RoleRevoked} event. Requirements: - the caller must be `account`. May emit a {RoleRevoked} event."
      },
      "revokeRole(bytes32,address)": {
        "details": "Revokes `role` from `account`. If `account` had been granted `role`, emits a {RoleRevoked} event. Requirements: - the caller must have ``role``'s admin role. May emit a {RoleRevoked} event."
      },
      "supportsInterface(bytes4)": {
        "details": "See {IERC165-supportsInterface}."
      }
    },
    "version": 1
  },
  "userdoc": {
    "kind": "user",
    "methods": {},
    "version": 1
  },
  "storageLayout": {
    "storage": [
      {
        "astId": 24,
        "contract": "src/contracts/adapters/UniswapV2Adapter.sol:UniswapV2Adapter",
        "label": "_roles",
        "offset": 0,
        "slot": "0",
        "type": "t_mapping(t_bytes32,t_struct(RoleData)19_storage)"
      },
      {
        "astId": 2288,
        "contract": "src/contracts/adapters/UniswapV2Adapter.sol:UniswapV2Adapter",
        "label": "swapGasEstimate",
        "offset": 0,
        "slot": "1",
        "type": "t_uint256"
      },
      {
        "astId": 2290,
        "contract": "src/contracts/adapters/UniswapV2Adapter.sol:UniswapV2Adapter",
        "label": "name",
        "offset": 0,
        "slot": "2",
        "type": "t_string_storage"
      },
      {
        "astId": 2333,
        "contract": "src/contracts/adapters/UniswapV2Adapter.sol:UniswapV2Adapter",
        "label": "initialized",
        "offset": 0,
        "slot": "3",
        "type": "t_bool"
      },
      {
        "astId": 2335,
        "contract": "src/contracts/adapters/UniswapV2Adapter.sol:UniswapV2Adapter",
        "label": "governor",
        "offset": 1,
        "slot": "3",
        "type": "t_address"
      }
    ],
    "types": {
      "t_address": {
        "encoding": "inplace",
        "label": "address",
        "numberOfBytes": "20"
      },
      "t_bool": {
        "encoding": "inplace",
        "label": "bool",
        "numberOfBytes": "1"
      },
      "t_bytes32": {
        "encoding": "inplace",
        "label": "bytes32",
        "numberOfBytes": "32"
      },
      "t_mapping(t_address,t_bool)": {
        "encoding": "mapping",
        "key": "t_address",
        "label": "mapping(address => bool)",
        "numberOfBytes": "32",
        "value": "t_bool"
      },
      "t_mapping(t_bytes32,t_struct(RoleData)19_storage)": {
        "encoding": "mapping",
        "key": "t_bytes32",
        "label": "mapping(bytes32 => struct AccessControl.RoleData)",
        "numberOfBytes": "32",
        "value": "t_struct(RoleData)19_storage"
      },
      "t_string_storage": {
        "encoding": "bytes",
        "label": "string",
        "numberOfBytes": "32"
      },
      "t_struct(RoleData)19_storage": {
        "encoding": "inplace",
        "label": "struct AccessControl.RoleData",
        "members": [
          {
            "astId": 16,
            "contract": "src/contracts/adapters/UniswapV2Adapter.sol:UniswapV2Adapter",
            "label": "members",
            "offset": 0,
            "slot": "0",
            "type": "t_mapping(t_address,t_bool)"
          },
          {
            "astId": 18,
            "contract": "src/contracts/adapters/UniswapV2Adapter.sol:UniswapV2Adapter",
            "label": "adminRole",
            "offset": 0,
            "slot": "1",
            "type": "t_bytes32"
          }
        ],
        "numberOfBytes": "64"
      },
      "t_uint256": {
        "encoding": "inplace",
        "label": "uint256",
        "numberOfBytes": "32"
      }
    }
  }
}