{
  "address": "0xE8064a3Bf4A73C290cA38dfa1aF7A2b871a68591",
  "abi": [
    {
      "inputs": [
        {
          "internalType": "address",
          "name": "_router",
          "type": "address"
        },
        {
          "internalType": "address",
          "name": "_stable",
          "type": "address"
        },
        {
          "internalType": "address",
          "name": "_wNative",
          "type": "address"
        }
      ],
      "stateMutability": "nonpayable",
      "type": "constructor"
    },
    {
      "anonymous": false,
      "inputs": [
        {
          "indexed": true,
          "internalType": "address",
          "name": "_asset",
          "type": "address"
        },
        {
          "indexed": false,
          "internalType": "uint256",
          "name": "amount",
          "type": "uint256"
        }
      ],
      "name": "Recovered",
      "type": "event"
    },
    {
      "anonymous": false,
      "inputs": [
        {
          "indexed": true,
          "internalType": "bytes32",
          "name": "role",
          "type": "bytes32"
        },
        {
          "indexed": true,
          "internalType": "bytes32",
          "name": "previousAdminRole",
          "type": "bytes32"
        },
        {
          "indexed": true,
          "internalType": "bytes32",
          "name": "newAdminRole",
          "type": "bytes32"
        }
      ],
      "name": "RoleAdminChanged",
      "type": "event"
    },
    {
      "anonymous": false,
      "inputs": [
        {
          "indexed": true,
          "internalType": "bytes32",
          "name": "role",
          "type": "bytes32"
        },
        {
          "indexed": true,
          "internalType": "address",
          "name": "account",
          "type": "address"
        },
        {
          "indexed": true,
          "internalType": "address",
          "name": "sender",
          "type": "address"
        }
      ],
      "name": "RoleGranted",
      "type": "event"
    },
    {
      "anonymous": false,
      "inputs": [
        {
          "indexed": true,
          "internalType": "bytes32",
          "name": "role",
          "type": "bytes32"
        },
        {
          "indexed": true,
          "internalType": "address",
          "name": "account",
          "type": "address"
        },
        {
          "indexed": true,
          "internalType": "address",
          "name": "sender",
          "type": "address"
        }
      ],
      "name": "RoleRevoked",
      "type": "event"
    },
    {
      "inputs": [],
      "name": "DEFAULT_ADMIN_ROLE",
      "outputs": [
        {
          "internalType": "bytes32",
          "name": "",
          "type": "bytes32"
        }
      ],
      "stateMutability": "view",
      "type": "function"
    },
    {
      "inputs": [],
      "name": "MAINTAINER_ROLE",
      "outputs": [
        {
          "internalType": "bytes32",
          "name": "",
          "type": "bytes32"
        }
      ],
      "stateMutability": "view",
      "type": "function"
    },
    {
      "inputs": [],
      "name": "ROUTER",
      "outputs": [
        {
          "internalType": "contract ISummitRouter",
          "name": "",
          "type": "address"
        }
      ],
      "stateMutability": "view",
      "type": "function"
    },
    {
      "inputs": [],
      "name": "STABLE",
      "outputs": [
        {
          "internalType": "contract IERC20",
          "name": "",
          "type": "address"
        }
      ],
      "stateMutability": "view",
      "type": "function"
    },
    {
      "inputs": [],
      "name": "WNATIVE",
      "outputs": [
        {
          "internalType": "contract IERC20",
          "name": "",
          "type": "address"
        }
      ],
      "stateMutability": "view",
      "type": "function"
    },
    {
      "inputs": [
        {
          "internalType": "address",
          "name": "addedMaintainer",
          "type": "address"
        }
      ],
      "name": "addMaintainer",
      "outputs": [],
      "stateMutability": "nonpayable",
      "type": "function"
    },
    {
      "inputs": [
        {
          "internalType": "address",
          "name": "_token",
          "type": "address"
        }
      ],
      "name": "getPrice",
      "outputs": [
        {
          "internalType": "uint256",
          "name": "",
          "type": "uint256"
        },
        {
          "internalType": "uint256",
          "name": "",
          "type": "uint256"
        }
      ],
      "stateMutability": "view",
      "type": "function"
    },
    {
      "inputs": [
        {
          "internalType": "bytes32",
          "name": "role",
          "type": "bytes32"
        }
      ],
      "name": "getRoleAdmin",
      "outputs": [
        {
          "internalType": "bytes32",
          "name": "",
          "type": "bytes32"
        }
      ],
      "stateMutability": "view",
      "type": "function"
    },
    {
      "inputs": [
        {
          "internalType": "address",
          "name": "_user",
          "type": "address"
        },
        {
          "internalType": "uint256",
          "name": "_amountIn",
          "type": "uint256"
        },
        {
          "internalType": "address",
          "name": "_tokenIn",
          "type": "address"
        },
        {
          "internalType": "address",
          "name": "_tokenOut",
          "type": "address"
        },
        {
          "internalType": "uint256",
          "name": "_maxSteps",
          "type": "uint256"
        }
      ],
      "name": "getTokenAndSwapData",
      "outputs": [
        {
          "components": [
            {
              "internalType": "address",
              "name": "tokenAddress",
              "type": "address"
            },
            {
              "internalType": "uint256",
              "name": "decimals",
              "type": "uint256"
            },
            {
              "internalType": "uint256",
              "name": "userAllowance",
              "type": "uint256"
            },
            {
              "internalType": "uint256",
              "name": "userBalance",
              "type": "uint256"
            },
            {
              "internalType": "uint256",
              "name": "price",
              "type": "uint256"
            },
            {
              "internalType": "uint256",
              "name": "priceDecimals",
              "type": "uint256"
            }
          ],
          "internalType": "struct SummitOracle.TokenData",
          "name": "token",
          "type": "tuple"
        },
        {
          "components": [
            {
              "internalType": "uint256[]",
              "name": "amounts",
              "type": "uint256[]"
            },
            {
              "internalType": "address[]",
              "name": "adapters",
              "type": "address[]"
            },
            {
              "internalType": "address[]",
              "name": "path",
              "type": "address[]"
            },
            {
              "internalType": "uint256",
              "name": "gasEstimate",
              "type": "uint256"
            }
          ],
          "internalType": "struct FormattedOffer",
          "name": "offer",
          "type": "tuple"
        }
      ],
      "stateMutability": "view",
      "type": "function"
    },
    {
      "inputs": [
        {
          "internalType": "address",
          "name": "_user",
          "type": "address"
        },
        {
          "internalType": "address",
          "name": "_token",
          "type": "address"
        }
      ],
      "name": "getTokenData",
      "outputs": [
        {
          "components": [
            {
              "internalType": "address",
              "name": "tokenAddress",
              "type": "address"
            },
            {
              "internalType": "uint256",
              "name": "decimals",
              "type": "uint256"
            },
            {
              "internalType": "uint256",
              "name": "userAllowance",
              "type": "uint256"
            },
            {
              "internalType": "uint256",
              "name": "userBalance",
              "type": "uint256"
            },
            {
              "internalType": "uint256",
              "name": "price",
              "type": "uint256"
            },
            {
              "internalType": "uint256",
              "name": "priceDecimals",
              "type": "uint256"
            }
          ],
          "internalType": "struct SummitOracle.TokenData",
          "name": "token",
          "type": "tuple"
        }
      ],
      "stateMutability": "view",
      "type": "function"
    },
    {
      "inputs": [
        {
          "internalType": "bytes32",
          "name": "role",
          "type": "bytes32"
        },
        {
          "internalType": "address",
          "name": "account",
          "type": "address"
        }
      ],
      "name": "grantRole",
      "outputs": [],
      "stateMutability": "nonpayable",
      "type": "function"
    },
    {
      "inputs": [
        {
          "internalType": "bytes32",
          "name": "role",
          "type": "bytes32"
        },
        {
          "internalType": "address",
          "name": "account",
          "type": "address"
        }
      ],
      "name": "hasRole",
      "outputs": [
        {
          "internalType": "bool",
          "name": "",
          "type": "bool"
        }
      ],
      "stateMutability": "view",
      "type": "function"
    },
    {
      "inputs": [
        {
          "internalType": "address",
          "name": "_tokenAddress",
          "type": "address"
        },
        {
          "internalType": "uint256",
          "name": "_tokenAmount",
          "type": "uint256"
        }
      ],
      "name": "recoverERC20",
      "outputs": [],
      "stateMutability": "nonpayable",
      "type": "function"
    },
    {
      "inputs": [
        {
          "internalType": "uint256",
          "name": "_amount",
          "type": "uint256"
        }
      ],
      "name": "recoverNATIVE",
      "outputs": [],
      "stateMutability": "nonpayable",
      "type": "function"
    },
    {
      "inputs": [
        {
          "internalType": "address",
          "name": "removedMaintainer",
          "type": "address"
        }
      ],
      "name": "removeMaintainer",
      "outputs": [],
      "stateMutability": "nonpayable",
      "type": "function"
    },
    {
      "inputs": [
        {
          "internalType": "bytes32",
          "name": "role",
          "type": "bytes32"
        },
        {
          "internalType": "address",
          "name": "account",
          "type": "address"
        }
      ],
      "name": "renounceRole",
      "outputs": [],
      "stateMutability": "nonpayable",
      "type": "function"
    },
    {
      "inputs": [
        {
          "internalType": "bytes32",
          "name": "role",
          "type": "bytes32"
        }
      ],
      "name": "renounceRole",
      "outputs": [],
      "stateMutability": "nonpayable",
      "type": "function"
    },
    {
      "inputs": [
        {
          "internalType": "bytes32",
          "name": "role",
          "type": "bytes32"
        },
        {
          "internalType": "address",
          "name": "account",
          "type": "address"
        }
      ],
      "name": "revokeRole",
      "outputs": [],
      "stateMutability": "nonpayable",
      "type": "function"
    },
    {
      "inputs": [
        {
          "internalType": "address",
          "name": "_router",
          "type": "address"
        }
      ],
      "name": "setRouter",
      "outputs": [],
      "stateMutability": "nonpayable",
      "type": "function"
    },
    {
      "inputs": [
        {
          "internalType": "address",
          "name": "_stable",
          "type": "address"
        }
      ],
      "name": "setStable",
      "outputs": [],
      "stateMutability": "nonpayable",
      "type": "function"
    },
    {
      "inputs": [
        {
          "internalType": "address",
          "name": "_wNative",
          "type": "address"
        }
      ],
      "name": "setWNative",
      "outputs": [],
      "stateMutability": "nonpayable",
      "type": "function"
    },
    {
      "inputs": [
        {
          "internalType": "bytes4",
          "name": "interfaceId",
          "type": "bytes4"
        }
      ],
      "name": "supportsInterface",
      "outputs": [
        {
          "internalType": "bool",
          "name": "",
          "type": "bool"
        }
      ],
      "stateMutability": "view",
      "type": "function"
    },
    {
      "inputs": [
        {
          "internalType": "address",
          "name": "newOwner",
          "type": "address"
        }
      ],
      "name": "transferOwnership",
      "outputs": [],
      "stateMutability": "nonpayable",
      "type": "function"
    }
  ],
  "transactionHash": "0xb2a2be6f4d9c7ef4e4df664b9bfe75b32aa0a49e09ed733ebc539d3124f45f79",
  "args": [
    "0xe1B95668c693b6dEaeEEBDb17fCA55AbFF9e0d3E",
    "0x28a92dde19d9989f39a49905d7c9c2fac7799bdf",
    "0x21be370D5312f44cB42ce377BC9b8a0cEF1A4C83"
  ],
  "solcInputHash": "8bd082194abe32705cf05412eede69e6",
  "bytecode": "0x60806040523480156200001157600080fd5b506040516200201f3803806200201f83398101604081905262000034916200017f565b3362000042600082620000b2565b6200006e7f339759585899103d2ace64958e37e18ccb0504652c81d4a1b8aa80fe2126ab9582620000b2565b50600180546001600160a01b039485166001600160a01b031991821617909155600280549385169382169390931790925560038054919093169116179055620001c8565b620000be8282620000c2565b5050565b6000828152602081815260408083206001600160a01b038516845290915290205460ff16620000be576000828152602081815260408083206001600160a01b03851684529091529020805460ff191660011790556200011e3390565b6001600160a01b0316816001600160a01b0316837f2f8788117e7eff1d82e926ec794901d17c78024a50270940304540a733656f0d60405160405180910390a45050565b80516001600160a01b03811681146200017a57600080fd5b919050565b60008060006060848603121562000194578283fd5b6200019f8462000162565b9250620001af6020850162000162565b9150620001bf6040850162000162565b90509250925092565b611e4780620001d86000396000f3fe608060405234801561001057600080fd5b506004361061018d5760003560e01c80638bb9c5bf116100e3578063c2c528201161008c578063dba7137611610066578063dba71376146103a4578063f2fde38b146103b7578063f8742254146103ca57600080fd5b8063c2c528201461036b578063d547741f1461037e578063d8baf7cf1461039157600080fd5b8063a217fddf116100bd578063a217fddf1461033d578063b381cf4014610345578063c0d786551461035857600080fd5b80638bb9c5bf146102e057806391d14854146102f357806395490c0b1461032a57600080fd5b806336568abe11610145578063573eac8a1161011f578063573eac8a146102995780636b453c1f146102ba5780638980f11f146102cd57600080fd5b806336568abe1461024b57806341976e091461025e57806354d9f6531461028657600080fd5b80632f2ff15d116101765780632f2ff15d146101eb57806331f380d01461020057806332fe7b261461022057600080fd5b806301ffc9a714610192578063248a9ca3146101ba575b600080fd5b6101a56101a036600461186b565b6103f1565b60405190151581526020015b60405180910390f35b6101dd6101c836600461182f565b60009081526020819052604090206001015490565b6040519081526020016101b1565b6101fe6101f9366004611847565b61045a565b005b61021361020e366004611752565b610484565b6040516101b19190611a9b565b600154610233906001600160a01b031681565b6040516001600160a01b0390911681526020016101b1565b6101fe610259366004611847565b610531565b61027161026c366004611736565b6105c2565b604080519283526020830191909152016101b1565b600254610233906001600160a01b031681565b6102ac6102a73660046117b5565b6107e5565b6040516101b1929190611ae7565b6101fe6102c8366004611736565b61094d565b6101fe6102db36600461178a565b61097a565b6101fe6102ee36600461182f565b610ab5565b6101a5610301366004611847565b6000918252602082815260408084206001600160a01b0393909316845291905290205460ff1690565b6101fe610338366004611736565b610ac0565b6101dd600081565b600354610233906001600160a01b031681565b6101fe610366366004611736565b610b7f565b6101fe61037936600461182f565b610c3e565b6101fe61038c366004611847565b610d85565b6101fe61039f366004611736565b610daa565b6101fe6103b2366004611736565b610dd4565b6101fe6103c5366004611736565b610e93565b6101dd7f339759585899103d2ace64958e37e18ccb0504652c81d4a1b8aa80fe2126ab9581565b60006001600160e01b031982167f7965db0b00000000000000000000000000000000000000000000000000000000148061045457507f01ffc9a7000000000000000000000000000000000000000000000000000000006001600160e01b03198316145b92915050565b60008281526020819052604090206001015461047581610eaa565b61047f8383610eb4565b505050565b6104c66040518060c0016040528060006001600160a01b0316815260200160008152602001600081526020016000815260200160008152602001600081525090565b6000806104d2846105c2565b915091506040518060c00160405280856001600160a01b031681526020016104f986610f52565b60ff16815260200161050b8787610fdf565b815260200161051a87876110bc565b815260208101939093526040909201529392505050565b6001600160a01b03811633146105b45760405162461bcd60e51b815260206004820152602f60248201527f416363657373436f6e74726f6c3a2063616e206f6e6c792072656e6f756e636560448201527f20726f6c657320666f722073656c66000000000000000000000000000000000060648201526084015b60405180910390fd5b6105be828261113a565b5050565b60008060006105d084610f52565b6001549091506001600160a01b0316634c09cf4e6105ef83600a611cac565b6001600160a01b038716156106045786610611565b6003546001600160a01b03165b60025460405160e085901b6001600160e01b031916815260048101939093526001600160a01b0391821660248401521660448201526003606482015260840160006040518083038186803b15801561066857600080fd5b505afa92505050801561069d57506040513d6000823e601f3d908101601f1916820160405261069a9190810190611893565b60015b61074657600254604080517f313ce56700000000000000000000000000000000000000000000000000000000815290516000926001600160a01b03169163313ce567916004808301926020929190829003018186803b1580156106ff57600080fd5b505afa158015610713573d6000803e3d6000fd5b505050506040513d601f19601f820116820180604052508101906107379190611967565b909560ff909116945092505050565b61074f816111b9565b600260009054906101000a90046001600160a01b03166001600160a01b031663313ce5676040518163ffffffff1660e01b815260040160206040518083038186803b15801561079d57600080fd5b505afa1580156107b1573d6000803e3d6000fd5b505050506040513d601f19601f820116820180604052508101906107d59190611967565b909660ff90911695509350505050565b6108276040518060c0016040528060006001600160a01b0316815260200160008152602001600081526020016000815260200160008152602001600081525090565b6108526040518060800160405280606081526020016060815260200160608152602001600081525090565b61085c8786610484565b6001546001600160a01b0390811690634c09cf4e908990891615610880578861088d565b6003546001600160a01b03165b6001600160a01b038916156108a257886108af565b6003546001600160a01b03165b6040516001600160e01b031960e086901b16815260048101939093526001600160a01b0391821660248401521660448201526064810187905260840160006040518083038186803b15801561090357600080fd5b505afa158015610917573d6000803e3d6000fd5b505050506040513d6000823e601f3d908101601f1916820160405261093f9190810190611893565b915091509550959350505050565b6109777f339759585899103d2ace64958e37e18ccb0504652c81d4a1b8aa80fe2126ab958261045a565b50565b3360008181527fa54247010af6b3693b80aceddfad12e077c5de3571e6243fada502635f0d7d39602052604090205460ff16610a095760405162461bcd60e51b815260206004820152602860248201527f4d61696e7461696e61626c653a2043616c6c6572206973206e6f742061206d6160448201526734b73a30b4b732b960c11b60648201526084016105ab565b60008211610a595760405162461bcd60e51b815260206004820152601260248201527f4e6f7468696e6720746f207265636f766572000000000000000000000000000060448201526064016105ab565b610a6d6001600160a01b03841633846111fa565b826001600160a01b03167f8c1256b8896378cd5044f80c202f9772b9d77dc85c8a6eb51967210b09bfaa2883604051610aa891815260200190565b60405180910390a2505050565b336105be8282610531565b3360008181527fa54247010af6b3693b80aceddfad12e077c5de3571e6243fada502635f0d7d39602052604090205460ff16610b4f5760405162461bcd60e51b815260206004820152602860248201527f4d61696e7461696e61626c653a2043616c6c6572206973206e6f742061206d6160448201526734b73a30b4b732b960c11b60648201526084016105ab565b506003805473ffffffffffffffffffffffffffffffffffffffff19166001600160a01b0392909216919091179055565b3360008181527fa54247010af6b3693b80aceddfad12e077c5de3571e6243fada502635f0d7d39602052604090205460ff16610c0e5760405162461bcd60e51b815260206004820152602860248201527f4d61696e7461696e61626c653a2043616c6c6572206973206e6f742061206d6160448201526734b73a30b4b732b960c11b60648201526084016105ab565b506001805473ffffffffffffffffffffffffffffffffffffffff19166001600160a01b0392909216919091179055565b3360008181527fa54247010af6b3693b80aceddfad12e077c5de3571e6243fada502635f0d7d39602052604090205460ff16610ccd5760405162461bcd60e51b815260206004820152602860248201527f4d61696e7461696e61626c653a2043616c6c6572206973206e6f742061206d6160448201526734b73a30b4b732b960c11b60648201526084016105ab565b60008211610d1d5760405162461bcd60e51b815260206004820152601260248201527f4e6f7468696e6720746f207265636f766572000000000000000000000000000060448201526064016105ab565b604051339083156108fc029084906000818181858888f19350505050158015610d4a573d6000803e3d6000fd5b506040518281526000907f8c1256b8896378cd5044f80c202f9772b9d77dc85c8a6eb51967210b09bfaa289060200160405180910390a25050565b600082815260208190526040902060010154610da081610eaa565b61047f838361113a565b6109777f339759585899103d2ace64958e37e18ccb0504652c81d4a1b8aa80fe2126ab9582610d85565b3360008181527fa54247010af6b3693b80aceddfad12e077c5de3571e6243fada502635f0d7d39602052604090205460ff16610e635760405162461bcd60e51b815260206004820152602860248201527f4d61696e7461696e61626c653a2043616c6c6572206973206e6f742061206d6160448201526734b73a30b4b732b960c11b60648201526084016105ab565b506002805473ffffffffffffffffffffffffffffffffffffffff19166001600160a01b0392909216919091179055565b33610e9f60008361045a565b6105be600082610531565b610977813361127a565b6000828152602081815260408083206001600160a01b038516845290915290205460ff166105be576000828152602081815260408083206001600160a01b03851684529091529020805460ff19166001179055610f0e3390565b6001600160a01b0316816001600160a01b0316837f2f8788117e7eff1d82e926ec794901d17c78024a50270940304540a733656f0d60405160405180910390a45050565b60006001600160a01b038216610f6a57506012919050565b816001600160a01b031663313ce5676040518163ffffffff1660e01b815260040160206040518083038186803b158015610fa357600080fd5b505afa925050508015610fd3575060408051601f3d908101601f19168201909252610fd091810190611967565b60015b61045457506012919050565b60006001600160a01b038316610ff757506000610454565b6001600160a01b03821661101657506001600160a01b03821631610454565b6001546040517fdd62ed3e0000000000000000000000000000000000000000000000000000000081526001600160a01b03858116600483015291821660248201529083169063dd62ed3e906044015b60206040518083038186803b15801561107d57600080fd5b505afa158015611091573d6000803e3d6000fd5b505050506040513d601f19601f820116820180604052508101906110b5919061194f565b9392505050565b60006001600160a01b0383166110d457506000610454565b6001600160a01b0382166110f357506001600160a01b03821631610454565b6040517f70a082310000000000000000000000000000000000000000000000000000000081526001600160a01b0384811660048301528316906370a0823190602401611065565b6000828152602081815260408083206001600160a01b038516845290915290205460ff16156105be576000828152602081815260408083206001600160a01b0385168085529252808320805460ff1916905551339285917ff6391f5c32d9c69d2a47ea670b442974b53935d1edc7fd64eb21e047a839171b9190a45050565b80518051600091906111cd90600190611d76565b815181106111eb57634e487b7160e01b600052603260045260246000fd5b60200260200101519050919050565b604080516001600160a01b038416602482015260448082018490528251808303909101815260649091019091526020810180517bffffffffffffffffffffffffffffffffffffffffffffffffffffffff167fa9059cbb0000000000000000000000000000000000000000000000000000000017905261047f9084906112f8565b6000828152602081815260408083206001600160a01b038516845290915290205460ff166105be576112b6816001600160a01b0316601461143a565b6112c183602061143a565b6040516020016112d29291906119e7565b60408051601f198184030181529082905262461bcd60e51b82526105ab91600401611a68565b600080836001600160a01b03168360405161131391906119cb565b6000604051808303816000865af19150503d8060008114611350576040519150601f19603f3d011682016040523d82523d6000602084013e611355565b606091505b5091509150816113a75760405162461bcd60e51b815260206004820181905260248201527f5361666545524332303a206c6f772d6c6576656c2063616c6c206661696c656460448201526064016105ab565b80511561143457808060200190518101906113c2919061180f565b6114345760405162461bcd60e51b815260206004820152602a60248201527f5361666545524332303a204552433230206f7065726174696f6e20646964206e60448201527f6f7420737563636565640000000000000000000000000000000000000000000060648201526084016105ab565b50505050565b60606000611449836002611d57565b611454906002611c51565b67ffffffffffffffff81111561147a57634e487b7160e01b600052604160045260246000fd5b6040519080825280601f01601f1916602001820160405280156114a4576020820181803683370190505b5090507f3000000000000000000000000000000000000000000000000000000000000000816000815181106114e957634e487b7160e01b600052603260045260246000fd5b60200101906001600160f81b031916908160001a9053507f78000000000000000000000000000000000000000000000000000000000000008160018151811061154257634e487b7160e01b600052603260045260246000fd5b60200101906001600160f81b031916908160001a9053506000611566846002611d57565b611571906001611c51565b90505b6001811115611612577f303132333435363738396162636465660000000000000000000000000000000085600f16601081106115c057634e487b7160e01b600052603260045260246000fd5b1a60f81b8282815181106115e457634e487b7160e01b600052603260045260246000fd5b60200101906001600160f81b031916908160001a90535060049490941c9361160b81611db9565b9050611574565b5083156110b55760405162461bcd60e51b815260206004820181905260248201527f537472696e67733a20686578206c656e67746820696e73756666696369656e7460448201526064016105ab565b600082601f830112611671578081fd5b8151602061168661168183611c2d565b611bfc565b80838252828201915082860187848660051b89010111156116a5578586fd5b855b858110156116cc5781516116ba81611dfc565b845292840192908401906001016116a7565b5090979650505050505050565b600082601f8301126116e9578081fd5b815160206116f961168183611c2d565b80838252828201915082860187848660051b8901011115611718578586fd5b855b858110156116cc5781518452928401929084019060010161171a565b600060208284031215611747578081fd5b81356110b581611dfc565b60008060408385031215611764578081fd5b823561176f81611dfc565b9150602083013561177f81611dfc565b809150509250929050565b6000806040838503121561179c578182fd5b82356117a781611dfc565b946020939093013593505050565b600080600080600060a086880312156117cc578081fd5b85356117d781611dfc565b94506020860135935060408601356117ee81611dfc565b925060608601356117fe81611dfc565b949793965091946080013592915050565b600060208284031215611820578081fd5b815180151581146110b5578182fd5b600060208284031215611840578081fd5b5035919050565b60008060408385031215611859578182fd5b82359150602083013561177f81611dfc565b60006020828403121561187c578081fd5b81356001600160e01b0319811681146110b5578182fd5b6000602082840312156118a4578081fd5b815167ffffffffffffffff808211156118bb578283fd5b90830190608082860312156118ce578283fd5b6118d6611bd3565b8251828111156118e4578485fd5b6118f0878286016116d9565b825250602083015182811115611904578485fd5b61191087828601611661565b602083015250604083015182811115611927578485fd5b61193387828601611661565b6040830152506060830151606082015280935050505092915050565b600060208284031215611960578081fd5b5051919050565b600060208284031215611978578081fd5b815160ff811681146110b5578182fd5b6000815180845260208085019450808401835b838110156119c05781516001600160a01b03168752958201959082019060010161199b565b509495945050505050565b600082516119dd818460208701611d8d565b9190910192915050565b7f416363657373436f6e74726f6c3a206163636f756e7420000000000000000000815260008351611a1f816017850160208801611d8d565b7f206973206d697373696e6720726f6c65200000000000000000000000000000006017918401918201528351611a5c816028840160208801611d8d565b01602801949350505050565b6020815260008251806020840152611a87816040850160208701611d8d565b601f01601f19169190910160400192915050565b60c0810161045482846001600160a01b0381511682526020810151602083015260408101516040830152606081015160608301526080810151608083015260a081015160a08301525050565b611b2f81846001600160a01b0381511682526020810151602083015260408101516040830152606081015160608301526080810151608083015260a081015160a08301525050565b60e060c0820152600061016082018351608060e085015281815180845261018086019150602093508383019250845b81811015611b7a57835183529284019291840191600101611b5e565b505082860151925060df1991508185820301610100860152611b9c8184611988565b92505060408501518185840301610120860152611bb98382611988565b925050506060840151610140840152809150509392505050565b6040516080810167ffffffffffffffff81118282101715611bf657611bf6611de6565b60405290565b604051601f8201601f1916810167ffffffffffffffff81118282101715611c2557611c25611de6565b604052919050565b600067ffffffffffffffff821115611c4757611c47611de6565b5060051b60200190565b60008219821115611c6457611c64611dd0565b500190565b600181815b80851115611ca4578160001904821115611c8a57611c8a611dd0565b80851615611c9757918102915b93841c9390800290611c6e565b509250929050565b60006110b560ff841683600082611cc557506001610454565b81611cd257506000610454565b8160018114611ce85760028114611cf257611d0e565b6001915050610454565b60ff841115611d0357611d03611dd0565b50506001821b610454565b5060208310610133831016604e8410600b8410161715611d31575081810a610454565b611d3b8383611c69565b8060001904821115611d4f57611d4f611dd0565b029392505050565b6000816000190483118215151615611d7157611d71611dd0565b500290565b600082821015611d8857611d88611dd0565b500390565b60005b83811015611da8578181015183820152602001611d90565b838111156114345750506000910152565b600081611dc857611dc8611dd0565b506000190190565b634e487b7160e01b600052601160045260246000fd5b634e487b7160e01b600052604160045260246000fd5b6001600160a01b038116811461097757600080fdfea26469706673582212203d7f64f5e1eb05a0485767c2fa8d25b88ad7d66fe859503c63bbb2772fdd64a664736f6c63430008040033",
  "devdoc": {
    "kind": "dev",
    "methods": {
      "getRoleAdmin(bytes32)": {
        "details": "Returns the admin role that controls `role`. See {grantRole} and {revokeRole}. To change a role's admin, use {_setRoleAdmin}."
      },
      "grantRole(bytes32,address)": {
        "details": "Grants `role` to `account`. If `account` had not been already granted `role`, emits a {RoleGranted} event. Requirements: - the caller must have ``role``'s admin role. May emit a {RoleGranted} event."
      },
      "hasRole(bytes32,address)": {
        "details": "Returns `true` if `account` has been granted `role`."
      },
      "recoverERC20(address,uint256)": {
        "params": {
          "_tokenAddress": "token address",
          "_tokenAmount": "amount to recover"
        }
      },
      "recoverNATIVE(uint256)": {
        "params": {
          "_amount": "amount"
        }
      },
      "renounceRole(bytes32,address)": {
        "details": "Revokes `role` from the calling account. Roles are often managed via {grantRole} and {revokeRole}: this function's purpose is to provide a mechanism for accounts to lose their privileges if they are compromised (such as when a trusted device is misplaced). If the calling account had been revoked `role`, emits a {RoleRevoked} event. Requirements: - the caller must be `account`. May emit a {RoleRevoked} event."
      },
      "revokeRole(bytes32,address)": {
        "details": "Revokes `role` from `account`. If `account` had been granted `role`, emits a {RoleRevoked} event. Requirements: - the caller must have ``role``'s admin role. May emit a {RoleRevoked} event."
      },
      "supportsInterface(bytes4)": {
        "details": "See {IERC165-supportsInterface}."
      }
    },
    "version": 1
  },
  "userdoc": {
    "kind": "user",
    "methods": {
      "recoverERC20(address,uint256)": {
        "notice": "Recover ERC20 from contract"
      },
      "recoverNATIVE(uint256)": {
        "notice": "Recover native asset from contract"
      }
    },
    "version": 1
  },
  "storageLayout": {
    "storage": [
      {
        "astId": 24,
        "contract": "src/contracts/SummitOracle.sol:SummitOracle",
        "label": "_roles",
        "offset": 0,
        "slot": "0",
        "type": "t_mapping(t_bytes32,t_struct(RoleData)19_storage)"
      },
      {
        "astId": 8768,
        "contract": "src/contracts/SummitOracle.sol:SummitOracle",
        "label": "ROUTER",
        "offset": 0,
        "slot": "1",
        "type": "t_contract(ISummitRouter)9521"
      },
      {
        "astId": 8771,
        "contract": "src/contracts/SummitOracle.sol:SummitOracle",
        "label": "STABLE",
        "offset": 0,
        "slot": "2",
        "type": "t_contract(IERC20)9277"
      },
      {
        "astId": 8774,
        "contract": "src/contracts/SummitOracle.sol:SummitOracle",
        "label": "WNATIVE",
        "offset": 0,
        "slot": "3",
        "type": "t_contract(IERC20)9277"
      }
    ],
    "types": {
      "t_address": {
        "encoding": "inplace",
        "label": "address",
        "numberOfBytes": "20"
      },
      "t_bool": {
        "encoding": "inplace",
        "label": "bool",
        "numberOfBytes": "1"
      },
      "t_bytes32": {
        "encoding": "inplace",
        "label": "bytes32",
        "numberOfBytes": "32"
      },
      "t_contract(IERC20)9277": {
        "encoding": "inplace",
        "label": "contract IERC20",
        "numberOfBytes": "20"
      },
      "t_contract(ISummitRouter)9521": {
        "encoding": "inplace",
        "label": "contract ISummitRouter",
        "numberOfBytes": "20"
      },
      "t_mapping(t_address,t_bool)": {
        "encoding": "mapping",
        "key": "t_address",
        "label": "mapping(address => bool)",
        "numberOfBytes": "32",
        "value": "t_bool"
      },
      "t_mapping(t_bytes32,t_struct(RoleData)19_storage)": {
        "encoding": "mapping",
        "key": "t_bytes32",
        "label": "mapping(bytes32 => struct AccessControl.RoleData)",
        "numberOfBytes": "32",
        "value": "t_struct(RoleData)19_storage"
      },
      "t_struct(RoleData)19_storage": {
        "encoding": "inplace",
        "label": "struct AccessControl.RoleData",
        "members": [
          {
            "astId": 16,
            "contract": "src/contracts/SummitOracle.sol:SummitOracle",
            "label": "members",
            "offset": 0,
            "slot": "0",
            "type": "t_mapping(t_address,t_bool)"
          },
          {
            "astId": 18,
            "contract": "src/contracts/SummitOracle.sol:SummitOracle",
            "label": "adminRole",
            "offset": 0,
            "slot": "1",
            "type": "t_bytes32"
          }
        ],
        "numberOfBytes": "64"
      }
    }
  }
}