{
  "address": "0x0fDF39CeD919716A6c5c5FC477Bd8526f3A5750B",
  "abi": [
    {
      "inputs": [
        {
          "internalType": "address",
          "name": "_router",
          "type": "address"
        },
        {
          "internalType": "address",
          "name": "_stable",
          "type": "address"
        },
        {
          "internalType": "address",
          "name": "_wNative",
          "type": "address"
        }
      ],
      "stateMutability": "nonpayable",
      "type": "constructor"
    },
    {
      "anonymous": false,
      "inputs": [
        {
          "indexed": true,
          "internalType": "address",
          "name": "_asset",
          "type": "address"
        },
        {
          "indexed": false,
          "internalType": "uint256",
          "name": "amount",
          "type": "uint256"
        }
      ],
      "name": "Recovered",
      "type": "event"
    },
    {
      "anonymous": false,
      "inputs": [
        {
          "indexed": true,
          "internalType": "bytes32",
          "name": "role",
          "type": "bytes32"
        },
        {
          "indexed": true,
          "internalType": "bytes32",
          "name": "previousAdminRole",
          "type": "bytes32"
        },
        {
          "indexed": true,
          "internalType": "bytes32",
          "name": "newAdminRole",
          "type": "bytes32"
        }
      ],
      "name": "RoleAdminChanged",
      "type": "event"
    },
    {
      "anonymous": false,
      "inputs": [
        {
          "indexed": true,
          "internalType": "bytes32",
          "name": "role",
          "type": "bytes32"
        },
        {
          "indexed": true,
          "internalType": "address",
          "name": "account",
          "type": "address"
        },
        {
          "indexed": true,
          "internalType": "address",
          "name": "sender",
          "type": "address"
        }
      ],
      "name": "RoleGranted",
      "type": "event"
    },
    {
      "anonymous": false,
      "inputs": [
        {
          "indexed": true,
          "internalType": "bytes32",
          "name": "role",
          "type": "bytes32"
        },
        {
          "indexed": true,
          "internalType": "address",
          "name": "account",
          "type": "address"
        },
        {
          "indexed": true,
          "internalType": "address",
          "name": "sender",
          "type": "address"
        }
      ],
      "name": "RoleRevoked",
      "type": "event"
    },
    {
      "inputs": [],
      "name": "DEFAULT_ADMIN_ROLE",
      "outputs": [
        {
          "internalType": "bytes32",
          "name": "",
          "type": "bytes32"
        }
      ],
      "stateMutability": "view",
      "type": "function"
    },
    {
      "inputs": [],
      "name": "MAINTAINER_ROLE",
      "outputs": [
        {
          "internalType": "bytes32",
          "name": "",
          "type": "bytes32"
        }
      ],
      "stateMutability": "view",
      "type": "function"
    },
    {
      "inputs": [],
      "name": "ROUTER",
      "outputs": [
        {
          "internalType": "contract ISummitRouter",
          "name": "",
          "type": "address"
        }
      ],
      "stateMutability": "view",
      "type": "function"
    },
    {
      "inputs": [],
      "name": "STABLE",
      "outputs": [
        {
          "internalType": "contract IERC20",
          "name": "",
          "type": "address"
        }
      ],
      "stateMutability": "view",
      "type": "function"
    },
    {
      "inputs": [],
      "name": "WNATIVE",
      "outputs": [
        {
          "internalType": "contract IERC20",
          "name": "",
          "type": "address"
        }
      ],
      "stateMutability": "view",
      "type": "function"
    },
    {
      "inputs": [
        {
          "internalType": "address",
          "name": "addedMaintainer",
          "type": "address"
        }
      ],
      "name": "addMaintainer",
      "outputs": [],
      "stateMutability": "nonpayable",
      "type": "function"
    },
    {
      "inputs": [
        {
          "internalType": "address",
          "name": "_token",
          "type": "address"
        }
      ],
      "name": "getPrice",
      "outputs": [
        {
          "internalType": "uint256",
          "name": "",
          "type": "uint256"
        },
        {
          "internalType": "uint256",
          "name": "",
          "type": "uint256"
        }
      ],
      "stateMutability": "view",
      "type": "function"
    },
    {
      "inputs": [
        {
          "internalType": "bytes32",
          "name": "role",
          "type": "bytes32"
        }
      ],
      "name": "getRoleAdmin",
      "outputs": [
        {
          "internalType": "bytes32",
          "name": "",
          "type": "bytes32"
        }
      ],
      "stateMutability": "view",
      "type": "function"
    },
    {
      "inputs": [
        {
          "internalType": "uint256",
          "name": "_amountIn",
          "type": "uint256"
        },
        {
          "internalType": "address",
          "name": "_tokenIn",
          "type": "address"
        },
        {
          "internalType": "address",
          "name": "_tokenOut",
          "type": "address"
        },
        {
          "internalType": "uint256",
          "name": "_maxSteps",
          "type": "uint256"
        }
      ],
      "name": "getSwapData",
      "outputs": [
        {
          "components": [
            {
              "internalType": "uint256[]",
              "name": "amounts",
              "type": "uint256[]"
            },
            {
              "internalType": "address[]",
              "name": "adapters",
              "type": "address[]"
            },
            {
              "internalType": "address[]",
              "name": "path",
              "type": "address[]"
            },
            {
              "internalType": "uint256",
              "name": "gasEstimate",
              "type": "uint256"
            }
          ],
          "internalType": "struct FormattedOffer",
          "name": "offer",
          "type": "tuple"
        }
      ],
      "stateMutability": "view",
      "type": "function"
    },
    {
      "inputs": [
        {
          "internalType": "address",
          "name": "_user",
          "type": "address"
        },
        {
          "internalType": "address",
          "name": "_token",
          "type": "address"
        }
      ],
      "name": "getTokenData",
      "outputs": [
        {
          "components": [
            {
              "internalType": "address",
              "name": "tokenAddress",
              "type": "address"
            },
            {
              "internalType": "string",
              "name": "symbol",
              "type": "string"
            },
            {
              "internalType": "uint256",
              "name": "decimals",
              "type": "uint256"
            },
            {
              "internalType": "uint256",
              "name": "userAllowance",
              "type": "uint256"
            },
            {
              "internalType": "uint256",
              "name": "userBalance",
              "type": "uint256"
            },
            {
              "internalType": "uint256",
              "name": "price",
              "type": "uint256"
            },
            {
              "internalType": "uint256",
              "name": "priceDecimals",
              "type": "uint256"
            }
          ],
          "internalType": "struct SummitOracle.TokenData",
          "name": "token",
          "type": "tuple"
        }
      ],
      "stateMutability": "view",
      "type": "function"
    },
    {
      "inputs": [
        {
          "internalType": "bytes32",
          "name": "role",
          "type": "bytes32"
        },
        {
          "internalType": "address",
          "name": "account",
          "type": "address"
        }
      ],
      "name": "grantRole",
      "outputs": [],
      "stateMutability": "nonpayable",
      "type": "function"
    },
    {
      "inputs": [
        {
          "internalType": "bytes32",
          "name": "role",
          "type": "bytes32"
        },
        {
          "internalType": "address",
          "name": "account",
          "type": "address"
        }
      ],
      "name": "hasRole",
      "outputs": [
        {
          "internalType": "bool",
          "name": "",
          "type": "bool"
        }
      ],
      "stateMutability": "view",
      "type": "function"
    },
    {
      "inputs": [
        {
          "internalType": "address",
          "name": "_tokenAddress",
          "type": "address"
        },
        {
          "internalType": "uint256",
          "name": "_tokenAmount",
          "type": "uint256"
        }
      ],
      "name": "recoverERC20",
      "outputs": [],
      "stateMutability": "nonpayable",
      "type": "function"
    },
    {
      "inputs": [
        {
          "internalType": "uint256",
          "name": "_amount",
          "type": "uint256"
        }
      ],
      "name": "recoverNATIVE",
      "outputs": [],
      "stateMutability": "nonpayable",
      "type": "function"
    },
    {
      "inputs": [
        {
          "internalType": "address",
          "name": "removedMaintainer",
          "type": "address"
        }
      ],
      "name": "removeMaintainer",
      "outputs": [],
      "stateMutability": "nonpayable",
      "type": "function"
    },
    {
      "inputs": [
        {
          "internalType": "bytes32",
          "name": "role",
          "type": "bytes32"
        },
        {
          "internalType": "address",
          "name": "account",
          "type": "address"
        }
      ],
      "name": "renounceRole",
      "outputs": [],
      "stateMutability": "nonpayable",
      "type": "function"
    },
    {
      "inputs": [
        {
          "internalType": "bytes32",
          "name": "role",
          "type": "bytes32"
        }
      ],
      "name": "renounceRole",
      "outputs": [],
      "stateMutability": "nonpayable",
      "type": "function"
    },
    {
      "inputs": [
        {
          "internalType": "bytes32",
          "name": "role",
          "type": "bytes32"
        },
        {
          "internalType": "address",
          "name": "account",
          "type": "address"
        }
      ],
      "name": "revokeRole",
      "outputs": [],
      "stateMutability": "nonpayable",
      "type": "function"
    },
    {
      "inputs": [
        {
          "internalType": "address",
          "name": "_router",
          "type": "address"
        }
      ],
      "name": "setRouter",
      "outputs": [],
      "stateMutability": "nonpayable",
      "type": "function"
    },
    {
      "inputs": [
        {
          "internalType": "address",
          "name": "_stable",
          "type": "address"
        }
      ],
      "name": "setStable",
      "outputs": [],
      "stateMutability": "nonpayable",
      "type": "function"
    },
    {
      "inputs": [
        {
          "internalType": "address",
          "name": "_wNative",
          "type": "address"
        }
      ],
      "name": "setWNative",
      "outputs": [],
      "stateMutability": "nonpayable",
      "type": "function"
    },
    {
      "inputs": [
        {
          "internalType": "bytes4",
          "name": "interfaceId",
          "type": "bytes4"
        }
      ],
      "name": "supportsInterface",
      "outputs": [
        {
          "internalType": "bool",
          "name": "",
          "type": "bool"
        }
      ],
      "stateMutability": "view",
      "type": "function"
    },
    {
      "inputs": [
        {
          "internalType": "address",
          "name": "newOwner",
          "type": "address"
        }
      ],
      "name": "transferOwnership",
      "outputs": [],
      "stateMutability": "nonpayable",
      "type": "function"
    }
  ],
  "transactionHash": "0x9a18be189674b85a1faec15f3d8d83d6961f0262131226bcaa9390fd186814ae",
  "args": [
    "0xe1B95668c693b6dEaeEEBDb17fCA55AbFF9e0d3E",
    "0x28a92dde19d9989f39a49905d7c9c2fac7799bdf",
    "0x21be370D5312f44cB42ce377BC9b8a0cEF1A4C83"
  ],
  "solcInputHash": "a827a7fc40ca6230ff8f6c0ba595ec03",
  "bytecode": "0x60806040523480156200001157600080fd5b50604051620020e5380380620020e583398101604081905262000034916200017f565b3362000042600082620000b2565b6200006e7f339759585899103d2ace64958e37e18ccb0504652c81d4a1b8aa80fe2126ab9582620000b2565b50600180546001600160a01b039485166001600160a01b031991821617909155600280549385169382169390931790925560038054919093169116179055620001c8565b620000be8282620000c2565b5050565b6000828152602081815260408083206001600160a01b038516845290915290205460ff16620000be576000828152602081815260408083206001600160a01b03851684529091529020805460ff191660011790556200011e3390565b6001600160a01b0316816001600160a01b0316837f2f8788117e7eff1d82e926ec794901d17c78024a50270940304540a733656f0d60405160405180910390a45050565b80516001600160a01b03811681146200017a57600080fd5b919050565b60008060006060848603121562000194578283fd5b6200019f8462000162565b9250620001af6020850162000162565b9150620001bf6040850162000162565b90509250925092565b611f0d80620001d86000396000f3fe608060405234801561001057600080fd5b506004361061018d5760003560e01c80638bb9c5bf116100e3578063c2c528201161008c578063dba7137611610066578063dba71376146103a3578063f2fde38b146103b6578063f8742254146103c957600080fd5b8063c2c528201461036a578063d547741f1461037d578063d8baf7cf1461039057600080fd5b8063a217fddf116100bd578063a217fddf1461033c578063b381cf4014610344578063c0d786551461035757600080fd5b80638bb9c5bf146102df57806391d14854146102f257806395490c0b1461032957600080fd5b806336568abe116101455780636b453c1f1161011f5780636b453c1f146102995780637449f866146102ac5780638980f11f146102cc57600080fd5b806336568abe1461024b57806341976e091461025e57806354d9f6531461028657600080fd5b80632f2ff15d116101765780632f2ff15d146101eb57806331f380d01461020057806332fe7b261461022057600080fd5b806301ffc9a714610192578063248a9ca3146101ba575b600080fd5b6101a56101a036600461187e565b6103f0565b60405190151581526020015b60405180910390f35b6101dd6101c8366004611842565b60009081526020819052604090206001015490565b6040519081526020016101b1565b6101fe6101f936600461185a565b610459565b005b61021361020e3660046117bf565b610483565b6040516101b19190611c2b565b600154610233906001600160a01b031681565b6040516001600160a01b0390911681526020016101b1565b6101fe61025936600461185a565b610545565b61027161026c3660046117a3565b6105d6565b604080519283526020830191909152016101b1565b600254610233906001600160a01b031681565b6101fe6102a73660046117a3565b6107f9565b6102bf6102ba366004611a0a565b610826565b6040516101b19190611b91565b6101fe6102da3660046117f7565b61093d565b6101fe6102ed366004611842565b610a78565b6101a561030036600461185a565b6000918252602082815260408084206001600160a01b0393909316845291905290205460ff1690565b6101fe6103373660046117a3565b610a83565b6101dd600081565b600354610233906001600160a01b031681565b6101fe6103653660046117a3565b610b42565b6101fe610378366004611842565b610c01565b6101fe61038b36600461185a565b610d48565b6101fe61039e3660046117a3565b610d6d565b6101fe6103b13660046117a3565b610d97565b6101fe6103c43660046117a3565b610e56565b6101dd7f339759585899103d2ace64958e37e18ccb0504652c81d4a1b8aa80fe2126ab9581565b60006001600160e01b031982167f7965db0b00000000000000000000000000000000000000000000000000000000148061045357507f01ffc9a7000000000000000000000000000000000000000000000000000000006001600160e01b03198316145b92915050565b60008281526020819052604090206001015461047481610e6d565b61047e8383610e77565b505050565b6104cc6040518060e0016040528060006001600160a01b031681526020016060815260200160008152602001600081526020016000815260200160008152602001600081525090565b6000806104d8846105d6565b915091506040518060e00160405280856001600160a01b031681526020016104ff86610f15565b815260200161050d86610fbf565b60ff16815260200161051f878761104c565b815260200161052e8787611129565b815260208101939093526040909201529392505050565b6001600160a01b03811633146105c85760405162461bcd60e51b815260206004820152602f60248201527f416363657373436f6e74726f6c3a2063616e206f6e6c792072656e6f756e636560448201527f20726f6c657320666f722073656c66000000000000000000000000000000000060648201526084015b60405180910390fd5b6105d282826111a7565b5050565b60008060006105e484610fbf565b6001549091506001600160a01b0316634c09cf4e61060383600a611d72565b6001600160a01b038716156106185786610625565b6003546001600160a01b03165b60025460405160e085901b6001600160e01b031916815260048101939093526001600160a01b0391821660248401521660448201526003606482015260840160006040518083038186803b15801561067c57600080fd5b505afa9250505080156106b157506040513d6000823e601f3d908101601f191682016040526106ae9190810190611936565b60015b61075a57600254604080517f313ce56700000000000000000000000000000000000000000000000000000000815290516000926001600160a01b03169163313ce567916004808301926020929190829003018186803b15801561071357600080fd5b505afa158015610727573d6000803e3d6000fd5b505050506040513d601f19601f8201168201806040525081019061074b9190611a51565b909560ff909116945092505050565b61076381611226565b600260009054906101000a90046001600160a01b03166001600160a01b031663313ce5676040518163ffffffff1660e01b815260040160206040518083038186803b1580156107b157600080fd5b505afa1580156107c5573d6000803e3d6000fd5b505050506040513d601f19601f820116820180604052508101906107e99190611a51565b909660ff90911695509350505050565b6108237f339759585899103d2ace64958e37e18ccb0504652c81d4a1b8aa80fe2126ab9582610459565b50565b6108516040518060800160405280606081526020016060815260200160608152602001600081525090565b6001546001600160a01b0390811690634c09cf4e9087908716156108755786610882565b6003546001600160a01b03165b6001600160a01b0387161561089757866108a4565b6003546001600160a01b03165b6040516001600160e01b031960e086901b16815260048101939093526001600160a01b0391821660248401521660448201526064810185905260840160006040518083038186803b1580156108f857600080fd5b505afa15801561090c573d6000803e3d6000fd5b505050506040513d6000823e601f3d908101601f191682016040526109349190810190611936565b95945050505050565b3360008181527fa54247010af6b3693b80aceddfad12e077c5de3571e6243fada502635f0d7d39602052604090205460ff166109cc5760405162461bcd60e51b815260206004820152602860248201527f4d61696e7461696e61626c653a2043616c6c6572206973206e6f742061206d6160448201526734b73a30b4b732b960c11b60648201526084016105bf565b60008211610a1c5760405162461bcd60e51b815260206004820152601260248201527f4e6f7468696e6720746f207265636f766572000000000000000000000000000060448201526064016105bf565b610a306001600160a01b0384163384611267565b826001600160a01b03167f8c1256b8896378cd5044f80c202f9772b9d77dc85c8a6eb51967210b09bfaa2883604051610a6b91815260200190565b60405180910390a2505050565b336105d28282610545565b3360008181527fa54247010af6b3693b80aceddfad12e077c5de3571e6243fada502635f0d7d39602052604090205460ff16610b125760405162461bcd60e51b815260206004820152602860248201527f4d61696e7461696e61626c653a2043616c6c6572206973206e6f742061206d6160448201526734b73a30b4b732b960c11b60648201526084016105bf565b506003805473ffffffffffffffffffffffffffffffffffffffff19166001600160a01b0392909216919091179055565b3360008181527fa54247010af6b3693b80aceddfad12e077c5de3571e6243fada502635f0d7d39602052604090205460ff16610bd15760405162461bcd60e51b815260206004820152602860248201527f4d61696e7461696e61626c653a2043616c6c6572206973206e6f742061206d6160448201526734b73a30b4b732b960c11b60648201526084016105bf565b506001805473ffffffffffffffffffffffffffffffffffffffff19166001600160a01b0392909216919091179055565b3360008181527fa54247010af6b3693b80aceddfad12e077c5de3571e6243fada502635f0d7d39602052604090205460ff16610c905760405162461bcd60e51b815260206004820152602860248201527f4d61696e7461696e61626c653a2043616c6c6572206973206e6f742061206d6160448201526734b73a30b4b732b960c11b60648201526084016105bf565b60008211610ce05760405162461bcd60e51b815260206004820152601260248201527f4e6f7468696e6720746f207265636f766572000000000000000000000000000060448201526064016105bf565b604051339083156108fc029084906000818181858888f19350505050158015610d0d573d6000803e3d6000fd5b506040518281526000907f8c1256b8896378cd5044f80c202f9772b9d77dc85c8a6eb51967210b09bfaa289060200160405180910390a25050565b600082815260208190526040902060010154610d6381610e6d565b61047e83836111a7565b6108237f339759585899103d2ace64958e37e18ccb0504652c81d4a1b8aa80fe2126ab9582610d48565b3360008181527fa54247010af6b3693b80aceddfad12e077c5de3571e6243fada502635f0d7d39602052604090205460ff16610e265760405162461bcd60e51b815260206004820152602860248201527f4d61696e7461696e61626c653a2043616c6c6572206973206e6f742061206d6160448201526734b73a30b4b732b960c11b60648201526084016105bf565b506002805473ffffffffffffffffffffffffffffffffffffffff19166001600160a01b0392909216919091179055565b33610e62600083610459565b6105d2600082610545565b61082381336112e7565b6000828152602081815260408083206001600160a01b038516845290915290205460ff166105d2576000828152602081815260408083206001600160a01b03851684529091529020805460ff19166001179055610ed13390565b6001600160a01b0316816001600160a01b0316837f2f8788117e7eff1d82e926ec794901d17c78024a50270940304540a733656f0d60405160405180910390a45050565b60606001600160a01b038216610f3957505060408051602081019091526000815290565b816001600160a01b03166395d89b416040518163ffffffff1660e01b815260040160006040518083038186803b158015610f7257600080fd5b505afa925050508015610fa757506040513d6000823e601f3d908101601f19168201604052610fa491908101906118a6565b60015b61045357505060408051602081019091526000815290565b60006001600160a01b038216610fd757506012919050565b816001600160a01b031663313ce5676040518163ffffffff1660e01b815260040160206040518083038186803b15801561101057600080fd5b505afa925050508015611040575060408051601f3d908101601f1916820190925261103d91810190611a51565b60015b61045357506012919050565b60006001600160a01b03831661106457506000610453565b6001600160a01b03821661108357506001600160a01b03821631610453565b6001546040517fdd62ed3e0000000000000000000000000000000000000000000000000000000081526001600160a01b03858116600483015291821660248201529083169063dd62ed3e906044015b60206040518083038186803b1580156110ea57600080fd5b505afa1580156110fe573d6000803e3d6000fd5b505050506040513d601f19601f8201168201806040525081019061112291906119f2565b9392505050565b60006001600160a01b03831661114157506000610453565b6001600160a01b03821661116057506001600160a01b03821631610453565b6040517f70a082310000000000000000000000000000000000000000000000000000000081526001600160a01b0384811660048301528316906370a08231906024016110d2565b6000828152602081815260408083206001600160a01b038516845290915290205460ff16156105d2576000828152602081815260408083206001600160a01b0385168085529252808320805460ff1916905551339285917ff6391f5c32d9c69d2a47ea670b442974b53935d1edc7fd64eb21e047a839171b9190a45050565b805180516000919061123a90600190611e3c565b8151811061125857634e487b7160e01b600052603260045260246000fd5b60200260200101519050919050565b604080516001600160a01b038416602482015260448082018490528251808303909101815260649091019091526020810180517bffffffffffffffffffffffffffffffffffffffffffffffffffffffff167fa9059cbb0000000000000000000000000000000000000000000000000000000017905261047e908490611365565b6000828152602081815260408083206001600160a01b038516845290915290205460ff166105d257611323816001600160a01b031660146114a7565b61132e8360206114a7565b60405160200161133f929190611afd565b60408051601f198184030181529082905262461bcd60e51b82526105bf91600401611b7e565b600080836001600160a01b0316836040516113809190611ae1565b6000604051808303816000865af19150503d80600081146113bd576040519150601f19603f3d011682016040523d82523d6000602084013e6113c2565b606091505b5091509150816114145760405162461bcd60e51b815260206004820181905260248201527f5361666545524332303a206c6f772d6c6576656c2063616c6c206661696c656460448201526064016105bf565b8051156114a1578080602001905181019061142f9190611822565b6114a15760405162461bcd60e51b815260206004820152602a60248201527f5361666545524332303a204552433230206f7065726174696f6e20646964206e60448201527f6f7420737563636565640000000000000000000000000000000000000000000060648201526084016105bf565b50505050565b606060006114b6836002611e1d565b6114c1906002611d17565b67ffffffffffffffff8111156114e757634e487b7160e01b600052604160045260246000fd5b6040519080825280601f01601f191660200182016040528015611511576020820181803683370190505b5090507f30000000000000000000000000000000000000000000000000000000000000008160008151811061155657634e487b7160e01b600052603260045260246000fd5b60200101906001600160f81b031916908160001a9053507f7800000000000000000000000000000000000000000000000000000000000000816001815181106115af57634e487b7160e01b600052603260045260246000fd5b60200101906001600160f81b031916908160001a90535060006115d3846002611e1d565b6115de906001611d17565b90505b600181111561167f577f303132333435363738396162636465660000000000000000000000000000000085600f166010811061162d57634e487b7160e01b600052603260045260246000fd5b1a60f81b82828151811061165157634e487b7160e01b600052603260045260246000fd5b60200101906001600160f81b031916908160001a90535060049490941c9361167881611e7f565b90506115e1565b5083156111225760405162461bcd60e51b815260206004820181905260248201527f537472696e67733a20686578206c656e67746820696e73756666696369656e7460448201526064016105bf565b600082601f8301126116de578081fd5b815160206116f36116ee83611cf3565b611cc2565b80838252828201915082860187848660051b8901011115611712578586fd5b855b8581101561173957815161172781611ec2565b84529284019290840190600101611714565b5090979650505050505050565b600082601f830112611756578081fd5b815160206117666116ee83611cf3565b80838252828201915082860187848660051b8901011115611785578586fd5b855b8581101561173957815184529284019290840190600101611787565b6000602082840312156117b4578081fd5b813561112281611ec2565b600080604083850312156117d1578081fd5b82356117dc81611ec2565b915060208301356117ec81611ec2565b809150509250929050565b60008060408385031215611809578182fd5b823561181481611ec2565b946020939093013593505050565b600060208284031215611833578081fd5b81518015158114611122578182fd5b600060208284031215611853578081fd5b5035919050565b6000806040838503121561186c578182fd5b8235915060208301356117ec81611ec2565b60006020828403121561188f578081fd5b81356001600160e01b031981168114611122578182fd5b6000602082840312156118b7578081fd5b815167ffffffffffffffff808211156118ce578283fd5b818401915084601f8301126118e1578283fd5b8151818111156118f3576118f3611eac565b611906601f8201601f1916602001611cc2565b915080825285602082850101111561191c578384fd5b61192d816020840160208601611e53565b50949350505050565b600060208284031215611947578081fd5b815167ffffffffffffffff8082111561195e578283fd5b9083019060808286031215611971578283fd5b611979611c99565b825182811115611987578485fd5b61199387828601611746565b8252506020830151828111156119a7578485fd5b6119b3878286016116ce565b6020830152506040830151828111156119ca578485fd5b6119d6878286016116ce565b6040830152506060830151606082015280935050505092915050565b600060208284031215611a03578081fd5b5051919050565b60008060008060808587031215611a1f578182fd5b843593506020850135611a3181611ec2565b92506040850135611a4181611ec2565b9396929550929360600135925050565b600060208284031215611a62578081fd5b815160ff81168114611122578182fd5b6000815180845260208085019450808401835b83811015611aaa5781516001600160a01b031687529582019590820190600101611a85565b509495945050505050565b60008151808452611acd816020860160208601611e53565b601f01601f19169290920160200192915050565b60008251611af3818460208701611e53565b9190910192915050565b7f416363657373436f6e74726f6c3a206163636f756e7420000000000000000000815260008351611b35816017850160208801611e53565b7f206973206d697373696e6720726f6c65200000000000000000000000000000006017918401918201528351611b72816028840160208801611e53565b01602801949350505050565b6020815260006111226020830184611ab5565b60208082528251608083830152805160a0840181905260009291820190839060c08601905b80831015611bd65783518252928401926001929092019190840190611bb6565b50838701519350601f19925082868203016040870152611bf68185611a72565b93505050604085015181858403016060860152611c138382611a72565b92505050606084015160808401528091505092915050565b602081526001600160a01b0382511660208201526000602083015160e06040840152611c5b610100840182611ab5565b90506040840151606084015260608401516080840152608084015160a084015260a084015160c084015260c084015160e08401528091505092915050565b6040516080810167ffffffffffffffff81118282101715611cbc57611cbc611eac565b60405290565b604051601f8201601f1916810167ffffffffffffffff81118282101715611ceb57611ceb611eac565b604052919050565b600067ffffffffffffffff821115611d0d57611d0d611eac565b5060051b60200190565b60008219821115611d2a57611d2a611e96565b500190565b600181815b80851115611d6a578160001904821115611d5057611d50611e96565b80851615611d5d57918102915b93841c9390800290611d34565b509250929050565b600061112260ff841683600082611d8b57506001610453565b81611d9857506000610453565b8160018114611dae5760028114611db857611dd4565b6001915050610453565b60ff841115611dc957611dc9611e96565b50506001821b610453565b5060208310610133831016604e8410600b8410161715611df7575081810a610453565b611e018383611d2f565b8060001904821115611e1557611e15611e96565b029392505050565b6000816000190483118215151615611e3757611e37611e96565b500290565b600082821015611e4e57611e4e611e96565b500390565b60005b83811015611e6e578181015183820152602001611e56565b838111156114a15750506000910152565b600081611e8e57611e8e611e96565b506000190190565b634e487b7160e01b600052601160045260246000fd5b634e487b7160e01b600052604160045260246000fd5b6001600160a01b038116811461082357600080fdfea2646970667358221220c461b86090e2c1d09d095895cf6877289e75aadcb50f9a6008ea0ca73fba2b0664736f6c63430008040033",
  "devdoc": {
    "kind": "dev",
    "methods": {
      "getRoleAdmin(bytes32)": {
        "details": "Returns the admin role that controls `role`. See {grantRole} and {revokeRole}. To change a role's admin, use {_setRoleAdmin}."
      },
      "grantRole(bytes32,address)": {
        "details": "Grants `role` to `account`. If `account` had not been already granted `role`, emits a {RoleGranted} event. Requirements: - the caller must have ``role``'s admin role. May emit a {RoleGranted} event."
      },
      "hasRole(bytes32,address)": {
        "details": "Returns `true` if `account` has been granted `role`."
      },
      "recoverERC20(address,uint256)": {
        "params": {
          "_tokenAddress": "token address",
          "_tokenAmount": "amount to recover"
        }
      },
      "recoverNATIVE(uint256)": {
        "params": {
          "_amount": "amount"
        }
      },
      "renounceRole(bytes32,address)": {
        "details": "Revokes `role` from the calling account. Roles are often managed via {grantRole} and {revokeRole}: this function's purpose is to provide a mechanism for accounts to lose their privileges if they are compromised (such as when a trusted device is misplaced). If the calling account had been revoked `role`, emits a {RoleRevoked} event. Requirements: - the caller must be `account`. May emit a {RoleRevoked} event."
      },
      "revokeRole(bytes32,address)": {
        "details": "Revokes `role` from `account`. If `account` had been granted `role`, emits a {RoleRevoked} event. Requirements: - the caller must have ``role``'s admin role. May emit a {RoleRevoked} event."
      },
      "supportsInterface(bytes4)": {
        "details": "See {IERC165-supportsInterface}."
      }
    },
    "version": 1
  },
  "userdoc": {
    "kind": "user",
    "methods": {
      "recoverERC20(address,uint256)": {
        "notice": "Recover ERC20 from contract"
      },
      "recoverNATIVE(uint256)": {
        "notice": "Recover native asset from contract"
      }
    },
    "version": 1
  },
  "storageLayout": {
    "storage": [
      {
        "astId": 24,
        "contract": "src/contracts/SummitOracle.sol:SummitOracle",
        "label": "_roles",
        "offset": 0,
        "slot": "0",
        "type": "t_mapping(t_bytes32,t_struct(RoleData)19_storage)"
      },
      {
        "astId": 9085,
        "contract": "src/contracts/SummitOracle.sol:SummitOracle",
        "label": "ROUTER",
        "offset": 0,
        "slot": "1",
        "type": "t_contract(ISummitRouter)25919"
      },
      {
        "astId": 9088,
        "contract": "src/contracts/SummitOracle.sol:SummitOracle",
        "label": "STABLE",
        "offset": 0,
        "slot": "2",
        "type": "t_contract(IERC20)24691"
      },
      {
        "astId": 9091,
        "contract": "src/contracts/SummitOracle.sol:SummitOracle",
        "label": "WNATIVE",
        "offset": 0,
        "slot": "3",
        "type": "t_contract(IERC20)24691"
      }
    ],
    "types": {
      "t_address": {
        "encoding": "inplace",
        "label": "address",
        "numberOfBytes": "20"
      },
      "t_bool": {
        "encoding": "inplace",
        "label": "bool",
        "numberOfBytes": "1"
      },
      "t_bytes32": {
        "encoding": "inplace",
        "label": "bytes32",
        "numberOfBytes": "32"
      },
      "t_contract(IERC20)24691": {
        "encoding": "inplace",
        "label": "contract IERC20",
        "numberOfBytes": "20"
      },
      "t_contract(ISummitRouter)25919": {
        "encoding": "inplace",
        "label": "contract ISummitRouter",
        "numberOfBytes": "20"
      },
      "t_mapping(t_address,t_bool)": {
        "encoding": "mapping",
        "key": "t_address",
        "label": "mapping(address => bool)",
        "numberOfBytes": "32",
        "value": "t_bool"
      },
      "t_mapping(t_bytes32,t_struct(RoleData)19_storage)": {
        "encoding": "mapping",
        "key": "t_bytes32",
        "label": "mapping(bytes32 => struct AccessControl.RoleData)",
        "numberOfBytes": "32",
        "value": "t_struct(RoleData)19_storage"
      },
      "t_struct(RoleData)19_storage": {
        "encoding": "inplace",
        "label": "struct AccessControl.RoleData",
        "members": [
          {
            "astId": 16,
            "contract": "src/contracts/SummitOracle.sol:SummitOracle",
            "label": "members",
            "offset": 0,
            "slot": "0",
            "type": "t_mapping(t_address,t_bool)"
          },
          {
            "astId": 18,
            "contract": "src/contracts/SummitOracle.sol:SummitOracle",
            "label": "adminRole",
            "offset": 0,
            "slot": "1",
            "type": "t_bytes32"
          }
        ],
        "numberOfBytes": "64"
      }
    }
  }
}