{
  "address": "0x967D0dF4B951B46642b6168E94A120dF7fdAcCf7",
  "abi": [
    {
      "inputs": [],
      "stateMutability": "nonpayable",
      "type": "constructor"
    },
    {
      "inputs": [],
      "name": "AlreadyInitialized",
      "type": "error"
    },
    {
      "inputs": [],
      "name": "AlreadyReferredByUser",
      "type": "error"
    },
    {
      "inputs": [],
      "name": "CodeNotAvailable",
      "type": "error"
    },
    {
      "inputs": [],
      "name": "InvalidLevel",
      "type": "error"
    },
    {
      "inputs": [],
      "name": "LengthMismatch",
      "type": "error"
    },
    {
      "inputs": [],
      "name": "MissingReferral",
      "type": "error"
    },
    {
      "inputs": [],
      "name": "MustBeAtLeastBronze",
      "type": "error"
    },
    {
      "inputs": [],
      "name": "ReciprocalReferral",
      "type": "error"
    },
    {
      "inputs": [],
      "name": "SelfReferral",
      "type": "error"
    },
    {
      "anonymous": false,
      "inputs": [
        {
          "indexed": true,
          "internalType": "address",
          "name": "referrer",
          "type": "address"
        },
        {
          "indexed": false,
          "internalType": "uint256",
          "name": "_boostLevel",
          "type": "uint256"
        }
      ],
      "name": "BoostedReferrer",
      "type": "event"
    },
    {
      "anonymous": false,
      "inputs": [
        {
          "indexed": true,
          "internalType": "bytes32",
          "name": "role",
          "type": "bytes32"
        },
        {
          "indexed": true,
          "internalType": "bytes32",
          "name": "previousAdminRole",
          "type": "bytes32"
        },
        {
          "indexed": true,
          "internalType": "bytes32",
          "name": "newAdminRole",
          "type": "bytes32"
        }
      ],
      "name": "RoleAdminChanged",
      "type": "event"
    },
    {
      "anonymous": false,
      "inputs": [
        {
          "indexed": true,
          "internalType": "bytes32",
          "name": "role",
          "type": "bytes32"
        },
        {
          "indexed": true,
          "internalType": "address",
          "name": "account",
          "type": "address"
        },
        {
          "indexed": true,
          "internalType": "address",
          "name": "sender",
          "type": "address"
        }
      ],
      "name": "RoleGranted",
      "type": "event"
    },
    {
      "anonymous": false,
      "inputs": [
        {
          "indexed": true,
          "internalType": "bytes32",
          "name": "role",
          "type": "bytes32"
        },
        {
          "indexed": true,
          "internalType": "address",
          "name": "account",
          "type": "address"
        },
        {
          "indexed": true,
          "internalType": "address",
          "name": "sender",
          "type": "address"
        }
      ],
      "name": "RoleRevoked",
      "type": "event"
    },
    {
      "anonymous": false,
      "inputs": [
        {
          "indexed": false,
          "internalType": "uint256[]",
          "name": "_refPointsReq",
          "type": "uint256[]"
        },
        {
          "indexed": false,
          "internalType": "uint256[]",
          "name": "_selfPointsReq",
          "type": "uint256[]"
        },
        {
          "indexed": false,
          "internalType": "uint256[]",
          "name": "_refsReq",
          "type": "uint256[]"
        },
        {
          "indexed": false,
          "internalType": "uint256[]",
          "name": "_multRew",
          "type": "uint256[]"
        },
        {
          "indexed": false,
          "internalType": "uint256",
          "name": "_hasReferrerBonusMult",
          "type": "uint256"
        }
      ],
      "name": "UpdatedLevelData",
      "type": "event"
    },
    {
      "anonymous": false,
      "inputs": [
        {
          "indexed": true,
          "internalType": "address",
          "name": "_pointsContract",
          "type": "address"
        }
      ],
      "name": "UpdatedPointsContract",
      "type": "event"
    },
    {
      "anonymous": false,
      "inputs": [
        {
          "indexed": true,
          "internalType": "address",
          "name": "_add",
          "type": "address"
        },
        {
          "indexed": true,
          "internalType": "address",
          "name": "_referrer",
          "type": "address"
        }
      ],
      "name": "UpdatedReferrer",
      "type": "event"
    },
    {
      "inputs": [],
      "name": "BONUS_FOR_BEING_REFERRED",
      "outputs": [
        {
          "internalType": "uint256",
          "name": "",
          "type": "uint256"
        }
      ],
      "stateMutability": "view",
      "type": "function"
    },
    {
      "inputs": [],
      "name": "DEFAULT_ADMIN_ROLE",
      "outputs": [
        {
          "internalType": "bytes32",
          "name": "",
          "type": "bytes32"
        }
      ],
      "stateMutability": "view",
      "type": "function"
    },
    {
      "inputs": [
        {
          "internalType": "uint256",
          "name": "",
          "type": "uint256"
        }
      ],
      "name": "LEVEL_MULT_REWARD",
      "outputs": [
        {
          "internalType": "uint256",
          "name": "",
          "type": "uint256"
        }
      ],
      "stateMutability": "view",
      "type": "function"
    },
    {
      "inputs": [
        {
          "internalType": "uint256",
          "name": "",
          "type": "uint256"
        }
      ],
      "name": "LEVEL_REFS_REQ",
      "outputs": [
        {
          "internalType": "uint256",
          "name": "",
          "type": "uint256"
        }
      ],
      "stateMutability": "view",
      "type": "function"
    },
    {
      "inputs": [
        {
          "internalType": "uint256",
          "name": "",
          "type": "uint256"
        }
      ],
      "name": "LEVEL_REF_VOLUME_REQ",
      "outputs": [
        {
          "internalType": "uint256",
          "name": "",
          "type": "uint256"
        }
      ],
      "stateMutability": "view",
      "type": "function"
    },
    {
      "inputs": [
        {
          "internalType": "uint256",
          "name": "",
          "type": "uint256"
        }
      ],
      "name": "LEVEL_SELF_VOLUME_REQ",
      "outputs": [
        {
          "internalType": "uint256",
          "name": "",
          "type": "uint256"
        }
      ],
      "stateMutability": "view",
      "type": "function"
    },
    {
      "inputs": [],
      "name": "MAINTAINER_ROLE",
      "outputs": [
        {
          "internalType": "bytes32",
          "name": "",
          "type": "bytes32"
        }
      ],
      "stateMutability": "view",
      "type": "function"
    },
    {
      "inputs": [
        {
          "internalType": "address",
          "name": "",
          "type": "address"
        }
      ],
      "name": "REFERRER",
      "outputs": [
        {
          "internalType": "address",
          "name": "",
          "type": "address"
        }
      ],
      "stateMutability": "view",
      "type": "function"
    },
    {
      "inputs": [
        {
          "internalType": "address",
          "name": "",
          "type": "address"
        }
      ],
      "name": "REF_BOOST_LEVEL",
      "outputs": [
        {
          "internalType": "uint8",
          "name": "",
          "type": "uint8"
        }
      ],
      "stateMutability": "view",
      "type": "function"
    },
    {
      "inputs": [
        {
          "internalType": "string",
          "name": "",
          "type": "string"
        }
      ],
      "name": "REF_CODE",
      "outputs": [
        {
          "internalType": "address",
          "name": "",
          "type": "address"
        }
      ],
      "stateMutability": "view",
      "type": "function"
    },
    {
      "inputs": [
        {
          "internalType": "address",
          "name": "",
          "type": "address"
        }
      ],
      "name": "REF_CODE_INV",
      "outputs": [
        {
          "internalType": "string",
          "name": "",
          "type": "string"
        }
      ],
      "stateMutability": "view",
      "type": "function"
    },
    {
      "inputs": [
        {
          "internalType": "address",
          "name": "",
          "type": "address"
        }
      ],
      "name": "REF_COUNT",
      "outputs": [
        {
          "internalType": "uint256",
          "name": "",
          "type": "uint256"
        }
      ],
      "stateMutability": "view",
      "type": "function"
    },
    {
      "inputs": [],
      "name": "SUMMIT_POINTS",
      "outputs": [
        {
          "internalType": "address",
          "name": "",
          "type": "address"
        }
      ],
      "stateMutability": "view",
      "type": "function"
    },
    {
      "inputs": [
        {
          "internalType": "address",
          "name": "addedMaintainer",
          "type": "address"
        }
      ],
      "name": "addMaintainer",
      "outputs": [],
      "stateMutability": "nonpayable",
      "type": "function"
    },
    {
      "inputs": [
        {
          "internalType": "address",
          "name": "_referrer",
          "type": "address"
        },
        {
          "internalType": "uint8",
          "name": "_boostLevel",
          "type": "uint8"
        }
      ],
      "name": "boostReferrer",
      "outputs": [],
      "stateMutability": "nonpayable",
      "type": "function"
    },
    {
      "inputs": [
        {
          "internalType": "uint8",
          "name": "_level",
          "type": "uint8"
        }
      ],
      "name": "getLevelRequirements",
      "outputs": [
        {
          "internalType": "uint256",
          "name": "selfVolume",
          "type": "uint256"
        },
        {
          "internalType": "uint256",
          "name": "refVolume",
          "type": "uint256"
        },
        {
          "internalType": "uint256",
          "name": "refsCount",
          "type": "uint256"
        }
      ],
      "stateMutability": "view",
      "type": "function"
    },
    {
      "inputs": [
        {
          "internalType": "address",
          "name": "_add",
          "type": "address"
        }
      ],
      "name": "getRefVolumeMultiplier",
      "outputs": [
        {
          "internalType": "uint256",
          "name": "",
          "type": "uint256"
        }
      ],
      "stateMutability": "view",
      "type": "function"
    },
    {
      "inputs": [
        {
          "internalType": "address",
          "name": "_add",
          "type": "address"
        }
      ],
      "name": "getReferrer",
      "outputs": [
        {
          "internalType": "address",
          "name": "",
          "type": "address"
        }
      ],
      "stateMutability": "view",
      "type": "function"
    },
    {
      "inputs": [
        {
          "internalType": "address",
          "name": "_add",
          "type": "address"
        }
      ],
      "name": "getReferrerLevel",
      "outputs": [
        {
          "internalType": "uint8",
          "name": "",
          "type": "uint8"
        }
      ],
      "stateMutability": "view",
      "type": "function"
    },
    {
      "inputs": [
        {
          "internalType": "address",
          "name": "_add",
          "type": "address"
        }
      ],
      "name": "getRefsCount",
      "outputs": [
        {
          "internalType": "uint256",
          "name": "",
          "type": "uint256"
        }
      ],
      "stateMutability": "view",
      "type": "function"
    },
    {
      "inputs": [
        {
          "internalType": "bytes32",
          "name": "role",
          "type": "bytes32"
        }
      ],
      "name": "getRoleAdmin",
      "outputs": [
        {
          "internalType": "bytes32",
          "name": "",
          "type": "bytes32"
        }
      ],
      "stateMutability": "view",
      "type": "function"
    },
    {
      "inputs": [
        {
          "internalType": "address",
          "name": "_add",
          "type": "address"
        }
      ],
      "name": "getSelfVolumeMultiplier",
      "outputs": [
        {
          "internalType": "uint256",
          "name": "",
          "type": "uint256"
        }
      ],
      "stateMutability": "view",
      "type": "function"
    },
    {
      "inputs": [],
      "name": "governor",
      "outputs": [
        {
          "internalType": "address",
          "name": "",
          "type": "address"
        }
      ],
      "stateMutability": "view",
      "type": "function"
    },
    {
      "inputs": [
        {
          "internalType": "bytes32",
          "name": "role",
          "type": "bytes32"
        },
        {
          "internalType": "address",
          "name": "account",
          "type": "address"
        }
      ],
      "name": "grantRole",
      "outputs": [],
      "stateMutability": "nonpayable",
      "type": "function"
    },
    {
      "inputs": [
        {
          "internalType": "bytes32",
          "name": "role",
          "type": "bytes32"
        },
        {
          "internalType": "address",
          "name": "account",
          "type": "address"
        }
      ],
      "name": "hasRole",
      "outputs": [
        {
          "internalType": "bool",
          "name": "",
          "type": "bool"
        }
      ],
      "stateMutability": "view",
      "type": "function"
    },
    {
      "inputs": [
        {
          "internalType": "address",
          "name": "_governor",
          "type": "address"
        }
      ],
      "name": "initialize",
      "outputs": [],
      "stateMutability": "nonpayable",
      "type": "function"
    },
    {
      "inputs": [],
      "name": "initialized",
      "outputs": [
        {
          "internalType": "bool",
          "name": "",
          "type": "bool"
        }
      ],
      "stateMutability": "view",
      "type": "function"
    },
    {
      "inputs": [],
      "name": "levelCount",
      "outputs": [
        {
          "internalType": "uint256",
          "name": "",
          "type": "uint256"
        }
      ],
      "stateMutability": "view",
      "type": "function"
    },
    {
      "inputs": [
        {
          "internalType": "address",
          "name": "removedMaintainer",
          "type": "address"
        }
      ],
      "name": "removeMaintainer",
      "outputs": [],
      "stateMutability": "nonpayable",
      "type": "function"
    },
    {
      "inputs": [
        {
          "internalType": "bytes32",
          "name": "role",
          "type": "bytes32"
        },
        {
          "internalType": "address",
          "name": "account",
          "type": "address"
        }
      ],
      "name": "renounceRole",
      "outputs": [],
      "stateMutability": "nonpayable",
      "type": "function"
    },
    {
      "inputs": [
        {
          "internalType": "bytes32",
          "name": "role",
          "type": "bytes32"
        }
      ],
      "name": "renounceRole",
      "outputs": [],
      "stateMutability": "nonpayable",
      "type": "function"
    },
    {
      "inputs": [
        {
          "internalType": "bytes32",
          "name": "role",
          "type": "bytes32"
        },
        {
          "internalType": "address",
          "name": "account",
          "type": "address"
        }
      ],
      "name": "revokeRole",
      "outputs": [],
      "stateMutability": "nonpayable",
      "type": "function"
    },
    {
      "inputs": [
        {
          "internalType": "uint256[]",
          "name": "_refVolumeReq",
          "type": "uint256[]"
        },
        {
          "internalType": "uint256[]",
          "name": "_selfVolumeReq",
          "type": "uint256[]"
        },
        {
          "internalType": "uint256[]",
          "name": "_refsReq",
          "type": "uint256[]"
        },
        {
          "internalType": "uint256[]",
          "name": "_multReward",
          "type": "uint256[]"
        },
        {
          "internalType": "uint256",
          "name": "_hasReferrerBonusMult",
          "type": "uint256"
        }
      ],
      "name": "setLevelData",
      "outputs": [],
      "stateMutability": "nonpayable",
      "type": "function"
    },
    {
      "inputs": [
        {
          "internalType": "address",
          "name": "_pointsContract",
          "type": "address"
        }
      ],
      "name": "setPointsContract",
      "outputs": [],
      "stateMutability": "nonpayable",
      "type": "function"
    },
    {
      "inputs": [
        {
          "internalType": "string",
          "name": "_code",
          "type": "string"
        }
      ],
      "name": "setReferralCode",
      "outputs": [],
      "stateMutability": "nonpayable",
      "type": "function"
    },
    {
      "inputs": [
        {
          "internalType": "address",
          "name": "_referrer",
          "type": "address"
        },
        {
          "internalType": "string",
          "name": "_code",
          "type": "string"
        }
      ],
      "name": "setReferrer",
      "outputs": [],
      "stateMutability": "nonpayable",
      "type": "function"
    },
    {
      "inputs": [
        {
          "internalType": "bytes4",
          "name": "interfaceId",
          "type": "bytes4"
        }
      ],
      "name": "supportsInterface",
      "outputs": [
        {
          "internalType": "bool",
          "name": "",
          "type": "bool"
        }
      ],
      "stateMutability": "view",
      "type": "function"
    },
    {
      "inputs": [
        {
          "internalType": "address",
          "name": "newOwner",
          "type": "address"
        }
      ],
      "name": "transferOwnership",
      "outputs": [],
      "stateMutability": "nonpayable",
      "type": "function"
    }
  ],
  "transactionHash": "0x32c834d9ae28217072a70981e25d59088f82e057f36f3306bd00264564c13637",
  "args": [],
  "solcInputHash": "2ddeb07234f840afcfda7d3e3380662b",
  "bytecode": "0x6080604052600660025560c8600755600d805460ff191690553480156200002557600080fd5b5062000033600033620002ad565b6200005f7f339759585899103d2ace64958e37e18ccb0504652c81d4a1b8aa80fe2126ab9533620002ad565b60006040518060c00160405280600081526020016000815260200169021e19e0c9bab2400000815260200169054b40b1f852bda00000815260200169152d02c7e14af6800000815260200169d3c21bcecceda1000000815250905060006040518060c001604052806000815260200168056bc75e2d631000008152602001683635c9adc5dea000008152602001686c6b935b8bbd400000815260200169010f0cf064dd59200000815260200169054b40b1f852bda00000815250905060006040518060c0016040528060008152602001600081526020016003815260200160058152602001600a81526020016019815250905060006040518060c001604052806000815260200160c8815260200161019081526020016101f481526020016102bc81526020016105dc815250905060005b600254811015620002a257848160068110620001bc57634e487b7160e01b600052603260045260246000fd5b60200201516003600083815260200190815260200160002081905550838160068110620001f957634e487b7160e01b600052603260045260246000fd5b602002015160046000838152602001908152602001600020819055508281600681106200023657634e487b7160e01b600052603260045260246000fd5b602002015160056000838152602001908152602001600020819055508181600681106200027357634e487b7160e01b600052603260045260246000fd5b60209081029190910151600083815260069092526040909120558062000299816200035d565b91505062000190565b505050505062000385565b620002b98282620002bd565b5050565b6000828152602081815260408083206001600160a01b038516845290915290205460ff16620002b9576000828152602081815260408083206001600160a01b03851684529091529020805460ff19166001179055620003193390565b6001600160a01b0316816001600160a01b0316837f2f8788117e7eff1d82e926ec794901d17c78024a50270940304540a733656f0d60405160405180910390a45050565b60006000198214156200037e57634e487b7160e01b81526011600452602481fd5b5060010190565b61214b80620003956000396000f3fe608060405234801561001057600080fd5b50600436106102925760003560e01c806386ec3e3d11610160578063bc826e64116100d8578063de2ad91a1161008c578063f874225411610071578063f874225414610665578063fa98b69d1461068c578063fd0dfb85146106ac57600080fd5b8063de2ad91a1461063f578063f2fde38b1461065257600080fd5b8063ce0b6639116100bd578063ce0b6639146105f0578063d547741f14610619578063d8baf7cf1461062c57600080fd5b8063bc826e64146105bd578063c4d66de8146105dd57600080fd5b8063982b6d451161012f578063a217fddf11610114578063a217fddf1461056c578063affb41a014610574578063b8ef9fb31461059457600080fd5b8063982b6d45146105175780639e8d7cd41461054c57600080fd5b806386ec3e3d146104a75780638bb9c5bf146104ba57806391d14854146104cd57806395754abb1461050457600080fd5b80633fe9bba81161020e5780635a3553c9116101c25780636b453c1f116101a75780636b453c1f1461046157806373930f04146104745780637c4e94b51461048757600080fd5b80635a3553c914610424578063651a2b4c1461045857600080fd5b80634c10fb25116101f35780634c10fb25146103c3578063570f61eb146103d657806359ee3c5b1461040457600080fd5b80633fe9bba8146103845780634a9fefc71461039757600080fd5b8063158ef93e116102655780632f2ff15d1161024a5780632f2ff15d1461034957806336568abe1461035e5780633c9c39141461037157600080fd5b8063158ef93e14610319578063248a9ca31461032657600080fd5b806301e6896b1461029757806301ffc9a7146102b3578063080472d2146102d65780630c340a2414610301575b600080fd5b6102a060075481565b6040519081526020015b60405180910390f35b6102c66102c1366004611cc1565b6106bf565b60405190151581526020016102aa565b6001546102e9906001600160a01b031681565b6040516001600160a01b0390911681526020016102aa565b600d546102e99061010090046001600160a01b031681565b600d546102c69060ff1681565b6102a0610334366004611c87565b60009081526020819052604090206001015490565b61035c610357366004611c9f565b610758565b005b61035c61036c366004611c9f565b610782565b6102a061037f366004611b3f565b610813565b61035c610392366004611bd7565b610841565b6102e96103a5366004611b3f565b6001600160a01b039081166000908152600860205260409020541690565b61035c6103d1366004611ba5565b610a92565b6103e96103e4366004611d69565b610b81565b604080519384526020840192909252908201526060016102aa565b610417610412366004611b3f565b610bf3565b6040516102aa9190611f55565b6102e9610432366004611d01565b8051602081830181018051600b825292820191909301209152546001600160a01b031681565b6102a060025481565b61035c61046f366004611b3f565b610c8d565b6102a0610482366004611b3f565b610cba565b6102a0610495366004611c87565b60036020526000908152604090205481565b61035c6104b5366004611d01565b610cf2565b61035c6104c8366004611c87565b610e4e565b6102c66104db366004611c9f565b6000918252602082815260408084206001600160a01b0393909316845291905290205460ff1690565b61035c610512366004611b3f565b610e58565b61053a610525366004611b3f565b600a6020526000908152604090205460ff1681565b60405160ff90911681526020016102aa565b6102a061055a366004611c87565b60046020526000908152604090205481565b6102a0600081565b6102a0610582366004611c87565b60056020526000908152604090205481565b6102e96105a2366004611b3f565b6008602052600090815260409020546001600160a01b031681565b6102a06105cb366004611b3f565b60096020526000908152604090205481565b61035c6105eb366004611b3f565b610f4a565b6102a06105fe366004611b3f565b6001600160a01b031660009081526009602052604090205490565b61035c610627366004611c9f565b611058565b61035c61063a366004611b3f565b61107d565b61053a61064d366004611b3f565b6110a7565b61035c610660366004611b3f565b6112b6565b6102a07f339759585899103d2ace64958e37e18ccb0504652c81d4a1b8aa80fe2126ab9581565b6102a061069a366004611c87565b60066020526000908152604090205481565b61035c6106ba366004611b59565b6112cc565b60007fffffffff0000000000000000000000000000000000000000000000000000000082167f7965db0b00000000000000000000000000000000000000000000000000000000148061075257507f01ffc9a7000000000000000000000000000000000000000000000000000000007fffffffff000000000000000000000000000000000000000000000000000000008316145b92915050565b600082815260208190526040902060010154610773816115b1565b61077d83836115bb565b505050565b6001600160a01b03811633146108055760405162461bcd60e51b815260206004820152602f60248201527f416363657373436f6e74726f6c3a2063616e206f6e6c792072656e6f756e636560448201527f20726f6c657320666f722073656c66000000000000000000000000000000000060648201526084015b60405180910390fd5b61080f8282611659565b5050565b600060066000610822846110a7565b60ff168152602001908152602001600020546127106107529190611fb9565b3360009081527fa54247010af6b3693b80aceddfad12e077c5de3571e6243fada502635f0d7d39602052604090205460ff166108d05760405162461bcd60e51b815260206004820152602860248201527f4d61696e7461696e61626c653a2043616c6c6572206973206e6f742061206d6160448201526734b73a30b4b732b960c11b60648201526084016107fc565b835185511415806108e357508251855114155b806108f057508151855114155b15610927576040517fff633a3800000000000000000000000000000000000000000000000000000000815260040160405180910390fd5b845160005b81811015610a3f5786818151811061095457634e487b7160e01b600052603260045260246000fd5b6020026020010151600360008381526020019081526020016000208190555085818151811061099357634e487b7160e01b600052603260045260246000fd5b602002602001015160046000838152602001908152602001600020819055508481815181106109d257634e487b7160e01b600052603260045260246000fd5b60200260200101516005600083815260200190815260200160002081905550838181518110610a1157634e487b7160e01b600052603260045260246000fd5b6020908102919091018101516000838152600690925260409091205580610a37816120ae565b91505061092c565b50600281905560078290556040517f562c204f2c2ef9fa88aa881cd4d49bc65849451a4bdb97fad62dc3a5eae6041390610a829088908890889088908890611ef5565b60405180910390a1505050505050565b3360009081527fa54247010af6b3693b80aceddfad12e077c5de3571e6243fada502635f0d7d39602052604090205460ff16610b215760405162461bcd60e51b815260206004820152602860248201527f4d61696e7461696e61626c653a2043616c6c6572206973206e6f742061206d6160448201526734b73a30b4b732b960c11b60648201526084016107fc565b6001600160a01b0382166000818152600a6020908152604091829020805460ff191660ff861690811790915591519182527f3ead3adb8142be5b6d7082c72ef2c40854cde3bba93a27760d7d0d40a0393604910160405180910390a25050565b60008060006002548460ff1610610bc4576040517fd1459f7900000000000000000000000000000000000000000000000000000000815260040160405180910390fd5b50505060ff16600090815260046020908152604080832054600383528184205460059093529220549192909190565b600c6020526000908152604090208054610c0c90612073565b80601f0160208091040260200160405190810160405280929190818152602001828054610c3890612073565b8015610c855780601f10610c5a57610100808354040283529160200191610c85565b820191906000526020600020905b815481529060010190602001808311610c6857829003601f168201915b505050505081565b610cb77f339759585899103d2ace64958e37e18ccb0504652c81d4a1b8aa80fe2126ab9582610758565b50565b6001600160a01b03818116600090815260086020526040812054909116610ce2576000610ce6565b6007545b61075290612710611fb9565b610cfb336110a7565b60ff16610d1b576040516338b729c360e11b815260040160405180910390fd5b60006001600160a01b0316600b82604051610d369190611dbd565b908152604051908190036020019020546001600160a01b031614610d86576040517f25a86aac00000000000000000000000000000000000000000000000000000000815260040160405180910390fd5b336000908152600c60205260408082209051600b91610da491611dd9565b9081526040805160209281900383019020805473ffffffffffffffffffffffffffffffffffffffff19166001600160a01b039490941693909317909255336000908152600c8252919091208251610dfd9284019061198b565b5033600b82604051610e0f9190611dbd565b90815260405190819003602001902080546001600160a01b039290921673ffffffffffffffffffffffffffffffffffffffff1990921691909117905550565b610cb78133610782565b3360009081527fa54247010af6b3693b80aceddfad12e077c5de3571e6243fada502635f0d7d39602052604090205460ff16610ee75760405162461bcd60e51b815260206004820152602860248201527f4d61696e7461696e61626c653a2043616c6c6572206973206e6f742061206d6160448201526734b73a30b4b732b960c11b60648201526084016107fc565b6040516001600160a01b038216907fc44f7b4fe9d29c078d207864fd556e8b68e1759e3ac4ee9cece99d2ec03c27c690600090a26001805473ffffffffffffffffffffffffffffffffffffffff19166001600160a01b0392909216919091179055565b3360009081527fa54247010af6b3693b80aceddfad12e077c5de3571e6243fada502635f0d7d39602052604090205460ff16610fd95760405162461bcd60e51b815260206004820152602860248201527f4d61696e7461696e61626c653a2043616c6c6572206973206e6f742061206d6160448201526734b73a30b4b732b960c11b60648201526084016107fc565b600d5460ff1615611016576040517f0dc149f000000000000000000000000000000000000000000000000000000000815260040160405180910390fd5b600d80546001600160a01b03909216610100027fffffffffffffffffffffff000000000000000000000000000000000000000000909216919091176001179055565b600082815260208190526040902060010154611073816115b1565b61077d8383611659565b610cb77f339759585899103d2ace64958e37e18ccb0504652c81d4a1b8aa80fe2126ab9582611058565b6001600160a01b0381166000908152600a602052604081205460ff16156111285760016002546110d79190612015565b6001600160a01b0383166000908152600a602052604090205460ff1611611119576001600160a01b0382166000908152600a602052604090205460ff16610752565b60016002546107529190612015565b6001546001600160a01b031661114057506000919050565b6001546040517f8ba17f860000000000000000000000000000000000000000000000000000000081526001600160a01b0384811660048301526000928392911690638ba17f869060240160606040518083038186803b1580156111a257600080fd5b505afa1580156111b6573d6000803e3d6000fd5b505050506040513d601f19601f820116820180604052508101906111da9190611d3c565b509150915060005b6002548160ff1610156112aa57600460006111fe836001611fd1565b60ff1681526020019081526020016000205483101561121f57949350505050565b6003600061122e836001611fd1565b60ff1681526020019081526020016000205482101561124f57949350505050565b6005600061125e836001611fd1565b60ff16815260208082019290925260409081016000908120546001600160a01b038916825260099093522054101561129857949350505050565b806112a2816120c9565b9150506111e2565b50506002549392505050565b6112c1600082610758565b610cb7600033610782565b60006001600160a01b038316156112e3578261130d565b600b826040516112f39190611dbd565b908152604051908190036020019020546001600160a01b03165b90506001600160a01b03811661134f576040517fcd2d66aa00000000000000000000000000000000000000000000000000000000815260040160405180910390fd5b6001600160a01b038116331415611392576040517f55e8f70e00000000000000000000000000000000000000000000000000000000815260040160405180910390fd5b336000908152600860205260409020546001600160a01b03828116911614156113e7576040517ffe1ffa9500000000000000000000000000000000000000000000000000000000815260040160405180910390fd5b6001600160a01b03818116600090815260086020526040902054163314156114225760405163b6ea0b0160e01b815260040160405180910390fd5b6001600160a01b038181166000908152600860205260408082205483168252902054163314156114655760405163b6ea0b0160e01b815260040160405180910390fd5b61146e816110a7565b60ff1661148e576040516338b729c360e11b815260040160405180910390fd5b336000908152600860205260409020546001600160a01b0316158015906114db5750336000908152600860209081526040808320546001600160a01b031683526009909152902054600111155b1561151c57336000908152600860209081526040808320546001600160a01b0316835260099091528120805460019290611516908490612015565b90915550505b336000908152600860209081526040808320805473ffffffffffffffffffffffffffffffffffffffff19166001600160a01b038616908117909155835260099091528120805460019290611571908490611fb9565b90915550506040516001600160a01b0382169033907f82ca166ebb8d22637409e8fcca994e7e1b757a1e28f0ee91f4defe3cff1e919390600090a3505050565b610cb781336116d8565b6000828152602081815260408083206001600160a01b038516845290915290205460ff1661080f576000828152602081815260408083206001600160a01b03851684529091529020805460ff191660011790556116153390565b6001600160a01b0316816001600160a01b0316837f2f8788117e7eff1d82e926ec794901d17c78024a50270940304540a733656f0d60405160405180910390a45050565b6000828152602081815260408083206001600160a01b038516845290915290205460ff161561080f576000828152602081815260408083206001600160a01b0385168085529252808320805460ff1916905551339285917ff6391f5c32d9c69d2a47ea670b442974b53935d1edc7fd64eb21e047a839171b9190a45050565b6000828152602081815260408083206001600160a01b038516845290915290205460ff1661080f576117098161174b565b61171483602061175d565b604051602001611725929190611e74565b60408051601f198184030181529082905262461bcd60e51b82526107fc91600401611f55565b60606107526001600160a01b03831660145b6060600061176c836002611ff6565b611777906002611fb9565b67ffffffffffffffff81111561179d57634e487b7160e01b600052604160045260246000fd5b6040519080825280601f01601f1916602001820160405280156117c7576020820181803683370190505b5090507f30000000000000000000000000000000000000000000000000000000000000008160008151811061180c57634e487b7160e01b600052603260045260246000fd5b60200101906001600160f81b031916908160001a9053507f78000000000000000000000000000000000000000000000000000000000000008160018151811061186557634e487b7160e01b600052603260045260246000fd5b60200101906001600160f81b031916908160001a9053506000611889846002611ff6565b611894906001611fb9565b90505b6001811115611935577f303132333435363738396162636465660000000000000000000000000000000085600f16601081106118e357634e487b7160e01b600052603260045260246000fd5b1a60f81b82828151811061190757634e487b7160e01b600052603260045260246000fd5b60200101906001600160f81b031916908160001a90535060049490941c9361192e8161205c565b9050611897565b5083156119845760405162461bcd60e51b815260206004820181905260248201527f537472696e67733a20686578206c656e67746820696e73756666696369656e7460448201526064016107fc565b9392505050565b82805461199790612073565b90600052602060002090601f0160209004810192826119b957600085556119ff565b82601f106119d257805160ff19168380011785556119ff565b828001600101855582156119ff579182015b828111156119ff5782518255916020019190600101906119e4565b50611a0b929150611a0f565b5090565b5b80821115611a0b5760008155600101611a10565b80356001600160a01b0381168114611a3b57600080fd5b919050565b600082601f830112611a50578081fd5b8135602067ffffffffffffffff821115611a6c57611a6c6120ff565b8160051b611a7b828201611f88565b838152828101908684018388018501891015611a95578687fd5b8693505b85841015611ab7578035835260019390930192918401918401611a99565b50979650505050505050565b600082601f830112611ad3578081fd5b813567ffffffffffffffff811115611aed57611aed6120ff565b611b00601f8201601f1916602001611f88565b818152846020838601011115611b14578283fd5b816020850160208301379081016020019190915292915050565b803560ff81168114611a3b57600080fd5b600060208284031215611b50578081fd5b61198482611a24565b60008060408385031215611b6b578081fd5b611b7483611a24565b9150602083013567ffffffffffffffff811115611b8f578182fd5b611b9b85828601611ac3565b9150509250929050565b60008060408385031215611bb7578182fd5b611bc083611a24565b9150611bce60208401611b2e565b90509250929050565b600080600080600060a08688031215611bee578081fd5b853567ffffffffffffffff80821115611c05578283fd5b611c1189838a01611a40565b96506020880135915080821115611c26578283fd5b611c3289838a01611a40565b95506040880135915080821115611c47578283fd5b611c5389838a01611a40565b94506060880135915080821115611c68578283fd5b50611c7588828901611a40565b95989497509295608001359392505050565b600060208284031215611c98578081fd5b5035919050565b60008060408385031215611cb1578182fd5b82359150611bce60208401611a24565b600060208284031215611cd2578081fd5b81357fffffffff0000000000000000000000000000000000000000000000000000000081168114611984578182fd5b600060208284031215611d12578081fd5b813567ffffffffffffffff811115611d28578182fd5b611d3484828501611ac3565b949350505050565b600080600060608486031215611d50578283fd5b8351925060208401519150604084015190509250925092565b600060208284031215611d7a578081fd5b61198482611b2e565b6000815180845260208085019450808401835b83811015611db257815187529582019590820190600101611d96565b509495945050505050565b60008251611dcf81846020870161202c565b9190910192915050565b600080835482600182811c915080831680611df557607f831692505b6020808410821415611e1557634e487b7160e01b87526022600452602487fd5b818015611e295760018114611e3a57611e66565b60ff19861689528489019650611e66565b60008a815260209020885b86811015611e5e5781548b820152908501908301611e45565b505084890196505b509498975050505050505050565b7f416363657373436f6e74726f6c3a206163636f756e7420000000000000000000815260008351611eac81601785016020880161202c565b7f206973206d697373696e6720726f6c65200000000000000000000000000000006017918401918201528351611ee981602884016020880161202c565b01602801949350505050565b60a081526000611f0860a0830188611d83565b8281036020840152611f1a8188611d83565b90508281036040840152611f2e8187611d83565b90508281036060840152611f428186611d83565b9150508260808301529695505050505050565b6020815260008251806020840152611f7481604085016020870161202c565b601f01601f19169190910160400192915050565b604051601f8201601f1916810167ffffffffffffffff81118282101715611fb157611fb16120ff565b604052919050565b60008219821115611fcc57611fcc6120e9565b500190565b600060ff821660ff84168060ff03821115611fee57611fee6120e9565b019392505050565b6000816000190483118215151615612010576120106120e9565b500290565b600082821015612027576120276120e9565b500390565b60005b8381101561204757818101518382015260200161202f565b83811115612056576000848401525b50505050565b60008161206b5761206b6120e9565b506000190190565b600181811c9082168061208757607f821691505b602082108114156120a857634e487b7160e01b600052602260045260246000fd5b50919050565b60006000198214156120c2576120c26120e9565b5060010190565b600060ff821660ff8114156120e0576120e06120e9565b60010192915050565b634e487b7160e01b600052601160045260246000fd5b634e487b7160e01b600052604160045260246000fdfea264697066735822122044fff8f81500431d11b2f78126a590d6f4548096f9873bd62fd7d5c5b39f19f364736f6c63430008040033",
  "devdoc": {
    "kind": "dev",
    "methods": {
      "getRoleAdmin(bytes32)": {
        "details": "Returns the admin role that controls `role`. See {grantRole} and {revokeRole}. To change a role's admin, use {_setRoleAdmin}."
      },
      "grantRole(bytes32,address)": {
        "details": "Grants `role` to `account`. If `account` had not been already granted `role`, emits a {RoleGranted} event. Requirements: - the caller must have ``role``'s admin role. May emit a {RoleGranted} event."
      },
      "hasRole(bytes32,address)": {
        "details": "Returns `true` if `account` has been granted `role`."
      },
      "renounceRole(bytes32,address)": {
        "details": "Revokes `role` from the calling account. Roles are often managed via {grantRole} and {revokeRole}: this function's purpose is to provide a mechanism for accounts to lose their privileges if they are compromised (such as when a trusted device is misplaced). If the calling account had been revoked `role`, emits a {RoleRevoked} event. Requirements: - the caller must be `account`. May emit a {RoleRevoked} event."
      },
      "revokeRole(bytes32,address)": {
        "details": "Revokes `role` from `account`. If `account` had been granted `role`, emits a {RoleRevoked} event. Requirements: - the caller must have ``role``'s admin role. May emit a {RoleRevoked} event."
      },
      "supportsInterface(bytes4)": {
        "details": "See {IERC165-supportsInterface}."
      }
    },
    "version": 1
  },
  "userdoc": {
    "kind": "user",
    "methods": {},
    "version": 1
  },
  "storageLayout": {
    "storage": [
      {
        "astId": 24,
        "contract": "src/contracts/SummitReferrals.sol:SummitReferrals",
        "label": "_roles",
        "offset": 0,
        "slot": "0",
        "type": "t_mapping(t_bytes32,t_struct(RoleData)19_storage)"
      },
      {
        "astId": 2376,
        "contract": "src/contracts/SummitReferrals.sol:SummitReferrals",
        "label": "SUMMIT_POINTS",
        "offset": 0,
        "slot": "1",
        "type": "t_address"
      },
      {
        "astId": 2379,
        "contract": "src/contracts/SummitReferrals.sol:SummitReferrals",
        "label": "levelCount",
        "offset": 0,
        "slot": "2",
        "type": "t_uint256"
      },
      {
        "astId": 2383,
        "contract": "src/contracts/SummitReferrals.sol:SummitReferrals",
        "label": "LEVEL_REF_VOLUME_REQ",
        "offset": 0,
        "slot": "3",
        "type": "t_mapping(t_uint256,t_uint256)"
      },
      {
        "astId": 2387,
        "contract": "src/contracts/SummitReferrals.sol:SummitReferrals",
        "label": "LEVEL_SELF_VOLUME_REQ",
        "offset": 0,
        "slot": "4",
        "type": "t_mapping(t_uint256,t_uint256)"
      },
      {
        "astId": 2391,
        "contract": "src/contracts/SummitReferrals.sol:SummitReferrals",
        "label": "LEVEL_REFS_REQ",
        "offset": 0,
        "slot": "5",
        "type": "t_mapping(t_uint256,t_uint256)"
      },
      {
        "astId": 2395,
        "contract": "src/contracts/SummitReferrals.sol:SummitReferrals",
        "label": "LEVEL_MULT_REWARD",
        "offset": 0,
        "slot": "6",
        "type": "t_mapping(t_uint256,t_uint256)"
      },
      {
        "astId": 2398,
        "contract": "src/contracts/SummitReferrals.sol:SummitReferrals",
        "label": "BONUS_FOR_BEING_REFERRED",
        "offset": 0,
        "slot": "7",
        "type": "t_uint256"
      },
      {
        "astId": 2402,
        "contract": "src/contracts/SummitReferrals.sol:SummitReferrals",
        "label": "REFERRER",
        "offset": 0,
        "slot": "8",
        "type": "t_mapping(t_address,t_address)"
      },
      {
        "astId": 2406,
        "contract": "src/contracts/SummitReferrals.sol:SummitReferrals",
        "label": "REF_COUNT",
        "offset": 0,
        "slot": "9",
        "type": "t_mapping(t_address,t_uint256)"
      },
      {
        "astId": 2410,
        "contract": "src/contracts/SummitReferrals.sol:SummitReferrals",
        "label": "REF_BOOST_LEVEL",
        "offset": 0,
        "slot": "10",
        "type": "t_mapping(t_address,t_uint8)"
      },
      {
        "astId": 2414,
        "contract": "src/contracts/SummitReferrals.sol:SummitReferrals",
        "label": "REF_CODE",
        "offset": 0,
        "slot": "11",
        "type": "t_mapping(t_string_memory_ptr,t_address)"
      },
      {
        "astId": 2418,
        "contract": "src/contracts/SummitReferrals.sol:SummitReferrals",
        "label": "REF_CODE_INV",
        "offset": 0,
        "slot": "12",
        "type": "t_mapping(t_address,t_string_storage)"
      },
      {
        "astId": 2555,
        "contract": "src/contracts/SummitReferrals.sol:SummitReferrals",
        "label": "initialized",
        "offset": 0,
        "slot": "13",
        "type": "t_bool"
      },
      {
        "astId": 2557,
        "contract": "src/contracts/SummitReferrals.sol:SummitReferrals",
        "label": "governor",
        "offset": 1,
        "slot": "13",
        "type": "t_address"
      }
    ],
    "types": {
      "t_address": {
        "encoding": "inplace",
        "label": "address",
        "numberOfBytes": "20"
      },
      "t_bool": {
        "encoding": "inplace",
        "label": "bool",
        "numberOfBytes": "1"
      },
      "t_bytes32": {
        "encoding": "inplace",
        "label": "bytes32",
        "numberOfBytes": "32"
      },
      "t_mapping(t_address,t_address)": {
        "encoding": "mapping",
        "key": "t_address",
        "label": "mapping(address => address)",
        "numberOfBytes": "32",
        "value": "t_address"
      },
      "t_mapping(t_address,t_bool)": {
        "encoding": "mapping",
        "key": "t_address",
        "label": "mapping(address => bool)",
        "numberOfBytes": "32",
        "value": "t_bool"
      },
      "t_mapping(t_address,t_string_storage)": {
        "encoding": "mapping",
        "key": "t_address",
        "label": "mapping(address => string)",
        "numberOfBytes": "32",
        "value": "t_string_storage"
      },
      "t_mapping(t_address,t_uint256)": {
        "encoding": "mapping",
        "key": "t_address",
        "label": "mapping(address => uint256)",
        "numberOfBytes": "32",
        "value": "t_uint256"
      },
      "t_mapping(t_address,t_uint8)": {
        "encoding": "mapping",
        "key": "t_address",
        "label": "mapping(address => uint8)",
        "numberOfBytes": "32",
        "value": "t_uint8"
      },
      "t_mapping(t_bytes32,t_struct(RoleData)19_storage)": {
        "encoding": "mapping",
        "key": "t_bytes32",
        "label": "mapping(bytes32 => struct AccessControl.RoleData)",
        "numberOfBytes": "32",
        "value": "t_struct(RoleData)19_storage"
      },
      "t_mapping(t_string_memory_ptr,t_address)": {
        "encoding": "mapping",
        "key": "t_string_memory_ptr",
        "label": "mapping(string => address)",
        "numberOfBytes": "32",
        "value": "t_address"
      },
      "t_mapping(t_uint256,t_uint256)": {
        "encoding": "mapping",
        "key": "t_uint256",
        "label": "mapping(uint256 => uint256)",
        "numberOfBytes": "32",
        "value": "t_uint256"
      },
      "t_string_memory_ptr": {
        "encoding": "bytes",
        "label": "string",
        "numberOfBytes": "32"
      },
      "t_string_storage": {
        "encoding": "bytes",
        "label": "string",
        "numberOfBytes": "32"
      },
      "t_struct(RoleData)19_storage": {
        "encoding": "inplace",
        "label": "struct AccessControl.RoleData",
        "members": [
          {
            "astId": 16,
            "contract": "src/contracts/SummitReferrals.sol:SummitReferrals",
            "label": "members",
            "offset": 0,
            "slot": "0",
            "type": "t_mapping(t_address,t_bool)"
          },
          {
            "astId": 18,
            "contract": "src/contracts/SummitReferrals.sol:SummitReferrals",
            "label": "adminRole",
            "offset": 0,
            "slot": "1",
            "type": "t_bytes32"
          }
        ],
        "numberOfBytes": "64"
      },
      "t_uint256": {
        "encoding": "inplace",
        "label": "uint256",
        "numberOfBytes": "32"
      },
      "t_uint8": {
        "encoding": "inplace",
        "label": "uint8",
        "numberOfBytes": "1"
      }
    }
  }
}