{
  "address": "0xFfA83F5302dFb552C9DDAf729EdF093eC78345fC",
  "abi": [
    {
      "inputs": [
        {
          "internalType": "address",
          "name": "_router",
          "type": "address"
        },
        {
          "internalType": "address",
          "name": "_stable",
          "type": "address"
        },
        {
          "internalType": "address",
          "name": "_wNative",
          "type": "address"
        }
      ],
      "stateMutability": "nonpayable",
      "type": "constructor"
    },
    {
      "anonymous": false,
      "inputs": [
        {
          "indexed": true,
          "internalType": "address",
          "name": "_asset",
          "type": "address"
        },
        {
          "indexed": false,
          "internalType": "uint256",
          "name": "amount",
          "type": "uint256"
        }
      ],
      "name": "Recovered",
      "type": "event"
    },
    {
      "anonymous": false,
      "inputs": [
        {
          "indexed": true,
          "internalType": "bytes32",
          "name": "role",
          "type": "bytes32"
        },
        {
          "indexed": true,
          "internalType": "bytes32",
          "name": "previousAdminRole",
          "type": "bytes32"
        },
        {
          "indexed": true,
          "internalType": "bytes32",
          "name": "newAdminRole",
          "type": "bytes32"
        }
      ],
      "name": "RoleAdminChanged",
      "type": "event"
    },
    {
      "anonymous": false,
      "inputs": [
        {
          "indexed": true,
          "internalType": "bytes32",
          "name": "role",
          "type": "bytes32"
        },
        {
          "indexed": true,
          "internalType": "address",
          "name": "account",
          "type": "address"
        },
        {
          "indexed": true,
          "internalType": "address",
          "name": "sender",
          "type": "address"
        }
      ],
      "name": "RoleGranted",
      "type": "event"
    },
    {
      "anonymous": false,
      "inputs": [
        {
          "indexed": true,
          "internalType": "bytes32",
          "name": "role",
          "type": "bytes32"
        },
        {
          "indexed": true,
          "internalType": "address",
          "name": "account",
          "type": "address"
        },
        {
          "indexed": true,
          "internalType": "address",
          "name": "sender",
          "type": "address"
        }
      ],
      "name": "RoleRevoked",
      "type": "event"
    },
    {
      "inputs": [],
      "name": "DEFAULT_ADMIN_ROLE",
      "outputs": [
        {
          "internalType": "bytes32",
          "name": "",
          "type": "bytes32"
        }
      ],
      "stateMutability": "view",
      "type": "function"
    },
    {
      "inputs": [],
      "name": "MAINTAINER_ROLE",
      "outputs": [
        {
          "internalType": "bytes32",
          "name": "",
          "type": "bytes32"
        }
      ],
      "stateMutability": "view",
      "type": "function"
    },
    {
      "inputs": [],
      "name": "ROUTER",
      "outputs": [
        {
          "internalType": "contract ISummitRouter",
          "name": "",
          "type": "address"
        }
      ],
      "stateMutability": "view",
      "type": "function"
    },
    {
      "inputs": [],
      "name": "STABLE",
      "outputs": [
        {
          "internalType": "contract IERC20",
          "name": "",
          "type": "address"
        }
      ],
      "stateMutability": "view",
      "type": "function"
    },
    {
      "inputs": [],
      "name": "WNATIVE",
      "outputs": [
        {
          "internalType": "contract IERC20",
          "name": "",
          "type": "address"
        }
      ],
      "stateMutability": "view",
      "type": "function"
    },
    {
      "inputs": [
        {
          "internalType": "address",
          "name": "addedMaintainer",
          "type": "address"
        }
      ],
      "name": "addMaintainer",
      "outputs": [],
      "stateMutability": "nonpayable",
      "type": "function"
    },
    {
      "inputs": [
        {
          "internalType": "address",
          "name": "_token",
          "type": "address"
        }
      ],
      "name": "getPrice",
      "outputs": [
        {
          "internalType": "uint256",
          "name": "",
          "type": "uint256"
        },
        {
          "internalType": "uint256",
          "name": "",
          "type": "uint256"
        }
      ],
      "stateMutability": "view",
      "type": "function"
    },
    {
      "inputs": [
        {
          "internalType": "bytes32",
          "name": "role",
          "type": "bytes32"
        }
      ],
      "name": "getRoleAdmin",
      "outputs": [
        {
          "internalType": "bytes32",
          "name": "",
          "type": "bytes32"
        }
      ],
      "stateMutability": "view",
      "type": "function"
    },
    {
      "inputs": [
        {
          "internalType": "address",
          "name": "_user",
          "type": "address"
        },
        {
          "internalType": "address",
          "name": "_token",
          "type": "address"
        }
      ],
      "name": "getTokenData",
      "outputs": [
        {
          "components": [
            {
              "internalType": "uint256",
              "name": "userAllowance",
              "type": "uint256"
            },
            {
              "internalType": "uint256",
              "name": "userBalance",
              "type": "uint256"
            },
            {
              "internalType": "uint256",
              "name": "price",
              "type": "uint256"
            },
            {
              "internalType": "uint256",
              "name": "priceDecimals",
              "type": "uint256"
            }
          ],
          "internalType": "struct SummitOracle.TokenData",
          "name": "data",
          "type": "tuple"
        }
      ],
      "stateMutability": "view",
      "type": "function"
    },
    {
      "inputs": [
        {
          "internalType": "bytes32",
          "name": "role",
          "type": "bytes32"
        },
        {
          "internalType": "address",
          "name": "account",
          "type": "address"
        }
      ],
      "name": "grantRole",
      "outputs": [],
      "stateMutability": "nonpayable",
      "type": "function"
    },
    {
      "inputs": [
        {
          "internalType": "bytes32",
          "name": "role",
          "type": "bytes32"
        },
        {
          "internalType": "address",
          "name": "account",
          "type": "address"
        }
      ],
      "name": "hasRole",
      "outputs": [
        {
          "internalType": "bool",
          "name": "",
          "type": "bool"
        }
      ],
      "stateMutability": "view",
      "type": "function"
    },
    {
      "inputs": [
        {
          "internalType": "address",
          "name": "_tokenAddress",
          "type": "address"
        },
        {
          "internalType": "uint256",
          "name": "_tokenAmount",
          "type": "uint256"
        }
      ],
      "name": "recoverERC20",
      "outputs": [],
      "stateMutability": "nonpayable",
      "type": "function"
    },
    {
      "inputs": [
        {
          "internalType": "uint256",
          "name": "_amount",
          "type": "uint256"
        }
      ],
      "name": "recoverNATIVE",
      "outputs": [],
      "stateMutability": "nonpayable",
      "type": "function"
    },
    {
      "inputs": [
        {
          "internalType": "address",
          "name": "removedMaintainer",
          "type": "address"
        }
      ],
      "name": "removeMaintainer",
      "outputs": [],
      "stateMutability": "nonpayable",
      "type": "function"
    },
    {
      "inputs": [
        {
          "internalType": "bytes32",
          "name": "role",
          "type": "bytes32"
        },
        {
          "internalType": "address",
          "name": "account",
          "type": "address"
        }
      ],
      "name": "renounceRole",
      "outputs": [],
      "stateMutability": "nonpayable",
      "type": "function"
    },
    {
      "inputs": [
        {
          "internalType": "bytes32",
          "name": "role",
          "type": "bytes32"
        }
      ],
      "name": "renounceRole",
      "outputs": [],
      "stateMutability": "nonpayable",
      "type": "function"
    },
    {
      "inputs": [
        {
          "internalType": "bytes32",
          "name": "role",
          "type": "bytes32"
        },
        {
          "internalType": "address",
          "name": "account",
          "type": "address"
        }
      ],
      "name": "revokeRole",
      "outputs": [],
      "stateMutability": "nonpayable",
      "type": "function"
    },
    {
      "inputs": [
        {
          "internalType": "address",
          "name": "_router",
          "type": "address"
        }
      ],
      "name": "setRouter",
      "outputs": [],
      "stateMutability": "nonpayable",
      "type": "function"
    },
    {
      "inputs": [
        {
          "internalType": "address",
          "name": "_stable",
          "type": "address"
        }
      ],
      "name": "setStable",
      "outputs": [],
      "stateMutability": "nonpayable",
      "type": "function"
    },
    {
      "inputs": [
        {
          "internalType": "address",
          "name": "_wNative",
          "type": "address"
        }
      ],
      "name": "setWNative",
      "outputs": [],
      "stateMutability": "nonpayable",
      "type": "function"
    },
    {
      "inputs": [
        {
          "internalType": "bytes4",
          "name": "interfaceId",
          "type": "bytes4"
        }
      ],
      "name": "supportsInterface",
      "outputs": [
        {
          "internalType": "bool",
          "name": "",
          "type": "bool"
        }
      ],
      "stateMutability": "view",
      "type": "function"
    },
    {
      "inputs": [
        {
          "internalType": "address",
          "name": "newOwner",
          "type": "address"
        }
      ],
      "name": "transferOwnership",
      "outputs": [],
      "stateMutability": "nonpayable",
      "type": "function"
    }
  ],
  "transactionHash": "0xae5ec32f3a8772fa505f849687b5e44169a38ff060920a97b0a9e3e64c5e1d91",
  "args": [
    "0x21506976f76D5999aeF0476d6667a8F011555376",
    "0x28a92dde19d9989f39a49905d7c9c2fac7799bdf",
    "0x21be370D5312f44cB42ce377BC9b8a0cEF1A4C83"
  ],
  "solcInputHash": "3305cc27efb059dd8344db5dd2fff408",
  "bytecode": "0x60806040523480156200001157600080fd5b5060405162001b9538038062001b9583398101604081905262000034916200017f565b3362000042600082620000b2565b6200006e7f339759585899103d2ace64958e37e18ccb0504652c81d4a1b8aa80fe2126ab9582620000b2565b50600180546001600160a01b039485166001600160a01b031991821617909155600280549385169382169390931790925560038054919093169116179055620001c8565b620000be8282620000c2565b5050565b6000828152602081815260408083206001600160a01b038516845290915290205460ff16620000be576000828152602081815260408083206001600160a01b03851684529091529020805460ff191660011790556200011e3390565b6001600160a01b0316816001600160a01b0316837f2f8788117e7eff1d82e926ec794901d17c78024a50270940304540a733656f0d60405160405180910390a45050565b80516001600160a01b03811681146200017a57600080fd5b919050565b60008060006060848603121562000194578283fd5b6200019f8462000162565b9250620001af6020850162000162565b9150620001bf6040850162000162565b90509250925092565b6119bd80620001d86000396000f3fe608060405234801561001057600080fd5b50600436106101825760003560e01c806391d14854116100d8578063c2c528201161008c578063dba7137611610066578063dba713761461039e578063f2fde38b146103b1578063f8742254146103c457600080fd5b8063c2c5282014610365578063d547741f14610378578063d8baf7cf1461038b57600080fd5b8063a217fddf116100bd578063a217fddf14610337578063b381cf401461033f578063c0d786551461035257600080fd5b806391d14854146102ed57806395490c0b1461032457600080fd5b806336568abe1161013a5780636b453c1f116101145780636b453c1f146102b45780638980f11f146102c75780638bb9c5bf146102da57600080fd5b806336568abe1461026657806341976e091461027957806354d9f653146102a157600080fd5b80632f2ff15d1161016b5780632f2ff15d146101e057806331f380d0146101f557806332fe7b261461023b57600080fd5b806301ffc9a714610187578063248a9ca3146101af575b600080fd5b61019a61019536600461155f565b6103eb565b60405190151581526020015b60405180910390f35b6101d26101bd366004611523565b60009081526020819052604090206001015490565b6040519081526020016101a6565b6101f36101ee36600461153b565b610454565b005b6102086102033660046114a0565b61047e565b6040516101a691908151815260208083015190820152604080830151908201526060918201519181019190915260800190565b60015461024e906001600160a01b031681565b6040516001600160a01b0390911681526020016101a6565b6101f361027436600461153b565b610614565b61028c610287366004611484565b6106a5565b604080519283526020830191909152016101a6565b60025461024e906001600160a01b031681565b6101f36102c2366004611484565b61087c565b6101f36102d53660046114d8565b6108a9565b6101f36102e8366004611523565b6109e4565b61019a6102fb36600461153b565b6000918252602082815260408084206001600160a01b0393909316845291905290205460ff1690565b6101f3610332366004611484565b6109ef565b6101d2600081565b60035461024e906001600160a01b031681565b6101f3610360366004611484565b610aae565b6101f3610373366004611523565b610b6d565b6101f361038636600461153b565b610cb4565b6101f3610399366004611484565b610cd9565b6101f36103ac366004611484565b610d03565b6101f36103bf366004611484565b610dc2565b6101d27f339759585899103d2ace64958e37e18ccb0504652c81d4a1b8aa80fe2126ab9581565b60006001600160e01b031982167f7965db0b00000000000000000000000000000000000000000000000000000000148061044e57507f01ffc9a7000000000000000000000000000000000000000000000000000000006001600160e01b03198316145b92915050565b60008281526020819052604090206001015461046f81610dd9565b6104798383610de3565b505050565b6104a96040518060800160405280600081526020016000815260200160008152602001600081525090565b6000806104b5846106a5565b6040805160808101918290526001547fdd62ed3e000000000000000000000000000000000000000000000000000000009092526001600160a01b03898116608483015291821660a48201529294509092508190861663dd62ed3e60c4830160206040518083038186803b15801561052b57600080fd5b505afa15801561053f573d6000803e3d6000fd5b505050506040513d601f19601f820116820180604052508101906105639190611643565b81526040517f70a082310000000000000000000000000000000000000000000000000000000081526001600160a01b0388811660048301526020909201918716906370a082319060240160206040518083038186803b1580156105c557600080fd5b505afa1580156105d9573d6000803e3d6000fd5b505050506040513d601f19601f820116820180604052508101906105fd9190611643565b815260208101939093526040909201529392505050565b6001600160a01b03811633146106975760405162461bcd60e51b815260206004820152602f60248201527f416363657373436f6e74726f6c3a2063616e206f6e6c792072656e6f756e636560448201527f20726f6c657320666f722073656c66000000000000000000000000000000000060648201526084015b60405180910390fd5b6106a18282610e81565b5050565b6000806000836001600160a01b031663313ce5676040518163ffffffff1660e01b815260040160206040518083038186803b1580156106e357600080fd5b505afa1580156106f7573d6000803e3d6000fd5b505050506040513d601f19601f8201168201806040525081019061071b919061165b565b60015460ff9190911691506000906001600160a01b0316634c09cf4e61074284600a611825565b60025460405160e084901b6001600160e01b031916815260048101929092526001600160a01b03808a1660248401521660448201526003606482015260840160006040518083038186803b15801561079957600080fd5b505afa1580156107ad573d6000803e3d6000fd5b505050506040513d6000823e601f3d908101601f191682016040526107d59190810190611587565b905060006107e282610f00565b905080600260009054906101000a90046001600160a01b03166001600160a01b031663313ce5676040518163ffffffff1660e01b815260040160206040518083038186803b15801561083357600080fd5b505afa158015610847573d6000803e3d6000fd5b505050506040513d601f19601f8201168201806040525081019061086b919061165b565b909760ff9091169650945050505050565b6108a67f339759585899103d2ace64958e37e18ccb0504652c81d4a1b8aa80fe2126ab9582610454565b50565b3360008181527fa54247010af6b3693b80aceddfad12e077c5de3571e6243fada502635f0d7d39602052604090205460ff166109385760405162461bcd60e51b815260206004820152602860248201527f4d61696e7461696e61626c653a2043616c6c6572206973206e6f742061206d6160448201526734b73a30b4b732b960c11b606482015260840161068e565b600082116109885760405162461bcd60e51b815260206004820152601260248201527f4e6f7468696e6720746f207265636f7665720000000000000000000000000000604482015260640161068e565b61099c6001600160a01b0384163384610f41565b826001600160a01b03167f8c1256b8896378cd5044f80c202f9772b9d77dc85c8a6eb51967210b09bfaa28836040516109d791815260200190565b60405180910390a2505050565b336106a18282610614565b3360008181527fa54247010af6b3693b80aceddfad12e077c5de3571e6243fada502635f0d7d39602052604090205460ff16610a7e5760405162461bcd60e51b815260206004820152602860248201527f4d61696e7461696e61626c653a2043616c6c6572206973206e6f742061206d6160448201526734b73a30b4b732b960c11b606482015260840161068e565b506003805473ffffffffffffffffffffffffffffffffffffffff19166001600160a01b0392909216919091179055565b3360008181527fa54247010af6b3693b80aceddfad12e077c5de3571e6243fada502635f0d7d39602052604090205460ff16610b3d5760405162461bcd60e51b815260206004820152602860248201527f4d61696e7461696e61626c653a2043616c6c6572206973206e6f742061206d6160448201526734b73a30b4b732b960c11b606482015260840161068e565b506001805473ffffffffffffffffffffffffffffffffffffffff19166001600160a01b0392909216919091179055565b3360008181527fa54247010af6b3693b80aceddfad12e077c5de3571e6243fada502635f0d7d39602052604090205460ff16610bfc5760405162461bcd60e51b815260206004820152602860248201527f4d61696e7461696e61626c653a2043616c6c6572206973206e6f742061206d6160448201526734b73a30b4b732b960c11b606482015260840161068e565b60008211610c4c5760405162461bcd60e51b815260206004820152601260248201527f4e6f7468696e6720746f207265636f7665720000000000000000000000000000604482015260640161068e565b604051339083156108fc029084906000818181858888f19350505050158015610c79573d6000803e3d6000fd5b506040518281526000907f8c1256b8896378cd5044f80c202f9772b9d77dc85c8a6eb51967210b09bfaa289060200160405180910390a25050565b600082815260208190526040902060010154610ccf81610dd9565b6104798383610e81565b6108a67f339759585899103d2ace64958e37e18ccb0504652c81d4a1b8aa80fe2126ab9582610cb4565b3360008181527fa54247010af6b3693b80aceddfad12e077c5de3571e6243fada502635f0d7d39602052604090205460ff16610d925760405162461bcd60e51b815260206004820152602860248201527f4d61696e7461696e61626c653a2043616c6c6572206973206e6f742061206d6160448201526734b73a30b4b732b960c11b606482015260840161068e565b506002805473ffffffffffffffffffffffffffffffffffffffff19166001600160a01b0392909216919091179055565b33610dce600083610454565b6106a1600082610614565b6108a68133610fc1565b6000828152602081815260408083206001600160a01b038516845290915290205460ff166106a1576000828152602081815260408083206001600160a01b03851684529091529020805460ff19166001179055610e3d3390565b6001600160a01b0316816001600160a01b0316837f2f8788117e7eff1d82e926ec794901d17c78024a50270940304540a733656f0d60405160405180910390a45050565b6000828152602081815260408083206001600160a01b038516845290915290205460ff16156106a1576000828152602081815260408083206001600160a01b0385168085529252808320805460ff1916905551339285917ff6391f5c32d9c69d2a47ea670b442974b53935d1edc7fd64eb21e047a839171b9190a45050565b8051805160009190610f14906001906118ec565b81518110610f3257634e487b7160e01b600052603260045260246000fd5b60200260200101519050919050565b604080516001600160a01b038416602482015260448082018490528251808303909101815260649091019091526020810180517bffffffffffffffffffffffffffffffffffffffffffffffffffffffff167fa9059cbb0000000000000000000000000000000000000000000000000000000017905261047990849061103f565b6000828152602081815260408083206001600160a01b038516845290915290205460ff166106a157610ffd816001600160a01b03166014611181565b611008836020611181565b604051602001611019929190611698565b60408051601f198184030181529082905262461bcd60e51b825261068e91600401611719565b600080836001600160a01b03168360405161105a919061167c565b6000604051808303816000865af19150503d8060008114611097576040519150601f19603f3d011682016040523d82523d6000602084013e61109c565b606091505b5091509150816110ee5760405162461bcd60e51b815260206004820181905260248201527f5361666545524332303a206c6f772d6c6576656c2063616c6c206661696c6564604482015260640161068e565b80511561117b57808060200190518101906111099190611503565b61117b5760405162461bcd60e51b815260206004820152602a60248201527f5361666545524332303a204552433230206f7065726174696f6e20646964206e60448201527f6f74207375636365656400000000000000000000000000000000000000000000606482015260840161068e565b50505050565b606060006111908360026118cd565b61119b9060026117ca565b67ffffffffffffffff8111156111c157634e487b7160e01b600052604160045260246000fd5b6040519080825280601f01601f1916602001820160405280156111eb576020820181803683370190505b5090507f30000000000000000000000000000000000000000000000000000000000000008160008151811061123057634e487b7160e01b600052603260045260246000fd5b60200101906001600160f81b031916908160001a9053507f78000000000000000000000000000000000000000000000000000000000000008160018151811061128957634e487b7160e01b600052603260045260246000fd5b60200101906001600160f81b031916908160001a90535060006112ad8460026118cd565b6112b89060016117ca565b90505b6001811115611359577f303132333435363738396162636465660000000000000000000000000000000085600f166010811061130757634e487b7160e01b600052603260045260246000fd5b1a60f81b82828151811061132b57634e487b7160e01b600052603260045260246000fd5b60200101906001600160f81b031916908160001a90535060049490941c936113528161192f565b90506112bb565b5083156113a85760405162461bcd60e51b815260206004820181905260248201527f537472696e67733a20686578206c656e67746820696e73756666696369656e74604482015260640161068e565b9392505050565b600082601f8301126113bf578081fd5b815160206113d46113cf836117a6565b611775565b80838252828201915082860187848660051b89010111156113f3578586fd5b855b8581101561141a57815161140881611972565b845292840192908401906001016113f5565b5090979650505050505050565b600082601f830112611437578081fd5b815160206114476113cf836117a6565b80838252828201915082860187848660051b8901011115611466578586fd5b855b8581101561141a57815184529284019290840190600101611468565b600060208284031215611495578081fd5b81356113a881611972565b600080604083850312156114b2578081fd5b82356114bd81611972565b915060208301356114cd81611972565b809150509250929050565b600080604083850312156114ea578182fd5b82356114f581611972565b946020939093013593505050565b600060208284031215611514578081fd5b815180151581146113a8578182fd5b600060208284031215611534578081fd5b5035919050565b6000806040838503121561154d578182fd5b8235915060208301356114cd81611972565b600060208284031215611570578081fd5b81356001600160e01b0319811681146113a8578182fd5b600060208284031215611598578081fd5b815167ffffffffffffffff808211156115af578283fd5b90830190608082860312156115c2578283fd5b6115ca61174c565b8251828111156115d8578485fd5b6115e487828601611427565b8252506020830151828111156115f8578485fd5b611604878286016113af565b60208301525060408301518281111561161b578485fd5b611627878286016113af565b6040830152506060830151606082015280935050505092915050565b600060208284031215611654578081fd5b5051919050565b60006020828403121561166c578081fd5b815160ff811681146113a8578182fd5b6000825161168e818460208701611903565b9190910192915050565b7f416363657373436f6e74726f6c3a206163636f756e74200000000000000000008152600083516116d0816017850160208801611903565b7f206973206d697373696e6720726f6c6520000000000000000000000000000000601791840191820152835161170d816028840160208801611903565b01602801949350505050565b6020815260008251806020840152611738816040850160208701611903565b601f01601f19169190910160400192915050565b6040516080810167ffffffffffffffff8111828210171561176f5761176f61195c565b60405290565b604051601f8201601f1916810167ffffffffffffffff8111828210171561179e5761179e61195c565b604052919050565b600067ffffffffffffffff8211156117c0576117c061195c565b5060051b60200190565b600082198211156117dd576117dd611946565b500190565b600181815b8085111561181d57816000190482111561180357611803611946565b8085161561181057918102915b93841c93908002906117e7565b509250929050565b60006113a8838360008261183b5750600161044e565b816118485750600061044e565b816001811461185e576002811461186857611884565b600191505061044e565b60ff84111561187957611879611946565b50506001821b61044e565b5060208310610133831016604e8410600b84101617156118a7575081810a61044e565b6118b183836117e2565b80600019048211156118c5576118c5611946565b029392505050565b60008160001904831182151516156118e7576118e7611946565b500290565b6000828210156118fe576118fe611946565b500390565b60005b8381101561191e578181015183820152602001611906565b8381111561117b5750506000910152565b60008161193e5761193e611946565b506000190190565b634e487b7160e01b600052601160045260246000fd5b634e487b7160e01b600052604160045260246000fd5b6001600160a01b03811681146108a657600080fdfea26469706673582212208085d5e4e97819c38a63dd1425abf555b7ba99e5b9af7cd79edf28067e25469064736f6c63430008040033",
  "devdoc": {
    "kind": "dev",
    "methods": {
      "getRoleAdmin(bytes32)": {
        "details": "Returns the admin role that controls `role`. See {grantRole} and {revokeRole}. To change a role's admin, use {_setRoleAdmin}."
      },
      "grantRole(bytes32,address)": {
        "details": "Grants `role` to `account`. If `account` had not been already granted `role`, emits a {RoleGranted} event. Requirements: - the caller must have ``role``'s admin role. May emit a {RoleGranted} event."
      },
      "hasRole(bytes32,address)": {
        "details": "Returns `true` if `account` has been granted `role`."
      },
      "recoverERC20(address,uint256)": {
        "params": {
          "_tokenAddress": "token address",
          "_tokenAmount": "amount to recover"
        }
      },
      "recoverNATIVE(uint256)": {
        "params": {
          "_amount": "amount"
        }
      },
      "renounceRole(bytes32,address)": {
        "details": "Revokes `role` from the calling account. Roles are often managed via {grantRole} and {revokeRole}: this function's purpose is to provide a mechanism for accounts to lose their privileges if they are compromised (such as when a trusted device is misplaced). If the calling account had been revoked `role`, emits a {RoleRevoked} event. Requirements: - the caller must be `account`. May emit a {RoleRevoked} event."
      },
      "revokeRole(bytes32,address)": {
        "details": "Revokes `role` from `account`. If `account` had been granted `role`, emits a {RoleRevoked} event. Requirements: - the caller must have ``role``'s admin role. May emit a {RoleRevoked} event."
      },
      "supportsInterface(bytes4)": {
        "details": "See {IERC165-supportsInterface}."
      }
    },
    "version": 1
  },
  "userdoc": {
    "kind": "user",
    "methods": {
      "recoverERC20(address,uint256)": {
        "notice": "Recover ERC20 from contract"
      },
      "recoverNATIVE(uint256)": {
        "notice": "Recover native asset from contract"
      }
    },
    "version": 1
  },
  "storageLayout": {
    "storage": [
      {
        "astId": 24,
        "contract": "src/contracts/SummitOracle.sol:SummitOracle",
        "label": "_roles",
        "offset": 0,
        "slot": "0",
        "type": "t_mapping(t_bytes32,t_struct(RoleData)19_storage)"
      },
      {
        "astId": 8768,
        "contract": "src/contracts/SummitOracle.sol:SummitOracle",
        "label": "ROUTER",
        "offset": 0,
        "slot": "1",
        "type": "t_contract(ISummitRouter)9340"
      },
      {
        "astId": 8771,
        "contract": "src/contracts/SummitOracle.sol:SummitOracle",
        "label": "STABLE",
        "offset": 0,
        "slot": "2",
        "type": "t_contract(IERC20)9096"
      },
      {
        "astId": 8774,
        "contract": "src/contracts/SummitOracle.sol:SummitOracle",
        "label": "WNATIVE",
        "offset": 0,
        "slot": "3",
        "type": "t_contract(IERC20)9096"
      }
    ],
    "types": {
      "t_address": {
        "encoding": "inplace",
        "label": "address",
        "numberOfBytes": "20"
      },
      "t_bool": {
        "encoding": "inplace",
        "label": "bool",
        "numberOfBytes": "1"
      },
      "t_bytes32": {
        "encoding": "inplace",
        "label": "bytes32",
        "numberOfBytes": "32"
      },
      "t_contract(IERC20)9096": {
        "encoding": "inplace",
        "label": "contract IERC20",
        "numberOfBytes": "20"
      },
      "t_contract(ISummitRouter)9340": {
        "encoding": "inplace",
        "label": "contract ISummitRouter",
        "numberOfBytes": "20"
      },
      "t_mapping(t_address,t_bool)": {
        "encoding": "mapping",
        "key": "t_address",
        "label": "mapping(address => bool)",
        "numberOfBytes": "32",
        "value": "t_bool"
      },
      "t_mapping(t_bytes32,t_struct(RoleData)19_storage)": {
        "encoding": "mapping",
        "key": "t_bytes32",
        "label": "mapping(bytes32 => struct AccessControl.RoleData)",
        "numberOfBytes": "32",
        "value": "t_struct(RoleData)19_storage"
      },
      "t_struct(RoleData)19_storage": {
        "encoding": "inplace",
        "label": "struct AccessControl.RoleData",
        "members": [
          {
            "astId": 16,
            "contract": "src/contracts/SummitOracle.sol:SummitOracle",
            "label": "members",
            "offset": 0,
            "slot": "0",
            "type": "t_mapping(t_address,t_bool)"
          },
          {
            "astId": 18,
            "contract": "src/contracts/SummitOracle.sol:SummitOracle",
            "label": "adminRole",
            "offset": 0,
            "slot": "1",
            "type": "t_bytes32"
          }
        ],
        "numberOfBytes": "64"
      }
    }
  }
}