{
  "address": "0xcA0A383C870252445B4476E4E7BFe58bE86201AC",
  "abi": [
    {
      "inputs": [],
      "name": "AlreadyInitialized",
      "type": "error"
    },
    {
      "inputs": [],
      "name": "InvalidAdapterAmount",
      "type": "error"
    },
    {
      "inputs": [],
      "name": "InvalidRefAmount",
      "type": "error"
    },
    {
      "inputs": [],
      "name": "InvalidSelfAmount",
      "type": "error"
    },
    {
      "inputs": [],
      "name": "NotPermitted",
      "type": "error"
    },
    {
      "inputs": [],
      "name": "ZeroAddress",
      "type": "error"
    },
    {
      "anonymous": false,
      "inputs": [
        {
          "indexed": true,
          "internalType": "address",
          "name": "_adapter",
          "type": "address"
        },
        {
          "indexed": false,
          "internalType": "uint256",
          "name": "_volume",
          "type": "uint256"
        }
      ],
      "name": "AddedAdapterVolume",
      "type": "event"
    },
    {
      "anonymous": false,
      "inputs": [
        {
          "indexed": true,
          "internalType": "address",
          "name": "_referrer",
          "type": "address"
        },
        {
          "indexed": true,
          "internalType": "address",
          "name": "_user",
          "type": "address"
        },
        {
          "indexed": false,
          "internalType": "uint256",
          "name": "_volume",
          "type": "uint256"
        }
      ],
      "name": "AddedReferrerVolume",
      "type": "event"
    },
    {
      "anonymous": false,
      "inputs": [
        {
          "indexed": true,
          "internalType": "address",
          "name": "_user",
          "type": "address"
        },
        {
          "indexed": false,
          "internalType": "uint256",
          "name": "_volume",
          "type": "uint256"
        }
      ],
      "name": "AddedUserVolume",
      "type": "event"
    },
    {
      "anonymous": false,
      "inputs": [
        {
          "indexed": true,
          "internalType": "address",
          "name": "_asset",
          "type": "address"
        },
        {
          "indexed": false,
          "internalType": "uint256",
          "name": "amount",
          "type": "uint256"
        }
      ],
      "name": "Recovered",
      "type": "event"
    },
    {
      "anonymous": false,
      "inputs": [
        {
          "indexed": true,
          "internalType": "bytes32",
          "name": "role",
          "type": "bytes32"
        },
        {
          "indexed": true,
          "internalType": "bytes32",
          "name": "previousAdminRole",
          "type": "bytes32"
        },
        {
          "indexed": true,
          "internalType": "bytes32",
          "name": "newAdminRole",
          "type": "bytes32"
        }
      ],
      "name": "RoleAdminChanged",
      "type": "event"
    },
    {
      "anonymous": false,
      "inputs": [
        {
          "indexed": true,
          "internalType": "bytes32",
          "name": "role",
          "type": "bytes32"
        },
        {
          "indexed": true,
          "internalType": "address",
          "name": "account",
          "type": "address"
        },
        {
          "indexed": true,
          "internalType": "address",
          "name": "sender",
          "type": "address"
        }
      ],
      "name": "RoleGranted",
      "type": "event"
    },
    {
      "anonymous": false,
      "inputs": [
        {
          "indexed": true,
          "internalType": "bytes32",
          "name": "role",
          "type": "bytes32"
        },
        {
          "indexed": true,
          "internalType": "address",
          "name": "account",
          "type": "address"
        },
        {
          "indexed": true,
          "internalType": "address",
          "name": "sender",
          "type": "address"
        }
      ],
      "name": "RoleRevoked",
      "type": "event"
    },
    {
      "anonymous": false,
      "inputs": [
        {
          "indexed": true,
          "internalType": "address",
          "name": "_caller",
          "type": "address"
        },
        {
          "indexed": true,
          "internalType": "address",
          "name": "_from",
          "type": "address"
        },
        {
          "indexed": true,
          "internalType": "address",
          "name": "_to",
          "type": "address"
        },
        {
          "indexed": false,
          "internalType": "uint256",
          "name": "_selfVolume",
          "type": "uint256"
        },
        {
          "indexed": false,
          "internalType": "uint256",
          "name": "_refVolume",
          "type": "uint256"
        },
        {
          "indexed": false,
          "internalType": "uint256",
          "name": "_adapterVolume",
          "type": "uint256"
        }
      ],
      "name": "TransferredVolume",
      "type": "event"
    },
    {
      "anonymous": false,
      "inputs": [
        {
          "indexed": true,
          "internalType": "address",
          "name": "_adapter",
          "type": "address"
        },
        {
          "indexed": true,
          "internalType": "address",
          "name": "_delegate",
          "type": "address"
        }
      ],
      "name": "UpdatedAdapterDelegate",
      "type": "event"
    },
    {
      "anonymous": false,
      "inputs": [
        {
          "indexed": true,
          "internalType": "address",
          "name": "_caller",
          "type": "address"
        },
        {
          "indexed": true,
          "internalType": "address",
          "name": "_user",
          "type": "address"
        },
        {
          "indexed": true,
          "internalType": "address",
          "name": "_delegate",
          "type": "address"
        }
      ],
      "name": "UpdatedDelegate",
      "type": "event"
    },
    {
      "anonymous": false,
      "inputs": [
        {
          "indexed": false,
          "internalType": "uint256",
          "name": "_boost",
          "type": "uint256"
        }
      ],
      "name": "UpdatedGlobalBoost",
      "type": "event"
    },
    {
      "anonymous": false,
      "inputs": [
        {
          "indexed": true,
          "internalType": "address",
          "name": "_referrals",
          "type": "address"
        }
      ],
      "name": "UpdatedReferralsContract",
      "type": "event"
    },
    {
      "anonymous": false,
      "inputs": [
        {
          "indexed": true,
          "internalType": "address",
          "name": "_volumeAdapter",
          "type": "address"
        }
      ],
      "name": "UpdatedVolumeAdapter",
      "type": "event"
    },
    {
      "anonymous": false,
      "inputs": [
        {
          "indexed": false,
          "internalType": "uint256",
          "name": "_refVolumeScaler",
          "type": "uint256"
        },
        {
          "indexed": false,
          "internalType": "uint256",
          "name": "_adapterVolumeScaler",
          "type": "uint256"
        }
      ],
      "name": "UpdatedVolumeScalers",
      "type": "event"
    },
    {
      "inputs": [
        {
          "internalType": "address",
          "name": "",
          "type": "address"
        }
      ],
      "name": "ADAPTER_VOLUME",
      "outputs": [
        {
          "internalType": "uint256",
          "name": "",
          "type": "uint256"
        }
      ],
      "stateMutability": "view",
      "type": "function"
    },
    {
      "inputs": [],
      "name": "ADAPTER_VOLUME_SCALER",
      "outputs": [
        {
          "internalType": "uint256",
          "name": "",
          "type": "uint256"
        }
      ],
      "stateMutability": "view",
      "type": "function"
    },
    {
      "inputs": [],
      "name": "DEFAULT_ADMIN_ROLE",
      "outputs": [
        {
          "internalType": "bytes32",
          "name": "",
          "type": "bytes32"
        }
      ],
      "stateMutability": "view",
      "type": "function"
    },
    {
      "inputs": [
        {
          "internalType": "address",
          "name": "",
          "type": "address"
        }
      ],
      "name": "DELEGATE",
      "outputs": [
        {
          "internalType": "address",
          "name": "",
          "type": "address"
        }
      ],
      "stateMutability": "view",
      "type": "function"
    },
    {
      "inputs": [],
      "name": "GLOBAL_BOOST",
      "outputs": [
        {
          "internalType": "uint256",
          "name": "",
          "type": "uint256"
        }
      ],
      "stateMutability": "view",
      "type": "function"
    },
    {
      "inputs": [],
      "name": "MAINTAINER_ROLE",
      "outputs": [
        {
          "internalType": "bytes32",
          "name": "",
          "type": "bytes32"
        }
      ],
      "stateMutability": "view",
      "type": "function"
    },
    {
      "inputs": [],
      "name": "REFERRALS",
      "outputs": [
        {
          "internalType": "address",
          "name": "",
          "type": "address"
        }
      ],
      "stateMutability": "view",
      "type": "function"
    },
    {
      "inputs": [
        {
          "internalType": "address",
          "name": "",
          "type": "address"
        }
      ],
      "name": "REF_VOLUME",
      "outputs": [
        {
          "internalType": "uint256",
          "name": "",
          "type": "uint256"
        }
      ],
      "stateMutability": "view",
      "type": "function"
    },
    {
      "inputs": [],
      "name": "REF_VOLUME_SCALER",
      "outputs": [
        {
          "internalType": "uint256",
          "name": "",
          "type": "uint256"
        }
      ],
      "stateMutability": "view",
      "type": "function"
    },
    {
      "inputs": [
        {
          "internalType": "address",
          "name": "",
          "type": "address"
        }
      ],
      "name": "SELF_VOLUME",
      "outputs": [
        {
          "internalType": "uint256",
          "name": "",
          "type": "uint256"
        }
      ],
      "stateMutability": "view",
      "type": "function"
    },
    {
      "inputs": [],
      "name": "VOLUME_ADAPTER",
      "outputs": [
        {
          "internalType": "address",
          "name": "",
          "type": "address"
        }
      ],
      "stateMutability": "view",
      "type": "function"
    },
    {
      "inputs": [
        {
          "internalType": "address",
          "name": "_adapter",
          "type": "address"
        },
        {
          "internalType": "uint256",
          "name": "_volume",
          "type": "uint256"
        }
      ],
      "name": "addAdapterVolume",
      "outputs": [],
      "stateMutability": "nonpayable",
      "type": "function"
    },
    {
      "inputs": [
        {
          "internalType": "address",
          "name": "addedMaintainer",
          "type": "address"
        }
      ],
      "name": "addMaintainer",
      "outputs": [],
      "stateMutability": "nonpayable",
      "type": "function"
    },
    {
      "inputs": [
        {
          "internalType": "address",
          "name": "_add",
          "type": "address"
        },
        {
          "internalType": "uint256",
          "name": "_volume",
          "type": "uint256"
        }
      ],
      "name": "addVolume",
      "outputs": [],
      "stateMutability": "nonpayable",
      "type": "function"
    },
    {
      "inputs": [
        {
          "internalType": "address",
          "name": "_add",
          "type": "address"
        }
      ],
      "name": "getPoints",
      "outputs": [
        {
          "internalType": "uint256",
          "name": "pointsFromSelf",
          "type": "uint256"
        },
        {
          "internalType": "uint256",
          "name": "pointsFromRef",
          "type": "uint256"
        },
        {
          "internalType": "uint256",
          "name": "pointsFromAdapter",
          "type": "uint256"
        },
        {
          "internalType": "uint256",
          "name": "pointsTotal",
          "type": "uint256"
        }
      ],
      "stateMutability": "view",
      "type": "function"
    },
    {
      "inputs": [
        {
          "internalType": "bytes32",
          "name": "role",
          "type": "bytes32"
        }
      ],
      "name": "getRoleAdmin",
      "outputs": [
        {
          "internalType": "bytes32",
          "name": "",
          "type": "bytes32"
        }
      ],
      "stateMutability": "view",
      "type": "function"
    },
    {
      "inputs": [
        {
          "internalType": "address",
          "name": "_add",
          "type": "address"
        }
      ],
      "name": "getVolume",
      "outputs": [
        {
          "internalType": "uint256",
          "name": "selfVolume",
          "type": "uint256"
        },
        {
          "internalType": "uint256",
          "name": "refVolume",
          "type": "uint256"
        },
        {
          "internalType": "uint256",
          "name": "adapterVolume",
          "type": "uint256"
        }
      ],
      "stateMutability": "view",
      "type": "function"
    },
    {
      "inputs": [],
      "name": "governor",
      "outputs": [
        {
          "internalType": "address",
          "name": "",
          "type": "address"
        }
      ],
      "stateMutability": "view",
      "type": "function"
    },
    {
      "inputs": [
        {
          "internalType": "bytes32",
          "name": "role",
          "type": "bytes32"
        },
        {
          "internalType": "address",
          "name": "account",
          "type": "address"
        }
      ],
      "name": "grantRole",
      "outputs": [],
      "stateMutability": "nonpayable",
      "type": "function"
    },
    {
      "inputs": [
        {
          "internalType": "bytes32",
          "name": "role",
          "type": "bytes32"
        },
        {
          "internalType": "address",
          "name": "account",
          "type": "address"
        }
      ],
      "name": "hasRole",
      "outputs": [
        {
          "internalType": "bool",
          "name": "",
          "type": "bool"
        }
      ],
      "stateMutability": "view",
      "type": "function"
    },
    {
      "inputs": [
        {
          "internalType": "address",
          "name": "_governor",
          "type": "address"
        }
      ],
      "name": "initialize",
      "outputs": [],
      "stateMutability": "nonpayable",
      "type": "function"
    },
    {
      "inputs": [],
      "name": "initialized",
      "outputs": [
        {
          "internalType": "bool",
          "name": "",
          "type": "bool"
        }
      ],
      "stateMutability": "view",
      "type": "function"
    },
    {
      "inputs": [
        {
          "internalType": "address",
          "name": "_tokenAddress",
          "type": "address"
        },
        {
          "internalType": "uint256",
          "name": "_tokenAmount",
          "type": "uint256"
        }
      ],
      "name": "recoverERC20",
      "outputs": [],
      "stateMutability": "nonpayable",
      "type": "function"
    },
    {
      "inputs": [
        {
          "internalType": "uint256",
          "name": "_amount",
          "type": "uint256"
        }
      ],
      "name": "recoverNATIVE",
      "outputs": [],
      "stateMutability": "nonpayable",
      "type": "function"
    },
    {
      "inputs": [
        {
          "internalType": "address",
          "name": "removedMaintainer",
          "type": "address"
        }
      ],
      "name": "removeMaintainer",
      "outputs": [],
      "stateMutability": "nonpayable",
      "type": "function"
    },
    {
      "inputs": [
        {
          "internalType": "bytes32",
          "name": "role",
          "type": "bytes32"
        },
        {
          "internalType": "address",
          "name": "account",
          "type": "address"
        }
      ],
      "name": "renounceRole",
      "outputs": [],
      "stateMutability": "nonpayable",
      "type": "function"
    },
    {
      "inputs": [
        {
          "internalType": "bytes32",
          "name": "role",
          "type": "bytes32"
        }
      ],
      "name": "renounceRole",
      "outputs": [],
      "stateMutability": "nonpayable",
      "type": "function"
    },
    {
      "inputs": [
        {
          "internalType": "bytes32",
          "name": "role",
          "type": "bytes32"
        },
        {
          "internalType": "address",
          "name": "account",
          "type": "address"
        }
      ],
      "name": "revokeRole",
      "outputs": [],
      "stateMutability": "nonpayable",
      "type": "function"
    },
    {
      "inputs": [
        {
          "internalType": "address",
          "name": "_adapter",
          "type": "address"
        },
        {
          "internalType": "address",
          "name": "_delegate",
          "type": "address"
        }
      ],
      "name": "setAdapterDelegate",
      "outputs": [],
      "stateMutability": "nonpayable",
      "type": "function"
    },
    {
      "inputs": [
        {
          "internalType": "address",
          "name": "_user",
          "type": "address"
        },
        {
          "internalType": "address",
          "name": "_delegate",
          "type": "address"
        }
      ],
      "name": "setDelegate",
      "outputs": [],
      "stateMutability": "nonpayable",
      "type": "function"
    },
    {
      "inputs": [
        {
          "internalType": "uint256",
          "name": "_boost",
          "type": "uint256"
        }
      ],
      "name": "setGlobalBoost",
      "outputs": [],
      "stateMutability": "nonpayable",
      "type": "function"
    },
    {
      "inputs": [
        {
          "internalType": "address",
          "name": "_referrals",
          "type": "address"
        }
      ],
      "name": "setReferralsContract",
      "outputs": [],
      "stateMutability": "nonpayable",
      "type": "function"
    },
    {
      "inputs": [
        {
          "internalType": "address",
          "name": "_volumeAdapter",
          "type": "address"
        }
      ],
      "name": "setVolumeAdapter",
      "outputs": [],
      "stateMutability": "nonpayable",
      "type": "function"
    },
    {
      "inputs": [
        {
          "internalType": "uint256",
          "name": "_refVolumeScaler",
          "type": "uint256"
        },
        {
          "internalType": "uint256",
          "name": "_adapterVolumeScaler",
          "type": "uint256"
        }
      ],
      "name": "setVolumeScalers",
      "outputs": [],
      "stateMutability": "nonpayable",
      "type": "function"
    },
    {
      "inputs": [
        {
          "internalType": "bytes4",
          "name": "interfaceId",
          "type": "bytes4"
        }
      ],
      "name": "supportsInterface",
      "outputs": [
        {
          "internalType": "bool",
          "name": "",
          "type": "bool"
        }
      ],
      "stateMutability": "view",
      "type": "function"
    },
    {
      "inputs": [
        {
          "internalType": "address",
          "name": "newOwner",
          "type": "address"
        }
      ],
      "name": "transferOwnership",
      "outputs": [],
      "stateMutability": "nonpayable",
      "type": "function"
    },
    {
      "inputs": [
        {
          "internalType": "address",
          "name": "_from",
          "type": "address"
        },
        {
          "internalType": "address",
          "name": "_to",
          "type": "address"
        },
        {
          "internalType": "uint256",
          "name": "_selfAmount",
          "type": "uint256"
        },
        {
          "internalType": "uint256",
          "name": "_refAmount",
          "type": "uint256"
        },
        {
          "internalType": "uint256",
          "name": "_adapterAmount",
          "type": "uint256"
        }
      ],
      "name": "transferVolume",
      "outputs": [],
      "stateMutability": "nonpayable",
      "type": "function"
    }
  ],
  "transactionHash": "0x9cac6643a9f6bd8b468e43a59bf5877535039d634a3506239d360ebf81958eca",
  "args": [],
  "solcInputHash": "92f82c2e12ee441bc79cf7f895eb1279",
  "bytecode": "0x608060405260006007556101f46008819055600955600a805460ff191690553480156200002b57600080fd5b50620000396000336200006b565b620000657f339759585899103d2ace64958e37e18ccb0504652c81d4a1b8aa80fe2126ab95336200006b565b6200011b565b6200007782826200007b565b5050565b6000828152602081815260408083206001600160a01b038516845290915290205460ff1662000077576000828152602081815260408083206001600160a01b03851684529091529020805460ff19166001179055620000d73390565b6001600160a01b0316816001600160a01b0316837f2f8788117e7eff1d82e926ec794901d17c78024a50270940304540a733656f0d60405160405180910390a45050565b61222e806200012b6000396000f3fe608060405234801561001057600080fd5b50600436106102775760003560e01c80638238283411610160578063c9d0529b116100d8578063ee204abb1161008c578063f2fde38b11610071578063f2fde38b146105ee578063f874225414610601578063f9304a541461062857600080fd5b8063ee204abb146105b2578063f0ed47b6146105e557600080fd5b8063d547741f116100bd578063d547741f14610579578063d8baf7cf1461058c578063ea5d838b1461059f57600080fd5b8063c9d0529b14610553578063d3c486381461056657600080fd5b806391d148541161012f578063ab6322c511610114578063ab6322c51461050d578063c2c528201461052d578063c4d66de81461054057600080fd5b806391d14854146104ce578063a217fddf1461050557600080fd5b8063823828341461043a5780638980f11f1461044d5780638ba17f86146104605780638bb9c5bf146104bb57600080fd5b80633de91765116101f35780635bd5da1e116101c2578063630e1cdd116101a7578063630e1cdd1461040b5780636b453c1f1461041e57806381ee55991461043157600080fd5b80635bd5da1e146103e55780635c873849146103f857600080fd5b80633de9176514610389578063492f19e6146103a957806350d935c4146103c9578063555c2800146103dc57600080fd5b80632ac2a9701161024a57806332102e3b1161022f57806332102e3b1461033a5780633277d76d1461034d57806336568abe1461037657600080fd5b80632ac2a970146103125780632f2ff15d1461032757600080fd5b806301ffc9a71461027c5780630c340a24146102a4578063158ef93e146102d4578063248a9ca3146102e1575b600080fd5b61028f61028a366004611fd3565b61063b565b60405190151581526020015b60405180910390f35b600a546102bc9061010090046001600160a01b031681565b6040516001600160a01b03909116815260200161029b565b600a5461028f9060ff1681565b6103046102ef366004611f97565b60009081526020819052604090206001015490565b60405190815260200161029b565b610325610320366004611e8c565b6106d4565b005b610325610335366004611faf565b6107cb565b610325610348366004611f4c565b6107f5565b6102bc61035b366004611e8c565b6006602052600090815260409020546001600160a01b031681565b610325610384366004611faf565b610a01565b610304610397366004611e8c565b60046020526000908152604090205481565b6103046103b7366004611e8c565b60056020526000908152604090205481565b6103256103d7366004611f97565b610a8d565b61030460085481565b6001546102bc906001600160a01b031681565b610325610406366004611ec4565b610b57565b610325610419366004611e8c565b610c14565b61032561042c366004611e8c565b610d06565b61030460095481565b6002546102bc906001600160a01b031681565b61032561045b366004611f4c565b610d33565b6104a061046e366004611e8c565b6001600160a01b0316600090815260036020908152604080832054600483528184205460059093529220549192909190565b6040805193845260208401929092529082015260600161029b565b6103256104c9366004611f97565b610e6d565b61028f6104dc366004611faf565b6000918252602082815260408084206001600160a01b0393909316845291905290205460ff1690565b610304600081565b61030461051b366004611e8c565b60036020526000908152604090205481565b61032561053b366004611f97565b610e77565b61032561054e366004611e8c565b610fbd565b610325610561366004611f4c565b6110cb565b61032561057436600461202b565b611190565b610325610587366004611faf565b611266565b61032561059a366004611e8c565b61128b565b6103256105ad366004611ec4565b6112b5565b6105c56105c0366004611e8c565b6113a8565b60408051948552602085019390935291830152606082015260800161029b565b61030460075481565b6103256105fc366004611e8c565b6115eb565b6103047f339759585899103d2ace64958e37e18ccb0504652c81d4a1b8aa80fe2126ab9581565b610325610636366004611efc565b611601565b60007fffffffff0000000000000000000000000000000000000000000000000000000082167f7965db0b0000000000000000000000000000000000000000000000000000000014806106ce57507f01ffc9a7000000000000000000000000000000000000000000000000000000007fffffffff000000000000000000000000000000000000000000000000000000008316145b92915050565b3360009081527fa54247010af6b3693b80aceddfad12e077c5de3571e6243fada502635f0d7d39602052604090205460ff166107685760405162461bcd60e51b815260206004820152602860248201527f4d61696e7461696e61626c653a2043616c6c6572206973206e6f742061206d6160448201526734b73a30b4b732b960c11b60648201526084015b60405180910390fd5b6040516001600160a01b038216907fe0ff266aea69ca6ac29b06f8a5afe5e2cf6f7f5602780cab900ce4976fea26ef90600090a26002805473ffffffffffffffffffffffffffffffffffffffff19166001600160a01b0392909216919091179055565b6000828152602081905260409020600101546107e6816118f0565b6107f083836118fa565b505050565b6001546001600160a01b03163314610820576040516339218f3b60e01b815260040160405180910390fd5b600754156108525761271060075461271061083b919061211c565b6108459083612154565b61084f9190612134565b90505b6001600160a01b0382166000908152600360205260408120805483929061087a90849061211c565b90915550506040518181526001600160a01b038316907f9e3ff39047273fb41d7421da5f859bfd25936b83ada49dfc79ee480223c33c949060200160405180910390a26002546000906001600160a01b03161561096c576002546040517f4a9fefc70000000000000000000000000000000000000000000000000000000081526001600160a01b03858116600483015290911690634a9fefc79060240160206040518083038186803b15801561092f57600080fd5b505afa158015610943573d6000803e3d6000fd5b505050506040513d601f19601f820116820180604052508101906109679190611ea8565b61096f565b60005b90506001600160a01b038116156107f0576001600160a01b038116600090815260046020526040812080548492906109a890849061211c565b92505081905550826001600160a01b0316816001600160a01b03167fb0184eb773c1faaadae6838251b58b00236ff85b732b1f260b7d1ceb24b6d1fb846040516109f491815260200190565b60405180910390a3505050565b6001600160a01b0381163314610a7f5760405162461bcd60e51b815260206004820152602f60248201527f416363657373436f6e74726f6c3a2063616e206f6e6c792072656e6f756e636560448201527f20726f6c657320666f722073656c660000000000000000000000000000000000606482015260840161075f565b610a898282611998565b5050565b3360009081527fa54247010af6b3693b80aceddfad12e077c5de3571e6243fada502635f0d7d39602052604090205460ff16610b1c5760405162461bcd60e51b815260206004820152602860248201527f4d61696e7461696e61626c653a2043616c6c6572206973206e6f742061206d6160448201526734b73a30b4b732b960c11b606482015260840161075f565b60078190556040518181527ff7b7e923495b6ece8dc4bd3d442a1c5ded8fe24d4a269daee2c29f90cf7a5e7a9060200160405180910390a150565b6001600160a01b0382163314801590610b8a57506001600160a01b03828116600090815260066020526040902054163314155b15610ba8576040516339218f3b60e01b815260040160405180910390fd5b33600081815260066020526040808220805473ffffffffffffffffffffffffffffffffffffffff19166001600160a01b03868116918217909255915191939086169290917f36b9b6f9e2111aead3e8603d4f515f1cc100fc80cde6a3e29f23bf4f9f5e591d9190a45050565b3360009081527fa54247010af6b3693b80aceddfad12e077c5de3571e6243fada502635f0d7d39602052604090205460ff16610ca35760405162461bcd60e51b815260206004820152602860248201527f4d61696e7461696e61626c653a2043616c6c6572206973206e6f742061206d6160448201526734b73a30b4b732b960c11b606482015260840161075f565b6040516001600160a01b038216907f5c3c642a912516f738e0b09cf8144ccd5a4d6a90cc1f7691ad0e8746e62b274190600090a26001805473ffffffffffffffffffffffffffffffffffffffff19166001600160a01b0392909216919091179055565b610d307f339759585899103d2ace64958e37e18ccb0504652c81d4a1b8aa80fe2126ab95826107cb565b50565b3360009081527fa54247010af6b3693b80aceddfad12e077c5de3571e6243fada502635f0d7d39602052604090205460ff16610dc25760405162461bcd60e51b815260206004820152602860248201527f4d61696e7461696e61626c653a2043616c6c6572206973206e6f742061206d6160448201526734b73a30b4b732b960c11b606482015260840161075f565b60008111610e125760405162461bcd60e51b815260206004820152601260248201527f4e6f7468696e6720746f207265636f7665720000000000000000000000000000604482015260640161075f565b610e266001600160a01b0383163383611a17565b816001600160a01b03167f8c1256b8896378cd5044f80c202f9772b9d77dc85c8a6eb51967210b09bfaa2882604051610e6191815260200190565b60405180910390a25050565b610d308133610a01565b3360009081527fa54247010af6b3693b80aceddfad12e077c5de3571e6243fada502635f0d7d39602052604090205460ff16610f065760405162461bcd60e51b815260206004820152602860248201527f4d61696e7461696e61626c653a2043616c6c6572206973206e6f742061206d6160448201526734b73a30b4b732b960c11b606482015260840161075f565b60008111610f565760405162461bcd60e51b815260206004820152601260248201527f4e6f7468696e6720746f207265636f7665720000000000000000000000000000604482015260640161075f565b604051339082156108fc029083906000818181858888f19350505050158015610f83573d6000803e3d6000fd5b506040518181526000907f8c1256b8896378cd5044f80c202f9772b9d77dc85c8a6eb51967210b09bfaa289060200160405180910390a250565b3360009081527fa54247010af6b3693b80aceddfad12e077c5de3571e6243fada502635f0d7d39602052604090205460ff1661104c5760405162461bcd60e51b815260206004820152602860248201527f4d61696e7461696e61626c653a2043616c6c6572206973206e6f742061206d6160448201526734b73a30b4b732b960c11b606482015260840161075f565b600a5460ff1615611089576040517f0dc149f000000000000000000000000000000000000000000000000000000000815260040160405180910390fd5b600a80546001600160a01b03909216610100027fffffffffffffffffffffff000000000000000000000000000000000000000000909216919091176001179055565b6001546001600160a01b031633146110f6576040516339218f3b60e01b815260040160405180910390fd5b6007541561112857612710600754612710611111919061211c565b61111b9083612154565b6111259190612134565b90505b6001600160a01b0382166000908152600560205260408120805483929061115090849061211c565b90915550506040518181526001600160a01b038316907f0674ed10f224ec7901b3e32f9d5306f48aa17db08d0e7303bec73e995332de6190602001610e61565b3360009081527fa54247010af6b3693b80aceddfad12e077c5de3571e6243fada502635f0d7d39602052604090205460ff1661121f5760405162461bcd60e51b815260206004820152602860248201527f4d61696e7461696e61626c653a2043616c6c6572206973206e6f742061206d6160448201526734b73a30b4b732b960c11b606482015260840161075f565b6008829055600981905560408051838152602081018390527f338cbec3220461a21f7cbdf3498f03c5b0dc3ce6f2a85e538e32779dadeed0ca910160405180910390a15050565b600082815260208190526040902060010154611281816118f0565b6107f08383611998565b610d307f339759585899103d2ace64958e37e18ccb0504652c81d4a1b8aa80fe2126ab9582611266565b3360009081527fa54247010af6b3693b80aceddfad12e077c5de3571e6243fada502635f0d7d39602052604090205460ff166113445760405162461bcd60e51b815260206004820152602860248201527f4d61696e7461696e61626c653a2043616c6c6572206973206e6f742061206d6160448201526734b73a30b4b732b960c11b606482015260840161075f565b6001600160a01b03828116600081815260066020526040808220805473ffffffffffffffffffffffffffffffffffffffff19169486169485179055517f5fb34ab838e48e94ab941a98bc5fbe3fcd314ee6f6137fabac7e2210c92761509190a35050565b60025460009081908190819081906001600160a01b03161561145f576002546040517f73930f040000000000000000000000000000000000000000000000000000000081526001600160a01b038881166004830152909116906373930f049060240160206040518083038186803b15801561142257600080fd5b505afa158015611436573d6000803e3d6000fd5b505050506040513d601f19601f8201168201806040525081019061145a9190612013565b611463565b6127105b6002549091506000906001600160a01b031615611515576002546040517f3c9c39140000000000000000000000000000000000000000000000000000000081526001600160a01b03898116600483015290911690633c9c39149060240160206040518083038186803b1580156114d857600080fd5b505afa1580156114ec573d6000803e3d6000fd5b505050506040513d601f19601f820116820180604052508101906115109190612013565b611519565b6127105b6001600160a01b03881660009081526003602052604090205490915061271090611544908490612154565b61154e9190612134565b6008546001600160a01b0389166000908152600460205260409020549197506305f5e10091839161157e91612154565b6115889190612154565b6115929190612134565b6009546001600160a01b038916600090815260056020526040902054919650612710916115bf9190612154565b6115c99190612134565b9350836115d6868861211c565b6115e0919061211c565b925050509193509193565b6115f66000826107cb565b610d30600033610a01565b6001600160a01b038416611641576040517fd92e233d00000000000000000000000000000000000000000000000000000000815260040160405180910390fd5b6001600160a01b038516331480159061167457506001600160a01b03858116600090815260066020526040902054163314155b15611692576040516339218f3b60e01b815260040160405180910390fd5b6001600160a01b0385166000908152600360205260409020548311156116e4576040517ffbbdc2c900000000000000000000000000000000000000000000000000000000815260040160405180910390fd5b6001600160a01b038516600090815260046020526040902054821115611736576040517f6a9835a800000000000000000000000000000000000000000000000000000000815260040160405180910390fd5b6001600160a01b038516600090815260056020526040902054811115611788576040517f55d5a3fa00000000000000000000000000000000000000000000000000000000815260040160405180910390fd5b6001600160a01b038516600090815260036020526040812080548592906117b0908490612173565b90915550506001600160a01b038416600090815260036020526040812080548592906117dd90849061211c565b90915550506001600160a01b0385166000908152600460205260408120805484929061180a908490612173565b90915550506001600160a01b0384166000908152600460205260408120805484929061183790849061211c565b90915550506001600160a01b03851660009081526005602052604081208054839290611864908490612173565b90915550506001600160a01b0384166000908152600560205260408120805483929061189190849061211c565b909155505060408051848152602081018490529081018290526001600160a01b03808616919087169033907f78311c2531af20240a50db50e3085b3c16f6e3b21572f6ab0089414ddffd73919060600160405180910390a45050505050565b610d308133611a97565b6000828152602081815260408083206001600160a01b038516845290915290205460ff16610a89576000828152602081815260408083206001600160a01b03851684529091529020805460ff191660011790556119543390565b6001600160a01b0316816001600160a01b0316837f2f8788117e7eff1d82e926ec794901d17c78024a50270940304540a733656f0d60405160405180910390a45050565b6000828152602081815260408083206001600160a01b038516845290915290205460ff1615610a89576000828152602081815260408083206001600160a01b0385168085529252808320805460ff1916905551339285917ff6391f5c32d9c69d2a47ea670b442974b53935d1edc7fd64eb21e047a839171b9190a45050565b604080516001600160a01b038416602482015260448082018490528251808303909101815260649091019091526020810180517bffffffffffffffffffffffffffffffffffffffffffffffffffffffff167fa9059cbb000000000000000000000000000000000000000000000000000000001790526107f0908490611b0a565b6000828152602081815260408083206001600160a01b038516845290915290205460ff16610a8957611ac881611c4c565b611ad3836020611c5e565b604051602001611ae4929190612068565b60408051601f198184030181529082905262461bcd60e51b825261075f916004016120e9565b600080836001600160a01b031683604051611b25919061204c565b6000604051808303816000865af19150503d8060008114611b62576040519150601f19603f3d011682016040523d82523d6000602084013e611b67565b606091505b509150915081611bb95760405162461bcd60e51b815260206004820181905260248201527f5361666545524332303a206c6f772d6c6576656c2063616c6c206661696c6564604482015260640161075f565b805115611c465780806020019051810190611bd49190611f77565b611c465760405162461bcd60e51b815260206004820152602a60248201527f5361666545524332303a204552433230206f7065726174696f6e20646964206e60448201527f6f74207375636365656400000000000000000000000000000000000000000000606482015260840161075f565b50505050565b60606106ce6001600160a01b03831660145b60606000611c6d836002612154565b611c7890600261211c565b67ffffffffffffffff811115611c9e57634e487b7160e01b600052604160045260246000fd5b6040519080825280601f01601f191660200182016040528015611cc8576020820181803683370190505b5090507f300000000000000000000000000000000000000000000000000000000000000081600081518110611d0d57634e487b7160e01b600052603260045260246000fd5b60200101906001600160f81b031916908160001a9053507f780000000000000000000000000000000000000000000000000000000000000081600181518110611d6657634e487b7160e01b600052603260045260246000fd5b60200101906001600160f81b031916908160001a9053506000611d8a846002612154565b611d9590600161211c565b90505b6001811115611e36577f303132333435363738396162636465660000000000000000000000000000000085600f1660108110611de457634e487b7160e01b600052603260045260246000fd5b1a60f81b828281518110611e0857634e487b7160e01b600052603260045260246000fd5b60200101906001600160f81b031916908160001a90535060049490941c93611e2f816121b6565b9050611d98565b508315611e855760405162461bcd60e51b815260206004820181905260248201527f537472696e67733a20686578206c656e67746820696e73756666696369656e74604482015260640161075f565b9392505050565b600060208284031215611e9d578081fd5b8135611e85816121e3565b600060208284031215611eb9578081fd5b8151611e85816121e3565b60008060408385031215611ed6578081fd5b8235611ee1816121e3565b91506020830135611ef1816121e3565b809150509250929050565b600080600080600060a08688031215611f13578081fd5b8535611f1e816121e3565b94506020860135611f2e816121e3565b94979496505050506040830135926060810135926080909101359150565b60008060408385031215611f5e578182fd5b8235611f69816121e3565b946020939093013593505050565b600060208284031215611f88578081fd5b81518015158114611e85578182fd5b600060208284031215611fa8578081fd5b5035919050565b60008060408385031215611fc1578182fd5b823591506020830135611ef1816121e3565b600060208284031215611fe4578081fd5b81357fffffffff0000000000000000000000000000000000000000000000000000000081168114611e85578182fd5b600060208284031215612024578081fd5b5051919050565b6000806040838503121561203d578182fd5b50508035926020909101359150565b6000825161205e81846020870161218a565b9190910192915050565b7f416363657373436f6e74726f6c3a206163636f756e74200000000000000000008152600083516120a081601785016020880161218a565b7f206973206d697373696e6720726f6c652000000000000000000000000000000060179184019182015283516120dd81602884016020880161218a565b01602801949350505050565b602081526000825180602084015261210881604085016020870161218a565b601f01601f19169190910160400192915050565b6000821982111561212f5761212f6121cd565b500190565b60008261214f57634e487b7160e01b81526012600452602481fd5b500490565b600081600019048311821515161561216e5761216e6121cd565b500290565b600082821015612185576121856121cd565b500390565b60005b838110156121a557818101518382015260200161218d565b83811115611c465750506000910152565b6000816121c5576121c56121cd565b506000190190565b634e487b7160e01b600052601160045260246000fd5b6001600160a01b0381168114610d3057600080fdfea26469706673582212203240fdab8f78f0c735e2bafde9b54e23000da89ea9c27b5e7cb9ef0fa18cf6aa64736f6c63430008040033",
  "devdoc": {
    "kind": "dev",
    "methods": {
      "getRoleAdmin(bytes32)": {
        "details": "Returns the admin role that controls `role`. See {grantRole} and {revokeRole}. To change a role's admin, use {_setRoleAdmin}."
      },
      "grantRole(bytes32,address)": {
        "details": "Grants `role` to `account`. If `account` had not been already granted `role`, emits a {RoleGranted} event. Requirements: - the caller must have ``role``'s admin role. May emit a {RoleGranted} event."
      },
      "hasRole(bytes32,address)": {
        "details": "Returns `true` if `account` has been granted `role`."
      },
      "recoverERC20(address,uint256)": {
        "params": {
          "_tokenAddress": "token address",
          "_tokenAmount": "amount to recover"
        }
      },
      "recoverNATIVE(uint256)": {
        "params": {
          "_amount": "amount"
        }
      },
      "renounceRole(bytes32,address)": {
        "details": "Revokes `role` from the calling account. Roles are often managed via {grantRole} and {revokeRole}: this function's purpose is to provide a mechanism for accounts to lose their privileges if they are compromised (such as when a trusted device is misplaced). If the calling account had been revoked `role`, emits a {RoleRevoked} event. Requirements: - the caller must be `account`. May emit a {RoleRevoked} event."
      },
      "revokeRole(bytes32,address)": {
        "details": "Revokes `role` from `account`. If `account` had been granted `role`, emits a {RoleRevoked} event. Requirements: - the caller must have ``role``'s admin role. May emit a {RoleRevoked} event."
      },
      "supportsInterface(bytes4)": {
        "details": "See {IERC165-supportsInterface}."
      }
    },
    "version": 1
  },
  "userdoc": {
    "kind": "user",
    "methods": {
      "recoverERC20(address,uint256)": {
        "notice": "Recover ERC20 from contract"
      },
      "recoverNATIVE(uint256)": {
        "notice": "Recover native asset from contract"
      }
    },
    "version": 1
  },
  "storageLayout": {
    "storage": [
      {
        "astId": 24,
        "contract": "src/contracts/SummitPoints.sol:SummitPoints",
        "label": "_roles",
        "offset": 0,
        "slot": "0",
        "type": "t_mapping(t_bytes32,t_struct(RoleData)19_storage)"
      },
      {
        "astId": 10068,
        "contract": "src/contracts/SummitPoints.sol:SummitPoints",
        "label": "VOLUME_ADAPTER",
        "offset": 0,
        "slot": "1",
        "type": "t_address"
      },
      {
        "astId": 10070,
        "contract": "src/contracts/SummitPoints.sol:SummitPoints",
        "label": "REFERRALS",
        "offset": 0,
        "slot": "2",
        "type": "t_address"
      },
      {
        "astId": 10074,
        "contract": "src/contracts/SummitPoints.sol:SummitPoints",
        "label": "SELF_VOLUME",
        "offset": 0,
        "slot": "3",
        "type": "t_mapping(t_address,t_uint256)"
      },
      {
        "astId": 10078,
        "contract": "src/contracts/SummitPoints.sol:SummitPoints",
        "label": "REF_VOLUME",
        "offset": 0,
        "slot": "4",
        "type": "t_mapping(t_address,t_uint256)"
      },
      {
        "astId": 10082,
        "contract": "src/contracts/SummitPoints.sol:SummitPoints",
        "label": "ADAPTER_VOLUME",
        "offset": 0,
        "slot": "5",
        "type": "t_mapping(t_address,t_uint256)"
      },
      {
        "astId": 10086,
        "contract": "src/contracts/SummitPoints.sol:SummitPoints",
        "label": "DELEGATE",
        "offset": 0,
        "slot": "6",
        "type": "t_mapping(t_address,t_address)"
      },
      {
        "astId": 10089,
        "contract": "src/contracts/SummitPoints.sol:SummitPoints",
        "label": "GLOBAL_BOOST",
        "offset": 0,
        "slot": "7",
        "type": "t_uint256"
      },
      {
        "astId": 10092,
        "contract": "src/contracts/SummitPoints.sol:SummitPoints",
        "label": "REF_VOLUME_SCALER",
        "offset": 0,
        "slot": "8",
        "type": "t_uint256"
      },
      {
        "astId": 10095,
        "contract": "src/contracts/SummitPoints.sol:SummitPoints",
        "label": "ADAPTER_VOLUME_SCALER",
        "offset": 0,
        "slot": "9",
        "type": "t_uint256"
      },
      {
        "astId": 10110,
        "contract": "src/contracts/SummitPoints.sol:SummitPoints",
        "label": "initialized",
        "offset": 0,
        "slot": "10",
        "type": "t_bool"
      },
      {
        "astId": 10112,
        "contract": "src/contracts/SummitPoints.sol:SummitPoints",
        "label": "governor",
        "offset": 1,
        "slot": "10",
        "type": "t_address"
      }
    ],
    "types": {
      "t_address": {
        "encoding": "inplace",
        "label": "address",
        "numberOfBytes": "20"
      },
      "t_bool": {
        "encoding": "inplace",
        "label": "bool",
        "numberOfBytes": "1"
      },
      "t_bytes32": {
        "encoding": "inplace",
        "label": "bytes32",
        "numberOfBytes": "32"
      },
      "t_mapping(t_address,t_address)": {
        "encoding": "mapping",
        "key": "t_address",
        "label": "mapping(address => address)",
        "numberOfBytes": "32",
        "value": "t_address"
      },
      "t_mapping(t_address,t_bool)": {
        "encoding": "mapping",
        "key": "t_address",
        "label": "mapping(address => bool)",
        "numberOfBytes": "32",
        "value": "t_bool"
      },
      "t_mapping(t_address,t_uint256)": {
        "encoding": "mapping",
        "key": "t_address",
        "label": "mapping(address => uint256)",
        "numberOfBytes": "32",
        "value": "t_uint256"
      },
      "t_mapping(t_bytes32,t_struct(RoleData)19_storage)": {
        "encoding": "mapping",
        "key": "t_bytes32",
        "label": "mapping(bytes32 => struct AccessControl.RoleData)",
        "numberOfBytes": "32",
        "value": "t_struct(RoleData)19_storage"
      },
      "t_struct(RoleData)19_storage": {
        "encoding": "inplace",
        "label": "struct AccessControl.RoleData",
        "members": [
          {
            "astId": 16,
            "contract": "src/contracts/SummitPoints.sol:SummitPoints",
            "label": "members",
            "offset": 0,
            "slot": "0",
            "type": "t_mapping(t_address,t_bool)"
          },
          {
            "astId": 18,
            "contract": "src/contracts/SummitPoints.sol:SummitPoints",
            "label": "adminRole",
            "offset": 0,
            "slot": "1",
            "type": "t_bytes32"
          }
        ],
        "numberOfBytes": "64"
      },
      "t_uint256": {
        "encoding": "inplace",
        "label": "uint256",
        "numberOfBytes": "32"
      }
    }
  }
}