{
  "src/contracts/SummitPoints.sol": {
    "SummitPoints": {
      "abi": [
        {
          "inputs": [],
          "name": "AlreadyInitialized",
          "type": "error"
        },
        {
          "inputs": [],
          "name": "InvalidAdapterAmount",
          "type": "error"
        },
        {
          "inputs": [],
          "name": "InvalidRefAmount",
          "type": "error"
        },
        {
          "inputs": [],
          "name": "InvalidSelfAmount",
          "type": "error"
        },
        {
          "inputs": [],
          "name": "NotPermitted",
          "type": "error"
        },
        {
          "inputs": [],
          "name": "ZeroAddress",
          "type": "error"
        },
        {
          "anonymous": false,
          "inputs": [
            {
              "indexed": true,
              "internalType": "address",
              "name": "_adapter",
              "type": "address"
            },
            {
              "indexed": false,
              "internalType": "uint256",
              "name": "_volume",
              "type": "uint256"
            }
          ],
          "name": "AddedAdapterVolume",
          "type": "event"
        },
        {
          "anonymous": false,
          "inputs": [
            {
              "indexed": true,
              "internalType": "address",
              "name": "_referrer",
              "type": "address"
            },
            {
              "indexed": true,
              "internalType": "address",
              "name": "_user",
              "type": "address"
            },
            {
              "indexed": false,
              "internalType": "uint256",
              "name": "_volume",
              "type": "uint256"
            }
          ],
          "name": "AddedReferrerVolume",
          "type": "event"
        },
        {
          "anonymous": false,
          "inputs": [
            {
              "indexed": true,
              "internalType": "address",
              "name": "_user",
              "type": "address"
            },
            {
              "indexed": false,
              "internalType": "uint256",
              "name": "_volume",
              "type": "uint256"
            }
          ],
          "name": "AddedUserVolume",
          "type": "event"
        },
        {
          "anonymous": false,
          "inputs": [
            {
              "indexed": true,
              "internalType": "address",
              "name": "_asset",
              "type": "address"
            },
            {
              "indexed": false,
              "internalType": "uint256",
              "name": "amount",
              "type": "uint256"
            }
          ],
          "name": "Recovered",
          "type": "event"
        },
        {
          "anonymous": false,
          "inputs": [
            {
              "indexed": true,
              "internalType": "bytes32",
              "name": "role",
              "type": "bytes32"
            },
            {
              "indexed": true,
              "internalType": "bytes32",
              "name": "previousAdminRole",
              "type": "bytes32"
            },
            {
              "indexed": true,
              "internalType": "bytes32",
              "name": "newAdminRole",
              "type": "bytes32"
            }
          ],
          "name": "RoleAdminChanged",
          "type": "event"
        },
        {
          "anonymous": false,
          "inputs": [
            {
              "indexed": true,
              "internalType": "bytes32",
              "name": "role",
              "type": "bytes32"
            },
            {
              "indexed": true,
              "internalType": "address",
              "name": "account",
              "type": "address"
            },
            {
              "indexed": true,
              "internalType": "address",
              "name": "sender",
              "type": "address"
            }
          ],
          "name": "RoleGranted",
          "type": "event"
        },
        {
          "anonymous": false,
          "inputs": [
            {
              "indexed": true,
              "internalType": "bytes32",
              "name": "role",
              "type": "bytes32"
            },
            {
              "indexed": true,
              "internalType": "address",
              "name": "account",
              "type": "address"
            },
            {
              "indexed": true,
              "internalType": "address",
              "name": "sender",
              "type": "address"
            }
          ],
          "name": "RoleRevoked",
          "type": "event"
        },
        {
          "anonymous": false,
          "inputs": [
            {
              "indexed": true,
              "internalType": "address",
              "name": "_user",
              "type": "address"
            },
            {
              "indexed": false,
              "internalType": "uint256",
              "name": "_volume",
              "type": "uint256"
            }
          ],
          "name": "SummitTeamGivenPoints",
          "type": "event"
        },
        {
          "anonymous": false,
          "inputs": [
            {
              "indexed": true,
              "internalType": "address",
              "name": "_caller",
              "type": "address"
            },
            {
              "indexed": true,
              "internalType": "address",
              "name": "_from",
              "type": "address"
            },
            {
              "indexed": true,
              "internalType": "address",
              "name": "_to",
              "type": "address"
            },
            {
              "indexed": false,
              "internalType": "uint256",
              "name": "_selfVolume",
              "type": "uint256"
            },
            {
              "indexed": false,
              "internalType": "uint256",
              "name": "_refVolume",
              "type": "uint256"
            },
            {
              "indexed": false,
              "internalType": "uint256",
              "name": "_adapterVolume",
              "type": "uint256"
            }
          ],
          "name": "TransferredVolume",
          "type": "event"
        },
        {
          "anonymous": false,
          "inputs": [
            {
              "indexed": true,
              "internalType": "address",
              "name": "_adapter",
              "type": "address"
            },
            {
              "indexed": true,
              "internalType": "address",
              "name": "_delegate",
              "type": "address"
            }
          ],
          "name": "UpdatedAdapterDelegate",
          "type": "event"
        },
        {
          "anonymous": false,
          "inputs": [
            {
              "indexed": true,
              "internalType": "address",
              "name": "_caller",
              "type": "address"
            },
            {
              "indexed": true,
              "internalType": "address",
              "name": "_user",
              "type": "address"
            },
            {
              "indexed": true,
              "internalType": "address",
              "name": "_delegate",
              "type": "address"
            }
          ],
          "name": "UpdatedDelegate",
          "type": "event"
        },
        {
          "anonymous": false,
          "inputs": [
            {
              "indexed": false,
              "internalType": "uint256",
              "name": "_boost",
              "type": "uint256"
            }
          ],
          "name": "UpdatedGlobalBoost",
          "type": "event"
        },
        {
          "anonymous": false,
          "inputs": [
            {
              "indexed": true,
              "internalType": "address",
              "name": "_referrals",
              "type": "address"
            }
          ],
          "name": "UpdatedReferralsContract",
          "type": "event"
        },
        {
          "anonymous": false,
          "inputs": [
            {
              "indexed": true,
              "internalType": "address",
              "name": "_volumeAdapter",
              "type": "address"
            }
          ],
          "name": "UpdatedVolumeAdapter",
          "type": "event"
        },
        {
          "anonymous": false,
          "inputs": [
            {
              "indexed": false,
              "internalType": "uint256",
              "name": "_refVolumeScaler",
              "type": "uint256"
            },
            {
              "indexed": false,
              "internalType": "uint256",
              "name": "_adapterVolumeScaler",
              "type": "uint256"
            }
          ],
          "name": "UpdatedVolumeScalers",
          "type": "event"
        },
        {
          "inputs": [
            {
              "internalType": "address",
              "name": "",
              "type": "address"
            }
          ],
          "name": "ADAPTER_VOLUME",
          "outputs": [
            {
              "internalType": "uint256",
              "name": "",
              "type": "uint256"
            }
          ],
          "stateMutability": "view",
          "type": "function"
        },
        {
          "inputs": [],
          "name": "ADAPTER_VOLUME_SCALER",
          "outputs": [
            {
              "internalType": "uint256",
              "name": "",
              "type": "uint256"
            }
          ],
          "stateMutability": "view",
          "type": "function"
        },
        {
          "inputs": [],
          "name": "BASE_VOLUME_SCALER",
          "outputs": [
            {
              "internalType": "uint256",
              "name": "",
              "type": "uint256"
            }
          ],
          "stateMutability": "view",
          "type": "function"
        },
        {
          "inputs": [
            {
              "internalType": "address",
              "name": "",
              "type": "address"
            }
          ],
          "name": "BLACKLISTED",
          "outputs": [
            {
              "internalType": "bool",
              "name": "",
              "type": "bool"
            }
          ],
          "stateMutability": "view",
          "type": "function"
        },
        {
          "inputs": [],
          "name": "DEFAULT_ADMIN_ROLE",
          "outputs": [
            {
              "internalType": "bytes32",
              "name": "",
              "type": "bytes32"
            }
          ],
          "stateMutability": "view",
          "type": "function"
        },
        {
          "inputs": [
            {
              "internalType": "address",
              "name": "",
              "type": "address"
            }
          ],
          "name": "DELEGATE",
          "outputs": [
            {
              "internalType": "address",
              "name": "",
              "type": "address"
            }
          ],
          "stateMutability": "view",
          "type": "function"
        },
        {
          "inputs": [],
          "name": "GLOBAL_BOOST",
          "outputs": [
            {
              "internalType": "uint256",
              "name": "",
              "type": "uint256"
            }
          ],
          "stateMutability": "view",
          "type": "function"
        },
        {
          "inputs": [],
          "name": "MAINTAINER_ROLE",
          "outputs": [
            {
              "internalType": "bytes32",
              "name": "",
              "type": "bytes32"
            }
          ],
          "stateMutability": "view",
          "type": "function"
        },
        {
          "inputs": [],
          "name": "REFERRALS",
          "outputs": [
            {
              "internalType": "address",
              "name": "",
              "type": "address"
            }
          ],
          "stateMutability": "view",
          "type": "function"
        },
        {
          "inputs": [
            {
              "internalType": "address",
              "name": "",
              "type": "address"
            }
          ],
          "name": "REF_VOLUME",
          "outputs": [
            {
              "internalType": "uint256",
              "name": "",
              "type": "uint256"
            }
          ],
          "stateMutability": "view",
          "type": "function"
        },
        {
          "inputs": [],
          "name": "REF_VOLUME_SCALER",
          "outputs": [
            {
              "internalType": "uint256",
              "name": "",
              "type": "uint256"
            }
          ],
          "stateMutability": "view",
          "type": "function"
        },
        {
          "inputs": [
            {
              "internalType": "address",
              "name": "",
              "type": "address"
            }
          ],
          "name": "SELF_VOLUME",
          "outputs": [
            {
              "internalType": "uint256",
              "name": "",
              "type": "uint256"
            }
          ],
          "stateMutability": "view",
          "type": "function"
        },
        {
          "inputs": [],
          "name": "VOLUME_ADAPTER",
          "outputs": [
            {
              "internalType": "address",
              "name": "",
              "type": "address"
            }
          ],
          "stateMutability": "view",
          "type": "function"
        },
        {
          "inputs": [
            {
              "internalType": "address",
              "name": "_adapter",
              "type": "address"
            },
            {
              "internalType": "uint256",
              "name": "_volume",
              "type": "uint256"
            }
          ],
          "name": "addAdapterVolume",
          "outputs": [],
          "stateMutability": "nonpayable",
          "type": "function"
        },
        {
          "inputs": [
            {
              "internalType": "address",
              "name": "addedMaintainer",
              "type": "address"
            }
          ],
          "name": "addMaintainer",
          "outputs": [],
          "stateMutability": "nonpayable",
          "type": "function"
        },
        {
          "inputs": [
            {
              "internalType": "address",
              "name": "_add",
              "type": "address"
            },
            {
              "internalType": "uint256",
              "name": "_volume",
              "type": "uint256"
            }
          ],
          "name": "addVolume",
          "outputs": [],
          "stateMutability": "nonpayable",
          "type": "function"
        },
        {
          "inputs": [
            {
              "internalType": "address",
              "name": "_add",
              "type": "address"
            }
          ],
          "name": "getPoints",
          "outputs": [
            {
              "internalType": "uint256",
              "name": "pointsFromSelf",
              "type": "uint256"
            },
            {
              "internalType": "uint256",
              "name": "pointsFromRef",
              "type": "uint256"
            },
            {
              "internalType": "uint256",
              "name": "pointsFromAdapter",
              "type": "uint256"
            },
            {
              "internalType": "uint256",
              "name": "pointsTotal",
              "type": "uint256"
            }
          ],
          "stateMutability": "view",
          "type": "function"
        },
        {
          "inputs": [
            {
              "internalType": "bytes32",
              "name": "role",
              "type": "bytes32"
            }
          ],
          "name": "getRoleAdmin",
          "outputs": [
            {
              "internalType": "bytes32",
              "name": "",
              "type": "bytes32"
            }
          ],
          "stateMutability": "view",
          "type": "function"
        },
        {
          "inputs": [
            {
              "internalType": "address",
              "name": "_add",
              "type": "address"
            }
          ],
          "name": "getVolume",
          "outputs": [
            {
              "internalType": "uint256",
              "name": "selfVolume",
              "type": "uint256"
            },
            {
              "internalType": "uint256",
              "name": "refVolume",
              "type": "uint256"
            },
            {
              "internalType": "uint256",
              "name": "adapterVolume",
              "type": "uint256"
            }
          ],
          "stateMutability": "view",
          "type": "function"
        },
        {
          "inputs": [],
          "name": "governor",
          "outputs": [
            {
              "internalType": "address",
              "name": "",
              "type": "address"
            }
          ],
          "stateMutability": "view",
          "type": "function"
        },
        {
          "inputs": [
            {
              "internalType": "bytes32",
              "name": "role",
              "type": "bytes32"
            },
            {
              "internalType": "address",
              "name": "account",
              "type": "address"
            }
          ],
          "name": "grantRole",
          "outputs": [],
          "stateMutability": "nonpayable",
          "type": "function"
        },
        {
          "inputs": [
            {
              "internalType": "bytes32",
              "name": "role",
              "type": "bytes32"
            },
            {
              "internalType": "address",
              "name": "account",
              "type": "address"
            }
          ],
          "name": "hasRole",
          "outputs": [
            {
              "internalType": "bool",
              "name": "",
              "type": "bool"
            }
          ],
          "stateMutability": "view",
          "type": "function"
        },
        {
          "inputs": [
            {
              "internalType": "address",
              "name": "_governor",
              "type": "address"
            }
          ],
          "name": "initialize",
          "outputs": [],
          "stateMutability": "nonpayable",
          "type": "function"
        },
        {
          "inputs": [],
          "name": "initialized",
          "outputs": [
            {
              "internalType": "bool",
              "name": "",
              "type": "bool"
            }
          ],
          "stateMutability": "view",
          "type": "function"
        },
        {
          "inputs": [
            {
              "internalType": "address",
              "name": "_tokenAddress",
              "type": "address"
            },
            {
              "internalType": "uint256",
              "name": "_tokenAmount",
              "type": "uint256"
            }
          ],
          "name": "recoverERC20",
          "outputs": [],
          "stateMutability": "nonpayable",
          "type": "function"
        },
        {
          "inputs": [
            {
              "internalType": "uint256",
              "name": "_amount",
              "type": "uint256"
            }
          ],
          "name": "recoverNATIVE",
          "outputs": [],
          "stateMutability": "nonpayable",
          "type": "function"
        },
        {
          "inputs": [
            {
              "internalType": "address",
              "name": "removedMaintainer",
              "type": "address"
            }
          ],
          "name": "removeMaintainer",
          "outputs": [],
          "stateMutability": "nonpayable",
          "type": "function"
        },
        {
          "inputs": [
            {
              "internalType": "bytes32",
              "name": "role",
              "type": "bytes32"
            },
            {
              "internalType": "address",
              "name": "account",
              "type": "address"
            }
          ],
          "name": "renounceRole",
          "outputs": [],
          "stateMutability": "nonpayable",
          "type": "function"
        },
        {
          "inputs": [
            {
              "internalType": "bytes32",
              "name": "role",
              "type": "bytes32"
            }
          ],
          "name": "renounceRole",
          "outputs": [],
          "stateMutability": "nonpayable",
          "type": "function"
        },
        {
          "inputs": [
            {
              "internalType": "bytes32",
              "name": "role",
              "type": "bytes32"
            },
            {
              "internalType": "address",
              "name": "account",
              "type": "address"
            }
          ],
          "name": "revokeRole",
          "outputs": [],
          "stateMutability": "nonpayable",
          "type": "function"
        },
        {
          "inputs": [
            {
              "internalType": "address",
              "name": "_adapter",
              "type": "address"
            },
            {
              "internalType": "address",
              "name": "_delegate",
              "type": "address"
            }
          ],
          "name": "setAdapterDelegate",
          "outputs": [],
          "stateMutability": "nonpayable",
          "type": "function"
        },
        {
          "inputs": [
            {
              "internalType": "address",
              "name": "_user",
              "type": "address"
            },
            {
              "internalType": "address",
              "name": "_delegate",
              "type": "address"
            }
          ],
          "name": "setDelegate",
          "outputs": [],
          "stateMutability": "nonpayable",
          "type": "function"
        },
        {
          "inputs": [
            {
              "internalType": "uint256",
              "name": "_boost",
              "type": "uint256"
            }
          ],
          "name": "setGlobalBoost",
          "outputs": [],
          "stateMutability": "nonpayable",
          "type": "function"
        },
        {
          "inputs": [
            {
              "internalType": "address",
              "name": "_referrals",
              "type": "address"
            }
          ],
          "name": "setReferralsContract",
          "outputs": [],
          "stateMutability": "nonpayable",
          "type": "function"
        },
        {
          "inputs": [
            {
              "internalType": "address",
              "name": "_volumeAdapter",
              "type": "address"
            }
          ],
          "name": "setVolumeAdapter",
          "outputs": [],
          "stateMutability": "nonpayable",
          "type": "function"
        },
        {
          "inputs": [
            {
              "internalType": "uint256",
              "name": "_refVolumeScaler",
              "type": "uint256"
            },
            {
              "internalType": "uint256",
              "name": "_adapterVolumeScaler",
              "type": "uint256"
            }
          ],
          "name": "setVolumeScalers",
          "outputs": [],
          "stateMutability": "nonpayable",
          "type": "function"
        },
        {
          "inputs": [
            {
              "internalType": "address",
              "name": "_add",
              "type": "address"
            },
            {
              "internalType": "uint256",
              "name": "_volume",
              "type": "uint256"
            }
          ],
          "name": "summitTeamGivePoints",
          "outputs": [],
          "stateMutability": "nonpayable",
          "type": "function"
        },
        {
          "inputs": [
            {
              "internalType": "bytes4",
              "name": "interfaceId",
              "type": "bytes4"
            }
          ],
          "name": "supportsInterface",
          "outputs": [
            {
              "internalType": "bool",
              "name": "",
              "type": "bool"
            }
          ],
          "stateMutability": "view",
          "type": "function"
        },
        {
          "inputs": [
            {
              "internalType": "address",
              "name": "newOwner",
              "type": "address"
            }
          ],
          "name": "transferOwnership",
          "outputs": [],
          "stateMutability": "nonpayable",
          "type": "function"
        },
        {
          "inputs": [
            {
              "internalType": "address",
              "name": "_from",
              "type": "address"
            },
            {
              "internalType": "address",
              "name": "_to",
              "type": "address"
            },
            {
              "internalType": "uint256",
              "name": "_selfAmount",
              "type": "uint256"
            },
            {
              "internalType": "uint256",
              "name": "_refAmount",
              "type": "uint256"
            },
            {
              "internalType": "uint256",
              "name": "_adapterAmount",
              "type": "uint256"
            }
          ],
          "name": "transferVolume",
          "outputs": [],
          "stateMutability": "nonpayable",
          "type": "function"
        }
      ],
      "evm": {
        "bytecode": {
          "linkReferences": {},
          "object": "608060405260006008556103e86009556101f4600a556064600b55600c805460ff191690553480156200003157600080fd5b506200003f60003362000071565b6200006b7f339759585899103d2ace64958e37e18ccb0504652c81d4a1b8aa80fe2126ab953362000071565b62000121565b6200007d828262000081565b5050565b6000828152602081815260408083206001600160a01b038516845290915290205460ff166200007d576000828152602081815260408083206001600160a01b03851684529091529020805460ff19166001179055620000dd3390565b6001600160a01b0316816001600160a01b0316837f2f8788117e7eff1d82e926ec794901d17c78024a50270940304540a733656f0d60405160405180910390a45050565b61240a80620001316000396000f3fe608060405234801561001057600080fd5b50600436106102c85760003560e01c80638980f11f1161017b578063c9d0529b116100d8578063ee204abb1161008c578063f2fde38b11610071578063f2fde38b1461067e578063f874225414610691578063f9304a54146106b857600080fd5b8063ee204abb14610642578063f0ed47b61461067557600080fd5b8063d547741f116100bd578063d547741f14610609578063d8baf7cf1461061c578063ea5d838b1461062f57600080fd5b8063c9d0529b146105e3578063d3c48638146105f657600080fd5b8063a217fddf1161012f578063ae7d63a211610114578063ae7d63a2146105b4578063c2c52820146105bd578063c4d66de8146105d057600080fd5b8063a217fddf1461058c578063ab6322c51461059457600080fd5b80638bb9c5bf116101605780638bb9c5bf1461051f57806391d14854146105325780639c4cdf831461056957600080fd5b80638980f11f146104b15780638ba17f86146104c457600080fd5b8063492f19e6116102295780635c873849116101dd5780636b453c1f116101c25780636b453c1f1461048257806381ee559914610495578063823828341461049e57600080fd5b80635c8738491461045c578063630e1cdd1461046f57600080fd5b8063555c28001161020e578063555c28001461042d578063557b1864146104365780635bd5da1e1461044957600080fd5b8063492f19e6146103fa57806350d935c41461041a57600080fd5b80632f2ff15d116102805780633277d76d116102655780633277d76d1461039e57806336568abe146103c75780633de91765146103da57600080fd5b80632f2ff15d1461037857806332102e3b1461038b57600080fd5b8063158ef93e116102b1578063158ef93e14610325578063248a9ca3146103325780632ac2a9701461036357600080fd5b806301ffc9a7146102cd5780630c340a24146102f5575b600080fd5b6102e06102db3660046121af565b6106cb565b60405190151581526020015b60405180910390f35b600c5461030d9061010090046001600160a01b031681565b6040516001600160a01b0390911681526020016102ec565b600c546102e09060ff1681565b610355610340366004612173565b60009081526020819052604090206001015490565b6040519081526020016102ec565b610376610371366004612068565b610764565b005b61037661038636600461218b565b61085b565b610376610399366004612128565b610885565b61030d6103ac366004612068565b6006602052600090815260409020546001600160a01b031681565b6103766103d536600461218b565b610a91565b6103556103e8366004612068565b60046020526000908152604090205481565b610355610408366004612068565b60056020526000908152604090205481565b610376610428366004612173565b610b1d565b610355600a5481565b610376610444366004612128565b610be7565b60015461030d906001600160a01b031681565b61037661046a3660046120a0565b610ce6565b61037661047d366004612068565b610da3565b610376610490366004612068565b610e95565b610355600b5481565b60025461030d906001600160a01b031681565b6103766104bf366004612128565b610ec2565b6105046104d2366004612068565b6001600160a01b0316600090815260036020908152604080832054600483528184205460059093529220549192909190565b604080519384526020840192909252908201526060016102ec565b61037661052d366004612173565b610ff0565b6102e061054036600461218b565b6000918252602082815260408084206001600160a01b0393909316845291905290205460ff1690565b6102e0610577366004612068565b60076020526000908152604090205460ff1681565b610355600081565b6103556105a2366004612068565b60036020526000908152604090205481565b61035560095481565b6103766105cb366004612173565b610ffa565b6103766105de366004612068565b611140565b6103766105f1366004612128565b61124e565b610376610604366004612207565b611313565b61037661061736600461218b565b6113e9565b61037661062a366004612068565b61140e565b61037661063d3660046120a0565b611438565b610655610650366004612068565b61152b565b6040805194855260208501939093529183015260608201526080016102ec565b61035560085481565b61037661068c366004612068565b6117c7565b6103557f339759585899103d2ace64958e37e18ccb0504652c81d4a1b8aa80fe2126ab9581565b6103766106c63660046120d8565b6117dd565b60007fffffffff0000000000000000000000000000000000000000000000000000000082167f7965db0b00000000000000000000000000000000000000000000000000000000148061075e57507f01ffc9a7000000000000000000000000000000000000000000000000000000007fffffffff000000000000000000000000000000000000000000000000000000008316145b92915050565b3360009081527fa54247010af6b3693b80aceddfad12e077c5de3571e6243fada502635f0d7d39602052604090205460ff166107f85760405162461bcd60e51b815260206004820152602860248201527f4d61696e7461696e61626c653a2043616c6c6572206973206e6f742061206d6160448201526734b73a30b4b732b960c11b60648201526084015b60405180910390fd5b6040516001600160a01b038216907fe0ff266aea69ca6ac29b06f8a5afe5e2cf6f7f5602780cab900ce4976fea26ef90600090a26002805473ffffffffffffffffffffffffffffffffffffffff19166001600160a01b0392909216919091179055565b60008281526020819052604090206001015461087681611acc565b6108808383611ad6565b505050565b6001546001600160a01b031633146108b0576040516339218f3b60e01b815260040160405180910390fd5b600854156108e2576127106008546127106108cb91906122f8565b6108d59083612330565b6108df9190612310565b90505b6001600160a01b0382166000908152600360205260408120805483929061090a9084906122f8565b90915550506040518181526001600160a01b038316907f9e3ff39047273fb41d7421da5f859bfd25936b83ada49dfc79ee480223c33c949060200160405180910390a26002546000906001600160a01b0316156109fc576002546040517f4a9fefc70000000000000000000000000000000000000000000000000000000081526001600160a01b03858116600483015290911690634a9fefc79060240160206040518083038186803b1580156109bf57600080fd5b505afa1580156109d3573d6000803e3d6000fd5b505050506040513d601f19601f820116820180604052508101906109f79190612084565b6109ff565b60005b90506001600160a01b03811615610880576001600160a01b03811660009081526004602052604081208054849290610a389084906122f8565b92505081905550826001600160a01b0316816001600160a01b03167fb0184eb773c1faaadae6838251b58b00236ff85b732b1f260b7d1ceb24b6d1fb84604051610a8491815260200190565b60405180910390a3505050565b6001600160a01b0381163314610b0f5760405162461bcd60e51b815260206004820152602f60248201527f416363657373436f6e74726f6c3a2063616e206f6e6c792072656e6f756e636560448201527f20726f6c657320666f722073656c66000000000000000000000000000000000060648201526084016107ef565b610b198282611b74565b5050565b3360009081527fa54247010af6b3693b80aceddfad12e077c5de3571e6243fada502635f0d7d39602052604090205460ff16610bac5760405162461bcd60e51b815260206004820152602860248201527f4d61696e7461696e61626c653a2043616c6c6572206973206e6f742061206d6160448201526734b73a30b4b732b960c11b60648201526084016107ef565b60088190556040518181527ff7b7e923495b6ece8dc4bd3d442a1c5ded8fe24d4a269daee2c29f90cf7a5e7a9060200160405180910390a150565b3360009081527fa54247010af6b3693b80aceddfad12e077c5de3571e6243fada502635f0d7d39602052604090205460ff16610c765760405162461bcd60e51b815260206004820152602860248201527f4d61696e7461696e61626c653a2043616c6c6572206973206e6f742061206d6160448201526734b73a30b4b732b960c11b60648201526084016107ef565b6001600160a01b03821660009081526003602052604081208054839290610c9e9084906122f8565b90915550506040518181526001600160a01b038316907f60c27f1cbc5cbd73079c1a0fe8a4087f203c756bee40b2c102f69d862fa65212906020015b60405180910390a25050565b6001600160a01b0382163314801590610d1957506001600160a01b03828116600090815260066020526040902054163314155b15610d37576040516339218f3b60e01b815260040160405180910390fd5b33600081815260066020526040808220805473ffffffffffffffffffffffffffffffffffffffff19166001600160a01b03868116918217909255915191939086169290917f36b9b6f9e2111aead3e8603d4f515f1cc100fc80cde6a3e29f23bf4f9f5e591d9190a45050565b3360009081527fa54247010af6b3693b80aceddfad12e077c5de3571e6243fada502635f0d7d39602052604090205460ff16610e325760405162461bcd60e51b815260206004820152602860248201527f4d61696e7461696e61626c653a2043616c6c6572206973206e6f742061206d6160448201526734b73a30b4b732b960c11b60648201526084016107ef565b6040516001600160a01b038216907f5c3c642a912516f738e0b09cf8144ccd5a4d6a90cc1f7691ad0e8746e62b274190600090a26001805473ffffffffffffffffffffffffffffffffffffffff19166001600160a01b0392909216919091179055565b610ebf7f339759585899103d2ace64958e37e18ccb0504652c81d4a1b8aa80fe2126ab958261085b565b50565b3360009081527fa54247010af6b3693b80aceddfad12e077c5de3571e6243fada502635f0d7d39602052604090205460ff16610f515760405162461bcd60e51b815260206004820152602860248201527f4d61696e7461696e61626c653a2043616c6c6572206973206e6f742061206d6160448201526734b73a30b4b732b960c11b60648201526084016107ef565b60008111610fa15760405162461bcd60e51b815260206004820152601260248201527f4e6f7468696e6720746f207265636f766572000000000000000000000000000060448201526064016107ef565b610fb56001600160a01b0383163383611bf3565b816001600160a01b03167f8c1256b8896378cd5044f80c202f9772b9d77dc85c8a6eb51967210b09bfaa2882604051610cda91815260200190565b610ebf8133610a91565b3360009081527fa54247010af6b3693b80aceddfad12e077c5de3571e6243fada502635f0d7d39602052604090205460ff166110895760405162461bcd60e51b815260206004820152602860248201527f4d61696e7461696e61626c653a2043616c6c6572206973206e6f742061206d6160448201526734b73a30b4b732b960c11b60648201526084016107ef565b600081116110d95760405162461bcd60e51b815260206004820152601260248201527f4e6f7468696e6720746f207265636f766572000000000000000000000000000060448201526064016107ef565b604051339082156108fc029083906000818181858888f19350505050158015611106573d6000803e3d6000fd5b506040518181526000907f8c1256b8896378cd5044f80c202f9772b9d77dc85c8a6eb51967210b09bfaa289060200160405180910390a250565b3360009081527fa54247010af6b3693b80aceddfad12e077c5de3571e6243fada502635f0d7d39602052604090205460ff166111cf5760405162461bcd60e51b815260206004820152602860248201527f4d61696e7461696e61626c653a2043616c6c6572206973206e6f742061206d6160448201526734b73a30b4b732b960c11b60648201526084016107ef565b600c5460ff161561120c576040517f0dc149f000000000000000000000000000000000000000000000000000000000815260040160405180910390fd5b600c80546001600160a01b03909216610100027fffffffffffffffffffffff000000000000000000000000000000000000000000909216919091176001179055565b6001546001600160a01b03163314611279576040516339218f3b60e01b815260040160405180910390fd5b600854156112ab5761271060085461271061129491906122f8565b61129e9083612330565b6112a89190612310565b90505b6001600160a01b038216600090815260056020526040812080548392906112d39084906122f8565b90915550506040518181526001600160a01b038316907f0674ed10f224ec7901b3e32f9d5306f48aa17db08d0e7303bec73e995332de6190602001610cda565b3360009081527fa54247010af6b3693b80aceddfad12e077c5de3571e6243fada502635f0d7d39602052604090205460ff166113a25760405162461bcd60e51b815260206004820152602860248201527f4d61696e7461696e61626c653a2043616c6c6572206973206e6f742061206d6160448201526734b73a30b4b732b960c11b60648201526084016107ef565b600a829055600b81905560408051838152602081018390527f338cbec3220461a21f7cbdf3498f03c5b0dc3ce6f2a85e538e32779dadeed0ca910160405180910390a15050565b60008281526020819052604090206001015461140481611acc565b6108808383611b74565b610ebf7f339759585899103d2ace64958e37e18ccb0504652c81d4a1b8aa80fe2126ab95826113e9565b3360009081527fa54247010af6b3693b80aceddfad12e077c5de3571e6243fada502635f0d7d39602052604090205460ff166114c75760405162461bcd60e51b815260206004820152602860248201527f4d61696e7461696e61626c653a2043616c6c6572206973206e6f742061206d6160448201526734b73a30b4b732b960c11b60648201526084016107ef565b6001600160a01b03828116600081815260066020526040808220805473ffffffffffffffffffffffffffffffffffffffff19169486169485179055517f5fb34ab838e48e94ab941a98bc5fbe3fcd314ee6f6137fabac7e2210c92761509190a35050565b6001600160a01b03811660009081526007602052604081205481908190819060ff1615611563575060009250829150819050806117c0565b6002546000906001600160a01b031615611612576002546040517f73930f040000000000000000000000000000000000000000000000000000000081526001600160a01b038881166004830152909116906373930f049060240160206040518083038186803b1580156115d557600080fd5b505afa1580156115e9573d6000803e3d6000fd5b505050506040513d601f19601f8201168201806040525081019061160d91906121ef565b611616565b6127105b6002549091506000906001600160a01b0316156116c8576002546040517f3c9c39140000000000000000000000000000000000000000000000000000000081526001600160a01b03898116600483015290911690633c9c39149060240160206040518083038186803b15801561168b57600080fd5b505afa15801561169f573d6000803e3d6000fd5b505050506040513d601f19601f820116820180604052508101906116c391906121ef565b6116cb565b60005b6009546001600160a01b0389166000908152600360205260409020549192506305f5e100916116fb908590612330565b6117059190612330565b61170f9190612310565b95506305f5e10060095482600a5461172791906122f8565b6001600160a01b038a1660009081526004602052604090205461174a9190612330565b6117549190612330565b61175e9190612310565b600954600b546001600160a01b038a166000908152600560205260409020549297506305f5e100926117909190612330565b61179a9190612330565b6117a49190612310565b9350836117b186886122f8565b6117bb91906122f8565b925050505b9193509193565b6117d260008261085b565b610ebf600033610a91565b6001600160a01b03841661181d576040517fd92e233d00000000000000000000000000000000000000000000000000000000815260040160405180910390fd5b6001600160a01b038516331480159061185057506001600160a01b03858116600090815260066020526040902054163314155b1561186e576040516339218f3b60e01b815260040160405180910390fd5b6001600160a01b0385166000908152600360205260409020548311156118c0576040517ffbbdc2c900000000000000000000000000000000000000000000000000000000815260040160405180910390fd5b6001600160a01b038516600090815260046020526040902054821115611912576040517f6a9835a800000000000000000000000000000000000000000000000000000000815260040160405180910390fd5b6001600160a01b038516600090815260056020526040902054811115611964576040517f55d5a3fa00000000000000000000000000000000000000000000000000000000815260040160405180910390fd5b6001600160a01b0385166000908152600360205260408120805485929061198c90849061234f565b90915550506001600160a01b038416600090815260036020526040812080548592906119b99084906122f8565b90915550506001600160a01b038516600090815260046020526040812080548492906119e690849061234f565b90915550506001600160a01b03841660009081526004602052604081208054849290611a139084906122f8565b90915550506001600160a01b03851660009081526005602052604081208054839290611a4090849061234f565b90915550506001600160a01b03841660009081526005602052604081208054839290611a6d9084906122f8565b909155505060408051848152602081018490529081018290526001600160a01b03808616919087169033907f78311c2531af20240a50db50e3085b3c16f6e3b21572f6ab0089414ddffd73919060600160405180910390a45050505050565b610ebf8133611c73565b6000828152602081815260408083206001600160a01b038516845290915290205460ff16610b19576000828152602081815260408083206001600160a01b03851684529091529020805460ff19166001179055611b303390565b6001600160a01b0316816001600160a01b0316837f2f8788117e7eff1d82e926ec794901d17c78024a50270940304540a733656f0d60405160405180910390a45050565b6000828152602081815260408083206001600160a01b038516845290915290205460ff1615610b19576000828152602081815260408083206001600160a01b0385168085529252808320805460ff1916905551339285917ff6391f5c32d9c69d2a47ea670b442974b53935d1edc7fd64eb21e047a839171b9190a45050565b604080516001600160a01b038416602482015260448082018490528251808303909101815260649091019091526020810180517bffffffffffffffffffffffffffffffffffffffffffffffffffffffff167fa9059cbb00000000000000000000000000000000000000000000000000000000179052610880908490611ce6565b6000828152602081815260408083206001600160a01b038516845290915290205460ff16610b1957611ca481611e28565b611caf836020611e3a565b604051602001611cc0929190612244565b60408051601f198184030181529082905262461bcd60e51b82526107ef916004016122c5565b600080836001600160a01b031683604051611d019190612228565b6000604051808303816000865af19150503d8060008114611d3e576040519150601f19603f3d011682016040523d82523d6000602084013e611d43565b606091505b509150915081611d955760405162461bcd60e51b815260206004820181905260248201527f5361666545524332303a206c6f772d6c6576656c2063616c6c206661696c656460448201526064016107ef565b805115611e225780806020019051810190611db09190612153565b611e225760405162461bcd60e51b815260206004820152602a60248201527f5361666545524332303a204552433230206f7065726174696f6e20646964206e60448201527f6f7420737563636565640000000000000000000000000000000000000000000060648201526084016107ef565b50505050565b606061075e6001600160a01b03831660145b60606000611e49836002612330565b611e549060026122f8565b67ffffffffffffffff811115611e7a57634e487b7160e01b600052604160045260246000fd5b6040519080825280601f01601f191660200182016040528015611ea4576020820181803683370190505b5090507f300000000000000000000000000000000000000000000000000000000000000081600081518110611ee957634e487b7160e01b600052603260045260246000fd5b60200101906001600160f81b031916908160001a9053507f780000000000000000000000000000000000000000000000000000000000000081600181518110611f4257634e487b7160e01b600052603260045260246000fd5b60200101906001600160f81b031916908160001a9053506000611f66846002612330565b611f719060016122f8565b90505b6001811115612012577f303132333435363738396162636465660000000000000000000000000000000085600f1660108110611fc057634e487b7160e01b600052603260045260246000fd5b1a60f81b828281518110611fe457634e487b7160e01b600052603260045260246000fd5b60200101906001600160f81b031916908160001a90535060049490941c9361200b81612392565b9050611f74565b5083156120615760405162461bcd60e51b815260206004820181905260248201527f537472696e67733a20686578206c656e67746820696e73756666696369656e7460448201526064016107ef565b9392505050565b600060208284031215612079578081fd5b8135612061816123bf565b600060208284031215612095578081fd5b8151612061816123bf565b600080604083850312156120b2578081fd5b82356120bd816123bf565b915060208301356120cd816123bf565b809150509250929050565b600080600080600060a086880312156120ef578081fd5b85356120fa816123bf565b9450602086013561210a816123bf565b94979496505050506040830135926060810135926080909101359150565b6000806040838503121561213a578182fd5b8235612145816123bf565b946020939093013593505050565b600060208284031215612164578081fd5b81518015158114612061578182fd5b600060208284031215612184578081fd5b5035919050565b6000806040838503121561219d578182fd5b8235915060208301356120cd816123bf565b6000602082840312156121c0578081fd5b81357fffffffff0000000000000000000000000000000000000000000000000000000081168114612061578182fd5b600060208284031215612200578081fd5b5051919050565b60008060408385031215612219578182fd5b50508035926020909101359150565b6000825161223a818460208701612366565b9190910192915050565b7f416363657373436f6e74726f6c3a206163636f756e742000000000000000000081526000835161227c816017850160208801612366565b7f206973206d697373696e6720726f6c652000000000000000000000000000000060179184019182015283516122b9816028840160208801612366565b01602801949350505050565b60208152600082518060208401526122e4816040850160208701612366565b601f01601f19169190910160400192915050565b6000821982111561230b5761230b6123a9565b500190565b60008261232b57634e487b7160e01b81526012600452602481fd5b500490565b600081600019048311821515161561234a5761234a6123a9565b500290565b600082821015612361576123616123a9565b500390565b60005b83811015612381578181015183820152602001612369565b83811115611e225750506000910152565b6000816123a1576123a16123a9565b506000190190565b634e487b7160e01b600052601160045260246000fd5b6001600160a01b0381168114610ebf57600080fdfea26469706673582212204dd7adad36147395587c1a1703932a66dc5271631fe505ec833bed594e76ebd364736f6c63430008040033",
          "opcodes": "PUSH1 0x80 PUSH1 0x40 MSTORE PUSH1 0x0 PUSH1 0x8 SSTORE PUSH2 0x3E8 PUSH1 0x9 SSTORE PUSH2 0x1F4 PUSH1 0xA SSTORE PUSH1 0x64 PUSH1 0xB SSTORE PUSH1 0xC DUP1 SLOAD PUSH1 0xFF NOT AND SWAP1 SSTORE CALLVALUE DUP1 ISZERO PUSH3 0x31 JUMPI PUSH1 0x0 DUP1 REVERT JUMPDEST POP PUSH3 0x3F PUSH1 0x0 CALLER PUSH3 0x71 JUMP JUMPDEST PUSH3 0x6B PUSH32 0x339759585899103D2ACE64958E37E18CCB0504652C81D4A1B8AA80FE2126AB95 CALLER PUSH3 0x71 JUMP JUMPDEST PUSH3 0x121 JUMP JUMPDEST PUSH3 0x7D DUP3 DUP3 PUSH3 0x81 JUMP JUMPDEST POP POP JUMP JUMPDEST PUSH1 0x0 DUP3 DUP2 MSTORE PUSH1 0x20 DUP2 DUP2 MSTORE PUSH1 0x40 DUP1 DUP4 KECCAK256 PUSH1 0x1 PUSH1 0x1 PUSH1 0xA0 SHL SUB DUP6 AND DUP5 MSTORE SWAP1 SWAP2 MSTORE SWAP1 KECCAK256 SLOAD PUSH1 0xFF AND PUSH3 0x7D JUMPI PUSH1 0x0 DUP3 DUP2 MSTORE PUSH1 0x20 DUP2 DUP2 MSTORE PUSH1 0x40 DUP1 DUP4 KECCAK256 PUSH1 0x1 PUSH1 0x1 PUSH1 0xA0 SHL SUB DUP6 AND DUP5 MSTORE SWAP1 SWAP2 MSTORE SWAP1 KECCAK256 DUP1 SLOAD PUSH1 0xFF NOT AND PUSH1 0x1 OR SWAP1 SSTORE PUSH3 0xDD CALLER SWAP1 JUMP JUMPDEST PUSH1 0x1 PUSH1 0x1 PUSH1 0xA0 SHL SUB AND DUP2 PUSH1 0x1 PUSH1 0x1 PUSH1 0xA0 SHL SUB AND DUP4 PUSH32 0x2F8788117E7EFF1D82E926EC794901D17C78024A50270940304540A733656F0D PUSH1 0x40 MLOAD PUSH1 0x40 MLOAD DUP1 SWAP2 SUB SWAP1 LOG4 POP POP JUMP JUMPDEST PUSH2 0x240A DUP1 PUSH3 0x131 PUSH1 0x0 CODECOPY PUSH1 0x0 RETURN INVALID PUSH1 0x80 PUSH1 0x40 MSTORE CALLVALUE DUP1 ISZERO PUSH2 0x10 JUMPI PUSH1 0x0 DUP1 REVERT JUMPDEST POP PUSH1 0x4 CALLDATASIZE LT PUSH2 0x2C8 JUMPI PUSH1 0x0 CALLDATALOAD PUSH1 0xE0 SHR DUP1 PUSH4 0x8980F11F GT PUSH2 0x17B JUMPI DUP1 PUSH4 0xC9D0529B GT PUSH2 0xD8 JUMPI DUP1 PUSH4 0xEE204ABB GT PUSH2 0x8C JUMPI DUP1 PUSH4 0xF2FDE38B GT PUSH2 0x71 JUMPI DUP1 PUSH4 0xF2FDE38B EQ PUSH2 0x67E JUMPI DUP1 PUSH4 0xF8742254 EQ PUSH2 0x691 JUMPI DUP1 PUSH4 0xF9304A54 EQ PUSH2 0x6B8 JUMPI PUSH1 0x0 DUP1 REVERT JUMPDEST DUP1 PUSH4 0xEE204ABB EQ PUSH2 0x642 JUMPI DUP1 PUSH4 0xF0ED47B6 EQ PUSH2 0x675 JUMPI PUSH1 0x0 DUP1 REVERT JUMPDEST DUP1 PUSH4 0xD547741F GT PUSH2 0xBD JUMPI DUP1 PUSH4 0xD547741F EQ PUSH2 0x609 JUMPI DUP1 PUSH4 0xD8BAF7CF EQ PUSH2 0x61C JUMPI DUP1 PUSH4 0xEA5D838B EQ PUSH2 0x62F JUMPI PUSH1 0x0 DUP1 REVERT JUMPDEST DUP1 PUSH4 0xC9D0529B EQ PUSH2 0x5E3 JUMPI DUP1 PUSH4 0xD3C48638 EQ PUSH2 0x5F6 JUMPI PUSH1 0x0 DUP1 REVERT JUMPDEST DUP1 PUSH4 0xA217FDDF GT PUSH2 0x12F JUMPI DUP1 PUSH4 0xAE7D63A2 GT PUSH2 0x114 JUMPI DUP1 PUSH4 0xAE7D63A2 EQ PUSH2 0x5B4 JUMPI DUP1 PUSH4 0xC2C52820 EQ PUSH2 0x5BD JUMPI DUP1 PUSH4 0xC4D66DE8 EQ PUSH2 0x5D0 JUMPI PUSH1 0x0 DUP1 REVERT JUMPDEST DUP1 PUSH4 0xA217FDDF EQ PUSH2 0x58C JUMPI DUP1 PUSH4 0xAB6322C5 EQ PUSH2 0x594 JUMPI PUSH1 0x0 DUP1 REVERT JUMPDEST DUP1 PUSH4 0x8BB9C5BF GT PUSH2 0x160 JUMPI DUP1 PUSH4 0x8BB9C5BF EQ PUSH2 0x51F JUMPI DUP1 PUSH4 0x91D14854 EQ PUSH2 0x532 JUMPI DUP1 PUSH4 0x9C4CDF83 EQ PUSH2 0x569 JUMPI PUSH1 0x0 DUP1 REVERT JUMPDEST DUP1 PUSH4 0x8980F11F EQ PUSH2 0x4B1 JUMPI DUP1 PUSH4 0x8BA17F86 EQ PUSH2 0x4C4 JUMPI PUSH1 0x0 DUP1 REVERT JUMPDEST DUP1 PUSH4 0x492F19E6 GT PUSH2 0x229 JUMPI DUP1 PUSH4 0x5C873849 GT PUSH2 0x1DD JUMPI DUP1 PUSH4 0x6B453C1F GT PUSH2 0x1C2 JUMPI DUP1 PUSH4 0x6B453C1F EQ PUSH2 0x482 JUMPI DUP1 PUSH4 0x81EE5599 EQ PUSH2 0x495 JUMPI DUP1 PUSH4 0x82382834 EQ PUSH2 0x49E JUMPI PUSH1 0x0 DUP1 REVERT JUMPDEST DUP1 PUSH4 0x5C873849 EQ PUSH2 0x45C JUMPI DUP1 PUSH4 0x630E1CDD EQ PUSH2 0x46F JUMPI PUSH1 0x0 DUP1 REVERT JUMPDEST DUP1 PUSH4 0x555C2800 GT PUSH2 0x20E JUMPI DUP1 PUSH4 0x555C2800 EQ PUSH2 0x42D JUMPI DUP1 PUSH4 0x557B1864 EQ PUSH2 0x436 JUMPI DUP1 PUSH4 0x5BD5DA1E EQ PUSH2 0x449 JUMPI PUSH1 0x0 DUP1 REVERT JUMPDEST DUP1 PUSH4 0x492F19E6 EQ PUSH2 0x3FA JUMPI DUP1 PUSH4 0x50D935C4 EQ PUSH2 0x41A JUMPI PUSH1 0x0 DUP1 REVERT JUMPDEST DUP1 PUSH4 0x2F2FF15D GT PUSH2 0x280 JUMPI DUP1 PUSH4 0x3277D76D GT PUSH2 0x265 JUMPI DUP1 PUSH4 0x3277D76D EQ PUSH2 0x39E JUMPI DUP1 PUSH4 0x36568ABE EQ PUSH2 0x3C7 JUMPI DUP1 PUSH4 0x3DE91765 EQ PUSH2 0x3DA JUMPI PUSH1 0x0 DUP1 REVERT JUMPDEST DUP1 PUSH4 0x2F2FF15D EQ PUSH2 0x378 JUMPI DUP1 PUSH4 0x32102E3B EQ PUSH2 0x38B JUMPI PUSH1 0x0 DUP1 REVERT JUMPDEST DUP1 PUSH4 0x158EF93E GT PUSH2 0x2B1 JUMPI DUP1 PUSH4 0x158EF93E EQ PUSH2 0x325 JUMPI DUP1 PUSH4 0x248A9CA3 EQ PUSH2 0x332 JUMPI DUP1 PUSH4 0x2AC2A970 EQ PUSH2 0x363 JUMPI PUSH1 0x0 DUP1 REVERT JUMPDEST DUP1 PUSH4 0x1FFC9A7 EQ PUSH2 0x2CD JUMPI DUP1 PUSH4 0xC340A24 EQ PUSH2 0x2F5 JUMPI JUMPDEST PUSH1 0x0 DUP1 REVERT JUMPDEST PUSH2 0x2E0 PUSH2 0x2DB CALLDATASIZE PUSH1 0x4 PUSH2 0x21AF JUMP JUMPDEST PUSH2 0x6CB JUMP JUMPDEST PUSH1 0x40 MLOAD SWAP1 ISZERO ISZERO DUP2 MSTORE PUSH1 0x20 ADD JUMPDEST PUSH1 0x40 MLOAD DUP1 SWAP2 SUB SWAP1 RETURN JUMPDEST PUSH1 0xC SLOAD PUSH2 0x30D SWAP1 PUSH2 0x100 SWAP1 DIV PUSH1 0x1 PUSH1 0x1 PUSH1 0xA0 SHL SUB AND DUP2 JUMP JUMPDEST PUSH1 0x40 MLOAD PUSH1 0x1 PUSH1 0x1 PUSH1 0xA0 SHL SUB SWAP1 SWAP2 AND DUP2 MSTORE PUSH1 0x20 ADD PUSH2 0x2EC JUMP JUMPDEST PUSH1 0xC SLOAD PUSH2 0x2E0 SWAP1 PUSH1 0xFF AND DUP2 JUMP JUMPDEST PUSH2 0x355 PUSH2 0x340 CALLDATASIZE PUSH1 0x4 PUSH2 0x2173 JUMP JUMPDEST PUSH1 0x0 SWAP1 DUP2 MSTORE PUSH1 0x20 DUP2 SWAP1 MSTORE PUSH1 0x40 SWAP1 KECCAK256 PUSH1 0x1 ADD SLOAD SWAP1 JUMP JUMPDEST PUSH1 0x40 MLOAD SWAP1 DUP2 MSTORE PUSH1 0x20 ADD PUSH2 0x2EC JUMP JUMPDEST PUSH2 0x376 PUSH2 0x371 CALLDATASIZE PUSH1 0x4 PUSH2 0x2068 JUMP JUMPDEST PUSH2 0x764 JUMP JUMPDEST STOP JUMPDEST PUSH2 0x376 PUSH2 0x386 CALLDATASIZE PUSH1 0x4 PUSH2 0x218B JUMP JUMPDEST PUSH2 0x85B JUMP JUMPDEST PUSH2 0x376 PUSH2 0x399 CALLDATASIZE PUSH1 0x4 PUSH2 0x2128 JUMP JUMPDEST PUSH2 0x885 JUMP JUMPDEST PUSH2 0x30D PUSH2 0x3AC CALLDATASIZE PUSH1 0x4 PUSH2 0x2068 JUMP JUMPDEST PUSH1 0x6 PUSH1 0x20 MSTORE PUSH1 0x0 SWAP1 DUP2 MSTORE PUSH1 0x40 SWAP1 KECCAK256 SLOAD PUSH1 0x1 PUSH1 0x1 PUSH1 0xA0 SHL SUB AND DUP2 JUMP JUMPDEST PUSH2 0x376 PUSH2 0x3D5 CALLDATASIZE PUSH1 0x4 PUSH2 0x218B JUMP JUMPDEST PUSH2 0xA91 JUMP JUMPDEST PUSH2 0x355 PUSH2 0x3E8 CALLDATASIZE PUSH1 0x4 PUSH2 0x2068 JUMP JUMPDEST PUSH1 0x4 PUSH1 0x20 MSTORE PUSH1 0x0 SWAP1 DUP2 MSTORE PUSH1 0x40 SWAP1 KECCAK256 SLOAD DUP2 JUMP JUMPDEST PUSH2 0x355 PUSH2 0x408 CALLDATASIZE PUSH1 0x4 PUSH2 0x2068 JUMP JUMPDEST PUSH1 0x5 PUSH1 0x20 MSTORE PUSH1 0x0 SWAP1 DUP2 MSTORE PUSH1 0x40 SWAP1 KECCAK256 SLOAD DUP2 JUMP JUMPDEST PUSH2 0x376 PUSH2 0x428 CALLDATASIZE PUSH1 0x4 PUSH2 0x2173 JUMP JUMPDEST PUSH2 0xB1D JUMP JUMPDEST PUSH2 0x355 PUSH1 0xA SLOAD DUP2 JUMP JUMPDEST PUSH2 0x376 PUSH2 0x444 CALLDATASIZE PUSH1 0x4 PUSH2 0x2128 JUMP JUMPDEST PUSH2 0xBE7 JUMP JUMPDEST PUSH1 0x1 SLOAD PUSH2 0x30D SWAP1 PUSH1 0x1 PUSH1 0x1 PUSH1 0xA0 SHL SUB AND DUP2 JUMP JUMPDEST PUSH2 0x376 PUSH2 0x46A CALLDATASIZE PUSH1 0x4 PUSH2 0x20A0 JUMP JUMPDEST PUSH2 0xCE6 JUMP JUMPDEST PUSH2 0x376 PUSH2 0x47D CALLDATASIZE PUSH1 0x4 PUSH2 0x2068 JUMP JUMPDEST PUSH2 0xDA3 JUMP JUMPDEST PUSH2 0x376 PUSH2 0x490 CALLDATASIZE PUSH1 0x4 PUSH2 0x2068 JUMP JUMPDEST PUSH2 0xE95 JUMP JUMPDEST PUSH2 0x355 PUSH1 0xB SLOAD DUP2 JUMP JUMPDEST PUSH1 0x2 SLOAD PUSH2 0x30D SWAP1 PUSH1 0x1 PUSH1 0x1 PUSH1 0xA0 SHL SUB AND DUP2 JUMP JUMPDEST PUSH2 0x376 PUSH2 0x4BF CALLDATASIZE PUSH1 0x4 PUSH2 0x2128 JUMP JUMPDEST PUSH2 0xEC2 JUMP JUMPDEST PUSH2 0x504 PUSH2 0x4D2 CALLDATASIZE PUSH1 0x4 PUSH2 0x2068 JUMP JUMPDEST PUSH1 0x1 PUSH1 0x1 PUSH1 0xA0 SHL SUB AND PUSH1 0x0 SWAP1 DUP2 MSTORE PUSH1 0x3 PUSH1 0x20 SWAP1 DUP2 MSTORE PUSH1 0x40 DUP1 DUP4 KECCAK256 SLOAD PUSH1 0x4 DUP4 MSTORE DUP2 DUP5 KECCAK256 SLOAD PUSH1 0x5 SWAP1 SWAP4 MSTORE SWAP3 KECCAK256 SLOAD SWAP2 SWAP3 SWAP1 SWAP2 SWAP1 JUMP JUMPDEST PUSH1 0x40 DUP1 MLOAD SWAP4 DUP5 MSTORE PUSH1 0x20 DUP5 ADD SWAP3 SWAP1 SWAP3 MSTORE SWAP1 DUP3 ADD MSTORE PUSH1 0x60 ADD PUSH2 0x2EC JUMP JUMPDEST PUSH2 0x376 PUSH2 0x52D CALLDATASIZE PUSH1 0x4 PUSH2 0x2173 JUMP JUMPDEST PUSH2 0xFF0 JUMP JUMPDEST PUSH2 0x2E0 PUSH2 0x540 CALLDATASIZE PUSH1 0x4 PUSH2 0x218B JUMP JUMPDEST PUSH1 0x0 SWAP2 DUP3 MSTORE PUSH1 0x20 DUP3 DUP2 MSTORE PUSH1 0x40 DUP1 DUP5 KECCAK256 PUSH1 0x1 PUSH1 0x1 PUSH1 0xA0 SHL SUB SWAP4 SWAP1 SWAP4 AND DUP5 MSTORE SWAP2 SWAP1 MSTORE SWAP1 KECCAK256 SLOAD PUSH1 0xFF AND SWAP1 JUMP JUMPDEST PUSH2 0x2E0 PUSH2 0x577 CALLDATASIZE PUSH1 0x4 PUSH2 0x2068 JUMP JUMPDEST PUSH1 0x7 PUSH1 0x20 MSTORE PUSH1 0x0 SWAP1 DUP2 MSTORE PUSH1 0x40 SWAP1 KECCAK256 SLOAD PUSH1 0xFF AND DUP2 JUMP JUMPDEST PUSH2 0x355 PUSH1 0x0 DUP2 JUMP JUMPDEST PUSH2 0x355 PUSH2 0x5A2 CALLDATASIZE PUSH1 0x4 PUSH2 0x2068 JUMP JUMPDEST PUSH1 0x3 PUSH1 0x20 MSTORE PUSH1 0x0 SWAP1 DUP2 MSTORE PUSH1 0x40 SWAP1 KECCAK256 SLOAD DUP2 JUMP JUMPDEST PUSH2 0x355 PUSH1 0x9 SLOAD DUP2 JUMP JUMPDEST PUSH2 0x376 PUSH2 0x5CB CALLDATASIZE PUSH1 0x4 PUSH2 0x2173 JUMP JUMPDEST PUSH2 0xFFA JUMP JUMPDEST PUSH2 0x376 PUSH2 0x5DE CALLDATASIZE PUSH1 0x4 PUSH2 0x2068 JUMP JUMPDEST PUSH2 0x1140 JUMP JUMPDEST PUSH2 0x376 PUSH2 0x5F1 CALLDATASIZE PUSH1 0x4 PUSH2 0x2128 JUMP JUMPDEST PUSH2 0x124E JUMP JUMPDEST PUSH2 0x376 PUSH2 0x604 CALLDATASIZE PUSH1 0x4 PUSH2 0x2207 JUMP JUMPDEST PUSH2 0x1313 JUMP JUMPDEST PUSH2 0x376 PUSH2 0x617 CALLDATASIZE PUSH1 0x4 PUSH2 0x218B JUMP JUMPDEST PUSH2 0x13E9 JUMP JUMPDEST PUSH2 0x376 PUSH2 0x62A CALLDATASIZE PUSH1 0x4 PUSH2 0x2068 JUMP JUMPDEST PUSH2 0x140E JUMP JUMPDEST PUSH2 0x376 PUSH2 0x63D CALLDATASIZE PUSH1 0x4 PUSH2 0x20A0 JUMP JUMPDEST PUSH2 0x1438 JUMP JUMPDEST PUSH2 0x655 PUSH2 0x650 CALLDATASIZE PUSH1 0x4 PUSH2 0x2068 JUMP JUMPDEST PUSH2 0x152B JUMP JUMPDEST PUSH1 0x40 DUP1 MLOAD SWAP5 DUP6 MSTORE PUSH1 0x20 DUP6 ADD SWAP4 SWAP1 SWAP4 MSTORE SWAP2 DUP4 ADD MSTORE PUSH1 0x60 DUP3 ADD MSTORE PUSH1 0x80 ADD PUSH2 0x2EC JUMP JUMPDEST PUSH2 0x355 PUSH1 0x8 SLOAD DUP2 JUMP JUMPDEST PUSH2 0x376 PUSH2 0x68C CALLDATASIZE PUSH1 0x4 PUSH2 0x2068 JUMP JUMPDEST PUSH2 0x17C7 JUMP JUMPDEST PUSH2 0x355 PUSH32 0x339759585899103D2ACE64958E37E18CCB0504652C81D4A1B8AA80FE2126AB95 DUP2 JUMP JUMPDEST PUSH2 0x376 PUSH2 0x6C6 CALLDATASIZE PUSH1 0x4 PUSH2 0x20D8 JUMP JUMPDEST PUSH2 0x17DD JUMP JUMPDEST PUSH1 0x0 PUSH32 0xFFFFFFFF00000000000000000000000000000000000000000000000000000000 DUP3 AND PUSH32 0x7965DB0B00000000000000000000000000000000000000000000000000000000 EQ DUP1 PUSH2 0x75E JUMPI POP PUSH32 0x1FFC9A700000000000000000000000000000000000000000000000000000000 PUSH32 0xFFFFFFFF00000000000000000000000000000000000000000000000000000000 DUP4 AND EQ JUMPDEST SWAP3 SWAP2 POP POP JUMP JUMPDEST CALLER PUSH1 0x0 SWAP1 DUP2 MSTORE PUSH32 0xA54247010AF6B3693B80ACEDDFAD12E077C5DE3571E6243FADA502635F0D7D39 PUSH1 0x20 MSTORE PUSH1 0x40 SWAP1 KECCAK256 SLOAD PUSH1 0xFF AND PUSH2 0x7F8 JUMPI PUSH1 0x40 MLOAD PUSH3 0x461BCD PUSH1 0xE5 SHL DUP2 MSTORE PUSH1 0x20 PUSH1 0x4 DUP3 ADD MSTORE PUSH1 0x28 PUSH1 0x24 DUP3 ADD MSTORE PUSH32 0x4D61696E7461696E61626C653A2043616C6C6572206973206E6F742061206D61 PUSH1 0x44 DUP3 ADD MSTORE PUSH8 0x34B73A30B4B732B9 PUSH1 0xC1 SHL PUSH1 0x64 DUP3 ADD MSTORE PUSH1 0x84 ADD JUMPDEST PUSH1 0x40 MLOAD DUP1 SWAP2 SUB SWAP1 REVERT JUMPDEST PUSH1 0x40 MLOAD PUSH1 0x1 PUSH1 0x1 PUSH1 0xA0 SHL SUB DUP3 AND SWAP1 PUSH32 0xE0FF266AEA69CA6AC29B06F8A5AFE5E2CF6F7F5602780CAB900CE4976FEA26EF SWAP1 PUSH1 0x0 SWAP1 LOG2 PUSH1 0x2 DUP1 SLOAD PUSH20 0xFFFFFFFFFFFFFFFFFFFFFFFFFFFFFFFFFFFFFFFF NOT AND PUSH1 0x1 PUSH1 0x1 PUSH1 0xA0 SHL SUB SWAP3 SWAP1 SWAP3 AND SWAP2 SWAP1 SWAP2 OR SWAP1 SSTORE JUMP JUMPDEST PUSH1 0x0 DUP3 DUP2 MSTORE PUSH1 0x20 DUP2 SWAP1 MSTORE PUSH1 0x40 SWAP1 KECCAK256 PUSH1 0x1 ADD SLOAD PUSH2 0x876 DUP2 PUSH2 0x1ACC JUMP JUMPDEST PUSH2 0x880 DUP4 DUP4 PUSH2 0x1AD6 JUMP JUMPDEST POP POP POP JUMP JUMPDEST PUSH1 0x1 SLOAD PUSH1 0x1 PUSH1 0x1 PUSH1 0xA0 SHL SUB AND CALLER EQ PUSH2 0x8B0 JUMPI PUSH1 0x40 MLOAD PUSH4 0x39218F3B PUSH1 0xE0 SHL DUP2 MSTORE PUSH1 0x4 ADD PUSH1 0x40 MLOAD DUP1 SWAP2 SUB SWAP1 REVERT JUMPDEST PUSH1 0x8 SLOAD ISZERO PUSH2 0x8E2 JUMPI PUSH2 0x2710 PUSH1 0x8 SLOAD PUSH2 0x2710 PUSH2 0x8CB SWAP2 SWAP1 PUSH2 0x22F8 JUMP JUMPDEST PUSH2 0x8D5 SWAP1 DUP4 PUSH2 0x2330 JUMP JUMPDEST PUSH2 0x8DF SWAP2 SWAP1 PUSH2 0x2310 JUMP JUMPDEST SWAP1 POP JUMPDEST PUSH1 0x1 PUSH1 0x1 PUSH1 0xA0 SHL SUB DUP3 AND PUSH1 0x0 SWAP1 DUP2 MSTORE PUSH1 0x3 PUSH1 0x20 MSTORE PUSH1 0x40 DUP2 KECCAK256 DUP1 SLOAD DUP4 SWAP3 SWAP1 PUSH2 0x90A SWAP1 DUP5 SWAP1 PUSH2 0x22F8 JUMP JUMPDEST SWAP1 SWAP2 SSTORE POP POP PUSH1 0x40 MLOAD DUP2 DUP2 MSTORE PUSH1 0x1 PUSH1 0x1 PUSH1 0xA0 SHL SUB DUP4 AND SWAP1 PUSH32 0x9E3FF39047273FB41D7421DA5F859BFD25936B83ADA49DFC79EE480223C33C94 SWAP1 PUSH1 0x20 ADD PUSH1 0x40 MLOAD DUP1 SWAP2 SUB SWAP1 LOG2 PUSH1 0x2 SLOAD PUSH1 0x0 SWAP1 PUSH1 0x1 PUSH1 0x1 PUSH1 0xA0 SHL SUB AND ISZERO PUSH2 0x9FC JUMPI PUSH1 0x2 SLOAD PUSH1 0x40 MLOAD PUSH32 0x4A9FEFC700000000000000000000000000000000000000000000000000000000 DUP2 MSTORE PUSH1 0x1 PUSH1 0x1 PUSH1 0xA0 SHL SUB DUP6 DUP2 AND PUSH1 0x4 DUP4 ADD MSTORE SWAP1 SWAP2 AND SWAP1 PUSH4 0x4A9FEFC7 SWAP1 PUSH1 0x24 ADD PUSH1 0x20 PUSH1 0x40 MLOAD DUP1 DUP4 SUB DUP2 DUP7 DUP1 EXTCODESIZE ISZERO DUP1 ISZERO PUSH2 0x9BF JUMPI PUSH1 0x0 DUP1 REVERT JUMPDEST POP GAS STATICCALL ISZERO DUP1 ISZERO PUSH2 0x9D3 JUMPI RETURNDATASIZE PUSH1 0x0 DUP1 RETURNDATACOPY RETURNDATASIZE PUSH1 0x0 REVERT JUMPDEST POP POP POP POP PUSH1 0x40 MLOAD RETURNDATASIZE PUSH1 0x1F NOT PUSH1 0x1F DUP3 ADD AND DUP3 ADD DUP1 PUSH1 0x40 MSTORE POP DUP2 ADD SWAP1 PUSH2 0x9F7 SWAP2 SWAP1 PUSH2 0x2084 JUMP JUMPDEST PUSH2 0x9FF JUMP JUMPDEST PUSH1 0x0 JUMPDEST SWAP1 POP PUSH1 0x1 PUSH1 0x1 PUSH1 0xA0 SHL SUB DUP2 AND ISZERO PUSH2 0x880 JUMPI PUSH1 0x1 PUSH1 0x1 PUSH1 0xA0 SHL SUB DUP2 AND PUSH1 0x0 SWAP1 DUP2 MSTORE PUSH1 0x4 PUSH1 0x20 MSTORE PUSH1 0x40 DUP2 KECCAK256 DUP1 SLOAD DUP5 SWAP3 SWAP1 PUSH2 0xA38 SWAP1 DUP5 SWAP1 PUSH2 0x22F8 JUMP JUMPDEST SWAP3 POP POP DUP2 SWAP1 SSTORE POP DUP3 PUSH1 0x1 PUSH1 0x1 PUSH1 0xA0 SHL SUB AND DUP2 PUSH1 0x1 PUSH1 0x1 PUSH1 0xA0 SHL SUB AND PUSH32 0xB0184EB773C1FAAADAE6838251B58B00236FF85B732B1F260B7D1CEB24B6D1FB DUP5 PUSH1 0x40 MLOAD PUSH2 0xA84 SWAP2 DUP2 MSTORE PUSH1 0x20 ADD SWAP1 JUMP JUMPDEST PUSH1 0x40 MLOAD DUP1 SWAP2 SUB SWAP1 LOG3 POP POP POP JUMP JUMPDEST PUSH1 0x1 PUSH1 0x1 PUSH1 0xA0 SHL SUB DUP2 AND CALLER EQ PUSH2 0xB0F JUMPI PUSH1 0x40 MLOAD PUSH3 0x461BCD PUSH1 0xE5 SHL DUP2 MSTORE PUSH1 0x20 PUSH1 0x4 DUP3 ADD MSTORE PUSH1 0x2F PUSH1 0x24 DUP3 ADD MSTORE PUSH32 0x416363657373436F6E74726F6C3A2063616E206F6E6C792072656E6F756E6365 PUSH1 0x44 DUP3 ADD MSTORE PUSH32 0x20726F6C657320666F722073656C660000000000000000000000000000000000 PUSH1 0x64 DUP3 ADD MSTORE PUSH1 0x84 ADD PUSH2 0x7EF JUMP JUMPDEST PUSH2 0xB19 DUP3 DUP3 PUSH2 0x1B74 JUMP JUMPDEST POP POP JUMP JUMPDEST CALLER PUSH1 0x0 SWAP1 DUP2 MSTORE PUSH32 0xA54247010AF6B3693B80ACEDDFAD12E077C5DE3571E6243FADA502635F0D7D39 PUSH1 0x20 MSTORE PUSH1 0x40 SWAP1 KECCAK256 SLOAD PUSH1 0xFF AND PUSH2 0xBAC JUMPI PUSH1 0x40 MLOAD PUSH3 0x461BCD PUSH1 0xE5 SHL DUP2 MSTORE PUSH1 0x20 PUSH1 0x4 DUP3 ADD MSTORE PUSH1 0x28 PUSH1 0x24 DUP3 ADD MSTORE PUSH32 0x4D61696E7461696E61626C653A2043616C6C6572206973206E6F742061206D61 PUSH1 0x44 DUP3 ADD MSTORE PUSH8 0x34B73A30B4B732B9 PUSH1 0xC1 SHL PUSH1 0x64 DUP3 ADD MSTORE PUSH1 0x84 ADD PUSH2 0x7EF JUMP JUMPDEST PUSH1 0x8 DUP2 SWAP1 SSTORE PUSH1 0x40 MLOAD DUP2 DUP2 MSTORE PUSH32 0xF7B7E923495B6ECE8DC4BD3D442A1C5DED8FE24D4A269DAEE2C29F90CF7A5E7A SWAP1 PUSH1 0x20 ADD PUSH1 0x40 MLOAD DUP1 SWAP2 SUB SWAP1 LOG1 POP JUMP JUMPDEST CALLER PUSH1 0x0 SWAP1 DUP2 MSTORE PUSH32 0xA54247010AF6B3693B80ACEDDFAD12E077C5DE3571E6243FADA502635F0D7D39 PUSH1 0x20 MSTORE PUSH1 0x40 SWAP1 KECCAK256 SLOAD PUSH1 0xFF AND PUSH2 0xC76 JUMPI PUSH1 0x40 MLOAD PUSH3 0x461BCD PUSH1 0xE5 SHL DUP2 MSTORE PUSH1 0x20 PUSH1 0x4 DUP3 ADD MSTORE PUSH1 0x28 PUSH1 0x24 DUP3 ADD MSTORE PUSH32 0x4D61696E7461696E61626C653A2043616C6C6572206973206E6F742061206D61 PUSH1 0x44 DUP3 ADD MSTORE PUSH8 0x34B73A30B4B732B9 PUSH1 0xC1 SHL PUSH1 0x64 DUP3 ADD MSTORE PUSH1 0x84 ADD PUSH2 0x7EF JUMP JUMPDEST PUSH1 0x1 PUSH1 0x1 PUSH1 0xA0 SHL SUB DUP3 AND PUSH1 0x0 SWAP1 DUP2 MSTORE PUSH1 0x3 PUSH1 0x20 MSTORE PUSH1 0x40 DUP2 KECCAK256 DUP1 SLOAD DUP4 SWAP3 SWAP1 PUSH2 0xC9E SWAP1 DUP5 SWAP1 PUSH2 0x22F8 JUMP JUMPDEST SWAP1 SWAP2 SSTORE POP POP PUSH1 0x40 MLOAD DUP2 DUP2 MSTORE PUSH1 0x1 PUSH1 0x1 PUSH1 0xA0 SHL SUB DUP4 AND SWAP1 PUSH32 0x60C27F1CBC5CBD73079C1A0FE8A4087F203C756BEE40B2C102F69D862FA65212 SWAP1 PUSH1 0x20 ADD JUMPDEST PUSH1 0x40 MLOAD DUP1 SWAP2 SUB SWAP1 LOG2 POP POP JUMP JUMPDEST PUSH1 0x1 PUSH1 0x1 PUSH1 0xA0 SHL SUB DUP3 AND CALLER EQ DUP1 ISZERO SWAP1 PUSH2 0xD19 JUMPI POP PUSH1 0x1 PUSH1 0x1 PUSH1 0xA0 SHL SUB DUP3 DUP2 AND PUSH1 0x0 SWAP1 DUP2 MSTORE PUSH1 0x6 PUSH1 0x20 MSTORE PUSH1 0x40 SWAP1 KECCAK256 SLOAD AND CALLER EQ ISZERO JUMPDEST ISZERO PUSH2 0xD37 JUMPI PUSH1 0x40 MLOAD PUSH4 0x39218F3B PUSH1 0xE0 SHL DUP2 MSTORE PUSH1 0x4 ADD PUSH1 0x40 MLOAD DUP1 SWAP2 SUB SWAP1 REVERT JUMPDEST CALLER PUSH1 0x0 DUP2 DUP2 MSTORE PUSH1 0x6 PUSH1 0x20 MSTORE PUSH1 0x40 DUP1 DUP3 KECCAK256 DUP1 SLOAD PUSH20 0xFFFFFFFFFFFFFFFFFFFFFFFFFFFFFFFFFFFFFFFF NOT AND PUSH1 0x1 PUSH1 0x1 PUSH1 0xA0 SHL SUB DUP7 DUP2 AND SWAP2 DUP3 OR SWAP1 SWAP3 SSTORE SWAP2 MLOAD SWAP2 SWAP4 SWAP1 DUP7 AND SWAP3 SWAP1 SWAP2 PUSH32 0x36B9B6F9E2111AEAD3E8603D4F515F1CC100FC80CDE6A3E29F23BF4F9F5E591D SWAP2 SWAP1 LOG4 POP POP JUMP JUMPDEST CALLER PUSH1 0x0 SWAP1 DUP2 MSTORE PUSH32 0xA54247010AF6B3693B80ACEDDFAD12E077C5DE3571E6243FADA502635F0D7D39 PUSH1 0x20 MSTORE PUSH1 0x40 SWAP1 KECCAK256 SLOAD PUSH1 0xFF AND PUSH2 0xE32 JUMPI PUSH1 0x40 MLOAD PUSH3 0x461BCD PUSH1 0xE5 SHL DUP2 MSTORE PUSH1 0x20 PUSH1 0x4 DUP3 ADD MSTORE PUSH1 0x28 PUSH1 0x24 DUP3 ADD MSTORE PUSH32 0x4D61696E7461696E61626C653A2043616C6C6572206973206E6F742061206D61 PUSH1 0x44 DUP3 ADD MSTORE PUSH8 0x34B73A30B4B732B9 PUSH1 0xC1 SHL PUSH1 0x64 DUP3 ADD MSTORE PUSH1 0x84 ADD PUSH2 0x7EF JUMP JUMPDEST PUSH1 0x40 MLOAD PUSH1 0x1 PUSH1 0x1 PUSH1 0xA0 SHL SUB DUP3 AND SWAP1 PUSH32 0x5C3C642A912516F738E0B09CF8144CCD5A4D6A90CC1F7691AD0E8746E62B2741 SWAP1 PUSH1 0x0 SWAP1 LOG2 PUSH1 0x1 DUP1 SLOAD PUSH20 0xFFFFFFFFFFFFFFFFFFFFFFFFFFFFFFFFFFFFFFFF NOT AND PUSH1 0x1 PUSH1 0x1 PUSH1 0xA0 SHL SUB SWAP3 SWAP1 SWAP3 AND SWAP2 SWAP1 SWAP2 OR SWAP1 SSTORE JUMP JUMPDEST PUSH2 0xEBF PUSH32 0x339759585899103D2ACE64958E37E18CCB0504652C81D4A1B8AA80FE2126AB95 DUP3 PUSH2 0x85B JUMP JUMPDEST POP JUMP JUMPDEST CALLER PUSH1 0x0 SWAP1 DUP2 MSTORE PUSH32 0xA54247010AF6B3693B80ACEDDFAD12E077C5DE3571E6243FADA502635F0D7D39 PUSH1 0x20 MSTORE PUSH1 0x40 SWAP1 KECCAK256 SLOAD PUSH1 0xFF AND PUSH2 0xF51 JUMPI PUSH1 0x40 MLOAD PUSH3 0x461BCD PUSH1 0xE5 SHL DUP2 MSTORE PUSH1 0x20 PUSH1 0x4 DUP3 ADD MSTORE PUSH1 0x28 PUSH1 0x24 DUP3 ADD MSTORE PUSH32 0x4D61696E7461696E61626C653A2043616C6C6572206973206E6F742061206D61 PUSH1 0x44 DUP3 ADD MSTORE PUSH8 0x34B73A30B4B732B9 PUSH1 0xC1 SHL PUSH1 0x64 DUP3 ADD MSTORE PUSH1 0x84 ADD PUSH2 0x7EF JUMP JUMPDEST PUSH1 0x0 DUP2 GT PUSH2 0xFA1 JUMPI PUSH1 0x40 MLOAD PUSH3 0x461BCD PUSH1 0xE5 SHL DUP2 MSTORE PUSH1 0x20 PUSH1 0x4 DUP3 ADD MSTORE PUSH1 0x12 PUSH1 0x24 DUP3 ADD MSTORE PUSH32 0x4E6F7468696E6720746F207265636F7665720000000000000000000000000000 PUSH1 0x44 DUP3 ADD MSTORE PUSH1 0x64 ADD PUSH2 0x7EF JUMP JUMPDEST PUSH2 0xFB5 PUSH1 0x1 PUSH1 0x1 PUSH1 0xA0 SHL SUB DUP4 AND CALLER DUP4 PUSH2 0x1BF3 JUMP JUMPDEST DUP2 PUSH1 0x1 PUSH1 0x1 PUSH1 0xA0 SHL SUB AND PUSH32 0x8C1256B8896378CD5044F80C202F9772B9D77DC85C8A6EB51967210B09BFAA28 DUP3 PUSH1 0x40 MLOAD PUSH2 0xCDA SWAP2 DUP2 MSTORE PUSH1 0x20 ADD SWAP1 JUMP JUMPDEST PUSH2 0xEBF DUP2 CALLER PUSH2 0xA91 JUMP JUMPDEST CALLER PUSH1 0x0 SWAP1 DUP2 MSTORE PUSH32 0xA54247010AF6B3693B80ACEDDFAD12E077C5DE3571E6243FADA502635F0D7D39 PUSH1 0x20 MSTORE PUSH1 0x40 SWAP1 KECCAK256 SLOAD PUSH1 0xFF AND PUSH2 0x1089 JUMPI PUSH1 0x40 MLOAD PUSH3 0x461BCD PUSH1 0xE5 SHL DUP2 MSTORE PUSH1 0x20 PUSH1 0x4 DUP3 ADD MSTORE PUSH1 0x28 PUSH1 0x24 DUP3 ADD MSTORE PUSH32 0x4D61696E7461696E61626C653A2043616C6C6572206973206E6F742061206D61 PUSH1 0x44 DUP3 ADD MSTORE PUSH8 0x34B73A30B4B732B9 PUSH1 0xC1 SHL PUSH1 0x64 DUP3 ADD MSTORE PUSH1 0x84 ADD PUSH2 0x7EF JUMP JUMPDEST PUSH1 0x0 DUP2 GT PUSH2 0x10D9 JUMPI PUSH1 0x40 MLOAD PUSH3 0x461BCD PUSH1 0xE5 SHL DUP2 MSTORE PUSH1 0x20 PUSH1 0x4 DUP3 ADD MSTORE PUSH1 0x12 PUSH1 0x24 DUP3 ADD MSTORE PUSH32 0x4E6F7468696E6720746F207265636F7665720000000000000000000000000000 PUSH1 0x44 DUP3 ADD MSTORE PUSH1 0x64 ADD PUSH2 0x7EF JUMP JUMPDEST PUSH1 0x40 MLOAD CALLER SWAP1 DUP3 ISZERO PUSH2 0x8FC MUL SWAP1 DUP4 SWAP1 PUSH1 0x0 DUP2 DUP2 DUP2 DUP6 DUP9 DUP9 CALL SWAP4 POP POP POP POP ISZERO DUP1 ISZERO PUSH2 0x1106 JUMPI RETURNDATASIZE PUSH1 0x0 DUP1 RETURNDATACOPY RETURNDATASIZE PUSH1 0x0 REVERT JUMPDEST POP PUSH1 0x40 MLOAD DUP2 DUP2 MSTORE PUSH1 0x0 SWAP1 PUSH32 0x8C1256B8896378CD5044F80C202F9772B9D77DC85C8A6EB51967210B09BFAA28 SWAP1 PUSH1 0x20 ADD PUSH1 0x40 MLOAD DUP1 SWAP2 SUB SWAP1 LOG2 POP JUMP JUMPDEST CALLER PUSH1 0x0 SWAP1 DUP2 MSTORE PUSH32 0xA54247010AF6B3693B80ACEDDFAD12E077C5DE3571E6243FADA502635F0D7D39 PUSH1 0x20 MSTORE PUSH1 0x40 SWAP1 KECCAK256 SLOAD PUSH1 0xFF AND PUSH2 0x11CF JUMPI PUSH1 0x40 MLOAD PUSH3 0x461BCD PUSH1 0xE5 SHL DUP2 MSTORE PUSH1 0x20 PUSH1 0x4 DUP3 ADD MSTORE PUSH1 0x28 PUSH1 0x24 DUP3 ADD MSTORE PUSH32 0x4D61696E7461696E61626C653A2043616C6C6572206973206E6F742061206D61 PUSH1 0x44 DUP3 ADD MSTORE PUSH8 0x34B73A30B4B732B9 PUSH1 0xC1 SHL PUSH1 0x64 DUP3 ADD MSTORE PUSH1 0x84 ADD PUSH2 0x7EF JUMP JUMPDEST PUSH1 0xC SLOAD PUSH1 0xFF AND ISZERO PUSH2 0x120C JUMPI PUSH1 0x40 MLOAD PUSH32 0xDC149F000000000000000000000000000000000000000000000000000000000 DUP2 MSTORE PUSH1 0x4 ADD PUSH1 0x40 MLOAD DUP1 SWAP2 SUB SWAP1 REVERT JUMPDEST PUSH1 0xC DUP1 SLOAD PUSH1 0x1 PUSH1 0x1 PUSH1 0xA0 SHL SUB SWAP1 SWAP3 AND PUSH2 0x100 MUL PUSH32 0xFFFFFFFFFFFFFFFFFFFFFF000000000000000000000000000000000000000000 SWAP1 SWAP3 AND SWAP2 SWAP1 SWAP2 OR PUSH1 0x1 OR SWAP1 SSTORE JUMP JUMPDEST PUSH1 0x1 SLOAD PUSH1 0x1 PUSH1 0x1 PUSH1 0xA0 SHL SUB AND CALLER EQ PUSH2 0x1279 JUMPI PUSH1 0x40 MLOAD PUSH4 0x39218F3B PUSH1 0xE0 SHL DUP2 MSTORE PUSH1 0x4 ADD PUSH1 0x40 MLOAD DUP1 SWAP2 SUB SWAP1 REVERT JUMPDEST PUSH1 0x8 SLOAD ISZERO PUSH2 0x12AB JUMPI PUSH2 0x2710 PUSH1 0x8 SLOAD PUSH2 0x2710 PUSH2 0x1294 SWAP2 SWAP1 PUSH2 0x22F8 JUMP JUMPDEST PUSH2 0x129E SWAP1 DUP4 PUSH2 0x2330 JUMP JUMPDEST PUSH2 0x12A8 SWAP2 SWAP1 PUSH2 0x2310 JUMP JUMPDEST SWAP1 POP JUMPDEST PUSH1 0x1 PUSH1 0x1 PUSH1 0xA0 SHL SUB DUP3 AND PUSH1 0x0 SWAP1 DUP2 MSTORE PUSH1 0x5 PUSH1 0x20 MSTORE PUSH1 0x40 DUP2 KECCAK256 DUP1 SLOAD DUP4 SWAP3 SWAP1 PUSH2 0x12D3 SWAP1 DUP5 SWAP1 PUSH2 0x22F8 JUMP JUMPDEST SWAP1 SWAP2 SSTORE POP POP PUSH1 0x40 MLOAD DUP2 DUP2 MSTORE PUSH1 0x1 PUSH1 0x1 PUSH1 0xA0 SHL SUB DUP4 AND SWAP1 PUSH32 0x674ED10F224EC7901B3E32F9D5306F48AA17DB08D0E7303BEC73E995332DE61 SWAP1 PUSH1 0x20 ADD PUSH2 0xCDA JUMP JUMPDEST CALLER PUSH1 0x0 SWAP1 DUP2 MSTORE PUSH32 0xA54247010AF6B3693B80ACEDDFAD12E077C5DE3571E6243FADA502635F0D7D39 PUSH1 0x20 MSTORE PUSH1 0x40 SWAP1 KECCAK256 SLOAD PUSH1 0xFF AND PUSH2 0x13A2 JUMPI PUSH1 0x40 MLOAD PUSH3 0x461BCD PUSH1 0xE5 SHL DUP2 MSTORE PUSH1 0x20 PUSH1 0x4 DUP3 ADD MSTORE PUSH1 0x28 PUSH1 0x24 DUP3 ADD MSTORE PUSH32 0x4D61696E7461696E61626C653A2043616C6C6572206973206E6F742061206D61 PUSH1 0x44 DUP3 ADD MSTORE PUSH8 0x34B73A30B4B732B9 PUSH1 0xC1 SHL PUSH1 0x64 DUP3 ADD MSTORE PUSH1 0x84 ADD PUSH2 0x7EF JUMP JUMPDEST PUSH1 0xA DUP3 SWAP1 SSTORE PUSH1 0xB DUP2 SWAP1 SSTORE PUSH1 0x40 DUP1 MLOAD DUP4 DUP2 MSTORE PUSH1 0x20 DUP2 ADD DUP4 SWAP1 MSTORE PUSH32 0x338CBEC3220461A21F7CBDF3498F03C5B0DC3CE6F2A85E538E32779DADEED0CA SWAP2 ADD PUSH1 0x40 MLOAD DUP1 SWAP2 SUB SWAP1 LOG1 POP POP JUMP JUMPDEST PUSH1 0x0 DUP3 DUP2 MSTORE PUSH1 0x20 DUP2 SWAP1 MSTORE PUSH1 0x40 SWAP1 KECCAK256 PUSH1 0x1 ADD SLOAD PUSH2 0x1404 DUP2 PUSH2 0x1ACC JUMP JUMPDEST PUSH2 0x880 DUP4 DUP4 PUSH2 0x1B74 JUMP JUMPDEST PUSH2 0xEBF PUSH32 0x339759585899103D2ACE64958E37E18CCB0504652C81D4A1B8AA80FE2126AB95 DUP3 PUSH2 0x13E9 JUMP JUMPDEST CALLER PUSH1 0x0 SWAP1 DUP2 MSTORE PUSH32 0xA54247010AF6B3693B80ACEDDFAD12E077C5DE3571E6243FADA502635F0D7D39 PUSH1 0x20 MSTORE PUSH1 0x40 SWAP1 KECCAK256 SLOAD PUSH1 0xFF AND PUSH2 0x14C7 JUMPI PUSH1 0x40 MLOAD PUSH3 0x461BCD PUSH1 0xE5 SHL DUP2 MSTORE PUSH1 0x20 PUSH1 0x4 DUP3 ADD MSTORE PUSH1 0x28 PUSH1 0x24 DUP3 ADD MSTORE PUSH32 0x4D61696E7461696E61626C653A2043616C6C6572206973206E6F742061206D61 PUSH1 0x44 DUP3 ADD MSTORE PUSH8 0x34B73A30B4B732B9 PUSH1 0xC1 SHL PUSH1 0x64 DUP3 ADD MSTORE PUSH1 0x84 ADD PUSH2 0x7EF JUMP JUMPDEST PUSH1 0x1 PUSH1 0x1 PUSH1 0xA0 SHL SUB DUP3 DUP2 AND PUSH1 0x0 DUP2 DUP2 MSTORE PUSH1 0x6 PUSH1 0x20 MSTORE PUSH1 0x40 DUP1 DUP3 KECCAK256 DUP1 SLOAD PUSH20 0xFFFFFFFFFFFFFFFFFFFFFFFFFFFFFFFFFFFFFFFF NOT AND SWAP5 DUP7 AND SWAP5 DUP6 OR SWAP1 SSTORE MLOAD PUSH32 0x5FB34AB838E48E94AB941A98BC5FBE3FCD314EE6F6137FABAC7E2210C9276150 SWAP2 SWAP1 LOG3 POP POP JUMP JUMPDEST PUSH1 0x1 PUSH1 0x1 PUSH1 0xA0 SHL SUB DUP2 AND PUSH1 0x0 SWAP1 DUP2 MSTORE PUSH1 0x7 PUSH1 0x20 MSTORE PUSH1 0x40 DUP2 KECCAK256 SLOAD DUP2 SWAP1 DUP2 SWAP1 DUP2 SWAP1 PUSH1 0xFF AND ISZERO PUSH2 0x1563 JUMPI POP PUSH1 0x0 SWAP3 POP DUP3 SWAP2 POP DUP2 SWAP1 POP DUP1 PUSH2 0x17C0 JUMP JUMPDEST PUSH1 0x2 SLOAD PUSH1 0x0 SWAP1 PUSH1 0x1 PUSH1 0x1 PUSH1 0xA0 SHL SUB AND ISZERO PUSH2 0x1612 JUMPI PUSH1 0x2 SLOAD PUSH1 0x40 MLOAD PUSH32 0x73930F0400000000000000000000000000000000000000000000000000000000 DUP2 MSTORE PUSH1 0x1 PUSH1 0x1 PUSH1 0xA0 SHL SUB DUP9 DUP2 AND PUSH1 0x4 DUP4 ADD MSTORE SWAP1 SWAP2 AND SWAP1 PUSH4 0x73930F04 SWAP1 PUSH1 0x24 ADD PUSH1 0x20 PUSH1 0x40 MLOAD DUP1 DUP4 SUB DUP2 DUP7 DUP1 EXTCODESIZE ISZERO DUP1 ISZERO PUSH2 0x15D5 JUMPI PUSH1 0x0 DUP1 REVERT JUMPDEST POP GAS STATICCALL ISZERO DUP1 ISZERO PUSH2 0x15E9 JUMPI RETURNDATASIZE PUSH1 0x0 DUP1 RETURNDATACOPY RETURNDATASIZE PUSH1 0x0 REVERT JUMPDEST POP POP POP POP PUSH1 0x40 MLOAD RETURNDATASIZE PUSH1 0x1F NOT PUSH1 0x1F DUP3 ADD AND DUP3 ADD DUP1 PUSH1 0x40 MSTORE POP DUP2 ADD SWAP1 PUSH2 0x160D SWAP2 SWAP1 PUSH2 0x21EF JUMP JUMPDEST PUSH2 0x1616 JUMP JUMPDEST PUSH2 0x2710 JUMPDEST PUSH1 0x2 SLOAD SWAP1 SWAP2 POP PUSH1 0x0 SWAP1 PUSH1 0x1 PUSH1 0x1 PUSH1 0xA0 SHL SUB AND ISZERO PUSH2 0x16C8 JUMPI PUSH1 0x2 SLOAD PUSH1 0x40 MLOAD PUSH32 0x3C9C391400000000000000000000000000000000000000000000000000000000 DUP2 MSTORE PUSH1 0x1 PUSH1 0x1 PUSH1 0xA0 SHL SUB DUP10 DUP2 AND PUSH1 0x4 DUP4 ADD MSTORE SWAP1 SWAP2 AND SWAP1 PUSH4 0x3C9C3914 SWAP1 PUSH1 0x24 ADD PUSH1 0x20 PUSH1 0x40 MLOAD DUP1 DUP4 SUB DUP2 DUP7 DUP1 EXTCODESIZE ISZERO DUP1 ISZERO PUSH2 0x168B JUMPI PUSH1 0x0 DUP1 REVERT JUMPDEST POP GAS STATICCALL ISZERO DUP1 ISZERO PUSH2 0x169F JUMPI RETURNDATASIZE PUSH1 0x0 DUP1 RETURNDATACOPY RETURNDATASIZE PUSH1 0x0 REVERT JUMPDEST POP POP POP POP PUSH1 0x40 MLOAD RETURNDATASIZE PUSH1 0x1F NOT PUSH1 0x1F DUP3 ADD AND DUP3 ADD DUP1 PUSH1 0x40 MSTORE POP DUP2 ADD SWAP1 PUSH2 0x16C3 SWAP2 SWAP1 PUSH2 0x21EF JUMP JUMPDEST PUSH2 0x16CB JUMP JUMPDEST PUSH1 0x0 JUMPDEST PUSH1 0x9 SLOAD PUSH1 0x1 PUSH1 0x1 PUSH1 0xA0 SHL SUB DUP10 AND PUSH1 0x0 SWAP1 DUP2 MSTORE PUSH1 0x3 PUSH1 0x20 MSTORE PUSH1 0x40 SWAP1 KECCAK256 SLOAD SWAP2 SWAP3 POP PUSH4 0x5F5E100 SWAP2 PUSH2 0x16FB SWAP1 DUP6 SWAP1 PUSH2 0x2330 JUMP JUMPDEST PUSH2 0x1705 SWAP2 SWAP1 PUSH2 0x2330 JUMP JUMPDEST PUSH2 0x170F SWAP2 SWAP1 PUSH2 0x2310 JUMP JUMPDEST SWAP6 POP PUSH4 0x5F5E100 PUSH1 0x9 SLOAD DUP3 PUSH1 0xA SLOAD PUSH2 0x1727 SWAP2 SWAP1 PUSH2 0x22F8 JUMP JUMPDEST PUSH1 0x1 PUSH1 0x1 PUSH1 0xA0 SHL SUB DUP11 AND PUSH1 0x0 SWAP1 DUP2 MSTORE PUSH1 0x4 PUSH1 0x20 MSTORE PUSH1 0x40 SWAP1 KECCAK256 SLOAD PUSH2 0x174A SWAP2 SWAP1 PUSH2 0x2330 JUMP JUMPDEST PUSH2 0x1754 SWAP2 SWAP1 PUSH2 0x2330 JUMP JUMPDEST PUSH2 0x175E SWAP2 SWAP1 PUSH2 0x2310 JUMP JUMPDEST PUSH1 0x9 SLOAD PUSH1 0xB SLOAD PUSH1 0x1 PUSH1 0x1 PUSH1 0xA0 SHL SUB DUP11 AND PUSH1 0x0 SWAP1 DUP2 MSTORE PUSH1 0x5 PUSH1 0x20 MSTORE PUSH1 0x40 SWAP1 KECCAK256 SLOAD SWAP3 SWAP8 POP PUSH4 0x5F5E100 SWAP3 PUSH2 0x1790 SWAP2 SWAP1 PUSH2 0x2330 JUMP JUMPDEST PUSH2 0x179A SWAP2 SWAP1 PUSH2 0x2330 JUMP JUMPDEST PUSH2 0x17A4 SWAP2 SWAP1 PUSH2 0x2310 JUMP JUMPDEST SWAP4 POP DUP4 PUSH2 0x17B1 DUP7 DUP9 PUSH2 0x22F8 JUMP JUMPDEST PUSH2 0x17BB SWAP2 SWAP1 PUSH2 0x22F8 JUMP JUMPDEST SWAP3 POP POP POP JUMPDEST SWAP2 SWAP4 POP SWAP2 SWAP4 JUMP JUMPDEST PUSH2 0x17D2 PUSH1 0x0 DUP3 PUSH2 0x85B JUMP JUMPDEST PUSH2 0xEBF PUSH1 0x0 CALLER PUSH2 0xA91 JUMP JUMPDEST PUSH1 0x1 PUSH1 0x1 PUSH1 0xA0 SHL SUB DUP5 AND PUSH2 0x181D JUMPI PUSH1 0x40 MLOAD PUSH32 0xD92E233D00000000000000000000000000000000000000000000000000000000 DUP2 MSTORE PUSH1 0x4 ADD PUSH1 0x40 MLOAD DUP1 SWAP2 SUB SWAP1 REVERT JUMPDEST PUSH1 0x1 PUSH1 0x1 PUSH1 0xA0 SHL SUB DUP6 AND CALLER EQ DUP1 ISZERO SWAP1 PUSH2 0x1850 JUMPI POP PUSH1 0x1 PUSH1 0x1 PUSH1 0xA0 SHL SUB DUP6 DUP2 AND PUSH1 0x0 SWAP1 DUP2 MSTORE PUSH1 0x6 PUSH1 0x20 MSTORE PUSH1 0x40 SWAP1 KECCAK256 SLOAD AND CALLER EQ ISZERO JUMPDEST ISZERO PUSH2 0x186E JUMPI PUSH1 0x40 MLOAD PUSH4 0x39218F3B PUSH1 0xE0 SHL DUP2 MSTORE PUSH1 0x4 ADD PUSH1 0x40 MLOAD DUP1 SWAP2 SUB SWAP1 REVERT JUMPDEST PUSH1 0x1 PUSH1 0x1 PUSH1 0xA0 SHL SUB DUP6 AND PUSH1 0x0 SWAP1 DUP2 MSTORE PUSH1 0x3 PUSH1 0x20 MSTORE PUSH1 0x40 SWAP1 KECCAK256 SLOAD DUP4 GT ISZERO PUSH2 0x18C0 JUMPI PUSH1 0x40 MLOAD PUSH32 0xFBBDC2C900000000000000000000000000000000000000000000000000000000 DUP2 MSTORE PUSH1 0x4 ADD PUSH1 0x40 MLOAD DUP1 SWAP2 SUB SWAP1 REVERT JUMPDEST PUSH1 0x1 PUSH1 0x1 PUSH1 0xA0 SHL SUB DUP6 AND PUSH1 0x0 SWAP1 DUP2 MSTORE PUSH1 0x4 PUSH1 0x20 MSTORE PUSH1 0x40 SWAP1 KECCAK256 SLOAD DUP3 GT ISZERO PUSH2 0x1912 JUMPI PUSH1 0x40 MLOAD PUSH32 0x6A9835A800000000000000000000000000000000000000000000000000000000 DUP2 MSTORE PUSH1 0x4 ADD PUSH1 0x40 MLOAD DUP1 SWAP2 SUB SWAP1 REVERT JUMPDEST PUSH1 0x1 PUSH1 0x1 PUSH1 0xA0 SHL SUB DUP6 AND PUSH1 0x0 SWAP1 DUP2 MSTORE PUSH1 0x5 PUSH1 0x20 MSTORE PUSH1 0x40 SWAP1 KECCAK256 SLOAD DUP2 GT ISZERO PUSH2 0x1964 JUMPI PUSH1 0x40 MLOAD PUSH32 0x55D5A3FA00000000000000000000000000000000000000000000000000000000 DUP2 MSTORE PUSH1 0x4 ADD PUSH1 0x40 MLOAD DUP1 SWAP2 SUB SWAP1 REVERT JUMPDEST PUSH1 0x1 PUSH1 0x1 PUSH1 0xA0 SHL SUB DUP6 AND PUSH1 0x0 SWAP1 DUP2 MSTORE PUSH1 0x3 PUSH1 0x20 MSTORE PUSH1 0x40 DUP2 KECCAK256 DUP1 SLOAD DUP6 SWAP3 SWAP1 PUSH2 0x198C SWAP1 DUP5 SWAP1 PUSH2 0x234F JUMP JUMPDEST SWAP1 SWAP2 SSTORE POP POP PUSH1 0x1 PUSH1 0x1 PUSH1 0xA0 SHL SUB DUP5 AND PUSH1 0x0 SWAP1 DUP2 MSTORE PUSH1 0x3 PUSH1 0x20 MSTORE PUSH1 0x40 DUP2 KECCAK256 DUP1 SLOAD DUP6 SWAP3 SWAP1 PUSH2 0x19B9 SWAP1 DUP5 SWAP1 PUSH2 0x22F8 JUMP JUMPDEST SWAP1 SWAP2 SSTORE POP POP PUSH1 0x1 PUSH1 0x1 PUSH1 0xA0 SHL SUB DUP6 AND PUSH1 0x0 SWAP1 DUP2 MSTORE PUSH1 0x4 PUSH1 0x20 MSTORE PUSH1 0x40 DUP2 KECCAK256 DUP1 SLOAD DUP5 SWAP3 SWAP1 PUSH2 0x19E6 SWAP1 DUP5 SWAP1 PUSH2 0x234F JUMP JUMPDEST SWAP1 SWAP2 SSTORE POP POP PUSH1 0x1 PUSH1 0x1 PUSH1 0xA0 SHL SUB DUP5 AND PUSH1 0x0 SWAP1 DUP2 MSTORE PUSH1 0x4 PUSH1 0x20 MSTORE PUSH1 0x40 DUP2 KECCAK256 DUP1 SLOAD DUP5 SWAP3 SWAP1 PUSH2 0x1A13 SWAP1 DUP5 SWAP1 PUSH2 0x22F8 JUMP JUMPDEST SWAP1 SWAP2 SSTORE POP POP PUSH1 0x1 PUSH1 0x1 PUSH1 0xA0 SHL SUB DUP6 AND PUSH1 0x0 SWAP1 DUP2 MSTORE PUSH1 0x5 PUSH1 0x20 MSTORE PUSH1 0x40 DUP2 KECCAK256 DUP1 SLOAD DUP4 SWAP3 SWAP1 PUSH2 0x1A40 SWAP1 DUP5 SWAP1 PUSH2 0x234F JUMP JUMPDEST SWAP1 SWAP2 SSTORE POP POP PUSH1 0x1 PUSH1 0x1 PUSH1 0xA0 SHL SUB DUP5 AND PUSH1 0x0 SWAP1 DUP2 MSTORE PUSH1 0x5 PUSH1 0x20 MSTORE PUSH1 0x40 DUP2 KECCAK256 DUP1 SLOAD DUP4 SWAP3 SWAP1 PUSH2 0x1A6D SWAP1 DUP5 SWAP1 PUSH2 0x22F8 JUMP JUMPDEST SWAP1 SWAP2 SSTORE POP POP PUSH1 0x40 DUP1 MLOAD DUP5 DUP2 MSTORE PUSH1 0x20 DUP2 ADD DUP5 SWAP1 MSTORE SWAP1 DUP2 ADD DUP3 SWAP1 MSTORE PUSH1 0x1 PUSH1 0x1 PUSH1 0xA0 SHL SUB DUP1 DUP7 AND SWAP2 SWAP1 DUP8 AND SWAP1 CALLER SWAP1 PUSH32 0x78311C2531AF20240A50DB50E3085B3C16F6E3B21572F6AB0089414DDFFD7391 SWAP1 PUSH1 0x60 ADD PUSH1 0x40 MLOAD DUP1 SWAP2 SUB SWAP1 LOG4 POP POP POP POP POP JUMP JUMPDEST PUSH2 0xEBF DUP2 CALLER PUSH2 0x1C73 JUMP JUMPDEST PUSH1 0x0 DUP3 DUP2 MSTORE PUSH1 0x20 DUP2 DUP2 MSTORE PUSH1 0x40 DUP1 DUP4 KECCAK256 PUSH1 0x1 PUSH1 0x1 PUSH1 0xA0 SHL SUB DUP6 AND DUP5 MSTORE SWAP1 SWAP2 MSTORE SWAP1 KECCAK256 SLOAD PUSH1 0xFF AND PUSH2 0xB19 JUMPI PUSH1 0x0 DUP3 DUP2 MSTORE PUSH1 0x20 DUP2 DUP2 MSTORE PUSH1 0x40 DUP1 DUP4 KECCAK256 PUSH1 0x1 PUSH1 0x1 PUSH1 0xA0 SHL SUB DUP6 AND DUP5 MSTORE SWAP1 SWAP2 MSTORE SWAP1 KECCAK256 DUP1 SLOAD PUSH1 0xFF NOT AND PUSH1 0x1 OR SWAP1 SSTORE PUSH2 0x1B30 CALLER SWAP1 JUMP JUMPDEST PUSH1 0x1 PUSH1 0x1 PUSH1 0xA0 SHL SUB AND DUP2 PUSH1 0x1 PUSH1 0x1 PUSH1 0xA0 SHL SUB AND DUP4 PUSH32 0x2F8788117E7EFF1D82E926EC794901D17C78024A50270940304540A733656F0D PUSH1 0x40 MLOAD PUSH1 0x40 MLOAD DUP1 SWAP2 SUB SWAP1 LOG4 POP POP JUMP JUMPDEST PUSH1 0x0 DUP3 DUP2 MSTORE PUSH1 0x20 DUP2 DUP2 MSTORE PUSH1 0x40 DUP1 DUP4 KECCAK256 PUSH1 0x1 PUSH1 0x1 PUSH1 0xA0 SHL SUB DUP6 AND DUP5 MSTORE SWAP1 SWAP2 MSTORE SWAP1 KECCAK256 SLOAD PUSH1 0xFF AND ISZERO PUSH2 0xB19 JUMPI PUSH1 0x0 DUP3 DUP2 MSTORE PUSH1 0x20 DUP2 DUP2 MSTORE PUSH1 0x40 DUP1 DUP4 KECCAK256 PUSH1 0x1 PUSH1 0x1 PUSH1 0xA0 SHL SUB DUP6 AND DUP1 DUP6 MSTORE SWAP3 MSTORE DUP1 DUP4 KECCAK256 DUP1 SLOAD PUSH1 0xFF NOT AND SWAP1 SSTORE MLOAD CALLER SWAP3 DUP6 SWAP2 PUSH32 0xF6391F5C32D9C69D2A47EA670B442974B53935D1EDC7FD64EB21E047A839171B SWAP2 SWAP1 LOG4 POP POP JUMP JUMPDEST PUSH1 0x40 DUP1 MLOAD PUSH1 0x1 PUSH1 0x1 PUSH1 0xA0 SHL SUB DUP5 AND PUSH1 0x24 DUP3 ADD MSTORE PUSH1 0x44 DUP1 DUP3 ADD DUP5 SWAP1 MSTORE DUP3 MLOAD DUP1 DUP4 SUB SWAP1 SWAP2 ADD DUP2 MSTORE PUSH1 0x64 SWAP1 SWAP2 ADD SWAP1 SWAP2 MSTORE PUSH1 0x20 DUP2 ADD DUP1 MLOAD PUSH28 0xFFFFFFFFFFFFFFFFFFFFFFFFFFFFFFFFFFFFFFFFFFFFFFFFFFFFFFFF AND PUSH32 0xA9059CBB00000000000000000000000000000000000000000000000000000000 OR SWAP1 MSTORE PUSH2 0x880 SWAP1 DUP5 SWAP1 PUSH2 0x1CE6 JUMP JUMPDEST PUSH1 0x0 DUP3 DUP2 MSTORE PUSH1 0x20 DUP2 DUP2 MSTORE PUSH1 0x40 DUP1 DUP4 KECCAK256 PUSH1 0x1 PUSH1 0x1 PUSH1 0xA0 SHL SUB DUP6 AND DUP5 MSTORE SWAP1 SWAP2 MSTORE SWAP1 KECCAK256 SLOAD PUSH1 0xFF AND PUSH2 0xB19 JUMPI PUSH2 0x1CA4 DUP2 PUSH2 0x1E28 JUMP JUMPDEST PUSH2 0x1CAF DUP4 PUSH1 0x20 PUSH2 0x1E3A JUMP JUMPDEST PUSH1 0x40 MLOAD PUSH1 0x20 ADD PUSH2 0x1CC0 SWAP3 SWAP2 SWAP1 PUSH2 0x2244 JUMP JUMPDEST PUSH1 0x40 DUP1 MLOAD PUSH1 0x1F NOT DUP2 DUP5 SUB ADD DUP2 MSTORE SWAP1 DUP3 SWAP1 MSTORE PUSH3 0x461BCD PUSH1 0xE5 SHL DUP3 MSTORE PUSH2 0x7EF SWAP2 PUSH1 0x4 ADD PUSH2 0x22C5 JUMP JUMPDEST PUSH1 0x0 DUP1 DUP4 PUSH1 0x1 PUSH1 0x1 PUSH1 0xA0 SHL SUB AND DUP4 PUSH1 0x40 MLOAD PUSH2 0x1D01 SWAP2 SWAP1 PUSH2 0x2228 JUMP JUMPDEST PUSH1 0x0 PUSH1 0x40 MLOAD DUP1 DUP4 SUB DUP2 PUSH1 0x0 DUP7 GAS CALL SWAP2 POP POP RETURNDATASIZE DUP1 PUSH1 0x0 DUP2 EQ PUSH2 0x1D3E JUMPI PUSH1 0x40 MLOAD SWAP2 POP PUSH1 0x1F NOT PUSH1 0x3F RETURNDATASIZE ADD AND DUP3 ADD PUSH1 0x40 MSTORE RETURNDATASIZE DUP3 MSTORE RETURNDATASIZE PUSH1 0x0 PUSH1 0x20 DUP5 ADD RETURNDATACOPY PUSH2 0x1D43 JUMP JUMPDEST PUSH1 0x60 SWAP2 POP JUMPDEST POP SWAP2 POP SWAP2 POP DUP2 PUSH2 0x1D95 JUMPI PUSH1 0x40 MLOAD PUSH3 0x461BCD PUSH1 0xE5 SHL DUP2 MSTORE PUSH1 0x20 PUSH1 0x4 DUP3 ADD DUP2 SWAP1 MSTORE PUSH1 0x24 DUP3 ADD MSTORE PUSH32 0x5361666545524332303A206C6F772D6C6576656C2063616C6C206661696C6564 PUSH1 0x44 DUP3 ADD MSTORE PUSH1 0x64 ADD PUSH2 0x7EF JUMP JUMPDEST DUP1 MLOAD ISZERO PUSH2 0x1E22 JUMPI DUP1 DUP1 PUSH1 0x20 ADD SWAP1 MLOAD DUP2 ADD SWAP1 PUSH2 0x1DB0 SWAP2 SWAP1 PUSH2 0x2153 JUMP JUMPDEST PUSH2 0x1E22 JUMPI PUSH1 0x40 MLOAD PUSH3 0x461BCD PUSH1 0xE5 SHL DUP2 MSTORE PUSH1 0x20 PUSH1 0x4 DUP3 ADD MSTORE PUSH1 0x2A PUSH1 0x24 DUP3 ADD MSTORE PUSH32 0x5361666545524332303A204552433230206F7065726174696F6E20646964206E PUSH1 0x44 DUP3 ADD MSTORE PUSH32 0x6F74207375636365656400000000000000000000000000000000000000000000 PUSH1 0x64 DUP3 ADD MSTORE PUSH1 0x84 ADD PUSH2 0x7EF JUMP JUMPDEST POP POP POP POP JUMP JUMPDEST PUSH1 0x60 PUSH2 0x75E PUSH1 0x1 PUSH1 0x1 PUSH1 0xA0 SHL SUB DUP4 AND PUSH1 0x14 JUMPDEST PUSH1 0x60 PUSH1 0x0 PUSH2 0x1E49 DUP4 PUSH1 0x2 PUSH2 0x2330 JUMP JUMPDEST PUSH2 0x1E54 SWAP1 PUSH1 0x2 PUSH2 0x22F8 JUMP JUMPDEST PUSH8 0xFFFFFFFFFFFFFFFF DUP2 GT ISZERO PUSH2 0x1E7A JUMPI PUSH4 0x4E487B71 PUSH1 0xE0 SHL PUSH1 0x0 MSTORE PUSH1 0x41 PUSH1 0x4 MSTORE PUSH1 0x24 PUSH1 0x0 REVERT JUMPDEST PUSH1 0x40 MLOAD SWAP1 DUP1 DUP3 MSTORE DUP1 PUSH1 0x1F ADD PUSH1 0x1F NOT AND PUSH1 0x20 ADD DUP3 ADD PUSH1 0x40 MSTORE DUP1 ISZERO PUSH2 0x1EA4 JUMPI PUSH1 0x20 DUP3 ADD DUP2 DUP1 CALLDATASIZE DUP4 CALLDATACOPY ADD SWAP1 POP JUMPDEST POP SWAP1 POP PUSH32 0x3000000000000000000000000000000000000000000000000000000000000000 DUP2 PUSH1 0x0 DUP2 MLOAD DUP2 LT PUSH2 0x1EE9 JUMPI PUSH4 0x4E487B71 PUSH1 0xE0 SHL PUSH1 0x0 MSTORE PUSH1 0x32 PUSH1 0x4 MSTORE PUSH1 0x24 PUSH1 0x0 REVERT JUMPDEST PUSH1 0x20 ADD ADD SWAP1 PUSH1 0x1 PUSH1 0x1 PUSH1 0xF8 SHL SUB NOT AND SWAP1 DUP2 PUSH1 0x0 BYTE SWAP1 MSTORE8 POP PUSH32 0x7800000000000000000000000000000000000000000000000000000000000000 DUP2 PUSH1 0x1 DUP2 MLOAD DUP2 LT PUSH2 0x1F42 JUMPI PUSH4 0x4E487B71 PUSH1 0xE0 SHL PUSH1 0x0 MSTORE PUSH1 0x32 PUSH1 0x4 MSTORE PUSH1 0x24 PUSH1 0x0 REVERT JUMPDEST PUSH1 0x20 ADD ADD SWAP1 PUSH1 0x1 PUSH1 0x1 PUSH1 0xF8 SHL SUB NOT AND SWAP1 DUP2 PUSH1 0x0 BYTE SWAP1 MSTORE8 POP PUSH1 0x0 PUSH2 0x1F66 DUP5 PUSH1 0x2 PUSH2 0x2330 JUMP JUMPDEST PUSH2 0x1F71 SWAP1 PUSH1 0x1 PUSH2 0x22F8 JUMP JUMPDEST SWAP1 POP JUMPDEST PUSH1 0x1 DUP2 GT ISZERO PUSH2 0x2012 JUMPI PUSH32 0x3031323334353637383961626364656600000000000000000000000000000000 DUP6 PUSH1 0xF AND PUSH1 0x10 DUP2 LT PUSH2 0x1FC0 JUMPI PUSH4 0x4E487B71 PUSH1 0xE0 SHL PUSH1 0x0 MSTORE PUSH1 0x32 PUSH1 0x4 MSTORE PUSH1 0x24 PUSH1 0x0 REVERT JUMPDEST BYTE PUSH1 0xF8 SHL DUP3 DUP3 DUP2 MLOAD DUP2 LT PUSH2 0x1FE4 JUMPI PUSH4 0x4E487B71 PUSH1 0xE0 SHL PUSH1 0x0 MSTORE PUSH1 0x32 PUSH1 0x4 MSTORE PUSH1 0x24 PUSH1 0x0 REVERT JUMPDEST PUSH1 0x20 ADD ADD SWAP1 PUSH1 0x1 PUSH1 0x1 PUSH1 0xF8 SHL SUB NOT AND SWAP1 DUP2 PUSH1 0x0 BYTE SWAP1 MSTORE8 POP PUSH1 0x4 SWAP5 SWAP1 SWAP5 SHR SWAP4 PUSH2 0x200B DUP2 PUSH2 0x2392 JUMP JUMPDEST SWAP1 POP PUSH2 0x1F74 JUMP JUMPDEST POP DUP4 ISZERO PUSH2 0x2061 JUMPI PUSH1 0x40 MLOAD PUSH3 0x461BCD PUSH1 0xE5 SHL DUP2 MSTORE PUSH1 0x20 PUSH1 0x4 DUP3 ADD DUP2 SWAP1 MSTORE PUSH1 0x24 DUP3 ADD MSTORE PUSH32 0x537472696E67733A20686578206C656E67746820696E73756666696369656E74 PUSH1 0x44 DUP3 ADD MSTORE PUSH1 0x64 ADD PUSH2 0x7EF JUMP JUMPDEST SWAP4 SWAP3 POP POP POP JUMP JUMPDEST PUSH1 0x0 PUSH1 0x20 DUP3 DUP5 SUB SLT ISZERO PUSH2 0x2079 JUMPI DUP1 DUP2 REVERT JUMPDEST DUP2 CALLDATALOAD PUSH2 0x2061 DUP2 PUSH2 0x23BF JUMP JUMPDEST PUSH1 0x0 PUSH1 0x20 DUP3 DUP5 SUB SLT ISZERO PUSH2 0x2095 JUMPI DUP1 DUP2 REVERT JUMPDEST DUP2 MLOAD PUSH2 0x2061 DUP2 PUSH2 0x23BF JUMP JUMPDEST PUSH1 0x0 DUP1 PUSH1 0x40 DUP4 DUP6 SUB SLT ISZERO PUSH2 0x20B2 JUMPI DUP1 DUP2 REVERT JUMPDEST DUP3 CALLDATALOAD PUSH2 0x20BD DUP2 PUSH2 0x23BF JUMP JUMPDEST SWAP2 POP PUSH1 0x20 DUP4 ADD CALLDATALOAD PUSH2 0x20CD DUP2 PUSH2 0x23BF JUMP JUMPDEST DUP1 SWAP2 POP POP SWAP3 POP SWAP3 SWAP1 POP JUMP JUMPDEST PUSH1 0x0 DUP1 PUSH1 0x0 DUP1 PUSH1 0x0 PUSH1 0xA0 DUP7 DUP9 SUB SLT ISZERO PUSH2 0x20EF JUMPI DUP1 DUP2 REVERT JUMPDEST DUP6 CALLDATALOAD PUSH2 0x20FA DUP2 PUSH2 0x23BF JUMP JUMPDEST SWAP5 POP PUSH1 0x20 DUP7 ADD CALLDATALOAD PUSH2 0x210A DUP2 PUSH2 0x23BF JUMP JUMPDEST SWAP5 SWAP8 SWAP5 SWAP7 POP POP POP POP PUSH1 0x40 DUP4 ADD CALLDATALOAD SWAP3 PUSH1 0x60 DUP2 ADD CALLDATALOAD SWAP3 PUSH1 0x80 SWAP1 SWAP2 ADD CALLDATALOAD SWAP2 POP JUMP JUMPDEST PUSH1 0x0 DUP1 PUSH1 0x40 DUP4 DUP6 SUB SLT ISZERO PUSH2 0x213A JUMPI DUP2 DUP3 REVERT JUMPDEST DUP3 CALLDATALOAD PUSH2 0x2145 DUP2 PUSH2 0x23BF JUMP JUMPDEST SWAP5 PUSH1 0x20 SWAP4 SWAP1 SWAP4 ADD CALLDATALOAD SWAP4 POP POP POP JUMP JUMPDEST PUSH1 0x0 PUSH1 0x20 DUP3 DUP5 SUB SLT ISZERO PUSH2 0x2164 JUMPI DUP1 DUP2 REVERT JUMPDEST DUP2 MLOAD DUP1 ISZERO ISZERO DUP2 EQ PUSH2 0x2061 JUMPI DUP2 DUP3 REVERT JUMPDEST PUSH1 0x0 PUSH1 0x20 DUP3 DUP5 SUB SLT ISZERO PUSH2 0x2184 JUMPI DUP1 DUP2 REVERT JUMPDEST POP CALLDATALOAD SWAP2 SWAP1 POP JUMP JUMPDEST PUSH1 0x0 DUP1 PUSH1 0x40 DUP4 DUP6 SUB SLT ISZERO PUSH2 0x219D JUMPI DUP2 DUP3 REVERT JUMPDEST DUP3 CALLDATALOAD SWAP2 POP PUSH1 0x20 DUP4 ADD CALLDATALOAD PUSH2 0x20CD DUP2 PUSH2 0x23BF JUMP JUMPDEST PUSH1 0x0 PUSH1 0x20 DUP3 DUP5 SUB SLT ISZERO PUSH2 0x21C0 JUMPI DUP1 DUP2 REVERT JUMPDEST DUP2 CALLDATALOAD PUSH32 0xFFFFFFFF00000000000000000000000000000000000000000000000000000000 DUP2 AND DUP2 EQ PUSH2 0x2061 JUMPI DUP2 DUP3 REVERT JUMPDEST PUSH1 0x0 PUSH1 0x20 DUP3 DUP5 SUB SLT ISZERO PUSH2 0x2200 JUMPI DUP1 DUP2 REVERT JUMPDEST POP MLOAD SWAP2 SWAP1 POP JUMP JUMPDEST PUSH1 0x0 DUP1 PUSH1 0x40 DUP4 DUP6 SUB SLT ISZERO PUSH2 0x2219 JUMPI DUP2 DUP3 REVERT JUMPDEST POP POP DUP1 CALLDATALOAD SWAP3 PUSH1 0x20 SWAP1 SWAP2 ADD CALLDATALOAD SWAP2 POP JUMP JUMPDEST PUSH1 0x0 DUP3 MLOAD PUSH2 0x223A DUP2 DUP5 PUSH1 0x20 DUP8 ADD PUSH2 0x2366 JUMP JUMPDEST SWAP2 SWAP1 SWAP2 ADD SWAP3 SWAP2 POP POP JUMP JUMPDEST PUSH32 0x416363657373436F6E74726F6C3A206163636F756E7420000000000000000000 DUP2 MSTORE PUSH1 0x0 DUP4 MLOAD PUSH2 0x227C DUP2 PUSH1 0x17 DUP6 ADD PUSH1 0x20 DUP9 ADD PUSH2 0x2366 JUMP JUMPDEST PUSH32 0x206973206D697373696E6720726F6C6520000000000000000000000000000000 PUSH1 0x17 SWAP2 DUP5 ADD SWAP2 DUP3 ADD MSTORE DUP4 MLOAD PUSH2 0x22B9 DUP2 PUSH1 0x28 DUP5 ADD PUSH1 0x20 DUP9 ADD PUSH2 0x2366 JUMP JUMPDEST ADD PUSH1 0x28 ADD SWAP5 SWAP4 POP POP POP POP JUMP JUMPDEST PUSH1 0x20 DUP2 MSTORE PUSH1 0x0 DUP3 MLOAD DUP1 PUSH1 0x20 DUP5 ADD MSTORE PUSH2 0x22E4 DUP2 PUSH1 0x40 DUP6 ADD PUSH1 0x20 DUP8 ADD PUSH2 0x2366 JUMP JUMPDEST PUSH1 0x1F ADD PUSH1 0x1F NOT AND SWAP2 SWAP1 SWAP2 ADD PUSH1 0x40 ADD SWAP3 SWAP2 POP POP JUMP JUMPDEST PUSH1 0x0 DUP3 NOT DUP3 GT ISZERO PUSH2 0x230B JUMPI PUSH2 0x230B PUSH2 0x23A9 JUMP JUMPDEST POP ADD SWAP1 JUMP JUMPDEST PUSH1 0x0 DUP3 PUSH2 0x232B JUMPI PUSH4 0x4E487B71 PUSH1 0xE0 SHL DUP2 MSTORE PUSH1 0x12 PUSH1 0x4 MSTORE PUSH1 0x24 DUP2 REVERT JUMPDEST POP DIV SWAP1 JUMP JUMPDEST PUSH1 0x0 DUP2 PUSH1 0x0 NOT DIV DUP4 GT DUP3 ISZERO ISZERO AND ISZERO PUSH2 0x234A JUMPI PUSH2 0x234A PUSH2 0x23A9 JUMP JUMPDEST POP MUL SWAP1 JUMP JUMPDEST PUSH1 0x0 DUP3 DUP3 LT ISZERO PUSH2 0x2361 JUMPI PUSH2 0x2361 PUSH2 0x23A9 JUMP JUMPDEST POP SUB SWAP1 JUMP JUMPDEST PUSH1 0x0 JUMPDEST DUP4 DUP2 LT ISZERO PUSH2 0x2381 JUMPI DUP2 DUP2 ADD MLOAD DUP4 DUP3 ADD MSTORE PUSH1 0x20 ADD PUSH2 0x2369 JUMP JUMPDEST DUP4 DUP2 GT ISZERO PUSH2 0x1E22 JUMPI POP POP PUSH1 0x0 SWAP2 ADD MSTORE JUMP JUMPDEST PUSH1 0x0 DUP2 PUSH2 0x23A1 JUMPI PUSH2 0x23A1 PUSH2 0x23A9 JUMP JUMPDEST POP PUSH1 0x0 NOT ADD SWAP1 JUMP JUMPDEST PUSH4 0x4E487B71 PUSH1 0xE0 SHL PUSH1 0x0 MSTORE PUSH1 0x11 PUSH1 0x4 MSTORE PUSH1 0x24 PUSH1 0x0 REVERT JUMPDEST PUSH1 0x1 PUSH1 0x1 PUSH1 0xA0 SHL SUB DUP2 AND DUP2 EQ PUSH2 0xEBF JUMPI PUSH1 0x0 DUP1 REVERT INVALID LOG2 PUSH5 0x6970667358 0x22 SLT KECCAK256 0x4D 0xD7 0xAD 0xAD CALLDATASIZE EQ PUSH20 0x95587C1A1703932A66DC5271631FE505EC833BED MSIZE 0x4E PUSH23 0xEBD364736F6C6343000804003300000000000000000000 "
        },
        "methodIdentifiers": {
          "ADAPTER_VOLUME(address)": "492f19e6",
          "ADAPTER_VOLUME_SCALER()": "81ee5599",
          "BASE_VOLUME_SCALER()": "ae7d63a2",
          "BLACKLISTED(address)": "9c4cdf83",
          "DEFAULT_ADMIN_ROLE()": "a217fddf",
          "DELEGATE(address)": "3277d76d",
          "GLOBAL_BOOST()": "f0ed47b6",
          "MAINTAINER_ROLE()": "f8742254",
          "REFERRALS()": "82382834",
          "REF_VOLUME(address)": "3de91765",
          "REF_VOLUME_SCALER()": "555c2800",
          "SELF_VOLUME(address)": "ab6322c5",
          "VOLUME_ADAPTER()": "5bd5da1e",
          "addAdapterVolume(address,uint256)": "c9d0529b",
          "addMaintainer(address)": "6b453c1f",
          "addVolume(address,uint256)": "32102e3b",
          "getPoints(address)": "ee204abb",
          "getRoleAdmin(bytes32)": "248a9ca3",
          "getVolume(address)": "8ba17f86",
          "governor()": "0c340a24",
          "grantRole(bytes32,address)": "2f2ff15d",
          "hasRole(bytes32,address)": "91d14854",
          "initialize(address)": "c4d66de8",
          "initialized()": "158ef93e",
          "recoverERC20(address,uint256)": "8980f11f",
          "recoverNATIVE(uint256)": "c2c52820",
          "removeMaintainer(address)": "d8baf7cf",
          "renounceRole(bytes32)": "8bb9c5bf",
          "renounceRole(bytes32,address)": "36568abe",
          "revokeRole(bytes32,address)": "d547741f",
          "setAdapterDelegate(address,address)": "ea5d838b",
          "setDelegate(address,address)": "5c873849",
          "setGlobalBoost(uint256)": "50d935c4",
          "setReferralsContract(address)": "2ac2a970",
          "setVolumeAdapter(address)": "630e1cdd",
          "setVolumeScalers(uint256,uint256)": "d3c48638",
          "summitTeamGivePoints(address,uint256)": "557b1864",
          "supportsInterface(bytes4)": "01ffc9a7",
          "transferOwnership(address)": "f2fde38b",
          "transferVolume(address,address,uint256,uint256,uint256)": "f9304a54"
        }
      }
    }
  }
}