{
  "src/contracts/SummitAdminV2.sol": {
    "SummitAdminV2": {
      "abi": [
        {
          "inputs": [
            {
              "internalType": "address",
              "name": "_router",
              "type": "address"
            },
            {
              "internalType": "address",
              "name": "_referrals",
              "type": "address"
            },
            {
              "internalType": "address",
              "name": "_points",
              "type": "address"
            }
          ],
          "stateMutability": "nonpayable",
          "type": "constructor"
        },
        {
          "inputs": [],
          "name": "AlreadyInitialized",
          "type": "error"
        },
        {
          "anonymous": false,
          "inputs": [
            {
              "indexed": true,
              "internalType": "bytes32",
              "name": "role",
              "type": "bytes32"
            },
            {
              "indexed": true,
              "internalType": "bytes32",
              "name": "previousAdminRole",
              "type": "bytes32"
            },
            {
              "indexed": true,
              "internalType": "bytes32",
              "name": "newAdminRole",
              "type": "bytes32"
            }
          ],
          "name": "RoleAdminChanged",
          "type": "event"
        },
        {
          "anonymous": false,
          "inputs": [
            {
              "indexed": true,
              "internalType": "bytes32",
              "name": "role",
              "type": "bytes32"
            },
            {
              "indexed": true,
              "internalType": "address",
              "name": "account",
              "type": "address"
            },
            {
              "indexed": true,
              "internalType": "address",
              "name": "sender",
              "type": "address"
            }
          ],
          "name": "RoleGranted",
          "type": "event"
        },
        {
          "anonymous": false,
          "inputs": [
            {
              "indexed": true,
              "internalType": "bytes32",
              "name": "role",
              "type": "bytes32"
            },
            {
              "indexed": true,
              "internalType": "address",
              "name": "account",
              "type": "address"
            },
            {
              "indexed": true,
              "internalType": "address",
              "name": "sender",
              "type": "address"
            }
          ],
          "name": "RoleRevoked",
          "type": "event"
        },
        {
          "inputs": [],
          "name": "DEFAULT_ADMIN_ROLE",
          "outputs": [
            {
              "internalType": "bytes32",
              "name": "",
              "type": "bytes32"
            }
          ],
          "stateMutability": "view",
          "type": "function"
        },
        {
          "inputs": [],
          "name": "MAINTAINER_ROLE",
          "outputs": [
            {
              "internalType": "bytes32",
              "name": "",
              "type": "bytes32"
            }
          ],
          "stateMutability": "view",
          "type": "function"
        },
        {
          "inputs": [
            {
              "internalType": "address",
              "name": "addedMaintainer",
              "type": "address"
            }
          ],
          "name": "addMaintainer",
          "outputs": [],
          "stateMutability": "nonpayable",
          "type": "function"
        },
        {
          "inputs": [
            {
              "internalType": "bytes32",
              "name": "role",
              "type": "bytes32"
            }
          ],
          "name": "getRoleAdmin",
          "outputs": [
            {
              "internalType": "bytes32",
              "name": "",
              "type": "bytes32"
            }
          ],
          "stateMutability": "view",
          "type": "function"
        },
        {
          "inputs": [],
          "name": "governor",
          "outputs": [
            {
              "internalType": "address",
              "name": "",
              "type": "address"
            }
          ],
          "stateMutability": "view",
          "type": "function"
        },
        {
          "inputs": [
            {
              "internalType": "bytes32",
              "name": "role",
              "type": "bytes32"
            },
            {
              "internalType": "address",
              "name": "account",
              "type": "address"
            }
          ],
          "name": "grantRole",
          "outputs": [],
          "stateMutability": "nonpayable",
          "type": "function"
        },
        {
          "inputs": [
            {
              "internalType": "bytes32",
              "name": "role",
              "type": "bytes32"
            },
            {
              "internalType": "address",
              "name": "account",
              "type": "address"
            }
          ],
          "name": "hasRole",
          "outputs": [
            {
              "internalType": "bool",
              "name": "",
              "type": "bool"
            }
          ],
          "stateMutability": "view",
          "type": "function"
        },
        {
          "inputs": [
            {
              "internalType": "address",
              "name": "_governor",
              "type": "address"
            }
          ],
          "name": "initialize",
          "outputs": [],
          "stateMutability": "nonpayable",
          "type": "function"
        },
        {
          "inputs": [],
          "name": "initialized",
          "outputs": [
            {
              "internalType": "bool",
              "name": "",
              "type": "bool"
            }
          ],
          "stateMutability": "view",
          "type": "function"
        },
        {
          "inputs": [],
          "name": "points",
          "outputs": [
            {
              "internalType": "contract ISummitPoints",
              "name": "",
              "type": "address"
            }
          ],
          "stateMutability": "view",
          "type": "function"
        },
        {
          "inputs": [
            {
              "internalType": "address",
              "name": "_add",
              "type": "address"
            },
            {
              "internalType": "uint256",
              "name": "_points",
              "type": "uint256"
            }
          ],
          "name": "points_addAdapterVolume",
          "outputs": [],
          "stateMutability": "nonpayable",
          "type": "function"
        },
        {
          "inputs": [
            {
              "internalType": "address",
              "name": "_add",
              "type": "address"
            },
            {
              "internalType": "uint256",
              "name": "_points",
              "type": "uint256"
            }
          ],
          "name": "points_addVolume",
          "outputs": [],
          "stateMutability": "nonpayable",
          "type": "function"
        },
        {
          "inputs": [
            {
              "internalType": "address",
              "name": "_add",
              "type": "address"
            },
            {
              "internalType": "bool",
              "name": "_blacklisted",
              "type": "bool"
            }
          ],
          "name": "points_setBlacklisted",
          "outputs": [],
          "stateMutability": "nonpayable",
          "type": "function"
        },
        {
          "inputs": [
            {
              "internalType": "uint256",
              "name": "_boost",
              "type": "uint256"
            }
          ],
          "name": "points_setGlobalBoost",
          "outputs": [],
          "stateMutability": "nonpayable",
          "type": "function"
        },
        {
          "inputs": [
            {
              "internalType": "address",
              "name": "_add",
              "type": "address"
            },
            {
              "internalType": "uint256",
              "name": "_points",
              "type": "uint256"
            }
          ],
          "name": "points_summitTeamGivePoints",
          "outputs": [],
          "stateMutability": "nonpayable",
          "type": "function"
        },
        {
          "inputs": [],
          "name": "referrals",
          "outputs": [
            {
              "internalType": "contract ISummitReferrals",
              "name": "",
              "type": "address"
            }
          ],
          "stateMutability": "view",
          "type": "function"
        },
        {
          "inputs": [
            {
              "internalType": "address",
              "name": "_referrer",
              "type": "address"
            },
            {
              "internalType": "uint8",
              "name": "_boostLevel",
              "type": "uint8"
            }
          ],
          "name": "referrals_boostReferrer",
          "outputs": [],
          "stateMutability": "nonpayable",
          "type": "function"
        },
        {
          "inputs": [
            {
              "internalType": "address",
              "name": "_add",
              "type": "address"
            },
            {
              "internalType": "string",
              "name": "_code",
              "type": "string"
            }
          ],
          "name": "referrals_overrideReferralCode",
          "outputs": [],
          "stateMutability": "nonpayable",
          "type": "function"
        },
        {
          "inputs": [
            {
              "internalType": "address",
              "name": "removedMaintainer",
              "type": "address"
            }
          ],
          "name": "removeMaintainer",
          "outputs": [],
          "stateMutability": "nonpayable",
          "type": "function"
        },
        {
          "inputs": [
            {
              "internalType": "bytes32",
              "name": "role",
              "type": "bytes32"
            },
            {
              "internalType": "address",
              "name": "account",
              "type": "address"
            }
          ],
          "name": "renounceRole",
          "outputs": [],
          "stateMutability": "nonpayable",
          "type": "function"
        },
        {
          "inputs": [
            {
              "internalType": "bytes32",
              "name": "role",
              "type": "bytes32"
            }
          ],
          "name": "renounceRole",
          "outputs": [],
          "stateMutability": "nonpayable",
          "type": "function"
        },
        {
          "inputs": [
            {
              "internalType": "bytes32",
              "name": "role",
              "type": "bytes32"
            },
            {
              "internalType": "address",
              "name": "account",
              "type": "address"
            }
          ],
          "name": "revokeRole",
          "outputs": [],
          "stateMutability": "nonpayable",
          "type": "function"
        },
        {
          "inputs": [],
          "name": "router",
          "outputs": [
            {
              "internalType": "contract ISummitRouterExt",
              "name": "",
              "type": "address"
            }
          ],
          "stateMutability": "view",
          "type": "function"
        },
        {
          "inputs": [
            {
              "internalType": "address[]",
              "name": "_tokens",
              "type": "address[]"
            },
            {
              "internalType": "uint256[]",
              "name": "_mults",
              "type": "uint256[]"
            }
          ],
          "name": "router_setTokenBonusMultipliers",
          "outputs": [],
          "stateMutability": "nonpayable",
          "type": "function"
        },
        {
          "inputs": [
            {
              "internalType": "address[]",
              "name": "_tokens",
              "type": "address[]"
            },
            {
              "internalType": "uint256[]",
              "name": "_mults",
              "type": "uint256[]"
            }
          ],
          "name": "router_setTokenVolumeMultipliers",
          "outputs": [],
          "stateMutability": "nonpayable",
          "type": "function"
        },
        {
          "inputs": [
            {
              "internalType": "bytes4",
              "name": "interfaceId",
              "type": "bytes4"
            }
          ],
          "name": "supportsInterface",
          "outputs": [
            {
              "internalType": "bool",
              "name": "",
              "type": "bool"
            }
          ],
          "stateMutability": "view",
          "type": "function"
        },
        {
          "inputs": [
            {
              "internalType": "address",
              "name": "newOwner",
              "type": "address"
            }
          ],
          "name": "transferOwnership",
          "outputs": [],
          "stateMutability": "nonpayable",
          "type": "function"
        },
        {
          "inputs": [
            {
              "internalType": "address",
              "name": "_router",
              "type": "address"
            },
            {
              "internalType": "address",
              "name": "_referrals",
              "type": "address"
            },
            {
              "internalType": "address",
              "name": "_points",
              "type": "address"
            }
          ],
          "name": "updateContracts",
          "outputs": [],
          "stateMutability": "nonpayable",
          "type": "function"
        }
      ],
      "evm": {
        "bytecode": {
          "linkReferences": {},
          "object": "60806040526003805460ff60a01b191690553480156200001e57600080fd5b5060405162001ca738038062001ca783398101604081905262000041916200018a565b6200004e600033620000bd565b6200007a7f339759585899103d2ace64958e37e18ccb0504652c81d4a1b8aa80fe2126ab9533620000bd565b600180546001600160a01b039485166001600160a01b031991821617909155600280549385169382169390931790925560038054919093169116179055620001d3565b620000c98282620000cd565b5050565b6000828152602081815260408083206001600160a01b038516845290915290205460ff16620000c9576000828152602081815260408083206001600160a01b03851684529091529020805460ff19166001179055620001293390565b6001600160a01b0316816001600160a01b0316837f2f8788117e7eff1d82e926ec794901d17c78024a50270940304540a733656f0d60405160405180910390a45050565b80516001600160a01b03811681146200018557600080fd5b919050565b6000806000606084860312156200019f578283fd5b620001aa846200016d565b9250620001ba602085016200016d565b9150620001ca604085016200016d565b90509250925092565b611ac480620001e36000396000f3fe608060405234801561001057600080fd5b50600436106101c45760003560e01c806398aa74e7116100f9578063d8baf7cf11610097578063f874225411610071578063f8742254146103f8578063f887ea401461041f578063f89c10ac14610432578063fd82e1f21461044557600080fd5b8063d8baf7cf146103bf578063e48a68a1146103d2578063f2fde38b146103e557600080fd5b8063a7575297116100d3578063a757529714610373578063c4d66de814610386578063d3dc753914610399578063d547741f146103ac57600080fd5b806398aa74e71461034557806399a9ae6414610358578063a217fddf1461036b57600080fd5b806336568abe116101665780636dca4d44116101405780636dca4d44146102d557806376a692c8146102e85780638bb9c5bf146102fb57806391d148541461030e57600080fd5b806336568abe1461029c57806367cf3163146102af5780636b453c1f146102c257600080fd5b80631be6dd64116101a25780631be6dd6414610230578063248a9ca3146102435780632f2ff15d1461027457806334684a1e1461028957600080fd5b806301ffc9a7146101c95780630c340a24146101f1578063158ef93e1461021c575b600080fd5b6101dc6101d73660046117ef565b610458565b60405190151581526020015b60405180910390f35b600454610204906001600160a01b031681565b6040516001600160a01b0390911681526020016101e8565b6003546101dc90600160a01b900460ff1681565b600354610204906001600160a01b031681565b6102666102513660046117ac565b60009081526020819052604090206001015490565b6040519081526020016101e8565b6102876102823660046117c4565b6104f1565b005b610287610297366004611692565b61051b565b6102876102aa3660046117c4565b610633565b6102876102bd3660046116bb565b6106bf565b6102876102d036600461155c565b6107a2565b6102876102e3366004611576565b6107cf565b6102876102f63660046115b8565b610827565b6102876103093660046117ac565b610909565b6101dc61031c3660046117c4565b6000918252602082815260408084206001600160a01b0393909316845291905290205460ff1690565b610287610353366004611692565b610913565b6102876103663660046116eb565b6109f4565b610266600081565b6102876103813660046116eb565b610ace565b61028761039436600461155c565b610ba8565b600254610204906001600160a01b031681565b6102876103ba3660046117c4565b610dce565b6102876103cd36600461155c565b610df3565b6102876103e03660046115f2565b610e1d565b6102876103f336600461155c565b610ef7565b6102667f339759585899103d2ace64958e37e18ccb0504652c81d4a1b8aa80fe2126ab9581565b600154610204906001600160a01b031681565b610287610440366004611692565b610f0d565b6102876104533660046117ac565b610fee565b60007fffffffff0000000000000000000000000000000000000000000000000000000082167f7965db0b0000000000000000000000000000000000000000000000000000000014806104eb57507f01ffc9a7000000000000000000000000000000000000000000000000000000007fffffffff000000000000000000000000000000000000000000000000000000008316145b92915050565b60008281526020819052604090206001015461050c816110f7565b6105168383611101565b505050565b3360009081527fa54247010af6b3693b80aceddfad12e077c5de3571e6243fada502635f0d7d39602052604090205460ff166105af5760405162461bcd60e51b815260206004820152602860248201527f4d61696e7461696e61626c653a2043616c6c6572206973206e6f742061206d6160448201526734b73a30b4b732b960c11b60648201526084015b60405180910390fd5b6003546040517fc9d0529b0000000000000000000000000000000000000000000000000000000081526001600160a01b038481166004830152602482018490529091169063c9d0529b906044015b600060405180830381600087803b15801561061757600080fd5b505af115801561062b573d6000803e3d6000fd5b505050505050565b6001600160a01b03811633146106b15760405162461bcd60e51b815260206004820152602f60248201527f416363657373436f6e74726f6c3a2063616e206f6e6c792072656e6f756e636560448201527f20726f6c657320666f722073656c66000000000000000000000000000000000060648201526084016105a6565b6106bb828261119f565b5050565b3360009081527fa54247010af6b3693b80aceddfad12e077c5de3571e6243fada502635f0d7d39602052604090205460ff1661074e5760405162461bcd60e51b815260206004820152602860248201527f4d61696e7461696e61626c653a2043616c6c6572206973206e6f742061206d6160448201526734b73a30b4b732b960c11b60648201526084016105a6565b6002546040517f4c10fb250000000000000000000000000000000000000000000000000000000081526001600160a01b03848116600483015260ff8416602483015290911690634c10fb25906044016105fd565b6107cc7f339759585899103d2ace64958e37e18ccb0504652c81d4a1b8aa80fe2126ab95826104f1565b50565b60006107da816110f7565b50600180546001600160a01b0394851673ffffffffffffffffffffffffffffffffffffffff1991821617909155600280549385169382169390931790925560038054919093169116179055565b3360009081527fa54247010af6b3693b80aceddfad12e077c5de3571e6243fada502635f0d7d39602052604090205460ff166108b65760405162461bcd60e51b815260206004820152602860248201527f4d61696e7461696e61626c653a2043616c6c6572206973206e6f742061206d6160448201526734b73a30b4b732b960c11b60648201526084016105a6565b6003546040517fd01dd6d20000000000000000000000000000000000000000000000000000000081526001600160a01b03848116600483015283151560248301529091169063d01dd6d2906044016105fd565b6107cc8133610633565b3360009081527fa54247010af6b3693b80aceddfad12e077c5de3571e6243fada502635f0d7d39602052604090205460ff166109a25760405162461bcd60e51b815260206004820152602860248201527f4d61696e7461696e61626c653a2043616c6c6572206973206e6f742061206d6160448201526734b73a30b4b732b960c11b60648201526084016105a6565b6003546040517f557b18640000000000000000000000000000000000000000000000000000000081526001600160a01b038481166004830152602482018490529091169063557b1864906044016105fd565b3360009081527fa54247010af6b3693b80aceddfad12e077c5de3571e6243fada502635f0d7d39602052604090205460ff16610a835760405162461bcd60e51b815260206004820152602860248201527f4d61696e7461696e61626c653a2043616c6c6572206973206e6f742061206d6160448201526734b73a30b4b732b960c11b60648201526084016105a6565b6001546040517feadb18ff0000000000000000000000000000000000000000000000000000000081526001600160a01b039091169063eadb18ff906105fd9085908590600401611906565b3360009081527fa54247010af6b3693b80aceddfad12e077c5de3571e6243fada502635f0d7d39602052604090205460ff16610b5d5760405162461bcd60e51b815260206004820152602860248201527f4d61696e7461696e61626c653a2043616c6c6572206973206e6f742061206d6160448201526734b73a30b4b732b960c11b60648201526084016105a6565b6001546040517f8d2195ad0000000000000000000000000000000000000000000000000000000081526001600160a01b0390911690638d2195ad906105fd9085908590600401611906565b3360009081527fa54247010af6b3693b80aceddfad12e077c5de3571e6243fada502635f0d7d39602052604090205460ff16610c375760405162461bcd60e51b815260206004820152602860248201527f4d61696e7461696e61626c653a2043616c6c6572206973206e6f742061206d6160448201526734b73a30b4b732b960c11b60648201526084016105a6565b600354600160a01b900460ff1615610c7b576040517f0dc149f000000000000000000000000000000000000000000000000000000000815260040160405180910390fd5b600380547fffffffffffffffffffffff00ffffffffffffffffffffffffffffffffffffffff16600160a01b179055604080517f4e606c470000000000000000000000000000000000000000000000000000000081529051734300000000000000000000000000000000000002918291634e606c479160048082019260009290919082900301818387803b158015610d1157600080fd5b505af1158015610d25573d6000803e3d6000fd5b50506040517feb8646980000000000000000000000000000000000000000000000000000000081526001600160a01b0385811660048301528416925063eb8646989150602401600060405180830381600087803b158015610d8557600080fd5b505af1158015610d99573d6000803e3d6000fd5b50506004805473ffffffffffffffffffffffffffffffffffffffff19166001600160a01b039590951694909417909355505050565b600082815260208190526040902060010154610de9816110f7565b610516838361119f565b6107cc7f339759585899103d2ace64958e37e18ccb0504652c81d4a1b8aa80fe2126ab9582610dce565b3360009081527fa54247010af6b3693b80aceddfad12e077c5de3571e6243fada502635f0d7d39602052604090205460ff16610eac5760405162461bcd60e51b815260206004820152602860248201527f4d61696e7461696e61626c653a2043616c6c6572206973206e6f742061206d6160448201526734b73a30b4b732b960c11b60648201526084016105a6565b6002546040517fba32aa150000000000000000000000000000000000000000000000000000000081526001600160a01b039091169063ba32aa15906105fd90859085906004016118dc565b610f026000826104f1565b6107cc600033610633565b3360009081527fa54247010af6b3693b80aceddfad12e077c5de3571e6243fada502635f0d7d39602052604090205460ff16610f9c5760405162461bcd60e51b815260206004820152602860248201527f4d61696e7461696e61626c653a2043616c6c6572206973206e6f742061206d6160448201526734b73a30b4b732b960c11b60648201526084016105a6565b6003546040517f32102e3b0000000000000000000000000000000000000000000000000000000081526001600160a01b03848116600483015260248201849052909116906332102e3b906044016105fd565b3360009081527fa54247010af6b3693b80aceddfad12e077c5de3571e6243fada502635f0d7d39602052604090205460ff1661107d5760405162461bcd60e51b815260206004820152602860248201527f4d61696e7461696e61626c653a2043616c6c6572206973206e6f742061206d6160448201526734b73a30b4b732b960c11b60648201526084016105a6565b6003546040517f50d935c4000000000000000000000000000000000000000000000000000000008152600481018390526001600160a01b03909116906350d935c490602401600060405180830381600087803b1580156110dc57600080fd5b505af11580156110f0573d6000803e3d6000fd5b5050505050565b6107cc813361121e565b6000828152602081815260408083206001600160a01b038516845290915290205460ff166106bb576000828152602081815260408083206001600160a01b03851684529091529020805460ff1916600117905561115b3390565b6001600160a01b0316816001600160a01b0316837f2f8788117e7eff1d82e926ec794901d17c78024a50270940304540a733656f0d60405160405180910390a45050565b6000828152602081815260408083206001600160a01b038516845290915290205460ff16156106bb576000828152602081815260408083206001600160a01b0385168085529252808320805460ff1916905551339285917ff6391f5c32d9c69d2a47ea670b442974b53935d1edc7fd64eb21e047a839171b9190a45050565b6000828152602081815260408083206001600160a01b038516845290915290205460ff166106bb5761124f81611291565b61125a8360206112a3565b60405160200161126b92919061185b565b60408051601f198184030181529082905262461bcd60e51b82526105a69160040161197c565b60606104eb6001600160a01b03831660145b606060006112b28360026119fc565b6112bd9060026119e4565b67ffffffffffffffff8111156112e357634e487b7160e01b600052604160045260246000fd5b6040519080825280601f01601f19166020018201604052801561130d576020820181803683370190505b5090507f30000000000000000000000000000000000000000000000000000000000000008160008151811061135257634e487b7160e01b600052603260045260246000fd5b60200101906001600160f81b031916908160001a9053507f7800000000000000000000000000000000000000000000000000000000000000816001815181106113ab57634e487b7160e01b600052603260045260246000fd5b60200101906001600160f81b031916908160001a90535060006113cf8460026119fc565b6113da9060016119e4565b90505b600181111561147b577f303132333435363738396162636465660000000000000000000000000000000085600f166010811061142957634e487b7160e01b600052603260045260246000fd5b1a60f81b82828151811061144d57634e487b7160e01b600052603260045260246000fd5b60200101906001600160f81b031916908160001a90535060049490941c9361147481611a4b565b90506113dd565b5083156114ca5760405162461bcd60e51b815260206004820181905260248201527f537472696e67733a20686578206c656e67746820696e73756666696369656e7460448201526064016105a6565b9392505050565b80356001600160a01b03811681146114e857600080fd5b919050565b600082601f8301126114fd578081fd5b8135602061151261150d836119c0565b61198f565b80838252828201915082860187848660051b8901011115611531578586fd5b855b8581101561154f57813584529284019290840190600101611533565b5090979650505050505050565b60006020828403121561156d578081fd5b6114ca826114d1565b60008060006060848603121561158a578182fd5b611593846114d1565b92506115a1602085016114d1565b91506115af604085016114d1565b90509250925092565b600080604083850312156115ca578182fd5b6115d3836114d1565b9150602083013580151581146115e7578182fd5b809150509250929050565b60008060408385031215611604578182fd5b61160d836114d1565b915060208084013567ffffffffffffffff8082111561162a578384fd5b818601915086601f83011261163d578384fd5b81358181111561164f5761164f611a78565b611661601f8201601f1916850161198f565b91508082528784828501011115611676578485fd5b8084840185840137810190920192909252919491935090915050565b600080604083850312156116a4578182fd5b6116ad836114d1565b946020939093013593505050565b600080604083850312156116cd578182fd5b6116d6836114d1565b9150602083013560ff811681146115e7578182fd5b600080604083850312156116fd578182fd5b823567ffffffffffffffff80821115611714578384fd5b818501915085601f830112611727578384fd5b8135602061173761150d836119c0565b8083825282820191508286018a848660051b8901011115611756578889fd5b8896505b8487101561177f5761176b816114d1565b83526001969096019591830191830161175a565b5096505086013592505080821115611795578283fd5b506117a2858286016114ed565b9150509250929050565b6000602082840312156117bd578081fd5b5035919050565b600080604083850312156117d6578182fd5b823591506117e6602084016114d1565b90509250929050565b600060208284031215611800578081fd5b81357fffffffff00000000000000000000000000000000000000000000000000000000811681146114ca578182fd5b60008151808452611847816020860160208601611a1b565b601f01601f19169290920160200192915050565b7f416363657373436f6e74726f6c3a206163636f756e7420000000000000000000815260008351611893816017850160208801611a1b565b7f206973206d697373696e6720726f6c652000000000000000000000000000000060179184019182015283516118d0816028840160208801611a1b565b01602801949350505050565b6001600160a01b03831681526040602082015260006118fe604083018461182f565b949350505050565b604080825283519082018190526000906020906060840190828701845b828110156119485781516001600160a01b031684529284019290840190600101611923565b50505083810382850152845180825285830191830190845b8181101561154f57835183529284019291840191600101611960565b6020815260006114ca602083018461182f565b604051601f8201601f1916810167ffffffffffffffff811182821017156119b8576119b8611a78565b604052919050565b600067ffffffffffffffff8211156119da576119da611a78565b5060051b60200190565b600082198211156119f7576119f7611a62565b500190565b6000816000190483118215151615611a1657611a16611a62565b500290565b60005b83811015611a36578181015183820152602001611a1e565b83811115611a45576000848401525b50505050565b600081611a5a57611a5a611a62565b506000190190565b634e487b7160e01b600052601160045260246000fd5b634e487b7160e01b600052604160045260246000fdfea26469706673582212200b655ec772b37604d8736f2fe7ebdaa94b6fb0e95990dd48c0f1e285a67d4b7164736f6c63430008040033",
          "opcodes": "PUSH1 0x80 PUSH1 0x40 MSTORE PUSH1 0x3 DUP1 SLOAD PUSH1 0xFF PUSH1 0xA0 SHL NOT AND SWAP1 SSTORE CALLVALUE DUP1 ISZERO PUSH3 0x1E JUMPI PUSH1 0x0 DUP1 REVERT JUMPDEST POP PUSH1 0x40 MLOAD PUSH3 0x1CA7 CODESIZE SUB DUP1 PUSH3 0x1CA7 DUP4 CODECOPY DUP2 ADD PUSH1 0x40 DUP2 SWAP1 MSTORE PUSH3 0x41 SWAP2 PUSH3 0x18A JUMP JUMPDEST PUSH3 0x4E PUSH1 0x0 CALLER PUSH3 0xBD JUMP JUMPDEST PUSH3 0x7A PUSH32 0x339759585899103D2ACE64958E37E18CCB0504652C81D4A1B8AA80FE2126AB95 CALLER PUSH3 0xBD JUMP JUMPDEST PUSH1 0x1 DUP1 SLOAD PUSH1 0x1 PUSH1 0x1 PUSH1 0xA0 SHL SUB SWAP5 DUP6 AND PUSH1 0x1 PUSH1 0x1 PUSH1 0xA0 SHL SUB NOT SWAP2 DUP3 AND OR SWAP1 SWAP2 SSTORE PUSH1 0x2 DUP1 SLOAD SWAP4 DUP6 AND SWAP4 DUP3 AND SWAP4 SWAP1 SWAP4 OR SWAP1 SWAP3 SSTORE PUSH1 0x3 DUP1 SLOAD SWAP2 SWAP1 SWAP4 AND SWAP2 AND OR SWAP1 SSTORE PUSH3 0x1D3 JUMP JUMPDEST PUSH3 0xC9 DUP3 DUP3 PUSH3 0xCD JUMP JUMPDEST POP POP JUMP JUMPDEST PUSH1 0x0 DUP3 DUP2 MSTORE PUSH1 0x20 DUP2 DUP2 MSTORE PUSH1 0x40 DUP1 DUP4 KECCAK256 PUSH1 0x1 PUSH1 0x1 PUSH1 0xA0 SHL SUB DUP6 AND DUP5 MSTORE SWAP1 SWAP2 MSTORE SWAP1 KECCAK256 SLOAD PUSH1 0xFF AND PUSH3 0xC9 JUMPI PUSH1 0x0 DUP3 DUP2 MSTORE PUSH1 0x20 DUP2 DUP2 MSTORE PUSH1 0x40 DUP1 DUP4 KECCAK256 PUSH1 0x1 PUSH1 0x1 PUSH1 0xA0 SHL SUB DUP6 AND DUP5 MSTORE SWAP1 SWAP2 MSTORE SWAP1 KECCAK256 DUP1 SLOAD PUSH1 0xFF NOT AND PUSH1 0x1 OR SWAP1 SSTORE PUSH3 0x129 CALLER SWAP1 JUMP JUMPDEST PUSH1 0x1 PUSH1 0x1 PUSH1 0xA0 SHL SUB AND DUP2 PUSH1 0x1 PUSH1 0x1 PUSH1 0xA0 SHL SUB AND DUP4 PUSH32 0x2F8788117E7EFF1D82E926EC794901D17C78024A50270940304540A733656F0D PUSH1 0x40 MLOAD PUSH1 0x40 MLOAD DUP1 SWAP2 SUB SWAP1 LOG4 POP POP JUMP JUMPDEST DUP1 MLOAD PUSH1 0x1 PUSH1 0x1 PUSH1 0xA0 SHL SUB DUP2 AND DUP2 EQ PUSH3 0x185 JUMPI PUSH1 0x0 DUP1 REVERT JUMPDEST SWAP2 SWAP1 POP JUMP JUMPDEST PUSH1 0x0 DUP1 PUSH1 0x0 PUSH1 0x60 DUP5 DUP7 SUB SLT ISZERO PUSH3 0x19F JUMPI DUP3 DUP4 REVERT JUMPDEST PUSH3 0x1AA DUP5 PUSH3 0x16D JUMP JUMPDEST SWAP3 POP PUSH3 0x1BA PUSH1 0x20 DUP6 ADD PUSH3 0x16D JUMP JUMPDEST SWAP2 POP PUSH3 0x1CA PUSH1 0x40 DUP6 ADD PUSH3 0x16D JUMP JUMPDEST SWAP1 POP SWAP3 POP SWAP3 POP SWAP3 JUMP JUMPDEST PUSH2 0x1AC4 DUP1 PUSH3 0x1E3 PUSH1 0x0 CODECOPY PUSH1 0x0 RETURN INVALID PUSH1 0x80 PUSH1 0x40 MSTORE CALLVALUE DUP1 ISZERO PUSH2 0x10 JUMPI PUSH1 0x0 DUP1 REVERT JUMPDEST POP PUSH1 0x4 CALLDATASIZE LT PUSH2 0x1C4 JUMPI PUSH1 0x0 CALLDATALOAD PUSH1 0xE0 SHR DUP1 PUSH4 0x98AA74E7 GT PUSH2 0xF9 JUMPI DUP1 PUSH4 0xD8BAF7CF GT PUSH2 0x97 JUMPI DUP1 PUSH4 0xF8742254 GT PUSH2 0x71 JUMPI DUP1 PUSH4 0xF8742254 EQ PUSH2 0x3F8 JUMPI DUP1 PUSH4 0xF887EA40 EQ PUSH2 0x41F JUMPI DUP1 PUSH4 0xF89C10AC EQ PUSH2 0x432 JUMPI DUP1 PUSH4 0xFD82E1F2 EQ PUSH2 0x445 JUMPI PUSH1 0x0 DUP1 REVERT JUMPDEST DUP1 PUSH4 0xD8BAF7CF EQ PUSH2 0x3BF JUMPI DUP1 PUSH4 0xE48A68A1 EQ PUSH2 0x3D2 JUMPI DUP1 PUSH4 0xF2FDE38B EQ PUSH2 0x3E5 JUMPI PUSH1 0x0 DUP1 REVERT JUMPDEST DUP1 PUSH4 0xA7575297 GT PUSH2 0xD3 JUMPI DUP1 PUSH4 0xA7575297 EQ PUSH2 0x373 JUMPI DUP1 PUSH4 0xC4D66DE8 EQ PUSH2 0x386 JUMPI DUP1 PUSH4 0xD3DC7539 EQ PUSH2 0x399 JUMPI DUP1 PUSH4 0xD547741F EQ PUSH2 0x3AC JUMPI PUSH1 0x0 DUP1 REVERT JUMPDEST DUP1 PUSH4 0x98AA74E7 EQ PUSH2 0x345 JUMPI DUP1 PUSH4 0x99A9AE64 EQ PUSH2 0x358 JUMPI DUP1 PUSH4 0xA217FDDF EQ PUSH2 0x36B JUMPI PUSH1 0x0 DUP1 REVERT JUMPDEST DUP1 PUSH4 0x36568ABE GT PUSH2 0x166 JUMPI DUP1 PUSH4 0x6DCA4D44 GT PUSH2 0x140 JUMPI DUP1 PUSH4 0x6DCA4D44 EQ PUSH2 0x2D5 JUMPI DUP1 PUSH4 0x76A692C8 EQ PUSH2 0x2E8 JUMPI DUP1 PUSH4 0x8BB9C5BF EQ PUSH2 0x2FB JUMPI DUP1 PUSH4 0x91D14854 EQ PUSH2 0x30E JUMPI PUSH1 0x0 DUP1 REVERT JUMPDEST DUP1 PUSH4 0x36568ABE EQ PUSH2 0x29C JUMPI DUP1 PUSH4 0x67CF3163 EQ PUSH2 0x2AF JUMPI DUP1 PUSH4 0x6B453C1F EQ PUSH2 0x2C2 JUMPI PUSH1 0x0 DUP1 REVERT JUMPDEST DUP1 PUSH4 0x1BE6DD64 GT PUSH2 0x1A2 JUMPI DUP1 PUSH4 0x1BE6DD64 EQ PUSH2 0x230 JUMPI DUP1 PUSH4 0x248A9CA3 EQ PUSH2 0x243 JUMPI DUP1 PUSH4 0x2F2FF15D EQ PUSH2 0x274 JUMPI DUP1 PUSH4 0x34684A1E EQ PUSH2 0x289 JUMPI PUSH1 0x0 DUP1 REVERT JUMPDEST DUP1 PUSH4 0x1FFC9A7 EQ PUSH2 0x1C9 JUMPI DUP1 PUSH4 0xC340A24 EQ PUSH2 0x1F1 JUMPI DUP1 PUSH4 0x158EF93E EQ PUSH2 0x21C JUMPI JUMPDEST PUSH1 0x0 DUP1 REVERT JUMPDEST PUSH2 0x1DC PUSH2 0x1D7 CALLDATASIZE PUSH1 0x4 PUSH2 0x17EF JUMP JUMPDEST PUSH2 0x458 JUMP JUMPDEST PUSH1 0x40 MLOAD SWAP1 ISZERO ISZERO DUP2 MSTORE PUSH1 0x20 ADD JUMPDEST PUSH1 0x40 MLOAD DUP1 SWAP2 SUB SWAP1 RETURN JUMPDEST PUSH1 0x4 SLOAD PUSH2 0x204 SWAP1 PUSH1 0x1 PUSH1 0x1 PUSH1 0xA0 SHL SUB AND DUP2 JUMP JUMPDEST PUSH1 0x40 MLOAD PUSH1 0x1 PUSH1 0x1 PUSH1 0xA0 SHL SUB SWAP1 SWAP2 AND DUP2 MSTORE PUSH1 0x20 ADD PUSH2 0x1E8 JUMP JUMPDEST PUSH1 0x3 SLOAD PUSH2 0x1DC SWAP1 PUSH1 0x1 PUSH1 0xA0 SHL SWAP1 DIV PUSH1 0xFF AND DUP2 JUMP JUMPDEST PUSH1 0x3 SLOAD PUSH2 0x204 SWAP1 PUSH1 0x1 PUSH1 0x1 PUSH1 0xA0 SHL SUB AND DUP2 JUMP JUMPDEST PUSH2 0x266 PUSH2 0x251 CALLDATASIZE PUSH1 0x4 PUSH2 0x17AC JUMP JUMPDEST PUSH1 0x0 SWAP1 DUP2 MSTORE PUSH1 0x20 DUP2 SWAP1 MSTORE PUSH1 0x40 SWAP1 KECCAK256 PUSH1 0x1 ADD SLOAD SWAP1 JUMP JUMPDEST PUSH1 0x40 MLOAD SWAP1 DUP2 MSTORE PUSH1 0x20 ADD PUSH2 0x1E8 JUMP JUMPDEST PUSH2 0x287 PUSH2 0x282 CALLDATASIZE PUSH1 0x4 PUSH2 0x17C4 JUMP JUMPDEST PUSH2 0x4F1 JUMP JUMPDEST STOP JUMPDEST PUSH2 0x287 PUSH2 0x297 CALLDATASIZE PUSH1 0x4 PUSH2 0x1692 JUMP JUMPDEST PUSH2 0x51B JUMP JUMPDEST PUSH2 0x287 PUSH2 0x2AA CALLDATASIZE PUSH1 0x4 PUSH2 0x17C4 JUMP JUMPDEST PUSH2 0x633 JUMP JUMPDEST PUSH2 0x287 PUSH2 0x2BD CALLDATASIZE PUSH1 0x4 PUSH2 0x16BB JUMP JUMPDEST PUSH2 0x6BF JUMP JUMPDEST PUSH2 0x287 PUSH2 0x2D0 CALLDATASIZE PUSH1 0x4 PUSH2 0x155C JUMP JUMPDEST PUSH2 0x7A2 JUMP JUMPDEST PUSH2 0x287 PUSH2 0x2E3 CALLDATASIZE PUSH1 0x4 PUSH2 0x1576 JUMP JUMPDEST PUSH2 0x7CF JUMP JUMPDEST PUSH2 0x287 PUSH2 0x2F6 CALLDATASIZE PUSH1 0x4 PUSH2 0x15B8 JUMP JUMPDEST PUSH2 0x827 JUMP JUMPDEST PUSH2 0x287 PUSH2 0x309 CALLDATASIZE PUSH1 0x4 PUSH2 0x17AC JUMP JUMPDEST PUSH2 0x909 JUMP JUMPDEST PUSH2 0x1DC PUSH2 0x31C CALLDATASIZE PUSH1 0x4 PUSH2 0x17C4 JUMP JUMPDEST PUSH1 0x0 SWAP2 DUP3 MSTORE PUSH1 0x20 DUP3 DUP2 MSTORE PUSH1 0x40 DUP1 DUP5 KECCAK256 PUSH1 0x1 PUSH1 0x1 PUSH1 0xA0 SHL SUB SWAP4 SWAP1 SWAP4 AND DUP5 MSTORE SWAP2 SWAP1 MSTORE SWAP1 KECCAK256 SLOAD PUSH1 0xFF AND SWAP1 JUMP JUMPDEST PUSH2 0x287 PUSH2 0x353 CALLDATASIZE PUSH1 0x4 PUSH2 0x1692 JUMP JUMPDEST PUSH2 0x913 JUMP JUMPDEST PUSH2 0x287 PUSH2 0x366 CALLDATASIZE PUSH1 0x4 PUSH2 0x16EB JUMP JUMPDEST PUSH2 0x9F4 JUMP JUMPDEST PUSH2 0x266 PUSH1 0x0 DUP2 JUMP JUMPDEST PUSH2 0x287 PUSH2 0x381 CALLDATASIZE PUSH1 0x4 PUSH2 0x16EB JUMP JUMPDEST PUSH2 0xACE JUMP JUMPDEST PUSH2 0x287 PUSH2 0x394 CALLDATASIZE PUSH1 0x4 PUSH2 0x155C JUMP JUMPDEST PUSH2 0xBA8 JUMP JUMPDEST PUSH1 0x2 SLOAD PUSH2 0x204 SWAP1 PUSH1 0x1 PUSH1 0x1 PUSH1 0xA0 SHL SUB AND DUP2 JUMP JUMPDEST PUSH2 0x287 PUSH2 0x3BA CALLDATASIZE PUSH1 0x4 PUSH2 0x17C4 JUMP JUMPDEST PUSH2 0xDCE JUMP JUMPDEST PUSH2 0x287 PUSH2 0x3CD CALLDATASIZE PUSH1 0x4 PUSH2 0x155C JUMP JUMPDEST PUSH2 0xDF3 JUMP JUMPDEST PUSH2 0x287 PUSH2 0x3E0 CALLDATASIZE PUSH1 0x4 PUSH2 0x15F2 JUMP JUMPDEST PUSH2 0xE1D JUMP JUMPDEST PUSH2 0x287 PUSH2 0x3F3 CALLDATASIZE PUSH1 0x4 PUSH2 0x155C JUMP JUMPDEST PUSH2 0xEF7 JUMP JUMPDEST PUSH2 0x266 PUSH32 0x339759585899103D2ACE64958E37E18CCB0504652C81D4A1B8AA80FE2126AB95 DUP2 JUMP JUMPDEST PUSH1 0x1 SLOAD PUSH2 0x204 SWAP1 PUSH1 0x1 PUSH1 0x1 PUSH1 0xA0 SHL SUB AND DUP2 JUMP JUMPDEST PUSH2 0x287 PUSH2 0x440 CALLDATASIZE PUSH1 0x4 PUSH2 0x1692 JUMP JUMPDEST PUSH2 0xF0D JUMP JUMPDEST PUSH2 0x287 PUSH2 0x453 CALLDATASIZE PUSH1 0x4 PUSH2 0x17AC JUMP JUMPDEST PUSH2 0xFEE JUMP JUMPDEST PUSH1 0x0 PUSH32 0xFFFFFFFF00000000000000000000000000000000000000000000000000000000 DUP3 AND PUSH32 0x7965DB0B00000000000000000000000000000000000000000000000000000000 EQ DUP1 PUSH2 0x4EB JUMPI POP PUSH32 0x1FFC9A700000000000000000000000000000000000000000000000000000000 PUSH32 0xFFFFFFFF00000000000000000000000000000000000000000000000000000000 DUP4 AND EQ JUMPDEST SWAP3 SWAP2 POP POP JUMP JUMPDEST PUSH1 0x0 DUP3 DUP2 MSTORE PUSH1 0x20 DUP2 SWAP1 MSTORE PUSH1 0x40 SWAP1 KECCAK256 PUSH1 0x1 ADD SLOAD PUSH2 0x50C DUP2 PUSH2 0x10F7 JUMP JUMPDEST PUSH2 0x516 DUP4 DUP4 PUSH2 0x1101 JUMP JUMPDEST POP POP POP JUMP JUMPDEST CALLER PUSH1 0x0 SWAP1 DUP2 MSTORE PUSH32 0xA54247010AF6B3693B80ACEDDFAD12E077C5DE3571E6243FADA502635F0D7D39 PUSH1 0x20 MSTORE PUSH1 0x40 SWAP1 KECCAK256 SLOAD PUSH1 0xFF AND PUSH2 0x5AF JUMPI PUSH1 0x40 MLOAD PUSH3 0x461BCD PUSH1 0xE5 SHL DUP2 MSTORE PUSH1 0x20 PUSH1 0x4 DUP3 ADD MSTORE PUSH1 0x28 PUSH1 0x24 DUP3 ADD MSTORE PUSH32 0x4D61696E7461696E61626C653A2043616C6C6572206973206E6F742061206D61 PUSH1 0x44 DUP3 ADD MSTORE PUSH8 0x34B73A30B4B732B9 PUSH1 0xC1 SHL PUSH1 0x64 DUP3 ADD MSTORE PUSH1 0x84 ADD JUMPDEST PUSH1 0x40 MLOAD DUP1 SWAP2 SUB SWAP1 REVERT JUMPDEST PUSH1 0x3 SLOAD PUSH1 0x40 MLOAD PUSH32 0xC9D0529B00000000000000000000000000000000000000000000000000000000 DUP2 MSTORE PUSH1 0x1 PUSH1 0x1 PUSH1 0xA0 SHL SUB DUP5 DUP2 AND PUSH1 0x4 DUP4 ADD MSTORE PUSH1 0x24 DUP3 ADD DUP5 SWAP1 MSTORE SWAP1 SWAP2 AND SWAP1 PUSH4 0xC9D0529B SWAP1 PUSH1 0x44 ADD JUMPDEST PUSH1 0x0 PUSH1 0x40 MLOAD DUP1 DUP4 SUB DUP2 PUSH1 0x0 DUP8 DUP1 EXTCODESIZE ISZERO DUP1 ISZERO PUSH2 0x617 JUMPI PUSH1 0x0 DUP1 REVERT JUMPDEST POP GAS CALL ISZERO DUP1 ISZERO PUSH2 0x62B JUMPI RETURNDATASIZE PUSH1 0x0 DUP1 RETURNDATACOPY RETURNDATASIZE PUSH1 0x0 REVERT JUMPDEST POP POP POP POP POP POP JUMP JUMPDEST PUSH1 0x1 PUSH1 0x1 PUSH1 0xA0 SHL SUB DUP2 AND CALLER EQ PUSH2 0x6B1 JUMPI PUSH1 0x40 MLOAD PUSH3 0x461BCD PUSH1 0xE5 SHL DUP2 MSTORE PUSH1 0x20 PUSH1 0x4 DUP3 ADD MSTORE PUSH1 0x2F PUSH1 0x24 DUP3 ADD MSTORE PUSH32 0x416363657373436F6E74726F6C3A2063616E206F6E6C792072656E6F756E6365 PUSH1 0x44 DUP3 ADD MSTORE PUSH32 0x20726F6C657320666F722073656C660000000000000000000000000000000000 PUSH1 0x64 DUP3 ADD MSTORE PUSH1 0x84 ADD PUSH2 0x5A6 JUMP JUMPDEST PUSH2 0x6BB DUP3 DUP3 PUSH2 0x119F JUMP JUMPDEST POP POP JUMP JUMPDEST CALLER PUSH1 0x0 SWAP1 DUP2 MSTORE PUSH32 0xA54247010AF6B3693B80ACEDDFAD12E077C5DE3571E6243FADA502635F0D7D39 PUSH1 0x20 MSTORE PUSH1 0x40 SWAP1 KECCAK256 SLOAD PUSH1 0xFF AND PUSH2 0x74E JUMPI PUSH1 0x40 MLOAD PUSH3 0x461BCD PUSH1 0xE5 SHL DUP2 MSTORE PUSH1 0x20 PUSH1 0x4 DUP3 ADD MSTORE PUSH1 0x28 PUSH1 0x24 DUP3 ADD MSTORE PUSH32 0x4D61696E7461696E61626C653A2043616C6C6572206973206E6F742061206D61 PUSH1 0x44 DUP3 ADD MSTORE PUSH8 0x34B73A30B4B732B9 PUSH1 0xC1 SHL PUSH1 0x64 DUP3 ADD MSTORE PUSH1 0x84 ADD PUSH2 0x5A6 JUMP JUMPDEST PUSH1 0x2 SLOAD PUSH1 0x40 MLOAD PUSH32 0x4C10FB2500000000000000000000000000000000000000000000000000000000 DUP2 MSTORE PUSH1 0x1 PUSH1 0x1 PUSH1 0xA0 SHL SUB DUP5 DUP2 AND PUSH1 0x4 DUP4 ADD MSTORE PUSH1 0xFF DUP5 AND PUSH1 0x24 DUP4 ADD MSTORE SWAP1 SWAP2 AND SWAP1 PUSH4 0x4C10FB25 SWAP1 PUSH1 0x44 ADD PUSH2 0x5FD JUMP JUMPDEST PUSH2 0x7CC PUSH32 0x339759585899103D2ACE64958E37E18CCB0504652C81D4A1B8AA80FE2126AB95 DUP3 PUSH2 0x4F1 JUMP JUMPDEST POP JUMP JUMPDEST PUSH1 0x0 PUSH2 0x7DA DUP2 PUSH2 0x10F7 JUMP JUMPDEST POP PUSH1 0x1 DUP1 SLOAD PUSH1 0x1 PUSH1 0x1 PUSH1 0xA0 SHL SUB SWAP5 DUP6 AND PUSH20 0xFFFFFFFFFFFFFFFFFFFFFFFFFFFFFFFFFFFFFFFF NOT SWAP2 DUP3 AND OR SWAP1 SWAP2 SSTORE PUSH1 0x2 DUP1 SLOAD SWAP4 DUP6 AND SWAP4 DUP3 AND SWAP4 SWAP1 SWAP4 OR SWAP1 SWAP3 SSTORE PUSH1 0x3 DUP1 SLOAD SWAP2 SWAP1 SWAP4 AND SWAP2 AND OR SWAP1 SSTORE JUMP JUMPDEST CALLER PUSH1 0x0 SWAP1 DUP2 MSTORE PUSH32 0xA54247010AF6B3693B80ACEDDFAD12E077C5DE3571E6243FADA502635F0D7D39 PUSH1 0x20 MSTORE PUSH1 0x40 SWAP1 KECCAK256 SLOAD PUSH1 0xFF AND PUSH2 0x8B6 JUMPI PUSH1 0x40 MLOAD PUSH3 0x461BCD PUSH1 0xE5 SHL DUP2 MSTORE PUSH1 0x20 PUSH1 0x4 DUP3 ADD MSTORE PUSH1 0x28 PUSH1 0x24 DUP3 ADD MSTORE PUSH32 0x4D61696E7461696E61626C653A2043616C6C6572206973206E6F742061206D61 PUSH1 0x44 DUP3 ADD MSTORE PUSH8 0x34B73A30B4B732B9 PUSH1 0xC1 SHL PUSH1 0x64 DUP3 ADD MSTORE PUSH1 0x84 ADD PUSH2 0x5A6 JUMP JUMPDEST PUSH1 0x3 SLOAD PUSH1 0x40 MLOAD PUSH32 0xD01DD6D200000000000000000000000000000000000000000000000000000000 DUP2 MSTORE PUSH1 0x1 PUSH1 0x1 PUSH1 0xA0 SHL SUB DUP5 DUP2 AND PUSH1 0x4 DUP4 ADD MSTORE DUP4 ISZERO ISZERO PUSH1 0x24 DUP4 ADD MSTORE SWAP1 SWAP2 AND SWAP1 PUSH4 0xD01DD6D2 SWAP1 PUSH1 0x44 ADD PUSH2 0x5FD JUMP JUMPDEST PUSH2 0x7CC DUP2 CALLER PUSH2 0x633 JUMP JUMPDEST CALLER PUSH1 0x0 SWAP1 DUP2 MSTORE PUSH32 0xA54247010AF6B3693B80ACEDDFAD12E077C5DE3571E6243FADA502635F0D7D39 PUSH1 0x20 MSTORE PUSH1 0x40 SWAP1 KECCAK256 SLOAD PUSH1 0xFF AND PUSH2 0x9A2 JUMPI PUSH1 0x40 MLOAD PUSH3 0x461BCD PUSH1 0xE5 SHL DUP2 MSTORE PUSH1 0x20 PUSH1 0x4 DUP3 ADD MSTORE PUSH1 0x28 PUSH1 0x24 DUP3 ADD MSTORE PUSH32 0x4D61696E7461696E61626C653A2043616C6C6572206973206E6F742061206D61 PUSH1 0x44 DUP3 ADD MSTORE PUSH8 0x34B73A30B4B732B9 PUSH1 0xC1 SHL PUSH1 0x64 DUP3 ADD MSTORE PUSH1 0x84 ADD PUSH2 0x5A6 JUMP JUMPDEST PUSH1 0x3 SLOAD PUSH1 0x40 MLOAD PUSH32 0x557B186400000000000000000000000000000000000000000000000000000000 DUP2 MSTORE PUSH1 0x1 PUSH1 0x1 PUSH1 0xA0 SHL SUB DUP5 DUP2 AND PUSH1 0x4 DUP4 ADD MSTORE PUSH1 0x24 DUP3 ADD DUP5 SWAP1 MSTORE SWAP1 SWAP2 AND SWAP1 PUSH4 0x557B1864 SWAP1 PUSH1 0x44 ADD PUSH2 0x5FD JUMP JUMPDEST CALLER PUSH1 0x0 SWAP1 DUP2 MSTORE PUSH32 0xA54247010AF6B3693B80ACEDDFAD12E077C5DE3571E6243FADA502635F0D7D39 PUSH1 0x20 MSTORE PUSH1 0x40 SWAP1 KECCAK256 SLOAD PUSH1 0xFF AND PUSH2 0xA83 JUMPI PUSH1 0x40 MLOAD PUSH3 0x461BCD PUSH1 0xE5 SHL DUP2 MSTORE PUSH1 0x20 PUSH1 0x4 DUP3 ADD MSTORE PUSH1 0x28 PUSH1 0x24 DUP3 ADD MSTORE PUSH32 0x4D61696E7461696E61626C653A2043616C6C6572206973206E6F742061206D61 PUSH1 0x44 DUP3 ADD MSTORE PUSH8 0x34B73A30B4B732B9 PUSH1 0xC1 SHL PUSH1 0x64 DUP3 ADD MSTORE PUSH1 0x84 ADD PUSH2 0x5A6 JUMP JUMPDEST PUSH1 0x1 SLOAD PUSH1 0x40 MLOAD PUSH32 0xEADB18FF00000000000000000000000000000000000000000000000000000000 DUP2 MSTORE PUSH1 0x1 PUSH1 0x1 PUSH1 0xA0 SHL SUB SWAP1 SWAP2 AND SWAP1 PUSH4 0xEADB18FF SWAP1 PUSH2 0x5FD SWAP1 DUP6 SWAP1 DUP6 SWAP1 PUSH1 0x4 ADD PUSH2 0x1906 JUMP JUMPDEST CALLER PUSH1 0x0 SWAP1 DUP2 MSTORE PUSH32 0xA54247010AF6B3693B80ACEDDFAD12E077C5DE3571E6243FADA502635F0D7D39 PUSH1 0x20 MSTORE PUSH1 0x40 SWAP1 KECCAK256 SLOAD PUSH1 0xFF AND PUSH2 0xB5D JUMPI PUSH1 0x40 MLOAD PUSH3 0x461BCD PUSH1 0xE5 SHL DUP2 MSTORE PUSH1 0x20 PUSH1 0x4 DUP3 ADD MSTORE PUSH1 0x28 PUSH1 0x24 DUP3 ADD MSTORE PUSH32 0x4D61696E7461696E61626C653A2043616C6C6572206973206E6F742061206D61 PUSH1 0x44 DUP3 ADD MSTORE PUSH8 0x34B73A30B4B732B9 PUSH1 0xC1 SHL PUSH1 0x64 DUP3 ADD MSTORE PUSH1 0x84 ADD PUSH2 0x5A6 JUMP JUMPDEST PUSH1 0x1 SLOAD PUSH1 0x40 MLOAD PUSH32 0x8D2195AD00000000000000000000000000000000000000000000000000000000 DUP2 MSTORE PUSH1 0x1 PUSH1 0x1 PUSH1 0xA0 SHL SUB SWAP1 SWAP2 AND SWAP1 PUSH4 0x8D2195AD SWAP1 PUSH2 0x5FD SWAP1 DUP6 SWAP1 DUP6 SWAP1 PUSH1 0x4 ADD PUSH2 0x1906 JUMP JUMPDEST CALLER PUSH1 0x0 SWAP1 DUP2 MSTORE PUSH32 0xA54247010AF6B3693B80ACEDDFAD12E077C5DE3571E6243FADA502635F0D7D39 PUSH1 0x20 MSTORE PUSH1 0x40 SWAP1 KECCAK256 SLOAD PUSH1 0xFF AND PUSH2 0xC37 JUMPI PUSH1 0x40 MLOAD PUSH3 0x461BCD PUSH1 0xE5 SHL DUP2 MSTORE PUSH1 0x20 PUSH1 0x4 DUP3 ADD MSTORE PUSH1 0x28 PUSH1 0x24 DUP3 ADD MSTORE PUSH32 0x4D61696E7461696E61626C653A2043616C6C6572206973206E6F742061206D61 PUSH1 0x44 DUP3 ADD MSTORE PUSH8 0x34B73A30B4B732B9 PUSH1 0xC1 SHL PUSH1 0x64 DUP3 ADD MSTORE PUSH1 0x84 ADD PUSH2 0x5A6 JUMP JUMPDEST PUSH1 0x3 SLOAD PUSH1 0x1 PUSH1 0xA0 SHL SWAP1 DIV PUSH1 0xFF AND ISZERO PUSH2 0xC7B JUMPI PUSH1 0x40 MLOAD PUSH32 0xDC149F000000000000000000000000000000000000000000000000000000000 DUP2 MSTORE PUSH1 0x4 ADD PUSH1 0x40 MLOAD DUP1 SWAP2 SUB SWAP1 REVERT JUMPDEST PUSH1 0x3 DUP1 SLOAD PUSH32 0xFFFFFFFFFFFFFFFFFFFFFF00FFFFFFFFFFFFFFFFFFFFFFFFFFFFFFFFFFFFFFFF AND PUSH1 0x1 PUSH1 0xA0 SHL OR SWAP1 SSTORE PUSH1 0x40 DUP1 MLOAD PUSH32 0x4E606C4700000000000000000000000000000000000000000000000000000000 DUP2 MSTORE SWAP1 MLOAD PUSH20 0x4300000000000000000000000000000000000002 SWAP2 DUP3 SWAP2 PUSH4 0x4E606C47 SWAP2 PUSH1 0x4 DUP1 DUP3 ADD SWAP3 PUSH1 0x0 SWAP3 SWAP1 SWAP2 SWAP1 DUP3 SWAP1 SUB ADD DUP2 DUP4 DUP8 DUP1 EXTCODESIZE ISZERO DUP1 ISZERO PUSH2 0xD11 JUMPI PUSH1 0x0 DUP1 REVERT JUMPDEST POP GAS CALL ISZERO DUP1 ISZERO PUSH2 0xD25 JUMPI RETURNDATASIZE PUSH1 0x0 DUP1 RETURNDATACOPY RETURNDATASIZE PUSH1 0x0 REVERT JUMPDEST POP POP PUSH1 0x40 MLOAD PUSH32 0xEB86469800000000000000000000000000000000000000000000000000000000 DUP2 MSTORE PUSH1 0x1 PUSH1 0x1 PUSH1 0xA0 SHL SUB DUP6 DUP2 AND PUSH1 0x4 DUP4 ADD MSTORE DUP5 AND SWAP3 POP PUSH4 0xEB864698 SWAP2 POP PUSH1 0x24 ADD PUSH1 0x0 PUSH1 0x40 MLOAD DUP1 DUP4 SUB DUP2 PUSH1 0x0 DUP8 DUP1 EXTCODESIZE ISZERO DUP1 ISZERO PUSH2 0xD85 JUMPI PUSH1 0x0 DUP1 REVERT JUMPDEST POP GAS CALL ISZERO DUP1 ISZERO PUSH2 0xD99 JUMPI RETURNDATASIZE PUSH1 0x0 DUP1 RETURNDATACOPY RETURNDATASIZE PUSH1 0x0 REVERT JUMPDEST POP POP PUSH1 0x4 DUP1 SLOAD PUSH20 0xFFFFFFFFFFFFFFFFFFFFFFFFFFFFFFFFFFFFFFFF NOT AND PUSH1 0x1 PUSH1 0x1 PUSH1 0xA0 SHL SUB SWAP6 SWAP1 SWAP6 AND SWAP5 SWAP1 SWAP5 OR SWAP1 SWAP4 SSTORE POP POP POP JUMP JUMPDEST PUSH1 0x0 DUP3 DUP2 MSTORE PUSH1 0x20 DUP2 SWAP1 MSTORE PUSH1 0x40 SWAP1 KECCAK256 PUSH1 0x1 ADD SLOAD PUSH2 0xDE9 DUP2 PUSH2 0x10F7 JUMP JUMPDEST PUSH2 0x516 DUP4 DUP4 PUSH2 0x119F JUMP JUMPDEST PUSH2 0x7CC PUSH32 0x339759585899103D2ACE64958E37E18CCB0504652C81D4A1B8AA80FE2126AB95 DUP3 PUSH2 0xDCE JUMP JUMPDEST CALLER PUSH1 0x0 SWAP1 DUP2 MSTORE PUSH32 0xA54247010AF6B3693B80ACEDDFAD12E077C5DE3571E6243FADA502635F0D7D39 PUSH1 0x20 MSTORE PUSH1 0x40 SWAP1 KECCAK256 SLOAD PUSH1 0xFF AND PUSH2 0xEAC JUMPI PUSH1 0x40 MLOAD PUSH3 0x461BCD PUSH1 0xE5 SHL DUP2 MSTORE PUSH1 0x20 PUSH1 0x4 DUP3 ADD MSTORE PUSH1 0x28 PUSH1 0x24 DUP3 ADD MSTORE PUSH32 0x4D61696E7461696E61626C653A2043616C6C6572206973206E6F742061206D61 PUSH1 0x44 DUP3 ADD MSTORE PUSH8 0x34B73A30B4B732B9 PUSH1 0xC1 SHL PUSH1 0x64 DUP3 ADD MSTORE PUSH1 0x84 ADD PUSH2 0x5A6 JUMP JUMPDEST PUSH1 0x2 SLOAD PUSH1 0x40 MLOAD PUSH32 0xBA32AA1500000000000000000000000000000000000000000000000000000000 DUP2 MSTORE PUSH1 0x1 PUSH1 0x1 PUSH1 0xA0 SHL SUB SWAP1 SWAP2 AND SWAP1 PUSH4 0xBA32AA15 SWAP1 PUSH2 0x5FD SWAP1 DUP6 SWAP1 DUP6 SWAP1 PUSH1 0x4 ADD PUSH2 0x18DC JUMP JUMPDEST PUSH2 0xF02 PUSH1 0x0 DUP3 PUSH2 0x4F1 JUMP JUMPDEST PUSH2 0x7CC PUSH1 0x0 CALLER PUSH2 0x633 JUMP JUMPDEST CALLER PUSH1 0x0 SWAP1 DUP2 MSTORE PUSH32 0xA54247010AF6B3693B80ACEDDFAD12E077C5DE3571E6243FADA502635F0D7D39 PUSH1 0x20 MSTORE PUSH1 0x40 SWAP1 KECCAK256 SLOAD PUSH1 0xFF AND PUSH2 0xF9C JUMPI PUSH1 0x40 MLOAD PUSH3 0x461BCD PUSH1 0xE5 SHL DUP2 MSTORE PUSH1 0x20 PUSH1 0x4 DUP3 ADD MSTORE PUSH1 0x28 PUSH1 0x24 DUP3 ADD MSTORE PUSH32 0x4D61696E7461696E61626C653A2043616C6C6572206973206E6F742061206D61 PUSH1 0x44 DUP3 ADD MSTORE PUSH8 0x34B73A30B4B732B9 PUSH1 0xC1 SHL PUSH1 0x64 DUP3 ADD MSTORE PUSH1 0x84 ADD PUSH2 0x5A6 JUMP JUMPDEST PUSH1 0x3 SLOAD PUSH1 0x40 MLOAD PUSH32 0x32102E3B00000000000000000000000000000000000000000000000000000000 DUP2 MSTORE PUSH1 0x1 PUSH1 0x1 PUSH1 0xA0 SHL SUB DUP5 DUP2 AND PUSH1 0x4 DUP4 ADD MSTORE PUSH1 0x24 DUP3 ADD DUP5 SWAP1 MSTORE SWAP1 SWAP2 AND SWAP1 PUSH4 0x32102E3B SWAP1 PUSH1 0x44 ADD PUSH2 0x5FD JUMP JUMPDEST CALLER PUSH1 0x0 SWAP1 DUP2 MSTORE PUSH32 0xA54247010AF6B3693B80ACEDDFAD12E077C5DE3571E6243FADA502635F0D7D39 PUSH1 0x20 MSTORE PUSH1 0x40 SWAP1 KECCAK256 SLOAD PUSH1 0xFF AND PUSH2 0x107D JUMPI PUSH1 0x40 MLOAD PUSH3 0x461BCD PUSH1 0xE5 SHL DUP2 MSTORE PUSH1 0x20 PUSH1 0x4 DUP3 ADD MSTORE PUSH1 0x28 PUSH1 0x24 DUP3 ADD MSTORE PUSH32 0x4D61696E7461696E61626C653A2043616C6C6572206973206E6F742061206D61 PUSH1 0x44 DUP3 ADD MSTORE PUSH8 0x34B73A30B4B732B9 PUSH1 0xC1 SHL PUSH1 0x64 DUP3 ADD MSTORE PUSH1 0x84 ADD PUSH2 0x5A6 JUMP JUMPDEST PUSH1 0x3 SLOAD PUSH1 0x40 MLOAD PUSH32 0x50D935C400000000000000000000000000000000000000000000000000000000 DUP2 MSTORE PUSH1 0x4 DUP2 ADD DUP4 SWAP1 MSTORE PUSH1 0x1 PUSH1 0x1 PUSH1 0xA0 SHL SUB SWAP1 SWAP2 AND SWAP1 PUSH4 0x50D935C4 SWAP1 PUSH1 0x24 ADD PUSH1 0x0 PUSH1 0x40 MLOAD DUP1 DUP4 SUB DUP2 PUSH1 0x0 DUP8 DUP1 EXTCODESIZE ISZERO DUP1 ISZERO PUSH2 0x10DC JUMPI PUSH1 0x0 DUP1 REVERT JUMPDEST POP GAS CALL ISZERO DUP1 ISZERO PUSH2 0x10F0 JUMPI RETURNDATASIZE PUSH1 0x0 DUP1 RETURNDATACOPY RETURNDATASIZE PUSH1 0x0 REVERT JUMPDEST POP POP POP POP POP JUMP JUMPDEST PUSH2 0x7CC DUP2 CALLER PUSH2 0x121E JUMP JUMPDEST PUSH1 0x0 DUP3 DUP2 MSTORE PUSH1 0x20 DUP2 DUP2 MSTORE PUSH1 0x40 DUP1 DUP4 KECCAK256 PUSH1 0x1 PUSH1 0x1 PUSH1 0xA0 SHL SUB DUP6 AND DUP5 MSTORE SWAP1 SWAP2 MSTORE SWAP1 KECCAK256 SLOAD PUSH1 0xFF AND PUSH2 0x6BB JUMPI PUSH1 0x0 DUP3 DUP2 MSTORE PUSH1 0x20 DUP2 DUP2 MSTORE PUSH1 0x40 DUP1 DUP4 KECCAK256 PUSH1 0x1 PUSH1 0x1 PUSH1 0xA0 SHL SUB DUP6 AND DUP5 MSTORE SWAP1 SWAP2 MSTORE SWAP1 KECCAK256 DUP1 SLOAD PUSH1 0xFF NOT AND PUSH1 0x1 OR SWAP1 SSTORE PUSH2 0x115B CALLER SWAP1 JUMP JUMPDEST PUSH1 0x1 PUSH1 0x1 PUSH1 0xA0 SHL SUB AND DUP2 PUSH1 0x1 PUSH1 0x1 PUSH1 0xA0 SHL SUB AND DUP4 PUSH32 0x2F8788117E7EFF1D82E926EC794901D17C78024A50270940304540A733656F0D PUSH1 0x40 MLOAD PUSH1 0x40 MLOAD DUP1 SWAP2 SUB SWAP1 LOG4 POP POP JUMP JUMPDEST PUSH1 0x0 DUP3 DUP2 MSTORE PUSH1 0x20 DUP2 DUP2 MSTORE PUSH1 0x40 DUP1 DUP4 KECCAK256 PUSH1 0x1 PUSH1 0x1 PUSH1 0xA0 SHL SUB DUP6 AND DUP5 MSTORE SWAP1 SWAP2 MSTORE SWAP1 KECCAK256 SLOAD PUSH1 0xFF AND ISZERO PUSH2 0x6BB JUMPI PUSH1 0x0 DUP3 DUP2 MSTORE PUSH1 0x20 DUP2 DUP2 MSTORE PUSH1 0x40 DUP1 DUP4 KECCAK256 PUSH1 0x1 PUSH1 0x1 PUSH1 0xA0 SHL SUB DUP6 AND DUP1 DUP6 MSTORE SWAP3 MSTORE DUP1 DUP4 KECCAK256 DUP1 SLOAD PUSH1 0xFF NOT AND SWAP1 SSTORE MLOAD CALLER SWAP3 DUP6 SWAP2 PUSH32 0xF6391F5C32D9C69D2A47EA670B442974B53935D1EDC7FD64EB21E047A839171B SWAP2 SWAP1 LOG4 POP POP JUMP JUMPDEST PUSH1 0x0 DUP3 DUP2 MSTORE PUSH1 0x20 DUP2 DUP2 MSTORE PUSH1 0x40 DUP1 DUP4 KECCAK256 PUSH1 0x1 PUSH1 0x1 PUSH1 0xA0 SHL SUB DUP6 AND DUP5 MSTORE SWAP1 SWAP2 MSTORE SWAP1 KECCAK256 SLOAD PUSH1 0xFF AND PUSH2 0x6BB JUMPI PUSH2 0x124F DUP2 PUSH2 0x1291 JUMP JUMPDEST PUSH2 0x125A DUP4 PUSH1 0x20 PUSH2 0x12A3 JUMP JUMPDEST PUSH1 0x40 MLOAD PUSH1 0x20 ADD PUSH2 0x126B SWAP3 SWAP2 SWAP1 PUSH2 0x185B JUMP JUMPDEST PUSH1 0x40 DUP1 MLOAD PUSH1 0x1F NOT DUP2 DUP5 SUB ADD DUP2 MSTORE SWAP1 DUP3 SWAP1 MSTORE PUSH3 0x461BCD PUSH1 0xE5 SHL DUP3 MSTORE PUSH2 0x5A6 SWAP2 PUSH1 0x4 ADD PUSH2 0x197C JUMP JUMPDEST PUSH1 0x60 PUSH2 0x4EB PUSH1 0x1 PUSH1 0x1 PUSH1 0xA0 SHL SUB DUP4 AND PUSH1 0x14 JUMPDEST PUSH1 0x60 PUSH1 0x0 PUSH2 0x12B2 DUP4 PUSH1 0x2 PUSH2 0x19FC JUMP JUMPDEST PUSH2 0x12BD SWAP1 PUSH1 0x2 PUSH2 0x19E4 JUMP JUMPDEST PUSH8 0xFFFFFFFFFFFFFFFF DUP2 GT ISZERO PUSH2 0x12E3 JUMPI PUSH4 0x4E487B71 PUSH1 0xE0 SHL PUSH1 0x0 MSTORE PUSH1 0x41 PUSH1 0x4 MSTORE PUSH1 0x24 PUSH1 0x0 REVERT JUMPDEST PUSH1 0x40 MLOAD SWAP1 DUP1 DUP3 MSTORE DUP1 PUSH1 0x1F ADD PUSH1 0x1F NOT AND PUSH1 0x20 ADD DUP3 ADD PUSH1 0x40 MSTORE DUP1 ISZERO PUSH2 0x130D JUMPI PUSH1 0x20 DUP3 ADD DUP2 DUP1 CALLDATASIZE DUP4 CALLDATACOPY ADD SWAP1 POP JUMPDEST POP SWAP1 POP PUSH32 0x3000000000000000000000000000000000000000000000000000000000000000 DUP2 PUSH1 0x0 DUP2 MLOAD DUP2 LT PUSH2 0x1352 JUMPI PUSH4 0x4E487B71 PUSH1 0xE0 SHL PUSH1 0x0 MSTORE PUSH1 0x32 PUSH1 0x4 MSTORE PUSH1 0x24 PUSH1 0x0 REVERT JUMPDEST PUSH1 0x20 ADD ADD SWAP1 PUSH1 0x1 PUSH1 0x1 PUSH1 0xF8 SHL SUB NOT AND SWAP1 DUP2 PUSH1 0x0 BYTE SWAP1 MSTORE8 POP PUSH32 0x7800000000000000000000000000000000000000000000000000000000000000 DUP2 PUSH1 0x1 DUP2 MLOAD DUP2 LT PUSH2 0x13AB JUMPI PUSH4 0x4E487B71 PUSH1 0xE0 SHL PUSH1 0x0 MSTORE PUSH1 0x32 PUSH1 0x4 MSTORE PUSH1 0x24 PUSH1 0x0 REVERT JUMPDEST PUSH1 0x20 ADD ADD SWAP1 PUSH1 0x1 PUSH1 0x1 PUSH1 0xF8 SHL SUB NOT AND SWAP1 DUP2 PUSH1 0x0 BYTE SWAP1 MSTORE8 POP PUSH1 0x0 PUSH2 0x13CF DUP5 PUSH1 0x2 PUSH2 0x19FC JUMP JUMPDEST PUSH2 0x13DA SWAP1 PUSH1 0x1 PUSH2 0x19E4 JUMP JUMPDEST SWAP1 POP JUMPDEST PUSH1 0x1 DUP2 GT ISZERO PUSH2 0x147B JUMPI PUSH32 0x3031323334353637383961626364656600000000000000000000000000000000 DUP6 PUSH1 0xF AND PUSH1 0x10 DUP2 LT PUSH2 0x1429 JUMPI PUSH4 0x4E487B71 PUSH1 0xE0 SHL PUSH1 0x0 MSTORE PUSH1 0x32 PUSH1 0x4 MSTORE PUSH1 0x24 PUSH1 0x0 REVERT JUMPDEST BYTE PUSH1 0xF8 SHL DUP3 DUP3 DUP2 MLOAD DUP2 LT PUSH2 0x144D JUMPI PUSH4 0x4E487B71 PUSH1 0xE0 SHL PUSH1 0x0 MSTORE PUSH1 0x32 PUSH1 0x4 MSTORE PUSH1 0x24 PUSH1 0x0 REVERT JUMPDEST PUSH1 0x20 ADD ADD SWAP1 PUSH1 0x1 PUSH1 0x1 PUSH1 0xF8 SHL SUB NOT AND SWAP1 DUP2 PUSH1 0x0 BYTE SWAP1 MSTORE8 POP PUSH1 0x4 SWAP5 SWAP1 SWAP5 SHR SWAP4 PUSH2 0x1474 DUP2 PUSH2 0x1A4B JUMP JUMPDEST SWAP1 POP PUSH2 0x13DD JUMP JUMPDEST POP DUP4 ISZERO PUSH2 0x14CA JUMPI PUSH1 0x40 MLOAD PUSH3 0x461BCD PUSH1 0xE5 SHL DUP2 MSTORE PUSH1 0x20 PUSH1 0x4 DUP3 ADD DUP2 SWAP1 MSTORE PUSH1 0x24 DUP3 ADD MSTORE PUSH32 0x537472696E67733A20686578206C656E67746820696E73756666696369656E74 PUSH1 0x44 DUP3 ADD MSTORE PUSH1 0x64 ADD PUSH2 0x5A6 JUMP JUMPDEST SWAP4 SWAP3 POP POP POP JUMP JUMPDEST DUP1 CALLDATALOAD PUSH1 0x1 PUSH1 0x1 PUSH1 0xA0 SHL SUB DUP2 AND DUP2 EQ PUSH2 0x14E8 JUMPI PUSH1 0x0 DUP1 REVERT JUMPDEST SWAP2 SWAP1 POP JUMP JUMPDEST PUSH1 0x0 DUP3 PUSH1 0x1F DUP4 ADD SLT PUSH2 0x14FD JUMPI DUP1 DUP2 REVERT JUMPDEST DUP2 CALLDATALOAD PUSH1 0x20 PUSH2 0x1512 PUSH2 0x150D DUP4 PUSH2 0x19C0 JUMP JUMPDEST PUSH2 0x198F JUMP JUMPDEST DUP1 DUP4 DUP3 MSTORE DUP3 DUP3 ADD SWAP2 POP DUP3 DUP7 ADD DUP8 DUP5 DUP7 PUSH1 0x5 SHL DUP10 ADD ADD GT ISZERO PUSH2 0x1531 JUMPI DUP6 DUP7 REVERT JUMPDEST DUP6 JUMPDEST DUP6 DUP2 LT ISZERO PUSH2 0x154F JUMPI DUP2 CALLDATALOAD DUP5 MSTORE SWAP3 DUP5 ADD SWAP3 SWAP1 DUP5 ADD SWAP1 PUSH1 0x1 ADD PUSH2 0x1533 JUMP JUMPDEST POP SWAP1 SWAP8 SWAP7 POP POP POP POP POP POP POP JUMP JUMPDEST PUSH1 0x0 PUSH1 0x20 DUP3 DUP5 SUB SLT ISZERO PUSH2 0x156D JUMPI DUP1 DUP2 REVERT JUMPDEST PUSH2 0x14CA DUP3 PUSH2 0x14D1 JUMP JUMPDEST PUSH1 0x0 DUP1 PUSH1 0x0 PUSH1 0x60 DUP5 DUP7 SUB SLT ISZERO PUSH2 0x158A JUMPI DUP2 DUP3 REVERT JUMPDEST PUSH2 0x1593 DUP5 PUSH2 0x14D1 JUMP JUMPDEST SWAP3 POP PUSH2 0x15A1 PUSH1 0x20 DUP6 ADD PUSH2 0x14D1 JUMP JUMPDEST SWAP2 POP PUSH2 0x15AF PUSH1 0x40 DUP6 ADD PUSH2 0x14D1 JUMP JUMPDEST SWAP1 POP SWAP3 POP SWAP3 POP SWAP3 JUMP JUMPDEST PUSH1 0x0 DUP1 PUSH1 0x40 DUP4 DUP6 SUB SLT ISZERO PUSH2 0x15CA JUMPI DUP2 DUP3 REVERT JUMPDEST PUSH2 0x15D3 DUP4 PUSH2 0x14D1 JUMP JUMPDEST SWAP2 POP PUSH1 0x20 DUP4 ADD CALLDATALOAD DUP1 ISZERO ISZERO DUP2 EQ PUSH2 0x15E7 JUMPI DUP2 DUP3 REVERT JUMPDEST DUP1 SWAP2 POP POP SWAP3 POP SWAP3 SWAP1 POP JUMP JUMPDEST PUSH1 0x0 DUP1 PUSH1 0x40 DUP4 DUP6 SUB SLT ISZERO PUSH2 0x1604 JUMPI DUP2 DUP3 REVERT JUMPDEST PUSH2 0x160D DUP4 PUSH2 0x14D1 JUMP JUMPDEST SWAP2 POP PUSH1 0x20 DUP1 DUP5 ADD CALLDATALOAD PUSH8 0xFFFFFFFFFFFFFFFF DUP1 DUP3 GT ISZERO PUSH2 0x162A JUMPI DUP4 DUP5 REVERT JUMPDEST DUP2 DUP7 ADD SWAP2 POP DUP7 PUSH1 0x1F DUP4 ADD SLT PUSH2 0x163D JUMPI DUP4 DUP5 REVERT JUMPDEST DUP2 CALLDATALOAD DUP2 DUP2 GT ISZERO PUSH2 0x164F JUMPI PUSH2 0x164F PUSH2 0x1A78 JUMP JUMPDEST PUSH2 0x1661 PUSH1 0x1F DUP3 ADD PUSH1 0x1F NOT AND DUP6 ADD PUSH2 0x198F JUMP JUMPDEST SWAP2 POP DUP1 DUP3 MSTORE DUP8 DUP5 DUP3 DUP6 ADD ADD GT ISZERO PUSH2 0x1676 JUMPI DUP5 DUP6 REVERT JUMPDEST DUP1 DUP5 DUP5 ADD DUP6 DUP5 ADD CALLDATACOPY DUP2 ADD SWAP1 SWAP3 ADD SWAP3 SWAP1 SWAP3 MSTORE SWAP2 SWAP5 SWAP2 SWAP4 POP SWAP1 SWAP2 POP POP JUMP JUMPDEST PUSH1 0x0 DUP1 PUSH1 0x40 DUP4 DUP6 SUB SLT ISZERO PUSH2 0x16A4 JUMPI DUP2 DUP3 REVERT JUMPDEST PUSH2 0x16AD DUP4 PUSH2 0x14D1 JUMP JUMPDEST SWAP5 PUSH1 0x20 SWAP4 SWAP1 SWAP4 ADD CALLDATALOAD SWAP4 POP POP POP JUMP JUMPDEST PUSH1 0x0 DUP1 PUSH1 0x40 DUP4 DUP6 SUB SLT ISZERO PUSH2 0x16CD JUMPI DUP2 DUP3 REVERT JUMPDEST PUSH2 0x16D6 DUP4 PUSH2 0x14D1 JUMP JUMPDEST SWAP2 POP PUSH1 0x20 DUP4 ADD CALLDATALOAD PUSH1 0xFF DUP2 AND DUP2 EQ PUSH2 0x15E7 JUMPI DUP2 DUP3 REVERT JUMPDEST PUSH1 0x0 DUP1 PUSH1 0x40 DUP4 DUP6 SUB SLT ISZERO PUSH2 0x16FD JUMPI DUP2 DUP3 REVERT JUMPDEST DUP3 CALLDATALOAD PUSH8 0xFFFFFFFFFFFFFFFF DUP1 DUP3 GT ISZERO PUSH2 0x1714 JUMPI DUP4 DUP5 REVERT JUMPDEST DUP2 DUP6 ADD SWAP2 POP DUP6 PUSH1 0x1F DUP4 ADD SLT PUSH2 0x1727 JUMPI DUP4 DUP5 REVERT JUMPDEST DUP2 CALLDATALOAD PUSH1 0x20 PUSH2 0x1737 PUSH2 0x150D DUP4 PUSH2 0x19C0 JUMP JUMPDEST DUP1 DUP4 DUP3 MSTORE DUP3 DUP3 ADD SWAP2 POP DUP3 DUP7 ADD DUP11 DUP5 DUP7 PUSH1 0x5 SHL DUP10 ADD ADD GT ISZERO PUSH2 0x1756 JUMPI DUP9 DUP10 REVERT JUMPDEST DUP9 SWAP7 POP JUMPDEST DUP5 DUP8 LT ISZERO PUSH2 0x177F JUMPI PUSH2 0x176B DUP2 PUSH2 0x14D1 JUMP JUMPDEST DUP4 MSTORE PUSH1 0x1 SWAP7 SWAP1 SWAP7 ADD SWAP6 SWAP2 DUP4 ADD SWAP2 DUP4 ADD PUSH2 0x175A JUMP JUMPDEST POP SWAP7 POP POP DUP7 ADD CALLDATALOAD SWAP3 POP POP DUP1 DUP3 GT ISZERO PUSH2 0x1795 JUMPI DUP3 DUP4 REVERT JUMPDEST POP PUSH2 0x17A2 DUP6 DUP3 DUP7 ADD PUSH2 0x14ED JUMP JUMPDEST SWAP2 POP POP SWAP3 POP SWAP3 SWAP1 POP JUMP JUMPDEST PUSH1 0x0 PUSH1 0x20 DUP3 DUP5 SUB SLT ISZERO PUSH2 0x17BD JUMPI DUP1 DUP2 REVERT JUMPDEST POP CALLDATALOAD SWAP2 SWAP1 POP JUMP JUMPDEST PUSH1 0x0 DUP1 PUSH1 0x40 DUP4 DUP6 SUB SLT ISZERO PUSH2 0x17D6 JUMPI DUP2 DUP3 REVERT JUMPDEST DUP3 CALLDATALOAD SWAP2 POP PUSH2 0x17E6 PUSH1 0x20 DUP5 ADD PUSH2 0x14D1 JUMP JUMPDEST SWAP1 POP SWAP3 POP SWAP3 SWAP1 POP JUMP JUMPDEST PUSH1 0x0 PUSH1 0x20 DUP3 DUP5 SUB SLT ISZERO PUSH2 0x1800 JUMPI DUP1 DUP2 REVERT JUMPDEST DUP2 CALLDATALOAD PUSH32 0xFFFFFFFF00000000000000000000000000000000000000000000000000000000 DUP2 AND DUP2 EQ PUSH2 0x14CA JUMPI DUP2 DUP3 REVERT JUMPDEST PUSH1 0x0 DUP2 MLOAD DUP1 DUP5 MSTORE PUSH2 0x1847 DUP2 PUSH1 0x20 DUP7 ADD PUSH1 0x20 DUP7 ADD PUSH2 0x1A1B JUMP JUMPDEST PUSH1 0x1F ADD PUSH1 0x1F NOT AND SWAP3 SWAP1 SWAP3 ADD PUSH1 0x20 ADD SWAP3 SWAP2 POP POP JUMP JUMPDEST PUSH32 0x416363657373436F6E74726F6C3A206163636F756E7420000000000000000000 DUP2 MSTORE PUSH1 0x0 DUP4 MLOAD PUSH2 0x1893 DUP2 PUSH1 0x17 DUP6 ADD PUSH1 0x20 DUP9 ADD PUSH2 0x1A1B JUMP JUMPDEST PUSH32 0x206973206D697373696E6720726F6C6520000000000000000000000000000000 PUSH1 0x17 SWAP2 DUP5 ADD SWAP2 DUP3 ADD MSTORE DUP4 MLOAD PUSH2 0x18D0 DUP2 PUSH1 0x28 DUP5 ADD PUSH1 0x20 DUP9 ADD PUSH2 0x1A1B JUMP JUMPDEST ADD PUSH1 0x28 ADD SWAP5 SWAP4 POP POP POP POP JUMP JUMPDEST PUSH1 0x1 PUSH1 0x1 PUSH1 0xA0 SHL SUB DUP4 AND DUP2 MSTORE PUSH1 0x40 PUSH1 0x20 DUP3 ADD MSTORE PUSH1 0x0 PUSH2 0x18FE PUSH1 0x40 DUP4 ADD DUP5 PUSH2 0x182F JUMP JUMPDEST SWAP5 SWAP4 POP POP POP POP JUMP JUMPDEST PUSH1 0x40 DUP1 DUP3 MSTORE DUP4 MLOAD SWAP1 DUP3 ADD DUP2 SWAP1 MSTORE PUSH1 0x0 SWAP1 PUSH1 0x20 SWAP1 PUSH1 0x60 DUP5 ADD SWAP1 DUP3 DUP8 ADD DUP5 JUMPDEST DUP3 DUP2 LT ISZERO PUSH2 0x1948 JUMPI DUP2 MLOAD PUSH1 0x1 PUSH1 0x1 PUSH1 0xA0 SHL SUB AND DUP5 MSTORE SWAP3 DUP5 ADD SWAP3 SWAP1 DUP5 ADD SWAP1 PUSH1 0x1 ADD PUSH2 0x1923 JUMP JUMPDEST POP POP POP DUP4 DUP2 SUB DUP3 DUP6 ADD MSTORE DUP5 MLOAD DUP1 DUP3 MSTORE DUP6 DUP4 ADD SWAP2 DUP4 ADD SWAP1 DUP5 JUMPDEST DUP2 DUP2 LT ISZERO PUSH2 0x154F JUMPI DUP4 MLOAD DUP4 MSTORE SWAP3 DUP5 ADD SWAP3 SWAP2 DUP5 ADD SWAP2 PUSH1 0x1 ADD PUSH2 0x1960 JUMP JUMPDEST PUSH1 0x20 DUP2 MSTORE PUSH1 0x0 PUSH2 0x14CA PUSH1 0x20 DUP4 ADD DUP5 PUSH2 0x182F JUMP JUMPDEST PUSH1 0x40 MLOAD PUSH1 0x1F DUP3 ADD PUSH1 0x1F NOT AND DUP2 ADD PUSH8 0xFFFFFFFFFFFFFFFF DUP2 GT DUP3 DUP3 LT OR ISZERO PUSH2 0x19B8 JUMPI PUSH2 0x19B8 PUSH2 0x1A78 JUMP JUMPDEST PUSH1 0x40 MSTORE SWAP2 SWAP1 POP JUMP JUMPDEST PUSH1 0x0 PUSH8 0xFFFFFFFFFFFFFFFF DUP3 GT ISZERO PUSH2 0x19DA JUMPI PUSH2 0x19DA PUSH2 0x1A78 JUMP JUMPDEST POP PUSH1 0x5 SHL PUSH1 0x20 ADD SWAP1 JUMP JUMPDEST PUSH1 0x0 DUP3 NOT DUP3 GT ISZERO PUSH2 0x19F7 JUMPI PUSH2 0x19F7 PUSH2 0x1A62 JUMP JUMPDEST POP ADD SWAP1 JUMP JUMPDEST PUSH1 0x0 DUP2 PUSH1 0x0 NOT DIV DUP4 GT DUP3 ISZERO ISZERO AND ISZERO PUSH2 0x1A16 JUMPI PUSH2 0x1A16 PUSH2 0x1A62 JUMP JUMPDEST POP MUL SWAP1 JUMP JUMPDEST PUSH1 0x0 JUMPDEST DUP4 DUP2 LT ISZERO PUSH2 0x1A36 JUMPI DUP2 DUP2 ADD MLOAD DUP4 DUP3 ADD MSTORE PUSH1 0x20 ADD PUSH2 0x1A1E JUMP JUMPDEST DUP4 DUP2 GT ISZERO PUSH2 0x1A45 JUMPI PUSH1 0x0 DUP5 DUP5 ADD MSTORE JUMPDEST POP POP POP POP JUMP JUMPDEST PUSH1 0x0 DUP2 PUSH2 0x1A5A JUMPI PUSH2 0x1A5A PUSH2 0x1A62 JUMP JUMPDEST POP PUSH1 0x0 NOT ADD SWAP1 JUMP JUMPDEST PUSH4 0x4E487B71 PUSH1 0xE0 SHL PUSH1 0x0 MSTORE PUSH1 0x11 PUSH1 0x4 MSTORE PUSH1 0x24 PUSH1 0x0 REVERT JUMPDEST PUSH4 0x4E487B71 PUSH1 0xE0 SHL PUSH1 0x0 MSTORE PUSH1 0x41 PUSH1 0x4 MSTORE PUSH1 0x24 PUSH1 0x0 REVERT INVALID LOG2 PUSH5 0x6970667358 0x22 SLT KECCAK256 SIGNEXTEND PUSH6 0x5EC772B37604 0xD8 PUSH20 0x6F2FE7EBDAA94B6FB0E95990DD48C0F1E285A67D 0x4B PUSH18 0x64736F6C6343000804003300000000000000 "
        },
        "methodIdentifiers": {
          "DEFAULT_ADMIN_ROLE()": "a217fddf",
          "MAINTAINER_ROLE()": "f8742254",
          "addMaintainer(address)": "6b453c1f",
          "getRoleAdmin(bytes32)": "248a9ca3",
          "governor()": "0c340a24",
          "grantRole(bytes32,address)": "2f2ff15d",
          "hasRole(bytes32,address)": "91d14854",
          "initialize(address)": "c4d66de8",
          "initialized()": "158ef93e",
          "points()": "1be6dd64",
          "points_addAdapterVolume(address,uint256)": "34684a1e",
          "points_addVolume(address,uint256)": "f89c10ac",
          "points_setBlacklisted(address,bool)": "76a692c8",
          "points_setGlobalBoost(uint256)": "fd82e1f2",
          "points_summitTeamGivePoints(address,uint256)": "98aa74e7",
          "referrals()": "d3dc7539",
          "referrals_boostReferrer(address,uint8)": "67cf3163",
          "referrals_overrideReferralCode(address,string)": "e48a68a1",
          "removeMaintainer(address)": "d8baf7cf",
          "renounceRole(bytes32)": "8bb9c5bf",
          "renounceRole(bytes32,address)": "36568abe",
          "revokeRole(bytes32,address)": "d547741f",
          "router()": "f887ea40",
          "router_setTokenBonusMultipliers(address[],uint256[])": "99a9ae64",
          "router_setTokenVolumeMultipliers(address[],uint256[])": "a7575297",
          "supportsInterface(bytes4)": "01ffc9a7",
          "transferOwnership(address)": "f2fde38b",
          "updateContracts(address,address,address)": "6dca4d44"
        }
      },
      "storageLayout": {
        "storage": [
          {
            "astId": 24,
            "contract": "src/contracts/SummitAdminV2.sol:SummitAdminV2",
            "label": "_roles",
            "offset": 0,
            "slot": "0",
            "type": "t_mapping(t_bytes32,t_struct(RoleData)19_storage)"
          },
          {
            "astId": 1686,
            "contract": "src/contracts/SummitAdminV2.sol:SummitAdminV2",
            "label": "router",
            "offset": 0,
            "slot": "1",
            "type": "t_contract(ISummitRouterExt)1681"
          },
          {
            "astId": 1689,
            "contract": "src/contracts/SummitAdminV2.sol:SummitAdminV2",
            "label": "referrals",
            "offset": 0,
            "slot": "2",
            "type": "t_contract(ISummitReferrals)2383"
          },
          {
            "astId": 1692,
            "contract": "src/contracts/SummitAdminV2.sol:SummitAdminV2",
            "label": "points",
            "offset": 0,
            "slot": "3",
            "type": "t_contract(ISummitPoints)2204"
          },
          {
            "astId": 1725,
            "contract": "src/contracts/SummitAdminV2.sol:SummitAdminV2",
            "label": "initialized",
            "offset": 20,
            "slot": "3",
            "type": "t_bool"
          },
          {
            "astId": 1727,
            "contract": "src/contracts/SummitAdminV2.sol:SummitAdminV2",
            "label": "governor",
            "offset": 0,
            "slot": "4",
            "type": "t_address"
          }
        ],
        "types": {
          "t_address": {
            "encoding": "inplace",
            "label": "address",
            "numberOfBytes": "20"
          },
          "t_bool": {
            "encoding": "inplace",
            "label": "bool",
            "numberOfBytes": "1"
          },
          "t_bytes32": {
            "encoding": "inplace",
            "label": "bytes32",
            "numberOfBytes": "32"
          },
          "t_contract(ISummitPoints)2204": {
            "encoding": "inplace",
            "label": "contract ISummitPoints",
            "numberOfBytes": "20"
          },
          "t_contract(ISummitReferrals)2383": {
            "encoding": "inplace",
            "label": "contract ISummitReferrals",
            "numberOfBytes": "20"
          },
          "t_contract(ISummitRouterExt)1681": {
            "encoding": "inplace",
            "label": "contract ISummitRouterExt",
            "numberOfBytes": "20"
          },
          "t_mapping(t_address,t_bool)": {
            "encoding": "mapping",
            "key": "t_address",
            "label": "mapping(address => bool)",
            "numberOfBytes": "32",
            "value": "t_bool"
          },
          "t_mapping(t_bytes32,t_struct(RoleData)19_storage)": {
            "encoding": "mapping",
            "key": "t_bytes32",
            "label": "mapping(bytes32 => struct AccessControl.RoleData)",
            "numberOfBytes": "32",
            "value": "t_struct(RoleData)19_storage"
          },
          "t_struct(RoleData)19_storage": {
            "encoding": "inplace",
            "label": "struct AccessControl.RoleData",
            "members": [
              {
                "astId": 16,
                "contract": "src/contracts/SummitAdminV2.sol:SummitAdminV2",
                "label": "members",
                "offset": 0,
                "slot": "0",
                "type": "t_mapping(t_address,t_bool)"
              },
              {
                "astId": 18,
                "contract": "src/contracts/SummitAdminV2.sol:SummitAdminV2",
                "label": "adminRole",
                "offset": 0,
                "slot": "1",
                "type": "t_bytes32"
              }
            ],
            "numberOfBytes": "64"
          }
        }
      }
    }
  }
}